{
	"LendingContract.sol": {
		"LendingContract": {
			"abi": [
				{
					"inputs": [
						{
							"internalType": "uint256",
							"name": "x",
							"type": "uint256"
						}
					],
					"name": "PRBMathUD60x18__Exp2InputTooBig",
					"type": "error"
				},
				{
					"inputs": [
						{
							"internalType": "uint256",
							"name": "x",
							"type": "uint256"
						}
					],
					"name": "PRBMathUD60x18__LogInputTooSmall",
					"type": "error"
				},
				{
					"inputs": [
						{
							"internalType": "uint256",
							"name": "prod1",
							"type": "uint256"
						}
					],
					"name": "PRBMath__MulDivFixedPointOverflow",
					"type": "error"
				},
				{
					"anonymous": false,
					"inputs": [
						{
							"indexed": true,
							"internalType": "address",
							"name": "user",
							"type": "address"
						},
						{
							"indexed": false,
							"internalType": "uint256",
							"name": "amount",
							"type": "uint256"
						}
					],
					"name": "Borrowed",
					"type": "event"
				},
				{
					"anonymous": false,
					"inputs": [
						{
							"indexed": true,
							"internalType": "address",
							"name": "user",
							"type": "address"
						},
						{
							"indexed": false,
							"internalType": "uint256",
							"name": "amount",
							"type": "uint256"
						}
					],
					"name": "CollateralAdded",
					"type": "event"
				},
				{
					"anonymous": false,
					"inputs": [
						{
							"indexed": true,
							"internalType": "address",
							"name": "user",
							"type": "address"
						},
						{
							"indexed": false,
							"internalType": "uint256",
							"name": "amount",
							"type": "uint256"
						}
					],
					"name": "CollateralRemoved",
					"type": "event"
				},
				{
					"anonymous": false,
					"inputs": [
						{
							"indexed": true,
							"internalType": "address",
							"name": "user",
							"type": "address"
						},
						{
							"indexed": false,
							"internalType": "uint256",
							"name": "amount",
							"type": "uint256"
						}
					],
					"name": "LiquidationOccurred",
					"type": "event"
				},
				{
					"anonymous": false,
					"inputs": [
						{
							"indexed": true,
							"internalType": "address",
							"name": "user",
							"type": "address"
						},
						{
							"indexed": false,
							"internalType": "uint256",
							"name": "amount",
							"type": "uint256"
						}
					],
					"name": "Repaid",
					"type": "event"
				},
				{
					"anonymous": false,
					"inputs": [
						{
							"indexed": true,
							"internalType": "address",
							"name": "user",
							"type": "address"
						},
						{
							"indexed": false,
							"internalType": "uint256",
							"name": "amount",
							"type": "uint256"
						}
					],
					"name": "Supplied",
					"type": "event"
				},
				{
					"anonymous": false,
					"inputs": [
						{
							"indexed": true,
							"internalType": "address",
							"name": "user",
							"type": "address"
						},
						{
							"indexed": false,
							"internalType": "uint256",
							"name": "amount",
							"type": "uint256"
						}
					],
					"name": "Withdrawn",
					"type": "event"
				},
				{
					"inputs": [],
					"name": "addCollateral",
					"outputs": [],
					"stateMutability": "payable",
					"type": "function"
				},
				{
					"inputs": [
						{
							"internalType": "uint256",
							"name": "amount",
							"type": "uint256"
						}
					],
					"name": "borrow",
					"outputs": [],
					"stateMutability": "nonpayable",
					"type": "function"
				},
				{
					"inputs": [
						{
							"internalType": "address",
							"name": "user",
							"type": "address"
						}
					],
					"name": "getAccountInfo",
					"outputs": [
						{
							"internalType": "uint256",
							"name": "supplyBalance",
							"type": "uint256"
						},
						{
							"internalType": "uint256",
							"name": "borrowBalance",
							"type": "uint256"
						},
						{
							"internalType": "uint256",
							"name": "collateralAmount",
							"type": "uint256"
						},
						{
							"internalType": "uint256",
							"name": "borrowLimit",
							"type": "uint256"
						}
					],
					"stateMutability": "view",
					"type": "function"
				},
				{
					"inputs": [],
					"name": "getProtocolStatus",
					"outputs": [
						{
							"internalType": "uint256",
							"name": "_totalSupplied",
							"type": "uint256"
						},
						{
							"internalType": "uint256",
							"name": "_totalBorrowed",
							"type": "uint256"
						},
						{
							"internalType": "uint256",
							"name": "_availableLiquidity",
							"type": "uint256"
						},
						{
							"internalType": "uint256",
							"name": "_utilizationRate",
							"type": "uint256"
						}
					],
					"stateMutability": "view",
					"type": "function"
				},
				{
					"inputs": [
						{
							"internalType": "address",
							"name": "borrower",
							"type": "address"
						}
					],
					"name": "liquidate",
					"outputs": [],
					"stateMutability": "nonpayable",
					"type": "function"
				},
				{
					"inputs": [
						{
							"internalType": "uint256",
							"name": "amount",
							"type": "uint256"
						}
					],
					"name": "removeCollateral",
					"outputs": [],
					"stateMutability": "nonpayable",
					"type": "function"
				},
				{
					"inputs": [],
					"name": "repay",
					"outputs": [],
					"stateMutability": "payable",
					"type": "function"
				},
				{
					"inputs": [],
					"name": "supply",
					"outputs": [],
					"stateMutability": "payable",
					"type": "function"
				},
				{
					"inputs": [
						{
							"internalType": "uint256",
							"name": "amount",
							"type": "uint256"
						}
					],
					"name": "withdraw",
					"outputs": [],
					"stateMutability": "nonpayable",
					"type": "function"
				}
			],
			"devdoc": {
				"kind": "dev",
				"methods": {},
				"version": 1
			},
			"evm": {
				"assembly": "    /* \"LendingContract.sol\":108:8776  contract LendingContract {... */\n  mstore(0x40, 0x80)\n  callvalue\n  dup1\n  iszero\n  tag_1\n  jumpi\n  0x00\n  dup1\n  revert\ntag_1:\n  pop\n  dataSize(sub_0)\n  dup1\n  dataOffset(sub_0)\n  0x00\n  codecopy\n  0x00\n  return\nstop\n\nsub_0: assembly {\n        /* \"LendingContract.sol\":108:8776  contract LendingContract {... */\n      mstore(0x40, 0x80)\n      jumpi(tag_1, lt(calldatasize, 0x04))\n      shr(0xe0, calldataload(0x00))\n      dup1\n      0x402d8883\n      gt\n      tag_11\n      jumpi\n      dup1\n      0x402d8883\n      eq\n      tag_6\n      jumpi\n      dup1\n      0x5fd7f162\n      eq\n      tag_7\n      jumpi\n      dup1\n      0x7b510fe8\n      eq\n      tag_8\n      jumpi\n      dup1\n      0x9e816999\n      eq\n      tag_9\n      jumpi\n      dup1\n      0xc5ebeaec\n      eq\n      tag_10\n      jumpi\n      jump(tag_1)\n    tag_11:\n      dup1\n      0x047fc9aa\n      eq\n      tag_2\n      jumpi\n      dup1\n      0x2e1a7d4d\n      eq\n      tag_3\n      jumpi\n      dup1\n      0x2f865568\n      eq\n      tag_4\n      jumpi\n      dup1\n      0x3237c158\n      eq\n      tag_5\n      jumpi\n    tag_1:\n      0x00\n      dup1\n      revert\n        /* \"LendingContract.sol\":1531:1883  function supply() external payable {... */\n    tag_2:\n      tag_12\n      tag_13\n      jump\t// in\n    tag_12:\n      stop\n        /* \"LendingContract.sol\":1925:2518  function withdraw(uint256 amount) external {... */\n    tag_3:\n      callvalue\n      dup1\n      iszero\n      tag_14\n      jumpi\n      0x00\n      dup1\n      revert\n    tag_14:\n      pop\n      tag_15\n      0x04\n      dup1\n      calldatasize\n      sub\n      dup2\n      add\n      swap1\n      tag_16\n      swap2\n      swap1\n      tag_17\n      jump\t// in\n    tag_16:\n      tag_18\n      jump\t// in\n    tag_15:\n      stop\n        /* \"LendingContract.sol\":5337:5949  function liquidate(address borrower) external {... */\n    tag_4:\n      callvalue\n      dup1\n      iszero\n      tag_19\n      jumpi\n      0x00\n      dup1\n      revert\n    tag_19:\n      pop\n      tag_20\n      0x04\n      dup1\n      calldatasize\n      sub\n      dup2\n      add\n      swap1\n      tag_21\n      swap2\n      swap1\n      tag_22\n      jump\t// in\n    tag_21:\n      tag_23\n      jump\t// in\n    tag_20:\n      stop\n        /* \"LendingContract.sol\":2813:3486  function removeCollateral(uint256 amount) external {... */\n    tag_5:\n      callvalue\n      dup1\n      iszero\n      tag_24\n      jumpi\n      0x00\n      dup1\n      revert\n    tag_24:\n      pop\n      tag_25\n      0x04\n      dup1\n      calldatasize\n      sub\n      dup2\n      add\n      swap1\n      tag_26\n      swap2\n      swap1\n      tag_17\n      jump\t// in\n    tag_26:\n      tag_27\n      jump\t// in\n    tag_25:\n      stop\n        /* \"LendingContract.sol\":4155:4800  function repay() external payable {... */\n    tag_6:\n      tag_28\n      tag_29\n      jump\t// in\n    tag_28:\n      stop\n        /* \"LendingContract.sol\":8358:8774  function getProtocolStatus() external view returns ... */\n    tag_7:\n      callvalue\n      dup1\n      iszero\n      tag_30\n      jumpi\n      0x00\n      dup1\n      revert\n    tag_30:\n      pop\n      tag_31\n      tag_32\n      jump\t// in\n    tag_31:\n      mload(0x40)\n      tag_33\n      swap5\n      swap4\n      swap3\n      swap2\n      swap1\n      tag_34\n      jump\t// in\n    tag_33:\n      mload(0x40)\n      dup1\n      swap2\n      sub\n      swap1\n      return\n        /* \"LendingContract.sol\":7821:8352  function getAccountInfo(address user) external view returns (uint256 supplyBalance, uint256 borrowBalance, uint256 collateralAmount, uint256 borrowLimit) {... */\n    tag_8:\n      callvalue\n      dup1\n      iszero\n      tag_35\n      jumpi\n      0x00\n      dup1\n      revert\n    tag_35:\n      pop\n      tag_36\n      0x04\n      dup1\n      calldatasize\n      sub\n      dup2\n      add\n      swap1\n      tag_37\n      swap2\n      swap1\n      tag_22\n      jump\t// in\n    tag_37:\n      tag_38\n      jump\t// in\n    tag_36:\n      mload(0x40)\n      tag_39\n      swap5\n      swap4\n      swap3\n      swap2\n      swap1\n      tag_34\n      jump\t// in\n    tag_39:\n      mload(0x40)\n      dup1\n      swap2\n      sub\n      swap1\n      return\n        /* \"LendingContract.sol\":2592:2807  function addCollateral() external payable {... */\n    tag_9:\n      tag_40\n      tag_41\n      jump\t// in\n    tag_40:\n      stop\n        /* \"LendingContract.sol\":3492:4149  function borrow(uint256 amount) external {... */\n    tag_10:\n      callvalue\n      dup1\n      iszero\n      tag_42\n      jumpi\n      0x00\n      dup1\n      revert\n    tag_42:\n      pop\n      tag_43\n      0x04\n      dup1\n      calldatasize\n      sub\n      dup2\n      add\n      swap1\n      tag_44\n      swap2\n      swap1\n      tag_17\n      jump\t// in\n    tag_44:\n      tag_45\n      jump\t// in\n    tag_43:\n      stop\n        /* \"LendingContract.sol\":1531:1883  function supply() external payable {... */\n    tag_13:\n        /* \"LendingContract.sol\":1596:1597  0 */\n      0x00\n        /* \"LendingContract.sol\":1584:1593  msg.value */\n      callvalue\n        /* \"LendingContract.sol\":1584:1597  msg.value > 0 */\n      gt\n        /* \"LendingContract.sol\":1576:1630  require(msg.value > 0, \"Must supply at least 1 token\") */\n      tag_47\n      jumpi\n      mload(0x40)\n      0x08c379a000000000000000000000000000000000000000000000000000000000\n      dup2\n      mstore\n      0x04\n      add\n      tag_48\n      swap1\n      tag_49\n      jump\t// in\n    tag_48:\n      mload(0x40)\n      dup1\n      swap2\n      sub\n      swap1\n      revert\n    tag_47:\n        /* \"LendingContract.sol\":1672:1698  updateInterest(msg.sender) */\n      tag_50\n        /* \"LendingContract.sol\":1687:1697  msg.sender */\n      caller\n        /* \"LendingContract.sol\":1672:1686  updateInterest */\n      tag_51\n        /* \"LendingContract.sol\":1672:1698  updateInterest(msg.sender) */\n      jump\t// in\n    tag_50:\n        /* \"LendingContract.sol\":1771:1780  msg.value */\n      callvalue\n        /* \"LendingContract.sol\":1754:1767  totalSupplied */\n      0x04\n      0x00\n        /* \"LendingContract.sol\":1754:1780  totalSupplied += msg.value */\n      dup3\n      dup3\n      sload\n      tag_52\n      swap2\n      swap1\n      tag_53\n      jump\t// in\n    tag_52:\n      swap3\n      pop\n      pop\n      dup2\n      swap1\n      sstore\n      pop\n        /* \"LendingContract.sol\":1820:1829  msg.value */\n      callvalue\n        /* \"LendingContract.sol\":1790:1804  supplyBalances */\n      0x00\n        /* \"LendingContract.sol\":1790:1816  supplyBalances[msg.sender] */\n      dup1\n        /* \"LendingContract.sol\":1805:1815  msg.sender */\n      caller\n        /* \"LendingContract.sol\":1790:1816  supplyBalances[msg.sender] */\n      0xffffffffffffffffffffffffffffffffffffffff\n      and\n      0xffffffffffffffffffffffffffffffffffffffff\n      and\n      dup2\n      mstore\n      0x20\n      add\n      swap1\n      dup2\n      mstore\n      0x20\n      add\n      0x00\n      keccak256\n      0x00\n        /* \"LendingContract.sol\":1790:1829  supplyBalances[msg.sender] += msg.value */\n      dup3\n      dup3\n      sload\n      tag_54\n      swap2\n      swap1\n      tag_53\n      jump\t// in\n    tag_54:\n      swap3\n      pop\n      pop\n      dup2\n      swap1\n      sstore\n      pop\n        /* \"LendingContract.sol\":1854:1864  msg.sender */\n      caller\n        /* \"LendingContract.sol\":1845:1876  Supplied(msg.sender, msg.value) */\n      0xffffffffffffffffffffffffffffffffffffffff\n      and\n      0x6473c9f7da8f23a3d810f05b3e8fb3945f0ad17deadcc09e302cdf5d58e48fe7\n        /* \"LendingContract.sol\":1866:1875  msg.value */\n      callvalue\n        /* \"LendingContract.sol\":1845:1876  Supplied(msg.sender, msg.value) */\n      mload(0x40)\n      tag_55\n      swap2\n      swap1\n      tag_56\n      jump\t// in\n    tag_55:\n      mload(0x40)\n      dup1\n      swap2\n      sub\n      swap1\n      log2\n        /* \"LendingContract.sol\":1531:1883  function supply() external payable {... */\n      jump\t// out\n        /* \"LendingContract.sol\":1925:2518  function withdraw(uint256 amount) external {... */\n    tag_18:\n        /* \"LendingContract.sol\":2015:2016  0 */\n      0x00\n        /* \"LendingContract.sol\":1986:2000  supplyBalances */\n      dup1\n        /* \"LendingContract.sol\":1986:2012  supplyBalances[msg.sender] */\n      0x00\n        /* \"LendingContract.sol\":2001:2011  msg.sender */\n      caller\n        /* \"LendingContract.sol\":1986:2012  supplyBalances[msg.sender] */\n      0xffffffffffffffffffffffffffffffffffffffff\n      and\n      0xffffffffffffffffffffffffffffffffffffffff\n      and\n      dup2\n      mstore\n      0x20\n      add\n      swap1\n      dup2\n      mstore\n      0x20\n      add\n      0x00\n      keccak256\n      sload\n        /* \"LendingContract.sol\":1986:2016  supplyBalances[msg.sender] > 0 */\n      gt\n        /* \"LendingContract.sol\":1978:2041  require(supplyBalances[msg.sender] > 0, \"No token to withdraw\") */\n      tag_58\n      jumpi\n      mload(0x40)\n      0x08c379a000000000000000000000000000000000000000000000000000000000\n      dup2\n      mstore\n      0x04\n      add\n      tag_59\n      swap1\n      tag_60\n      jump\t// in\n    tag_59:\n      mload(0x40)\n      dup1\n      swap2\n      sub\n      swap1\n      revert\n    tag_58:\n        /* \"LendingContract.sol\":2103:2129  updateInterest(msg.sender) */\n      tag_61\n        /* \"LendingContract.sol\":2118:2128  msg.sender */\n      caller\n        /* \"LendingContract.sol\":2103:2117  updateInterest */\n      tag_51\n        /* \"LendingContract.sol\":2103:2129  updateInterest(msg.sender) */\n      jump\t// in\n    tag_61:\n        /* \"LendingContract.sol\":2178:2184  amount */\n      dup1\n        /* \"LendingContract.sol\":2148:2162  supplyBalances */\n      0x00\n        /* \"LendingContract.sol\":2148:2174  supplyBalances[msg.sender] */\n      dup1\n        /* \"LendingContract.sol\":2163:2173  msg.sender */\n      caller\n        /* \"LendingContract.sol\":2148:2174  supplyBalances[msg.sender] */\n      0xffffffffffffffffffffffffffffffffffffffff\n      and\n      0xffffffffffffffffffffffffffffffffffffffff\n      and\n      dup2\n      mstore\n      0x20\n      add\n      swap1\n      dup2\n      mstore\n      0x20\n      add\n      0x00\n      keccak256\n      sload\n        /* \"LendingContract.sol\":2148:2184  supplyBalances[msg.sender] >= amount */\n      lt\n      iszero\n        /* \"LendingContract.sol\":2140:2216  require(supplyBalances[msg.sender] >= amount, \"Insufficient supply balance\") */\n      tag_62\n      jumpi\n      mload(0x40)\n      0x08c379a000000000000000000000000000000000000000000000000000000000\n      dup2\n      mstore\n      0x04\n      add\n      tag_63\n      swap1\n      tag_64\n      jump\t// in\n    tag_63:\n      mload(0x40)\n      dup1\n      swap2\n      sub\n      swap1\n      revert\n    tag_62:\n        /* \"LendingContract.sol\":2259:2265  amount */\n      dup1\n        /* \"LendingContract.sol\":2234:2255  address(this).balance */\n      selfbalance\n        /* \"LendingContract.sol\":2234:2265  address(this).balance >= amount */\n      lt\n      iszero\n        /* \"LendingContract.sol\":2226:2298  require(address(this).balance >= amount, \"Insufficient balance in pool\") */\n      tag_65\n      jumpi\n      mload(0x40)\n      0x08c379a000000000000000000000000000000000000000000000000000000000\n      dup2\n      mstore\n      0x04\n      add\n      tag_66\n      swap1\n      tag_67\n      jump\t// in\n    tag_66:\n      mload(0x40)\n      dup1\n      swap2\n      sub\n      swap1\n      revert\n    tag_65:\n        /* \"LendingContract.sol\":2339:2345  amount */\n      dup1\n        /* \"LendingContract.sol\":2309:2323  supplyBalances */\n      0x00\n        /* \"LendingContract.sol\":2309:2335  supplyBalances[msg.sender] */\n      dup1\n        /* \"LendingContract.sol\":2324:2334  msg.sender */\n      caller\n        /* \"LendingContract.sol\":2309:2335  supplyBalances[msg.sender] */\n      0xffffffffffffffffffffffffffffffffffffffff\n      and\n      0xffffffffffffffffffffffffffffffffffffffff\n      and\n      dup2\n      mstore\n      0x20\n      add\n      swap1\n      dup2\n      mstore\n      0x20\n      add\n      0x00\n      keccak256\n      0x00\n        /* \"LendingContract.sol\":2309:2345  supplyBalances[msg.sender] -= amount */\n      dup3\n      dup3\n      sload\n      tag_68\n      swap2\n      swap1\n      tag_69\n      jump\t// in\n    tag_68:\n      swap3\n      pop\n      pop\n      dup2\n      swap1\n      sstore\n      pop\n        /* \"LendingContract.sol\":2372:2378  amount */\n      dup1\n        /* \"LendingContract.sol\":2355:2368  totalSupplied */\n      0x04\n      0x00\n        /* \"LendingContract.sol\":2355:2378  totalSupplied -= amount */\n      dup3\n      dup3\n      sload\n      tag_70\n      swap2\n      swap1\n      tag_69\n      jump\t// in\n    tag_70:\n      swap3\n      pop\n      pop\n      dup2\n      swap1\n      sstore\n      pop\n        /* \"LendingContract.sol\":2438:2448  msg.sender */\n      caller\n        /* \"LendingContract.sol\":2430:2458  payable(msg.sender).transfer */\n      0xffffffffffffffffffffffffffffffffffffffff\n      and\n        /* \"LendingContract.sol\":2430:2466  payable(msg.sender).transfer(amount) */\n      0x08fc\n        /* \"LendingContract.sol\":2459:2465  amount */\n      dup3\n        /* \"LendingContract.sol\":2430:2466  payable(msg.sender).transfer(amount) */\n      swap1\n      dup2\n      iszero\n      mul\n      swap1\n      mload(0x40)\n      0x00\n      mload(0x40)\n      dup1\n      dup4\n      sub\n      dup2\n      dup6\n      dup9\n      dup9\n      call\n      swap4\n      pop\n      pop\n      pop\n      pop\n      iszero\n      dup1\n      iszero\n      tag_72\n      jumpi\n      returndatasize\n      0x00\n      dup1\n      returndatacopy\n      revert(0x00, returndatasize)\n    tag_72:\n      pop\n        /* \"LendingContract.sol\":2492:2502  msg.sender */\n      caller\n        /* \"LendingContract.sol\":2482:2511  Withdrawn(msg.sender, amount) */\n      0xffffffffffffffffffffffffffffffffffffffff\n      and\n      0x7084f5476618d8e60b11ef0d7d3f06914655adb8793e28ff7f018d4c76d505d5\n        /* \"LendingContract.sol\":2504:2510  amount */\n      dup3\n        /* \"LendingContract.sol\":2482:2511  Withdrawn(msg.sender, amount) */\n      mload(0x40)\n      tag_73\n      swap2\n      swap1\n      tag_56\n      jump\t// in\n    tag_73:\n      mload(0x40)\n      dup1\n      swap2\n      sub\n      swap1\n      log2\n        /* \"LendingContract.sol\":1925:2518  function withdraw(uint256 amount) external {... */\n      pop\n      jump\t// out\n        /* \"LendingContract.sol\":5337:5949  function liquidate(address borrower) external {... */\n    tag_23:\n        /* \"LendingContract.sol\":5401:5423  canLiquidate(borrower) */\n      tag_75\n        /* \"LendingContract.sol\":5414:5422  borrower */\n      dup2\n        /* \"LendingContract.sol\":5401:5413  canLiquidate */\n      tag_76\n        /* \"LendingContract.sol\":5401:5423  canLiquidate(borrower) */\n      jump\t// in\n    tag_75:\n        /* \"LendingContract.sol\":5393:5457  require(canLiquidate(borrower), \"Borrower cannot be liquidated\") */\n      tag_77\n      jumpi\n      mload(0x40)\n      0x08c379a000000000000000000000000000000000000000000000000000000000\n      dup2\n      mstore\n      0x04\n      add\n      tag_78\n      swap1\n      tag_79\n      jump\t// in\n    tag_78:\n      mload(0x40)\n      dup1\n      swap2\n      sub\n      swap1\n      revert\n    tag_77:\n        /* \"LendingContract.sol\":5468:5492  updateInterest(borrower) */\n      tag_80\n        /* \"LendingContract.sol\":5483:5491  borrower */\n      dup2\n        /* \"LendingContract.sol\":5468:5482  updateInterest */\n      tag_51\n        /* \"LendingContract.sol\":5468:5492  updateInterest(borrower) */\n      jump\t// in\n    tag_80:\n        /* \"LendingContract.sol\":5503:5523  uint256 borrowAmount */\n      0x00\n        /* \"LendingContract.sol\":5526:5540  borrowBalances */\n      0x01\n        /* \"LendingContract.sol\":5526:5550  borrowBalances[borrower] */\n      0x00\n        /* \"LendingContract.sol\":5541:5549  borrower */\n      dup4\n        /* \"LendingContract.sol\":5526:5550  borrowBalances[borrower] */\n      0xffffffffffffffffffffffffffffffffffffffff\n      and\n      0xffffffffffffffffffffffffffffffffffffffff\n      and\n      dup2\n      mstore\n      0x20\n      add\n      swap1\n      dup2\n      mstore\n      0x20\n      add\n      0x00\n      keccak256\n      sload\n        /* \"LendingContract.sol\":5503:5550  uint256 borrowAmount = borrowBalances[borrower] */\n      swap1\n      pop\n        /* \"LendingContract.sol\":5560:5584  uint256 collateralAmount */\n      0x00\n        /* \"LendingContract.sol\":5587:5604  collateralAmounts */\n      0x02\n        /* \"LendingContract.sol\":5587:5614  collateralAmounts[borrower] */\n      0x00\n        /* \"LendingContract.sol\":5605:5613  borrower */\n      dup5\n        /* \"LendingContract.sol\":5587:5614  collateralAmounts[borrower] */\n      0xffffffffffffffffffffffffffffffffffffffff\n      and\n      0xffffffffffffffffffffffffffffffffffffffff\n      and\n      dup2\n      mstore\n      0x20\n      add\n      swap1\n      dup2\n      mstore\n      0x20\n      add\n      0x00\n      keccak256\n      sload\n        /* \"LendingContract.sol\":5560:5614  uint256 collateralAmount = collateralAmounts[borrower] */\n      swap1\n      pop\n        /* \"LendingContract.sol\":5691:5692  0 */\n      0x00\n        /* \"LendingContract.sol\":5664:5678  borrowBalances */\n      0x01\n        /* \"LendingContract.sol\":5664:5688  borrowBalances[borrower] */\n      0x00\n        /* \"LendingContract.sol\":5679:5687  borrower */\n      dup6\n        /* \"LendingContract.sol\":5664:5688  borrowBalances[borrower] */\n      0xffffffffffffffffffffffffffffffffffffffff\n      and\n      0xffffffffffffffffffffffffffffffffffffffff\n      and\n      dup2\n      mstore\n      0x20\n      add\n      swap1\n      dup2\n      mstore\n      0x20\n      add\n      0x00\n      keccak256\n        /* \"LendingContract.sol\":5664:5692  borrowBalances[borrower] = 0 */\n      dup2\n      swap1\n      sstore\n      pop\n        /* \"LendingContract.sol\":5732:5733  0 */\n      0x00\n        /* \"LendingContract.sol\":5702:5719  collateralAmounts */\n      0x02\n        /* \"LendingContract.sol\":5702:5729  collateralAmounts[borrower] */\n      0x00\n        /* \"LendingContract.sol\":5720:5728  borrower */\n      dup6\n        /* \"LendingContract.sol\":5702:5729  collateralAmounts[borrower] */\n      0xffffffffffffffffffffffffffffffffffffffff\n      and\n      0xffffffffffffffffffffffffffffffffffffffff\n      and\n      dup2\n      mstore\n      0x20\n      add\n      swap1\n      dup2\n      mstore\n      0x20\n      add\n      0x00\n      keccak256\n        /* \"LendingContract.sol\":5702:5733  collateralAmounts[borrower] = 0 */\n      dup2\n      swap1\n      sstore\n      pop\n        /* \"LendingContract.sol\":5760:5772  borrowAmount */\n      dup2\n        /* \"LendingContract.sol\":5743:5756  totalBorrowed */\n      0x05\n      0x00\n        /* \"LendingContract.sol\":5743:5772  totalBorrowed -= borrowAmount */\n      dup3\n      dup3\n      sload\n      tag_81\n      swap2\n      swap1\n      tag_69\n      jump\t// in\n    tag_81:\n      swap3\n      pop\n      pop\n      dup2\n      swap1\n      sstore\n      pop\n        /* \"LendingContract.sol\":5843:5851  borrower */\n      dup3\n        /* \"LendingContract.sol\":5835:5861  payable(borrower).transfer */\n      0xffffffffffffffffffffffffffffffffffffffff\n      and\n        /* \"LendingContract.sol\":5835:5879  payable(borrower).transfer(collateralAmount) */\n      0x08fc\n        /* \"LendingContract.sol\":5862:5878  collateralAmount */\n      dup3\n        /* \"LendingContract.sol\":5835:5879  payable(borrower).transfer(collateralAmount) */\n      swap1\n      dup2\n      iszero\n      mul\n      swap1\n      mload(0x40)\n      0x00\n      mload(0x40)\n      dup1\n      dup4\n      sub\n      dup2\n      dup6\n      dup9\n      dup9\n      call\n      swap4\n      pop\n      pop\n      pop\n      pop\n      iszero\n      dup1\n      iszero\n      tag_83\n      jumpi\n      returndatasize\n      0x00\n      dup1\n      returndatacopy\n      revert(0x00, returndatasize)\n    tag_83:\n      pop\n        /* \"LendingContract.sol\":5915:5923  borrower */\n      dup3\n        /* \"LendingContract.sol\":5895:5942  LiquidationOccurred(borrower, collateralAmount) */\n      0xffffffffffffffffffffffffffffffffffffffff\n      and\n      0xff09e04a5a43921171a2fe9933986fc6d31b14e40cad3a5828d17f85118f2f21\n        /* \"LendingContract.sol\":5925:5941  collateralAmount */\n      dup3\n        /* \"LendingContract.sol\":5895:5942  LiquidationOccurred(borrower, collateralAmount) */\n      mload(0x40)\n      tag_84\n      swap2\n      swap1\n      tag_56\n      jump\t// in\n    tag_84:\n      mload(0x40)\n      dup1\n      swap2\n      sub\n      swap1\n      log2\n        /* \"LendingContract.sol\":5383:5949  {... */\n      pop\n      pop\n        /* \"LendingContract.sol\":5337:5949  function liquidate(address borrower) external {... */\n      pop\n      jump\t// out\n        /* \"LendingContract.sol\":2813:3486  function removeCollateral(uint256 amount) external {... */\n    tag_27:\n        /* \"LendingContract.sol\":2891:2892  0 */\n      0x00\n        /* \"LendingContract.sol\":2882:2888  amount */\n      dup2\n        /* \"LendingContract.sol\":2882:2892  amount > 0 */\n      gt\n        /* \"LendingContract.sol\":2874:2923  require(amount > 0, \"Cannot remove 0 collateral\") */\n      tag_86\n      jumpi\n      mload(0x40)\n      0x08c379a000000000000000000000000000000000000000000000000000000000\n      dup2\n      mstore\n      0x04\n      add\n      tag_87\n      swap1\n      tag_88\n      jump\t// in\n    tag_87:\n      mload(0x40)\n      dup1\n      swap2\n      sub\n      swap1\n      revert\n    tag_86:\n        /* \"LendingContract.sol\":2974:2980  amount */\n      dup1\n        /* \"LendingContract.sol\":2941:2958  collateralAmounts */\n      0x02\n        /* \"LendingContract.sol\":2941:2970  collateralAmounts[msg.sender] */\n      0x00\n        /* \"LendingContract.sol\":2959:2969  msg.sender */\n      caller\n        /* \"LendingContract.sol\":2941:2970  collateralAmounts[msg.sender] */\n      0xffffffffffffffffffffffffffffffffffffffff\n      and\n      0xffffffffffffffffffffffffffffffffffffffff\n      and\n      dup2\n      mstore\n      0x20\n      add\n      swap1\n      dup2\n      mstore\n      0x20\n      add\n      0x00\n      keccak256\n      sload\n        /* \"LendingContract.sol\":2941:2980  collateralAmounts[msg.sender] >= amount */\n      lt\n      iszero\n        /* \"LendingContract.sol\":2933:3008  require(collateralAmounts[msg.sender] >= amount, \"Insufficient Collateral\") */\n      tag_89\n      jumpi\n      mload(0x40)\n      0x08c379a000000000000000000000000000000000000000000000000000000000\n      dup2\n      mstore\n      0x04\n      add\n      tag_90\n      swap1\n      tag_91\n      jump\t// in\n    tag_90:\n      mload(0x40)\n      dup1\n      swap2\n      sub\n      swap1\n      revert\n    tag_89:\n        /* \"LendingContract.sol\":3071:3097  updateInterest(msg.sender) */\n      tag_92\n        /* \"LendingContract.sol\":3086:3096  msg.sender */\n      caller\n        /* \"LendingContract.sol\":3071:3085  updateInterest */\n      tag_51\n        /* \"LendingContract.sol\":3071:3097  updateInterest(msg.sender) */\n      jump\t// in\n    tag_92:\n        /* \"LendingContract.sol\":3108:3134  uint256 requiredCollateral */\n      0x00\n        /* \"LendingContract.sol\":3189:3194  10000 */\n      0x2710\n        /* \"LendingContract.sol\":776:781  15000 */\n      0x3a98\n        /* \"LendingContract.sol\":3138:3152  borrowBalances */\n      0x01\n        /* \"LendingContract.sol\":3138:3164  borrowBalances[msg.sender] */\n      0x00\n        /* \"LendingContract.sol\":3153:3163  msg.sender */\n      caller\n        /* \"LendingContract.sol\":3138:3164  borrowBalances[msg.sender] */\n      0xffffffffffffffffffffffffffffffffffffffff\n      and\n      0xffffffffffffffffffffffffffffffffffffffff\n      and\n      dup2\n      mstore\n      0x20\n      add\n      swap1\n      dup2\n      mstore\n      0x20\n      add\n      0x00\n      keccak256\n      sload\n        /* \"LendingContract.sol\":3138:3185  borrowBalances[msg.sender] * COLLATERAL_PERCENT */\n      tag_93\n      swap2\n      swap1\n      tag_94\n      jump\t// in\n    tag_93:\n        /* \"LendingContract.sol\":3137:3194  (borrowBalances[msg.sender] * COLLATERAL_PERCENT) / 10000 */\n      tag_95\n      swap2\n      swap1\n      tag_96\n      jump\t// in\n    tag_95:\n        /* \"LendingContract.sol\":3108:3194  uint256 requiredCollateral = (borrowBalances[msg.sender] * COLLATERAL_PERCENT) / 10000 */\n      swap1\n      pop\n        /* \"LendingContract.sol\":3254:3272  requiredCollateral */\n      dup1\n        /* \"LendingContract.sol\":3244:3250  amount */\n      dup3\n        /* \"LendingContract.sol\":3212:3229  collateralAmounts */\n      0x02\n        /* \"LendingContract.sol\":3212:3241  collateralAmounts[msg.sender] */\n      0x00\n        /* \"LendingContract.sol\":3230:3240  msg.sender */\n      caller\n        /* \"LendingContract.sol\":3212:3241  collateralAmounts[msg.sender] */\n      0xffffffffffffffffffffffffffffffffffffffff\n      and\n      0xffffffffffffffffffffffffffffffffffffffff\n      and\n      dup2\n      mstore\n      0x20\n      add\n      swap1\n      dup2\n      mstore\n      0x20\n      add\n      0x00\n      keccak256\n      sload\n        /* \"LendingContract.sol\":3212:3250  collateralAmounts[msg.sender] - amount */\n      tag_97\n      swap2\n      swap1\n      tag_69\n      jump\t// in\n    tag_97:\n        /* \"LendingContract.sol\":3212:3272  collateralAmounts[msg.sender] - amount >= requiredCollateral */\n      lt\n      iszero\n        /* \"LendingContract.sol\":3204:3330  require(collateralAmounts[msg.sender] - amount >= requiredCollateral, \"Collateral removal would violate the lending protocol\") */\n      tag_98\n      jumpi\n      mload(0x40)\n      0x08c379a000000000000000000000000000000000000000000000000000000000\n      dup2\n      mstore\n      0x04\n      add\n      tag_99\n      swap1\n      tag_100\n      jump\t// in\n    tag_99:\n      mload(0x40)\n      dup1\n      swap2\n      sub\n      swap1\n      revert\n    tag_98:\n        /* \"LendingContract.sol\":3374:3380  amount */\n      dup2\n        /* \"LendingContract.sol\":3341:3358  collateralAmounts */\n      0x02\n        /* \"LendingContract.sol\":3341:3370  collateralAmounts[msg.sender] */\n      0x00\n        /* \"LendingContract.sol\":3359:3369  msg.sender */\n      caller\n        /* \"LendingContract.sol\":3341:3370  collateralAmounts[msg.sender] */\n      0xffffffffffffffffffffffffffffffffffffffff\n      and\n      0xffffffffffffffffffffffffffffffffffffffff\n      and\n      dup2\n      mstore\n      0x20\n      add\n      swap1\n      dup2\n      mstore\n      0x20\n      add\n      0x00\n      keccak256\n      0x00\n        /* \"LendingContract.sol\":3341:3380  collateralAmounts[msg.sender] -= amount */\n      dup3\n      dup3\n      sload\n      tag_101\n      swap2\n      swap1\n      tag_69\n      jump\t// in\n    tag_101:\n      swap3\n      pop\n      pop\n      dup2\n      swap1\n      sstore\n      pop\n        /* \"LendingContract.sol\":3398:3408  msg.sender */\n      caller\n        /* \"LendingContract.sol\":3390:3418  payable(msg.sender).transfer */\n      0xffffffffffffffffffffffffffffffffffffffff\n      and\n        /* \"LendingContract.sol\":3390:3426  payable(msg.sender).transfer(amount) */\n      0x08fc\n        /* \"LendingContract.sol\":3419:3425  amount */\n      dup4\n        /* \"LendingContract.sol\":3390:3426  payable(msg.sender).transfer(amount) */\n      swap1\n      dup2\n      iszero\n      mul\n      swap1\n      mload(0x40)\n      0x00\n      mload(0x40)\n      dup1\n      dup4\n      sub\n      dup2\n      dup6\n      dup9\n      dup9\n      call\n      swap4\n      pop\n      pop\n      pop\n      pop\n      iszero\n      dup1\n      iszero\n      tag_103\n      jumpi\n      returndatasize\n      0x00\n      dup1\n      returndatacopy\n      revert(0x00, returndatasize)\n    tag_103:\n      pop\n        /* \"LendingContract.sol\":3460:3470  msg.sender */\n      caller\n        /* \"LendingContract.sol\":3442:3479  CollateralRemoved(msg.sender, amount) */\n      0xffffffffffffffffffffffffffffffffffffffff\n      and\n      0x12c7466676da8453fdc8fb091f1a24d31919043a79a50ebe022867a5f5c1ed34\n        /* \"LendingContract.sol\":3472:3478  amount */\n      dup4\n        /* \"LendingContract.sol\":3442:3479  CollateralRemoved(msg.sender, amount) */\n      mload(0x40)\n      tag_104\n      swap2\n      swap1\n      tag_56\n      jump\t// in\n    tag_104:\n      mload(0x40)\n      dup1\n      swap2\n      sub\n      swap1\n      log2\n        /* \"LendingContract.sol\":2864:3486  {... */\n      pop\n        /* \"LendingContract.sol\":2813:3486  function removeCollateral(uint256 amount) external {... */\n      pop\n      jump\t// out\n        /* \"LendingContract.sol\":4155:4800  function repay() external payable {... */\n    tag_29:\n        /* \"LendingContract.sol\":4219:4220  0 */\n      0x00\n        /* \"LendingContract.sol\":4207:4216  msg.value */\n      callvalue\n        /* \"LendingContract.sol\":4207:4220  msg.value > 0 */\n      gt\n        /* \"LendingContract.sol\":4199:4246  require(msg.value > 0, \"Cannot repay 0 amount\") */\n      tag_106\n      jumpi\n      mload(0x40)\n      0x08c379a000000000000000000000000000000000000000000000000000000000\n      dup2\n      mstore\n      0x04\n      add\n      tag_107\n      swap1\n      tag_108\n      jump\t// in\n    tag_107:\n      mload(0x40)\n      dup1\n      swap2\n      sub\n      swap1\n      revert\n    tag_106:\n        /* \"LendingContract.sol\":4314:4340  updateInterest(msg.sender) */\n      tag_109\n        /* \"LendingContract.sol\":4329:4339  msg.sender */\n      caller\n        /* \"LendingContract.sol\":4314:4328  updateInterest */\n      tag_51\n        /* \"LendingContract.sol\":4314:4340  updateInterest(msg.sender) */\n      jump\t// in\n    tag_109:\n        /* \"LendingContract.sol\":4367:4381  borrowBalances */\n      0x01\n        /* \"LendingContract.sol\":4367:4393  borrowBalances[msg.sender] */\n      0x00\n        /* \"LendingContract.sol\":4382:4392  msg.sender */\n      caller\n        /* \"LendingContract.sol\":4367:4393  borrowBalances[msg.sender] */\n      0xffffffffffffffffffffffffffffffffffffffff\n      and\n      0xffffffffffffffffffffffffffffffffffffffff\n      and\n      dup2\n      mstore\n      0x20\n      add\n      swap1\n      dup2\n      mstore\n      0x20\n      add\n      0x00\n      keccak256\n      sload\n        /* \"LendingContract.sol\":4355:4364  msg.value */\n      callvalue\n        /* \"LendingContract.sol\":4355:4393  msg.value > borrowBalances[msg.sender] */\n      gt\n        /* \"LendingContract.sol\":4351:4663  if (msg.value > borrowBalances[msg.sender]) {... */\n      iszero\n      tag_110\n      jumpi\n        /* \"LendingContract.sol\":4409:4428  uint256 repayAmount */\n      0x00\n        /* \"LendingContract.sol\":4431:4445  borrowBalances */\n      0x01\n        /* \"LendingContract.sol\":4431:4457  borrowBalances[msg.sender] */\n      0x00\n        /* \"LendingContract.sol\":4446:4456  msg.sender */\n      caller\n        /* \"LendingContract.sol\":4431:4457  borrowBalances[msg.sender] */\n      0xffffffffffffffffffffffffffffffffffffffff\n      and\n      0xffffffffffffffffffffffffffffffffffffffff\n      and\n      dup2\n      mstore\n      0x20\n      add\n      swap1\n      dup2\n      mstore\n      0x20\n      add\n      0x00\n      keccak256\n      sload\n        /* \"LendingContract.sol\":4409:4457  uint256 repayAmount = borrowBalances[msg.sender] */\n      swap1\n      pop\n        /* \"LendingContract.sol\":4512:4532  uint256 refundAmount */\n      0x00\n        /* \"LendingContract.sol\":4547:4558  repayAmount */\n      dup2\n        /* \"LendingContract.sol\":4535:4544  msg.value */\n      callvalue\n        /* \"LendingContract.sol\":4535:4558  msg.value - repayAmount */\n      tag_111\n      swap2\n      swap1\n      tag_69\n      jump\t// in\n    tag_111:\n        /* \"LendingContract.sol\":4512:4558  uint256 refundAmount = msg.value - repayAmount */\n      swap1\n      pop\n        /* \"LendingContract.sol\":4591:4592  0 */\n      0x00\n        /* \"LendingContract.sol\":4576:4588  refundAmount */\n      dup2\n        /* \"LendingContract.sol\":4576:4592  refundAmount > 0 */\n      gt\n        /* \"LendingContract.sol\":4572:4652  if (refundAmount > 0)... */\n      iszero\n      tag_112\n      jumpi\n        /* \"LendingContract.sol\":4618:4628  msg.sender */\n      caller\n        /* \"LendingContract.sol\":4610:4638  payable(msg.sender).transfer */\n      0xffffffffffffffffffffffffffffffffffffffff\n      and\n        /* \"LendingContract.sol\":4610:4652  payable(msg.sender).transfer(refundAmount) */\n      0x08fc\n        /* \"LendingContract.sol\":4639:4651  refundAmount */\n      dup3\n        /* \"LendingContract.sol\":4610:4652  payable(msg.sender).transfer(refundAmount) */\n      swap1\n      dup2\n      iszero\n      mul\n      swap1\n      mload(0x40)\n      0x00\n      mload(0x40)\n      dup1\n      dup4\n      sub\n      dup2\n      dup6\n      dup9\n      dup9\n      call\n      swap4\n      pop\n      pop\n      pop\n      pop\n      iszero\n      dup1\n      iszero\n      tag_114\n      jumpi\n      returndatasize\n      0x00\n      dup1\n      returndatacopy\n      revert(0x00, returndatasize)\n    tag_114:\n      pop\n        /* \"LendingContract.sol\":4572:4652  if (refundAmount > 0)... */\n    tag_112:\n        /* \"LendingContract.sol\":4395:4663  {... */\n      pop\n      pop\n        /* \"LendingContract.sol\":4351:4663  if (msg.value > borrowBalances[msg.sender]) {... */\n    tag_110:\n        /* \"LendingContract.sol\":4703:4712  msg.value */\n      callvalue\n        /* \"LendingContract.sol\":4673:4687  borrowBalances */\n      0x01\n        /* \"LendingContract.sol\":4673:4699  borrowBalances[msg.sender] */\n      0x00\n        /* \"LendingContract.sol\":4688:4698  msg.sender */\n      caller\n        /* \"LendingContract.sol\":4673:4699  borrowBalances[msg.sender] */\n      0xffffffffffffffffffffffffffffffffffffffff\n      and\n      0xffffffffffffffffffffffffffffffffffffffff\n      and\n      dup2\n      mstore\n      0x20\n      add\n      swap1\n      dup2\n      mstore\n      0x20\n      add\n      0x00\n      keccak256\n      0x00\n        /* \"LendingContract.sol\":4673:4712  borrowBalances[msg.sender] -= msg.value */\n      dup3\n      dup3\n      sload\n      tag_115\n      swap2\n      swap1\n      tag_69\n      jump\t// in\n    tag_115:\n      swap3\n      pop\n      pop\n      dup2\n      swap1\n      sstore\n      pop\n        /* \"LendingContract.sol\":4739:4748  msg.value */\n      callvalue\n        /* \"LendingContract.sol\":4722:4735  totalBorrowed */\n      0x05\n      0x00\n        /* \"LendingContract.sol\":4722:4748  totalBorrowed -= msg.value */\n      dup3\n      dup3\n      sload\n      tag_116\n      swap2\n      swap1\n      tag_69\n      jump\t// in\n    tag_116:\n      swap3\n      pop\n      pop\n      dup2\n      swap1\n      sstore\n      pop\n        /* \"LendingContract.sol\":4771:4781  msg.sender */\n      caller\n        /* \"LendingContract.sol\":4764:4793  Repaid(msg.sender, msg.value) */\n      0xffffffffffffffffffffffffffffffffffffffff\n      and\n      0x0516911bcc3a0a7412a44601057c0a0a1ec628bde049a84284bc428866534488\n        /* \"LendingContract.sol\":4783:4792  msg.value */\n      callvalue\n        /* \"LendingContract.sol\":4764:4793  Repaid(msg.sender, msg.value) */\n      mload(0x40)\n      tag_117\n      swap2\n      swap1\n      tag_56\n      jump\t// in\n    tag_117:\n      mload(0x40)\n      dup1\n      swap2\n      sub\n      swap1\n      log2\n        /* \"LendingContract.sol\":4155:4800  function repay() external payable {... */\n      jump\t// out\n        /* \"LendingContract.sol\":8358:8774  function getProtocolStatus() external view returns ... */\n    tag_32:\n        /* \"LendingContract.sol\":8415:8437  uint256 _totalSupplied */\n      0x00\n        /* \"LendingContract.sol\":8439:8461  uint256 _totalBorrowed */\n      dup1\n        /* \"LendingContract.sol\":8463:8490  uint256 _availableLiquidity */\n      0x00\n        /* \"LendingContract.sol\":8492:8516  uint256 _utilizationRate */\n      dup1\n        /* \"LendingContract.sol\":8574:8587  totalBorrowed */\n      sload(0x05)\n        /* \"LendingContract.sol\":8550:8571  address(this).balance */\n      selfbalance\n        /* \"LendingContract.sol\":8550:8587  address(this).balance - totalBorrowed */\n      tag_119\n      swap2\n      swap1\n      tag_69\n      jump\t// in\n    tag_119:\n        /* \"LendingContract.sol\":8528:8587  _availableLiquidity = address(this).balance - totalBorrowed */\n      swap2\n      pop\n        /* \"LendingContract.sol\":8632:8633  0 */\n      0x00\n        /* \"LendingContract.sol\":8616:8629  totalSupplied */\n      sload(0x04)\n        /* \"LendingContract.sol\":8616:8633  totalSupplied > 0 */\n      gt\n        /* \"LendingContract.sol\":8616:8678  totalSupplied > 0? (totalBorrowed * 10000) / totalSupplied : 0 */\n      tag_120\n      jumpi\n        /* \"LendingContract.sol\":8677:8678  0 */\n      0x00\n        /* \"LendingContract.sol\":8616:8678  totalSupplied > 0? (totalBorrowed * 10000) / totalSupplied : 0 */\n      jump(tag_121)\n    tag_120:\n        /* \"LendingContract.sol\":8661:8674  totalSupplied */\n      sload(0x04)\n        /* \"LendingContract.sol\":8652:8657  10000 */\n      0x2710\n        /* \"LendingContract.sol\":8636:8649  totalBorrowed */\n      sload(0x05)\n        /* \"LendingContract.sol\":8636:8657  totalBorrowed * 10000 */\n      tag_122\n      swap2\n      swap1\n      tag_94\n      jump\t// in\n    tag_122:\n        /* \"LendingContract.sol\":8635:8674  (totalBorrowed * 10000) / totalSupplied */\n      tag_123\n      swap2\n      swap1\n      tag_96\n      jump\t// in\n    tag_123:\n        /* \"LendingContract.sol\":8616:8678  totalSupplied > 0? (totalBorrowed * 10000) / totalSupplied : 0 */\n    tag_121:\n        /* \"LendingContract.sol\":8597:8678  _utilizationRate = totalSupplied > 0? (totalBorrowed * 10000) / totalSupplied : 0 */\n      swap1\n      pop\n        /* \"LendingContract.sol\":8358:8774  function getProtocolStatus() external view returns ... */\n      swap1\n      swap2\n      swap3\n      swap4\n      jump\t// out\n        /* \"LendingContract.sol\":7821:8352  function getAccountInfo(address user) external view returns (uint256 supplyBalance, uint256 borrowBalance, uint256 collateralAmount, uint256 borrowLimit) {... */\n    tag_38:\n        /* \"LendingContract.sol\":7882:7903  uint256 supplyBalance */\n      0x00\n        /* \"LendingContract.sol\":7905:7926  uint256 borrowBalance */\n      dup1\n        /* \"LendingContract.sol\":7928:7952  uint256 collateralAmount */\n      0x00\n        /* \"LendingContract.sol\":7954:7973  uint256 borrowLimit */\n      dup1\n        /* \"LendingContract.sol\":8001:8015  supplyBalances */\n      0x00\n        /* \"LendingContract.sol\":8001:8021  supplyBalances[user] */\n      dup1\n        /* \"LendingContract.sol\":8016:8020  user */\n      dup7\n        /* \"LendingContract.sol\":8001:8021  supplyBalances[user] */\n      0xffffffffffffffffffffffffffffffffffffffff\n      and\n      0xffffffffffffffffffffffffffffffffffffffff\n      and\n      dup2\n      mstore\n      0x20\n      add\n      swap1\n      dup2\n      mstore\n      0x20\n      add\n      0x00\n      keccak256\n      sload\n        /* \"LendingContract.sol\":7985:8021  supplyBalance = supplyBalances[user] */\n      swap4\n      pop\n        /* \"LendingContract.sol\":8047:8061  borrowBalances */\n      0x01\n        /* \"LendingContract.sol\":8047:8067  borrowBalances[user] */\n      0x00\n        /* \"LendingContract.sol\":8062:8066  user */\n      dup7\n        /* \"LendingContract.sol\":8047:8067  borrowBalances[user] */\n      0xffffffffffffffffffffffffffffffffffffffff\n      and\n      0xffffffffffffffffffffffffffffffffffffffff\n      and\n      dup2\n      mstore\n      0x20\n      add\n      swap1\n      dup2\n      mstore\n      0x20\n      add\n      0x00\n      keccak256\n      sload\n        /* \"LendingContract.sol\":8031:8067  borrowBalance = borrowBalances[user] */\n      swap3\n      pop\n        /* \"LendingContract.sol\":8096:8113  collateralAmounts */\n      0x02\n        /* \"LendingContract.sol\":8096:8119  collateralAmounts[user] */\n      0x00\n        /* \"LendingContract.sol\":8114:8118  user */\n      dup7\n        /* \"LendingContract.sol\":8096:8119  collateralAmounts[user] */\n      0xffffffffffffffffffffffffffffffffffffffff\n      and\n      0xffffffffffffffffffffffffffffffffffffffff\n      and\n      dup2\n      mstore\n      0x20\n      add\n      swap1\n      dup2\n      mstore\n      0x20\n      add\n      0x00\n      keccak256\n      sload\n        /* \"LendingContract.sol\":8077:8119  collateralAmount = collateralAmounts[user] */\n      swap2\n      pop\n        /* \"LendingContract.sol\":776:781  15000 */\n      0x3a98\n        /* \"LendingContract.sol\":8230:8235  10000 */\n      0x2710\n        /* \"LendingContract.sol\":8211:8227  collateralAmount */\n      dup4\n        /* \"LendingContract.sol\":8211:8235  collateralAmount * 10000 */\n      tag_125\n      swap2\n      swap1\n      tag_94\n      jump\t// in\n    tag_125:\n        /* \"LendingContract.sol\":8210:8257  (collateralAmount * 10000) / COLLATERAL_PERCENT */\n      tag_126\n      swap2\n      swap1\n      tag_96\n      jump\t// in\n    tag_126:\n        /* \"LendingContract.sol\":8196:8257  borrowLimit = (collateralAmount * 10000) / COLLATERAL_PERCENT */\n      swap1\n      pop\n        /* \"LendingContract.sol\":7821:8352  function getAccountInfo(address user) external view returns (uint256 supplyBalance, uint256 borrowBalance, uint256 collateralAmount, uint256 borrowLimit) {... */\n      swap2\n      swap4\n      pop\n      swap2\n      swap4\n      jump\t// out\n        /* \"LendingContract.sol\":2592:2807  function addCollateral() external payable {... */\n    tag_41:\n        /* \"LendingContract.sol\":2664:2665  0 */\n      0x00\n        /* \"LendingContract.sol\":2652:2661  msg.value */\n      callvalue\n        /* \"LendingContract.sol\":2652:2665  msg.value > 0 */\n      gt\n        /* \"LendingContract.sol\":2644:2693  require(msg.value > 0, \"Cannot add 0 collateral\") */\n      tag_128\n      jumpi\n      mload(0x40)\n      0x08c379a000000000000000000000000000000000000000000000000000000000\n      dup2\n      mstore\n      0x04\n      add\n      tag_129\n      swap1\n      tag_130\n      jump\t// in\n    tag_129:\n      mload(0x40)\n      dup1\n      swap2\n      sub\n      swap1\n      revert\n    tag_128:\n        /* \"LendingContract.sol\":2737:2746  msg.value */\n      callvalue\n        /* \"LendingContract.sol\":2704:2721  collateralAmounts */\n      0x02\n        /* \"LendingContract.sol\":2704:2733  collateralAmounts[msg.sender] */\n      0x00\n        /* \"LendingContract.sol\":2722:2732  msg.sender */\n      caller\n        /* \"LendingContract.sol\":2704:2733  collateralAmounts[msg.sender] */\n      0xffffffffffffffffffffffffffffffffffffffff\n      and\n      0xffffffffffffffffffffffffffffffffffffffff\n      and\n      dup2\n      mstore\n      0x20\n      add\n      swap1\n      dup2\n      mstore\n      0x20\n      add\n      0x00\n      keccak256\n      0x00\n        /* \"LendingContract.sol\":2704:2746  collateralAmounts[msg.sender] += msg.value */\n      dup3\n      dup3\n      sload\n      tag_131\n      swap2\n      swap1\n      tag_53\n      jump\t// in\n    tag_131:\n      swap3\n      pop\n      pop\n      dup2\n      swap1\n      sstore\n      pop\n        /* \"LendingContract.sol\":2778:2788  msg.sender */\n      caller\n        /* \"LendingContract.sol\":2762:2800  CollateralAdded(msg.sender, msg.value) */\n      0xffffffffffffffffffffffffffffffffffffffff\n      and\n      0x7dba1be544024070cd5eebfa8bdd80a8b198cea8058c7d3cc1f8dd36e41ab2f7\n        /* \"LendingContract.sol\":2790:2799  msg.value */\n      callvalue\n        /* \"LendingContract.sol\":2762:2800  CollateralAdded(msg.sender, msg.value) */\n      mload(0x40)\n      tag_132\n      swap2\n      swap1\n      tag_56\n      jump\t// in\n    tag_132:\n      mload(0x40)\n      dup1\n      swap2\n      sub\n      swap1\n      log2\n        /* \"LendingContract.sol\":2592:2807  function addCollateral() external payable {... */\n      jump\t// out\n        /* \"LendingContract.sol\":3492:4149  function borrow(uint256 amount) external {... */\n    tag_45:\n        /* \"LendingContract.sol\":3560:3561  0 */\n      0x00\n        /* \"LendingContract.sol\":3551:3557  amount */\n      dup2\n        /* \"LendingContract.sol\":3551:3561  amount > 0 */\n      gt\n        /* \"LendingContract.sol\":3543:3588  require(amount > 0, \"Cannot borrow 0 amount\") */\n      tag_134\n      jumpi\n      mload(0x40)\n      0x08c379a000000000000000000000000000000000000000000000000000000000\n      dup2\n      mstore\n      0x04\n      add\n      tag_135\n      swap1\n      tag_136\n      jump\t// in\n    tag_135:\n      mload(0x40)\n      dup1\n      swap2\n      sub\n      swap1\n      revert\n    tag_134:\n        /* \"LendingContract.sol\":3667:3693  updateInterest(msg.sender) */\n      tag_137\n        /* \"LendingContract.sol\":3682:3692  msg.sender */\n      caller\n        /* \"LendingContract.sol\":3667:3681  updateInterest */\n      tag_51\n        /* \"LendingContract.sol\":3667:3693  updateInterest(msg.sender) */\n      jump\t// in\n    tag_137:\n        /* \"LendingContract.sol\":3704:3731  uint256 maxAmount_CanBorrow */\n      0x00\n        /* \"LendingContract.sol\":776:781  15000 */\n      0x3a98\n        /* \"LendingContract.sol\":3767:3772  10000 */\n      0x2710\n        /* \"LendingContract.sol\":3735:3752  collateralAmounts */\n      0x02\n        /* \"LendingContract.sol\":3735:3764  collateralAmounts[msg.sender] */\n      0x00\n        /* \"LendingContract.sol\":3753:3763  msg.sender */\n      caller\n        /* \"LendingContract.sol\":3735:3764  collateralAmounts[msg.sender] */\n      0xffffffffffffffffffffffffffffffffffffffff\n      and\n      0xffffffffffffffffffffffffffffffffffffffff\n      and\n      dup2\n      mstore\n      0x20\n      add\n      swap1\n      dup2\n      mstore\n      0x20\n      add\n      0x00\n      keccak256\n      sload\n        /* \"LendingContract.sol\":3735:3772  collateralAmounts[msg.sender] * 10000 */\n      tag_138\n      swap2\n      swap1\n      tag_94\n      jump\t// in\n    tag_138:\n        /* \"LendingContract.sol\":3734:3794  (collateralAmounts[msg.sender] * 10000) / COLLATERAL_PERCENT */\n      tag_139\n      swap2\n      swap1\n      tag_96\n      jump\t// in\n    tag_139:\n        /* \"LendingContract.sol\":3704:3794  uint256 maxAmount_CanBorrow = (collateralAmounts[msg.sender] * 10000) / COLLATERAL_PERCENT */\n      swap1\n      pop\n        /* \"LendingContract.sol\":3852:3871  maxAmount_CanBorrow */\n      dup1\n        /* \"LendingContract.sol\":3842:3848  amount */\n      dup3\n        /* \"LendingContract.sol\":3813:3827  borrowBalances */\n      0x01\n        /* \"LendingContract.sol\":3813:3839  borrowBalances[msg.sender] */\n      0x00\n        /* \"LendingContract.sol\":3828:3838  msg.sender */\n      caller\n        /* \"LendingContract.sol\":3813:3839  borrowBalances[msg.sender] */\n      0xffffffffffffffffffffffffffffffffffffffff\n      and\n      0xffffffffffffffffffffffffffffffffffffffff\n      and\n      dup2\n      mstore\n      0x20\n      add\n      swap1\n      dup2\n      mstore\n      0x20\n      add\n      0x00\n      keccak256\n      sload\n        /* \"LendingContract.sol\":3813:3848  borrowBalances[msg.sender] + amount */\n      tag_140\n      swap2\n      swap1\n      tag_53\n      jump\t// in\n    tag_140:\n        /* \"LendingContract.sol\":3813:3871  borrowBalances[msg.sender] + amount <= maxAmount_CanBorrow */\n      gt\n      iszero\n        /* \"LendingContract.sol\":3805:3914  require(borrowBalances[msg.sender] + amount <= maxAmount_CanBorrow, \"Borrow amount exceeds collateral ratio\") */\n      tag_141\n      jumpi\n      mload(0x40)\n      0x08c379a000000000000000000000000000000000000000000000000000000000\n      dup2\n      mstore\n      0x04\n      add\n      tag_142\n      swap1\n      tag_143\n      jump\t// in\n    tag_142:\n      mload(0x40)\n      dup1\n      swap2\n      sub\n      swap1\n      revert\n    tag_141:\n        /* \"LendingContract.sol\":3973:3979  amount */\n      dup2\n        /* \"LendingContract.sol\":3956:3969  totalBorrowed */\n      sload(0x05)\n        /* \"LendingContract.sol\":3932:3953  address(this).balance */\n      selfbalance\n        /* \"LendingContract.sol\":3932:3969  address(this).balance - totalBorrowed */\n      tag_144\n      swap2\n      swap1\n      tag_69\n      jump\t// in\n    tag_144:\n        /* \"LendingContract.sol\":3932:3979  address(this).balance - totalBorrowed >= amount */\n      lt\n      iszero\n        /* \"LendingContract.sol\":3924:4018  require(address(this).balance - totalBorrowed >= amount, \"Insufficient liquidity in contract\") */\n      tag_145\n      jumpi\n      mload(0x40)\n      0x08c379a000000000000000000000000000000000000000000000000000000000\n      dup2\n      mstore\n      0x04\n      add\n      tag_146\n      swap1\n      tag_147\n      jump\t// in\n    tag_146:\n      mload(0x40)\n      dup1\n      swap2\n      sub\n      swap1\n      revert\n    tag_145:\n        /* \"LendingContract.sol\":4059:4065  amount */\n      dup2\n        /* \"LendingContract.sol\":4029:4043  borrowBalances */\n      0x01\n        /* \"LendingContract.sol\":4029:4055  borrowBalances[msg.sender] */\n      0x00\n        /* \"LendingContract.sol\":4044:4054  msg.sender */\n      caller\n        /* \"LendingContract.sol\":4029:4055  borrowBalances[msg.sender] */\n      0xffffffffffffffffffffffffffffffffffffffff\n      and\n      0xffffffffffffffffffffffffffffffffffffffff\n      and\n      dup2\n      mstore\n      0x20\n      add\n      swap1\n      dup2\n      mstore\n      0x20\n      add\n      0x00\n      keccak256\n      0x00\n        /* \"LendingContract.sol\":4029:4065  borrowBalances[msg.sender] += amount */\n      dup3\n      dup3\n      sload\n      tag_148\n      swap2\n      swap1\n      tag_53\n      jump\t// in\n    tag_148:\n      swap3\n      pop\n      pop\n      dup2\n      swap1\n      sstore\n      pop\n        /* \"LendingContract.sol\":4092:4098  amount */\n      dup2\n        /* \"LendingContract.sol\":4075:4088  totalBorrowed */\n      0x05\n      0x00\n        /* \"LendingContract.sol\":4075:4098  totalBorrowed += amount */\n      dup3\n      dup3\n      sload\n      tag_149\n      swap2\n      swap1\n      tag_53\n      jump\t// in\n    tag_149:\n      swap3\n      pop\n      pop\n      dup2\n      swap1\n      sstore\n      pop\n        /* \"LendingContract.sol\":4123:4133  msg.sender */\n      caller\n        /* \"LendingContract.sol\":4114:4142  Borrowed(msg.sender, amount) */\n      0xffffffffffffffffffffffffffffffffffffffff\n      and\n      0xac59582e5396aca512fa873a2047e7f4c80f8f55d4a06cb34a78a0187f62719f\n        /* \"LendingContract.sol\":4135:4141  amount */\n      dup4\n        /* \"LendingContract.sol\":4114:4142  Borrowed(msg.sender, amount) */\n      mload(0x40)\n      tag_150\n      swap2\n      swap1\n      tag_56\n      jump\t// in\n    tag_150:\n      mload(0x40)\n      dup1\n      swap2\n      sub\n      swap1\n      log2\n        /* \"LendingContract.sol\":3533:4149  {... */\n      pop\n        /* \"LendingContract.sol\":3492:4149  function borrow(uint256 amount) external {... */\n      pop\n      jump\t// out\n        /* \"LendingContract.sol\":5955:7815  function updateInterest(address user) private {... */\n    tag_51:\n        /* \"LendingContract.sol\":6051:6069  uint256 lastUpdate */\n      0x00\n        /* \"LendingContract.sol\":6072:6099  lastInterestUpdateTimeStamp */\n      0x03\n        /* \"LendingContract.sol\":6072:6105  lastInterestUpdateTimeStamp[user] */\n      0x00\n        /* \"LendingContract.sol\":6100:6104  user */\n      dup4\n        /* \"LendingContract.sol\":6072:6105  lastInterestUpdateTimeStamp[user] */\n      0xffffffffffffffffffffffffffffffffffffffff\n      and\n      0xffffffffffffffffffffffffffffffffffffffff\n      and\n      dup2\n      mstore\n      0x20\n      add\n      swap1\n      dup2\n      mstore\n      0x20\n      add\n      0x00\n      keccak256\n      sload\n        /* \"LendingContract.sol\":6051:6105  uint256 lastUpdate = lastInterestUpdateTimeStamp[user] */\n      swap1\n      pop\n        /* \"LendingContract.sol\":6134:6135  0 */\n      0x00\n        /* \"LendingContract.sol\":6120:6130  lastUpdate */\n      dup2\n        /* \"LendingContract.sol\":6120:6135  lastUpdate == 0 */\n      sub\n        /* \"LendingContract.sol\":6116:6233  if (lastUpdate == 0) {... */\n      tag_152\n      jumpi\n        /* \"LendingContract.sol\":6187:6202  block.timestamp */\n      timestamp\n        /* \"LendingContract.sol\":6151:6178  lastInterestUpdateTimeStamp */\n      0x03\n        /* \"LendingContract.sol\":6151:6184  lastInterestUpdateTimeStamp[user] */\n      0x00\n        /* \"LendingContract.sol\":6179:6183  user */\n      dup5\n        /* \"LendingContract.sol\":6151:6184  lastInterestUpdateTimeStamp[user] */\n      0xffffffffffffffffffffffffffffffffffffffff\n      and\n      0xffffffffffffffffffffffffffffffffffffffff\n      and\n      dup2\n      mstore\n      0x20\n      add\n      swap1\n      dup2\n      mstore\n      0x20\n      add\n      0x00\n      keccak256\n        /* \"LendingContract.sol\":6151:6202  lastInterestUpdateTimeStamp[user] = block.timestamp */\n      dup2\n      swap1\n      sstore\n      pop\n        /* \"LendingContract.sol\":6216:6223  return; */\n      pop\n      jump(tag_151)\n        /* \"LendingContract.sol\":6116:6233  if (lastUpdate == 0) {... */\n    tag_152:\n        /* \"LendingContract.sol\":6243:6262  uint256 timeElapsed */\n      0x00\n        /* \"LendingContract.sol\":6283:6293  lastUpdate */\n      dup2\n        /* \"LendingContract.sol\":6265:6280  block.timestamp */\n      timestamp\n        /* \"LendingContract.sol\":6265:6293  block.timestamp - lastUpdate */\n      tag_153\n      swap2\n      swap1\n      tag_69\n      jump\t// in\n    tag_153:\n        /* \"LendingContract.sol\":6243:6293  uint256 timeElapsed = block.timestamp - lastUpdate */\n      swap1\n      pop\n        /* \"LendingContract.sol\":6303:6318  uint256 periods */\n      0x00\n        /* \"LendingContract.sol\":6336:6343  90 days */\n      0x76a700\n        /* \"LendingContract.sol\":6321:6332  timeElapsed */\n      dup3\n        /* \"LendingContract.sol\":6321:6344  timeElapsed / (90 days) */\n      tag_154\n      swap2\n      swap1\n      tag_96\n      jump\t// in\n    tag_154:\n        /* \"LendingContract.sol\":6303:6344  uint256 periods = timeElapsed / (90 days) */\n      swap1\n      pop\n        /* \"LendingContract.sol\":6486:6487  0 */\n      0x00\n        /* \"LendingContract.sol\":6476:6483  periods */\n      dup2\n        /* \"LendingContract.sol\":6476:6487  periods > 0 */\n      gt\n        /* \"LendingContract.sol\":6472:7747  if (periods > 0) {... */\n      iszero\n      tag_155\n      jumpi\n        /* \"LendingContract.sol\":6592:6593  0 */\n      0x00\n        /* \"LendingContract.sol\":6569:6583  borrowBalances */\n      0x01\n        /* \"LendingContract.sol\":6569:6589  borrowBalances[user] */\n      0x00\n        /* \"LendingContract.sol\":6584:6588  user */\n      dup7\n        /* \"LendingContract.sol\":6569:6589  borrowBalances[user] */\n      0xffffffffffffffffffffffffffffffffffffffff\n      and\n      0xffffffffffffffffffffffffffffffffffffffff\n      and\n      dup2\n      mstore\n      0x20\n      add\n      swap1\n      dup2\n      mstore\n      0x20\n      add\n      0x00\n      keccak256\n      sload\n        /* \"LendingContract.sol\":6569:6593  borrowBalances[user] > 0 */\n      gt\n        /* \"LendingContract.sol\":6565:7113  if (borrowBalances[user] > 0) {... */\n      iszero\n      tag_156\n      jumpi\n        /* \"LendingContract.sol\":6613:6640  uint256 borrowRatePerPeriod */\n      0x00\n        /* \"LendingContract.sol\":6676:6685  4 * 10000 */\n      0x9c40\n        /* \"LendingContract.sol\":6667:6671  1e18 */\n      0x0de0b6b3a7640000\n        /* \"LendingContract.sol\":835:838  500 */\n      0x01f4\n        /* \"LendingContract.sol\":6644:6671  BORROW_INTEREST_RATE * 1e18 */\n      tag_157\n      swap2\n      swap1\n      tag_94\n      jump\t// in\n    tag_157:\n        /* \"LendingContract.sol\":6643:6686  (BORROW_INTEREST_RATE * 1e18) / (4 * 10000) */\n      tag_158\n      swap2\n      swap1\n      tag_96\n      jump\t// in\n    tag_158:\n        /* \"LendingContract.sol\":6613:6686  uint256 borrowRatePerPeriod = (BORROW_INTEREST_RATE * 1e18) / (4 * 10000) */\n      swap1\n      pop\n        /* \"LendingContract.sol\":6704:6728  uint256 borrowMultiplier */\n      0x00\n        /* \"LendingContract.sol\":6731:6864  PRBMathUD60x18.exp2(... */\n      tag_159\n        /* \"LendingContract.sol\":6772:6846  PRBMathUD60x18.mul(PRBMathUD60x18.ln(1e18 + borrowRatePerPeriod), periods) */\n      tag_160\n        /* \"LendingContract.sol\":6791:6836  PRBMathUD60x18.ln(1e18 + borrowRatePerPeriod) */\n      tag_161\n        /* \"LendingContract.sol\":6816:6835  borrowRatePerPeriod */\n      dup5\n        /* \"LendingContract.sol\":6809:6813  1e18 */\n      0x0de0b6b3a7640000\n        /* \"LendingContract.sol\":6809:6835  1e18 + borrowRatePerPeriod */\n      tag_162\n      swap2\n      swap1\n      tag_53\n      jump\t// in\n    tag_162:\n        /* \"LendingContract.sol\":6791:6808  PRBMathUD60x18.ln */\n      tag_163\n        /* \"LendingContract.sol\":6791:6836  PRBMathUD60x18.ln(1e18 + borrowRatePerPeriod) */\n      jump\t// in\n    tag_161:\n        /* \"LendingContract.sol\":6838:6845  periods */\n      dup6\n        /* \"LendingContract.sol\":6772:6790  PRBMathUD60x18.mul */\n      tag_164\n        /* \"LendingContract.sol\":6772:6846  PRBMathUD60x18.mul(PRBMathUD60x18.ln(1e18 + borrowRatePerPeriod), periods) */\n      jump\t// in\n    tag_160:\n        /* \"LendingContract.sol\":6731:6750  PRBMathUD60x18.exp2 */\n      tag_165\n        /* \"LendingContract.sol\":6731:6864  PRBMathUD60x18.exp2(... */\n      jump\t// in\n    tag_159:\n        /* \"LendingContract.sol\":6704:6864  uint256 borrowMultiplier = PRBMathUD60x18.exp2(... */\n      swap1\n      pop\n        /* \"LendingContract.sol\":6882:6906  uint256 newBorrowBalance */\n      0x00\n        /* \"LendingContract.sol\":6909:6967  PRBMathUD60x18.mul(borrowBalances[user], borrowMultiplier) */\n      tag_166\n        /* \"LendingContract.sol\":6928:6942  borrowBalances */\n      0x01\n        /* \"LendingContract.sol\":6928:6948  borrowBalances[user] */\n      0x00\n        /* \"LendingContract.sol\":6943:6947  user */\n      dup10\n        /* \"LendingContract.sol\":6928:6948  borrowBalances[user] */\n      0xffffffffffffffffffffffffffffffffffffffff\n      and\n      0xffffffffffffffffffffffffffffffffffffffff\n      and\n      dup2\n      mstore\n      0x20\n      add\n      swap1\n      dup2\n      mstore\n      0x20\n      add\n      0x00\n      keccak256\n      sload\n        /* \"LendingContract.sol\":6950:6966  borrowMultiplier */\n      dup4\n        /* \"LendingContract.sol\":6909:6927  PRBMathUD60x18.mul */\n      tag_164\n        /* \"LendingContract.sol\":6909:6967  PRBMathUD60x18.mul(borrowBalances[user], borrowMultiplier) */\n      jump\t// in\n    tag_166:\n        /* \"LendingContract.sol\":6882:6967  uint256 newBorrowBalance = PRBMathUD60x18.mul(borrowBalances[user], borrowMultiplier) */\n      swap1\n      pop\n        /* \"LendingContract.sol\":7021:7035  borrowBalances */\n      0x01\n        /* \"LendingContract.sol\":7021:7041  borrowBalances[user] */\n      0x00\n        /* \"LendingContract.sol\":7036:7040  user */\n      dup9\n        /* \"LendingContract.sol\":7021:7041  borrowBalances[user] */\n      0xffffffffffffffffffffffffffffffffffffffff\n      and\n      0xffffffffffffffffffffffffffffffffffffffff\n      and\n      dup2\n      mstore\n      0x20\n      add\n      swap1\n      dup2\n      mstore\n      0x20\n      add\n      0x00\n      keccak256\n      sload\n        /* \"LendingContract.sol\":7002:7018  newBorrowBalance */\n      dup2\n        /* \"LendingContract.sol\":7002:7041  newBorrowBalance - borrowBalances[user] */\n      tag_167\n      swap2\n      swap1\n      tag_69\n      jump\t// in\n    tag_167:\n        /* \"LendingContract.sol\":6985:6998  totalBorrowed */\n      0x05\n      0x00\n        /* \"LendingContract.sol\":6985:7041  totalBorrowed += newBorrowBalance - borrowBalances[user] */\n      dup3\n      dup3\n      sload\n      tag_168\n      swap2\n      swap1\n      tag_53\n      jump\t// in\n    tag_168:\n      swap3\n      pop\n      pop\n      dup2\n      swap1\n      sstore\n      pop\n        /* \"LendingContract.sol\":7082:7098  newBorrowBalance */\n      dup1\n        /* \"LendingContract.sol\":7059:7073  borrowBalances */\n      0x01\n        /* \"LendingContract.sol\":7059:7079  borrowBalances[user] */\n      0x00\n        /* \"LendingContract.sol\":7074:7078  user */\n      dup10\n        /* \"LendingContract.sol\":7059:7079  borrowBalances[user] */\n      0xffffffffffffffffffffffffffffffffffffffff\n      and\n      0xffffffffffffffffffffffffffffffffffffffff\n      and\n      dup2\n      mstore\n      0x20\n      add\n      swap1\n      dup2\n      mstore\n      0x20\n      add\n      0x00\n      keccak256\n        /* \"LendingContract.sol\":7059:7098  borrowBalances[user] = newBorrowBalance */\n      dup2\n      swap1\n      sstore\n      pop\n        /* \"LendingContract.sol\":6595:7113  {... */\n      pop\n      pop\n      pop\n        /* \"LendingContract.sol\":6565:7113  if (borrowBalances[user] > 0) {... */\n    tag_156:\n        /* \"LendingContract.sol\":7216:7217  0 */\n      0x00\n        /* \"LendingContract.sol\":7193:7207  supplyBalances */\n      dup1\n        /* \"LendingContract.sol\":7193:7213  supplyBalances[user] */\n      0x00\n        /* \"LendingContract.sol\":7208:7212  user */\n      dup7\n        /* \"LendingContract.sol\":7193:7213  supplyBalances[user] */\n      0xffffffffffffffffffffffffffffffffffffffff\n      and\n      0xffffffffffffffffffffffffffffffffffffffff\n      and\n      dup2\n      mstore\n      0x20\n      add\n      swap1\n      dup2\n      mstore\n      0x20\n      add\n      0x00\n      keccak256\n      sload\n        /* \"LendingContract.sol\":7193:7217  supplyBalances[user] > 0 */\n      gt\n        /* \"LendingContract.sol\":7189:7737  if (supplyBalances[user] > 0) {... */\n      iszero\n      tag_169\n      jumpi\n        /* \"LendingContract.sol\":7237:7264  uint256 supplyRatePerPeriod */\n      0x00\n        /* \"LendingContract.sol\":7300:7309  4 * 10000 */\n      0x9c40\n        /* \"LendingContract.sol\":7291:7295  1e18 */\n      0x0de0b6b3a7640000\n        /* \"LendingContract.sol\":892:895  200 */\n      0xc8\n        /* \"LendingContract.sol\":7268:7295  SUPPLY_INTEREST_RATE * 1e18 */\n      tag_170\n      swap2\n      swap1\n      tag_94\n      jump\t// in\n    tag_170:\n        /* \"LendingContract.sol\":7267:7310  (SUPPLY_INTEREST_RATE * 1e18) / (4 * 10000) */\n      tag_171\n      swap2\n      swap1\n      tag_96\n      jump\t// in\n    tag_171:\n        /* \"LendingContract.sol\":7237:7310  uint256 supplyRatePerPeriod = (SUPPLY_INTEREST_RATE * 1e18) / (4 * 10000) */\n      swap1\n      pop\n        /* \"LendingContract.sol\":7328:7352  uint256 supplyMultiplier */\n      0x00\n        /* \"LendingContract.sol\":7355:7488  PRBMathUD60x18.exp2(... */\n      tag_172\n        /* \"LendingContract.sol\":7396:7470  PRBMathUD60x18.mul(PRBMathUD60x18.ln(1e18 + supplyRatePerPeriod), periods) */\n      tag_173\n        /* \"LendingContract.sol\":7415:7460  PRBMathUD60x18.ln(1e18 + supplyRatePerPeriod) */\n      tag_174\n        /* \"LendingContract.sol\":7440:7459  supplyRatePerPeriod */\n      dup5\n        /* \"LendingContract.sol\":7433:7437  1e18 */\n      0x0de0b6b3a7640000\n        /* \"LendingContract.sol\":7433:7459  1e18 + supplyRatePerPeriod */\n      tag_175\n      swap2\n      swap1\n      tag_53\n      jump\t// in\n    tag_175:\n        /* \"LendingContract.sol\":7415:7432  PRBMathUD60x18.ln */\n      tag_163\n        /* \"LendingContract.sol\":7415:7460  PRBMathUD60x18.ln(1e18 + supplyRatePerPeriod) */\n      jump\t// in\n    tag_174:\n        /* \"LendingContract.sol\":7462:7469  periods */\n      dup6\n        /* \"LendingContract.sol\":7396:7414  PRBMathUD60x18.mul */\n      tag_164\n        /* \"LendingContract.sol\":7396:7470  PRBMathUD60x18.mul(PRBMathUD60x18.ln(1e18 + supplyRatePerPeriod), periods) */\n      jump\t// in\n    tag_173:\n        /* \"LendingContract.sol\":7355:7374  PRBMathUD60x18.exp2 */\n      tag_165\n        /* \"LendingContract.sol\":7355:7488  PRBMathUD60x18.exp2(... */\n      jump\t// in\n    tag_172:\n        /* \"LendingContract.sol\":7328:7488  uint256 supplyMultiplier = PRBMathUD60x18.exp2(... */\n      swap1\n      pop\n        /* \"LendingContract.sol\":7506:7530  uint256 newSupplyBalance */\n      0x00\n        /* \"LendingContract.sol\":7533:7591  PRBMathUD60x18.mul(supplyBalances[user], supplyMultiplier) */\n      tag_176\n        /* \"LendingContract.sol\":7552:7566  supplyBalances */\n      0x00\n        /* \"LendingContract.sol\":7552:7572  supplyBalances[user] */\n      dup1\n        /* \"LendingContract.sol\":7567:7571  user */\n      dup10\n        /* \"LendingContract.sol\":7552:7572  supplyBalances[user] */\n      0xffffffffffffffffffffffffffffffffffffffff\n      and\n      0xffffffffffffffffffffffffffffffffffffffff\n      and\n      dup2\n      mstore\n      0x20\n      add\n      swap1\n      dup2\n      mstore\n      0x20\n      add\n      0x00\n      keccak256\n      sload\n        /* \"LendingContract.sol\":7574:7590  supplyMultiplier */\n      dup4\n        /* \"LendingContract.sol\":7533:7551  PRBMathUD60x18.mul */\n      tag_164\n        /* \"LendingContract.sol\":7533:7591  PRBMathUD60x18.mul(supplyBalances[user], supplyMultiplier) */\n      jump\t// in\n    tag_176:\n        /* \"LendingContract.sol\":7506:7591  uint256 newSupplyBalance = PRBMathUD60x18.mul(supplyBalances[user], supplyMultiplier) */\n      swap1\n      pop\n        /* \"LendingContract.sol\":7645:7659  supplyBalances */\n      0x00\n        /* \"LendingContract.sol\":7645:7665  supplyBalances[user] */\n      dup1\n        /* \"LendingContract.sol\":7660:7664  user */\n      dup9\n        /* \"LendingContract.sol\":7645:7665  supplyBalances[user] */\n      0xffffffffffffffffffffffffffffffffffffffff\n      and\n      0xffffffffffffffffffffffffffffffffffffffff\n      and\n      dup2\n      mstore\n      0x20\n      add\n      swap1\n      dup2\n      mstore\n      0x20\n      add\n      0x00\n      keccak256\n      sload\n        /* \"LendingContract.sol\":7626:7642  newSupplyBalance */\n      dup2\n        /* \"LendingContract.sol\":7626:7665  newSupplyBalance - supplyBalances[user] */\n      tag_177\n      swap2\n      swap1\n      tag_69\n      jump\t// in\n    tag_177:\n        /* \"LendingContract.sol\":7609:7622  totalSupplied */\n      0x04\n      0x00\n        /* \"LendingContract.sol\":7609:7665  totalSupplied += newSupplyBalance - supplyBalances[user] */\n      dup3\n      dup3\n      sload\n      tag_178\n      swap2\n      swap1\n      tag_53\n      jump\t// in\n    tag_178:\n      swap3\n      pop\n      pop\n      dup2\n      swap1\n      sstore\n      pop\n        /* \"LendingContract.sol\":7706:7722  newSupplyBalance */\n      dup1\n        /* \"LendingContract.sol\":7683:7697  supplyBalances */\n      0x00\n        /* \"LendingContract.sol\":7683:7703  supplyBalances[user] */\n      dup1\n        /* \"LendingContract.sol\":7698:7702  user */\n      dup10\n        /* \"LendingContract.sol\":7683:7703  supplyBalances[user] */\n      0xffffffffffffffffffffffffffffffffffffffff\n      and\n      0xffffffffffffffffffffffffffffffffffffffff\n      and\n      dup2\n      mstore\n      0x20\n      add\n      swap1\n      dup2\n      mstore\n      0x20\n      add\n      0x00\n      keccak256\n        /* \"LendingContract.sol\":7683:7722  supplyBalances[user] = newSupplyBalance */\n      dup2\n      swap1\n      sstore\n      pop\n        /* \"LendingContract.sol\":7219:7737  {... */\n      pop\n      pop\n      pop\n        /* \"LendingContract.sol\":7189:7737  if (supplyBalances[user] > 0) {... */\n    tag_169:\n        /* \"LendingContract.sol\":6472:7747  if (periods > 0) {... */\n    tag_155:\n        /* \"LendingContract.sol\":7793:7808  block.timestamp */\n      timestamp\n        /* \"LendingContract.sol\":7757:7784  lastInterestUpdateTimeStamp */\n      0x03\n        /* \"LendingContract.sol\":7757:7790  lastInterestUpdateTimeStamp[user] */\n      0x00\n        /* \"LendingContract.sol\":7785:7789  user */\n      dup7\n        /* \"LendingContract.sol\":7757:7790  lastInterestUpdateTimeStamp[user] */\n      0xffffffffffffffffffffffffffffffffffffffff\n      and\n      0xffffffffffffffffffffffffffffffffffffffff\n      and\n      dup2\n      mstore\n      0x20\n      add\n      swap1\n      dup2\n      mstore\n      0x20\n      add\n      0x00\n      keccak256\n        /* \"LendingContract.sol\":7757:7808  lastInterestUpdateTimeStamp[user] = block.timestamp */\n      dup2\n      swap1\n      sstore\n      pop\n        /* \"LendingContract.sol\":6001:7815  {... */\n      pop\n      pop\n      pop\n        /* \"LendingContract.sol\":5955:7815  function updateInterest(address user) private {... */\n    tag_151:\n      pop\n      jump\t// out\n        /* \"LendingContract.sol\":4806:5282  function canLiquidate(address borrower) internal view returns (bool) {... */\n    tag_76:\n        /* \"LendingContract.sol\":4869:4873  bool */\n      0x00\n        /* \"LendingContract.sol\":4917:4918  0 */\n      dup1\n        /* \"LendingContract.sol\":4889:4903  borrowBalances */\n      0x01\n        /* \"LendingContract.sol\":4889:4913  borrowBalances[borrower] */\n      0x00\n        /* \"LendingContract.sol\":4904:4912  borrower */\n      dup5\n        /* \"LendingContract.sol\":4889:4913  borrowBalances[borrower] */\n      0xffffffffffffffffffffffffffffffffffffffff\n      and\n      0xffffffffffffffffffffffffffffffffffffffff\n      and\n      dup2\n      mstore\n      0x20\n      add\n      swap1\n      dup2\n      mstore\n      0x20\n      add\n      0x00\n      keccak256\n      sload\n        /* \"LendingContract.sol\":4889:4918  borrowBalances[borrower] == 0 */\n      sub\n        /* \"LendingContract.sol\":4885:4932  if (borrowBalances[borrower] == 0) return false */\n      tag_180\n      jumpi\n        /* \"LendingContract.sol\":4927:4932  false */\n      0x00\n        /* \"LendingContract.sol\":4920:4932  return false */\n      swap1\n      pop\n      jump(tag_179)\n        /* \"LendingContract.sol\":4885:4932  if (borrowBalances[borrower] == 0) return false */\n    tag_180:\n        /* \"LendingContract.sol\":4986:5012  uint256 requiredCollateral */\n      0x00\n        /* \"LendingContract.sol\":5065:5070  10000 */\n      0x2710\n        /* \"LendingContract.sol\":776:781  15000 */\n      0x3a98\n        /* \"LendingContract.sol\":5016:5030  borrowBalances */\n      0x01\n        /* \"LendingContract.sol\":5016:5040  borrowBalances[borrower] */\n      0x00\n        /* \"LendingContract.sol\":5031:5039  borrower */\n      dup7\n        /* \"LendingContract.sol\":5016:5040  borrowBalances[borrower] */\n      0xffffffffffffffffffffffffffffffffffffffff\n      and\n      0xffffffffffffffffffffffffffffffffffffffff\n      and\n      dup2\n      mstore\n      0x20\n      add\n      swap1\n      dup2\n      mstore\n      0x20\n      add\n      0x00\n      keccak256\n      sload\n        /* \"LendingContract.sol\":5016:5061  borrowBalances[borrower] * COLLATERAL_PERCENT */\n      tag_181\n      swap2\n      swap1\n      tag_94\n      jump\t// in\n    tag_181:\n        /* \"LendingContract.sol\":5015:5070  (borrowBalances[borrower] * COLLATERAL_PERCENT) / 10000 */\n      tag_182\n      swap2\n      swap1\n      tag_96\n      jump\t// in\n    tag_182:\n        /* \"LendingContract.sol\":4986:5070  uint256 requiredCollateral = (borrowBalances[borrower] * COLLATERAL_PERCENT) / 10000 */\n      swap1\n      pop\n        /* \"LendingContract.sol\":5257:5275  requiredCollateral */\n      dup1\n        /* \"LendingContract.sol\":5227:5244  collateralAmounts */\n      0x02\n        /* \"LendingContract.sol\":5227:5254  collateralAmounts[borrower] */\n      0x00\n        /* \"LendingContract.sol\":5245:5253  borrower */\n      dup6\n        /* \"LendingContract.sol\":5227:5254  collateralAmounts[borrower] */\n      0xffffffffffffffffffffffffffffffffffffffff\n      and\n      0xffffffffffffffffffffffffffffffffffffffff\n      and\n      dup2\n      mstore\n      0x20\n      add\n      swap1\n      dup2\n      mstore\n      0x20\n      add\n      0x00\n      keccak256\n      sload\n        /* \"LendingContract.sol\":5227:5275  collateralAmounts[borrower] < requiredCollateral */\n      lt\n        /* \"LendingContract.sol\":5220:5275  return collateralAmounts[borrower] < requiredCollateral */\n      swap2\n      pop\n      pop\n        /* \"LendingContract.sol\":4806:5282  function canLiquidate(address borrower) internal view returns (bool) {... */\n    tag_179:\n      swap2\n      swap1\n      pop\n      jump\t// out\n        /* \"@prb/math/contracts/PRBMathUD60x18.sol\":10224:10546  function ln(uint256 x) internal pure returns (uint256 result) {... */\n    tag_163:\n        /* \"@prb/math/contracts/PRBMathUD60x18.sol\":10270:10284  uint256 result */\n      0x00\n        /* \"@prb/math/contracts/PRBMathUD60x18.sol\":786:806  1_442695040888963407 */\n      0x14057b7ef767814f\n        /* \"@prb/math/contracts/PRBMathUD60x18.sol\":1359:1363  1e18 */\n      0x0de0b6b3a7640000\n        /* \"@prb/math/contracts/PRBMathUD60x18.sol\":10504:10511  log2(x) */\n      tag_184\n        /* \"@prb/math/contracts/PRBMathUD60x18.sol\":10509:10510  x */\n      dup5\n        /* \"@prb/math/contracts/PRBMathUD60x18.sol\":10504:10508  log2 */\n      tag_185\n        /* \"@prb/math/contracts/PRBMathUD60x18.sol\":10504:10511  log2(x) */\n      jump\t// in\n    tag_184:\n        /* \"@prb/math/contracts/PRBMathUD60x18.sol\":10504:10519  log2(x) * SCALE */\n      mul\n        /* \"@prb/math/contracts/PRBMathUD60x18.sol\":10503:10529  (log2(x) * SCALE) / LOG2_E */\n      dup2\n      tag_186\n      jumpi\n      tag_187\n      tag_188\n      jump\t// in\n    tag_187:\n    tag_186:\n      div\n        /* \"@prb/math/contracts/PRBMathUD60x18.sol\":10494:10529  result = (log2(x) * SCALE) / LOG2_E */\n      swap1\n      pop\n        /* \"@prb/math/contracts/PRBMathUD60x18.sol\":10224:10546  function ln(uint256 x) internal pure returns (uint256 result) {... */\n      swap2\n      swap1\n      pop\n      jump\t// out\n        /* \"@prb/math/contracts/PRBMathUD60x18.sol\":21270:21400  function mul(uint256 x, uint256 y) internal pure returns (uint256 result) {... */\n    tag_164:\n        /* \"@prb/math/contracts/PRBMathUD60x18.sol\":21328:21342  uint256 result */\n      0x00\n        /* \"@prb/math/contracts/PRBMathUD60x18.sol\":21363:21393  PRBMath.mulDivFixedPoint(x, y) */\n      tag_190\n        /* \"@prb/math/contracts/PRBMathUD60x18.sol\":21388:21389  x */\n      dup4\n        /* \"@prb/math/contracts/PRBMathUD60x18.sol\":21391:21392  y */\n      dup4\n        /* \"@prb/math/contracts/PRBMathUD60x18.sol\":21363:21387  PRBMath.mulDivFixedPoint */\n      tag_191\n        /* \"@prb/math/contracts/PRBMathUD60x18.sol\":21363:21393  PRBMath.mulDivFixedPoint(x, y) */\n      jump\t// in\n    tag_190:\n        /* \"@prb/math/contracts/PRBMathUD60x18.sol\":21354:21393  result = PRBMath.mulDivFixedPoint(x, y) */\n      swap1\n      pop\n        /* \"@prb/math/contracts/PRBMathUD60x18.sol\":21270:21400  function mul(uint256 x, uint256 y) internal pure returns (uint256 result) {... */\n      swap3\n      swap2\n      pop\n      pop\n      jump\t// out\n        /* \"@prb/math/contracts/PRBMathUD60x18.sol\":5574:6130  function exp2(uint256 x) internal pure returns (uint256 result) {... */\n    tag_165:\n        /* \"@prb/math/contracts/PRBMathUD60x18.sol\":5622:5636  uint256 result */\n      0x00\n        /* \"@prb/math/contracts/PRBMathUD60x18.sol\":5749:5755  192e18 */\n      0x0a688906bd8b000000\n        /* \"@prb/math/contracts/PRBMathUD60x18.sol\":5744:5745  x */\n      dup3\n        /* \"@prb/math/contracts/PRBMathUD60x18.sol\":5744:5755  x >= 192e18 */\n      lt\n        /* \"@prb/math/contracts/PRBMathUD60x18.sol\":5740:5823  if (x >= 192e18) {... */\n      tag_193\n      jumpi\n        /* \"@prb/math/contracts/PRBMathUD60x18.sol\":5810:5811  x */\n      dup2\n        /* \"@prb/math/contracts/PRBMathUD60x18.sol\":5778:5812  PRBMathUD60x18__Exp2InputTooBig(x) */\n      mload(0x40)\n      0x4a4f26f100000000000000000000000000000000000000000000000000000000\n      dup2\n      mstore\n      0x04\n      add\n      tag_194\n      swap2\n      swap1\n      tag_56\n      jump\t// in\n    tag_194:\n      mload(0x40)\n      dup1\n      swap2\n      sub\n      swap1\n      revert\n        /* \"@prb/math/contracts/PRBMathUD60x18.sol\":5740:5823  if (x >= 192e18) {... */\n    tag_193:\n        /* \"@prb/math/contracts/PRBMathUD60x18.sol\":5920:5935  uint256 x192x64 */\n      0x00\n        /* \"@prb/math/contracts/PRBMathUD60x18.sol\":1359:1363  1e18 */\n      0x0de0b6b3a7640000\n        /* \"@prb/math/contracts/PRBMathUD60x18.sol\":5944:5946  64 */\n      0x40\n        /* \"@prb/math/contracts/PRBMathUD60x18.sol\":5939:5940  x */\n      dup5\n        /* \"@prb/math/contracts/PRBMathUD60x18.sol\":5939:5946  x << 64 */\n      swap1\n      shl\n        /* \"@prb/math/contracts/PRBMathUD60x18.sol\":5938:5955  (x << 64) / SCALE */\n      dup2\n      tag_195\n      jumpi\n      tag_196\n      tag_188\n      jump\t// in\n    tag_196:\n    tag_195:\n      div\n        /* \"@prb/math/contracts/PRBMathUD60x18.sol\":5920:5955  uint256 x192x64 = (x << 64) / SCALE */\n      swap1\n      pop\n        /* \"@prb/math/contracts/PRBMathUD60x18.sol\":6092:6113  PRBMath.exp2(x192x64) */\n      tag_197\n        /* \"@prb/math/contracts/PRBMathUD60x18.sol\":6105:6112  x192x64 */\n      dup2\n        /* \"@prb/math/contracts/PRBMathUD60x18.sol\":6092:6104  PRBMath.exp2 */\n      tag_198\n        /* \"@prb/math/contracts/PRBMathUD60x18.sol\":6092:6113  PRBMath.exp2(x192x64) */\n      jump\t// in\n    tag_197:\n        /* \"@prb/math/contracts/PRBMathUD60x18.sol\":6083:6113  result = PRBMath.exp2(x192x64) */\n      swap2\n      pop\n        /* \"@prb/math/contracts/PRBMathUD60x18.sol\":5833:6124  unchecked {... */\n      pop\n        /* \"@prb/math/contracts/PRBMathUD60x18.sol\":5574:6130  function exp2(uint256 x) internal pure returns (uint256 result) {... */\n      swap2\n      swap1\n      pop\n      jump\t// out\n        /* \"@prb/math/contracts/PRBMathUD60x18.sol\":19388:20785  function log2(uint256 x) internal pure returns (uint256 result) {... */\n    tag_185:\n        /* \"@prb/math/contracts/PRBMathUD60x18.sol\":19436:19450  uint256 result */\n      0x00\n        /* \"@prb/math/contracts/PRBMathUD60x18.sol\":1359:1363  1e18 */\n      0x0de0b6b3a7640000\n        /* \"@prb/math/contracts/PRBMathUD60x18.sol\":19466:19467  x */\n      dup3\n        /* \"@prb/math/contracts/PRBMathUD60x18.sol\":19466:19475  x < SCALE */\n      lt\n        /* \"@prb/math/contracts/PRBMathUD60x18.sol\":19462:19544  if (x < SCALE) {... */\n      iszero\n      tag_200\n      jumpi\n        /* \"@prb/math/contracts/PRBMathUD60x18.sol\":19531:19532  x */\n      dup2\n        /* \"@prb/math/contracts/PRBMathUD60x18.sol\":19498:19533  PRBMathUD60x18__LogInputTooSmall(x) */\n      mload(0x40)\n      0xd88504dc00000000000000000000000000000000000000000000000000000000\n      dup2\n      mstore\n      0x04\n      add\n      tag_201\n      swap2\n      swap1\n      tag_56\n      jump\t// in\n    tag_201:\n      mload(0x40)\n      dup1\n      swap2\n      sub\n      swap1\n      revert\n        /* \"@prb/math/contracts/PRBMathUD60x18.sol\":19462:19544  if (x < SCALE) {... */\n    tag_200:\n        /* \"@prb/math/contracts/PRBMathUD60x18.sol\":19699:19708  uint256 n */\n      0x00\n        /* \"@prb/math/contracts/PRBMathUD60x18.sol\":19711:19748  PRBMath.mostSignificantBit(x / SCALE) */\n      tag_202\n        /* \"@prb/math/contracts/PRBMathUD60x18.sol\":1359:1363  1e18 */\n      0x0de0b6b3a7640000\n        /* \"@prb/math/contracts/PRBMathUD60x18.sol\":19738:19739  x */\n      dup5\n        /* \"@prb/math/contracts/PRBMathUD60x18.sol\":19738:19747  x / SCALE */\n      dup2\n      tag_203\n      jumpi\n      tag_204\n      tag_188\n      jump\t// in\n    tag_204:\n    tag_203:\n      div\n        /* \"@prb/math/contracts/PRBMathUD60x18.sol\":19711:19737  PRBMath.mostSignificantBit */\n      tag_205\n        /* \"@prb/math/contracts/PRBMathUD60x18.sol\":19711:19748  PRBMath.mostSignificantBit(x / SCALE) */\n      jump\t// in\n    tag_202:\n        /* \"@prb/math/contracts/PRBMathUD60x18.sol\":19699:19748  uint256 n = PRBMath.mostSignificantBit(x / SCALE) */\n      swap1\n      pop\n        /* \"@prb/math/contracts/PRBMathUD60x18.sol\":1359:1363  1e18 */\n      0x0de0b6b3a7640000\n        /* \"@prb/math/contracts/PRBMathUD60x18.sol\":19958:19959  n */\n      dup2\n        /* \"@prb/math/contracts/PRBMathUD60x18.sol\":19958:19967  n * SCALE */\n      mul\n        /* \"@prb/math/contracts/PRBMathUD60x18.sol\":19949:19967  result = n * SCALE */\n      swap2\n      pop\n        /* \"@prb/math/contracts/PRBMathUD60x18.sol\":20021:20030  uint256 y */\n      0x00\n        /* \"@prb/math/contracts/PRBMathUD60x18.sol\":20038:20039  n */\n      dup2\n        /* \"@prb/math/contracts/PRBMathUD60x18.sol\":20033:20034  x */\n      dup5\n        /* \"@prb/math/contracts/PRBMathUD60x18.sol\":20033:20039  x >> n */\n      swap1\n      shr\n        /* \"@prb/math/contracts/PRBMathUD60x18.sol\":20021:20039  uint256 y = x >> n */\n      swap1\n      pop\n        /* \"@prb/math/contracts/PRBMathUD60x18.sol\":1359:1363  1e18 */\n      0x0de0b6b3a7640000\n        /* \"@prb/math/contracts/PRBMathUD60x18.sol\":20112:20113  y */\n      dup2\n        /* \"@prb/math/contracts/PRBMathUD60x18.sol\":20112:20122  y == SCALE */\n      sub\n        /* \"@prb/math/contracts/PRBMathUD60x18.sol\":20108:20170  if (y == SCALE) {... */\n      tag_206\n      jumpi\n        /* \"@prb/math/contracts/PRBMathUD60x18.sol\":20142:20155  return result */\n      pop\n      pop\n      jump(tag_199)\n        /* \"@prb/math/contracts/PRBMathUD60x18.sol\":20108:20170  if (y == SCALE) {... */\n    tag_206:\n        /* \"@prb/math/contracts/PRBMathUD60x18.sol\":20365:20378  uint256 delta */\n      0x00\n        /* \"@prb/math/contracts/PRBMathUD60x18.sol\":670:674  5e17 */\n      0x06f05b59d3b20000\n        /* \"@prb/math/contracts/PRBMathUD60x18.sol\":20365:20391  uint256 delta = HALF_SCALE */\n      swap1\n      pop\n        /* \"@prb/math/contracts/PRBMathUD60x18.sol\":20360:20769  for (uint256 delta = HALF_SCALE; delta > 0; delta >>= 1) {... */\n    tag_207:\n        /* \"@prb/math/contracts/PRBMathUD60x18.sol\":20401:20402  0 */\n      0x00\n        /* \"@prb/math/contracts/PRBMathUD60x18.sol\":20393:20398  delta */\n      dup2\n        /* \"@prb/math/contracts/PRBMathUD60x18.sol\":20393:20402  delta > 0 */\n      gt\n        /* \"@prb/math/contracts/PRBMathUD60x18.sol\":20360:20769  for (uint256 delta = HALF_SCALE; delta > 0; delta >>= 1) {... */\n      iszero\n      tag_208\n      jumpi\n        /* \"@prb/math/contracts/PRBMathUD60x18.sol\":1359:1363  1e18 */\n      0x0de0b6b3a7640000\n        /* \"@prb/math/contracts/PRBMathUD60x18.sol\":20444:20445  y */\n      dup3\n        /* \"@prb/math/contracts/PRBMathUD60x18.sol\":20440:20441  y */\n      dup4\n        /* \"@prb/math/contracts/PRBMathUD60x18.sol\":20440:20445  y * y */\n      mul\n        /* \"@prb/math/contracts/PRBMathUD60x18.sol\":20439:20454  (y * y) / SCALE */\n      dup2\n      tag_210\n      jumpi\n      tag_211\n      tag_188\n      jump\t// in\n    tag_211:\n    tag_210:\n      div\n        /* \"@prb/math/contracts/PRBMathUD60x18.sol\":20435:20454  y = (y * y) / SCALE */\n      swap2\n      pop\n        /* \"@prb/math/contracts/PRBMathUD60x18.sol\":1359:1363  1e18 */\n      0x0de0b6b3a7640000\n        /* \"@prb/math/contracts/PRBMathUD60x18.sol\":20539:20540  2 */\n      0x02\n        /* \"@prb/math/contracts/PRBMathUD60x18.sol\":20539:20548  2 * SCALE */\n      mul\n        /* \"@prb/math/contracts/PRBMathUD60x18.sol\":20534:20535  y */\n      dup3\n        /* \"@prb/math/contracts/PRBMathUD60x18.sol\":20534:20548  y >= 2 * SCALE */\n      lt\n        /* \"@prb/math/contracts/PRBMathUD60x18.sol\":20530:20755  if (y >= 2 * SCALE) {... */\n      tag_212\n      jumpi\n        /* \"@prb/math/contracts/PRBMathUD60x18.sol\":20645:20650  delta */\n      dup1\n        /* \"@prb/math/contracts/PRBMathUD60x18.sol\":20635:20650  result += delta */\n      dup5\n      add\n      swap4\n      pop\n        /* \"@prb/math/contracts/PRBMathUD60x18.sol\":20735:20736  1 */\n      0x01\n        /* \"@prb/math/contracts/PRBMathUD60x18.sol\":20729:20736  y >>= 1 */\n      dup3\n      swap1\n      shr\n      swap2\n      pop\n        /* \"@prb/math/contracts/PRBMathUD60x18.sol\":20530:20755  if (y >= 2 * SCALE) {... */\n    tag_212:\n        /* \"@prb/math/contracts/PRBMathUD60x18.sol\":20414:20415  1 */\n      0x01\n        /* \"@prb/math/contracts/PRBMathUD60x18.sol\":20404:20415  delta >>= 1 */\n      dup2\n      swap1\n      shr\n      swap1\n      pop\n        /* \"@prb/math/contracts/PRBMathUD60x18.sol\":20360:20769  for (uint256 delta = HALF_SCALE; delta > 0; delta >>= 1) {... */\n      jump(tag_207)\n    tag_208:\n      pop\n        /* \"@prb/math/contracts/PRBMathUD60x18.sol\":19553:20779  unchecked {... */\n      pop\n      pop\n        /* \"@prb/math/contracts/PRBMathUD60x18.sol\":19388:20785  function log2(uint256 x) internal pure returns (uint256 result) {... */\n    tag_199:\n      swap2\n      swap1\n      pop\n      jump\t// out\n        /* \"@prb/math/contracts/PRBMath.sol\":20191:21340  function mulDivFixedPoint(uint256 x, uint256 y) internal pure returns (uint256 result) {... */\n    tag_191:\n        /* \"@prb/math/contracts/PRBMath.sol\":20262:20276  uint256 result */\n      0x00\n        /* \"@prb/math/contracts/PRBMath.sol\":20288:20301  uint256 prod0 */\n      dup1\n        /* \"@prb/math/contracts/PRBMath.sol\":20311:20324  uint256 prod1 */\n      0x00\n        /* \"@prb/math/contracts/PRBMath.sol\":20384:20385  0 */\n      dup1\n        /* \"@prb/math/contracts/PRBMath.sol\":20380:20386  not(0) */\n      not\n        /* \"@prb/math/contracts/PRBMath.sol\":20377:20378  y */\n      dup5\n        /* \"@prb/math/contracts/PRBMath.sol\":20374:20375  x */\n      dup7\n        /* \"@prb/math/contracts/PRBMath.sol\":20367:20387  mulmod(x, y, not(0)) */\n      mulmod\n        /* \"@prb/math/contracts/PRBMath.sol\":20416:20417  y */\n      dup5\n        /* \"@prb/math/contracts/PRBMath.sol\":20413:20414  x */\n      dup7\n        /* \"@prb/math/contracts/PRBMath.sol\":20409:20418  mul(x, y) */\n      mul\n        /* \"@prb/math/contracts/PRBMath.sol\":20400:20418  prod0 := mul(x, y) */\n      swap3\n      pop\n        /* \"@prb/math/contracts/PRBMath.sol\":20467:20472  prod0 */\n      dup3\n        /* \"@prb/math/contracts/PRBMath.sol\":20463:20465  mm */\n      dup2\n        /* \"@prb/math/contracts/PRBMath.sol\":20460:20473  lt(mm, prod0) */\n      lt\n        /* \"@prb/math/contracts/PRBMath.sol\":20452:20457  prod0 */\n      dup4\n        /* \"@prb/math/contracts/PRBMath.sol\":20448:20450  mm */\n      dup3\n        /* \"@prb/math/contracts/PRBMath.sol\":20444:20458  sub(mm, prod0) */\n      sub\n        /* \"@prb/math/contracts/PRBMath.sol\":20440:20474  sub(sub(mm, prod0), lt(mm, prod0)) */\n      sub\n        /* \"@prb/math/contracts/PRBMath.sol\":20431:20474  prod1 := sub(sub(mm, prod0), lt(mm, prod0)) */\n      swap2\n      pop\n        /* \"@prb/math/contracts/PRBMath.sol\":20343:20484  {... */\n      pop\n        /* \"@prb/math/contracts/PRBMath.sol\":4210:4214  1e18 */\n      0x0de0b6b3a7640000\n        /* \"@prb/math/contracts/PRBMath.sol\":20498:20503  prod1 */\n      dup2\n        /* \"@prb/math/contracts/PRBMath.sol\":20498:20512  prod1 >= SCALE */\n      lt\n        /* \"@prb/math/contracts/PRBMath.sol\":20494:20586  if (prod1 >= SCALE) {... */\n      tag_214\n      jumpi\n        /* \"@prb/math/contracts/PRBMath.sol\":20569:20574  prod1 */\n      dup1\n        /* \"@prb/math/contracts/PRBMath.sol\":20535:20575  PRBMath__MulDivFixedPointOverflow(prod1) */\n      mload(0x40)\n      0xd31b340200000000000000000000000000000000000000000000000000000000\n      dup2\n      mstore\n      0x04\n      add\n      tag_215\n      swap2\n      swap1\n      tag_56\n      jump\t// in\n    tag_215:\n      mload(0x40)\n      dup1\n      swap2\n      sub\n      swap1\n      revert\n        /* \"@prb/math/contracts/PRBMath.sol\":20494:20586  if (prod1 >= SCALE) {... */\n    tag_214:\n        /* \"@prb/math/contracts/PRBMath.sol\":20596:20613  uint256 remainder */\n      0x00\n        /* \"@prb/math/contracts/PRBMath.sol\":20623:20642  uint256 roundUpUnit */\n      dup1\n        /* \"@prb/math/contracts/PRBMath.sol\":20701:20706  SCALE */\n      0x0de0b6b3a7640000\n        /* \"@prb/math/contracts/PRBMath.sol\":20698:20699  y */\n      dup7\n        /* \"@prb/math/contracts/PRBMath.sol\":20695:20696  x */\n      dup9\n        /* \"@prb/math/contracts/PRBMath.sol\":20688:20707  mulmod(x, y, SCALE) */\n      mulmod\n        /* \"@prb/math/contracts/PRBMath.sol\":20675:20707  remainder := mulmod(x, y, SCALE) */\n      swap2\n      pop\n        /* \"@prb/math/contracts/PRBMath.sol\":20749:20767  499999999999999999 */\n      0x06f05b59d3b1ffff\n        /* \"@prb/math/contracts/PRBMath.sol\":20738:20747  remainder */\n      dup3\n        /* \"@prb/math/contracts/PRBMath.sol\":20735:20768  gt(remainder, 499999999999999999) */\n      gt\n        /* \"@prb/math/contracts/PRBMath.sol\":20720:20768  roundUpUnit := gt(remainder, 499999999999999999) */\n      swap1\n      pop\n        /* \"@prb/math/contracts/PRBMath.sol\":20801:20802  0 */\n      0x00\n        /* \"@prb/math/contracts/PRBMath.sol\":20792:20797  prod1 */\n      dup4\n        /* \"@prb/math/contracts/PRBMath.sol\":20792:20802  prod1 == 0 */\n      sub\n        /* \"@prb/math/contracts/PRBMath.sol\":20788:20940  if (prod1 == 0) {... */\n      tag_216\n      jumpi\n        /* \"@prb/math/contracts/PRBMath.sol\":20873:20884  roundUpUnit */\n      dup1\n        /* \"@prb/math/contracts/PRBMath.sol\":4210:4214  1e18 */\n      0x0de0b6b3a7640000\n        /* \"@prb/math/contracts/PRBMath.sol\":20856:20861  prod0 */\n      dup6\n        /* \"@prb/math/contracts/PRBMath.sol\":20856:20869  prod0 / SCALE */\n      dup2\n      tag_217\n      jumpi\n      tag_218\n      tag_188\n      jump\t// in\n    tag_218:\n    tag_217:\n      div\n        /* \"@prb/math/contracts/PRBMath.sol\":20855:20884  (prod0 / SCALE) + roundUpUnit */\n      add\n        /* \"@prb/math/contracts/PRBMath.sol\":20846:20884  result = (prod0 / SCALE) + roundUpUnit */\n      swap5\n      pop\n        /* \"@prb/math/contracts/PRBMath.sol\":20902:20915  return result */\n      pop\n      pop\n      pop\n      pop\n      jump(tag_213)\n        /* \"@prb/math/contracts/PRBMath.sol\":20788:20940  if (prod1 == 0) {... */\n    tag_216:\n        /* \"@prb/math/contracts/PRBMath.sol\":21299:21310  roundUpUnit */\n      dup1\n        /* \"@prb/math/contracts/PRBMath.sol\":21250:21263  SCALE_INVERSE */\n      0xaccb18165bd6fe31ae1cf318dc5b51eee0e1ba569b88cd74c1773b91fac10669\n        /* \"@prb/math/contracts/PRBMath.sol\":21203:21204  1 */\n      0x01\n        /* \"@prb/math/contracts/PRBMath.sol\":21189:21200  SCALE_LPOTD */\n      0x040000\n        /* \"@prb/math/contracts/PRBMath.sol\":21175:21186  SCALE_LPOTD */\n      dup1\n        /* \"@prb/math/contracts/PRBMath.sol\":21172:21173  0 */\n      0x00\n        /* \"@prb/math/contracts/PRBMath.sol\":21168:21187  sub(0, SCALE_LPOTD) */\n      sub\n        /* \"@prb/math/contracts/PRBMath.sol\":21164:21201  div(sub(0, SCALE_LPOTD), SCALE_LPOTD) */\n      div\n        /* \"@prb/math/contracts/PRBMath.sol\":21160:21205  add(div(sub(0, SCALE_LPOTD), SCALE_LPOTD), 1) */\n      add\n        /* \"@prb/math/contracts/PRBMath.sol\":21151:21156  prod0 */\n      dup7\n        /* \"@prb/math/contracts/PRBMath.sol\":21140:21149  remainder */\n      dup6\n        /* \"@prb/math/contracts/PRBMath.sol\":21137:21157  gt(remainder, prod0) */\n      gt\n        /* \"@prb/math/contracts/PRBMath.sol\":21130:21135  prod1 */\n      dup7\n        /* \"@prb/math/contracts/PRBMath.sol\":21126:21158  sub(prod1, gt(remainder, prod0)) */\n      sub\n        /* \"@prb/math/contracts/PRBMath.sol\":21122:21206  mul(sub(prod1, gt(remainder, prod0)), add(div(sub(0, SCALE_LPOTD), SCALE_LPOTD), 1)) */\n      mul\n        /* \"@prb/math/contracts/PRBMath.sol\":21084:21095  SCALE_LPOTD */\n      0x040000\n        /* \"@prb/math/contracts/PRBMath.sol\":21072:21081  remainder */\n      dup6\n        /* \"@prb/math/contracts/PRBMath.sol\":21065:21070  prod0 */\n      dup9\n        /* \"@prb/math/contracts/PRBMath.sol\":21061:21082  sub(prod0, remainder) */\n      sub\n        /* \"@prb/math/contracts/PRBMath.sol\":21057:21096  div(sub(prod0, remainder), SCALE_LPOTD) */\n      div\n        /* \"@prb/math/contracts/PRBMath.sol\":21029:21228  or(... */\n      or\n        /* \"@prb/math/contracts/PRBMath.sol\":21004:21281  mul(... */\n      mul\n        /* \"@prb/math/contracts/PRBMath.sol\":20983:21324  add(... */\n      add\n        /* \"@prb/math/contracts/PRBMath.sol\":20973:21324  result := add(... */\n      swap5\n      pop\n        /* \"@prb/math/contracts/PRBMath.sol\":20959:21334  {... */\n      pop\n      pop\n      pop\n      pop\n        /* \"@prb/math/contracts/PRBMath.sol\":20191:21340  function mulDivFixedPoint(uint256 x, uint256 y) internal pure returns (uint256 result) {... */\n    tag_213:\n      swap3\n      swap2\n      pop\n      pop\n      jump\t// out\n        /* \"@prb/math/contracts/PRBMath.sol\":4886:13360  function exp2(uint256 x) internal pure returns (uint256 result) {... */\n    tag_198:\n        /* \"@prb/math/contracts/PRBMath.sol\":4934:4948  uint256 result */\n      0x00\n        /* \"@prb/math/contracts/PRBMath.sol\":5061:5111  0x800000000000000000000000000000000000000000000000 */\n      0x800000000000000000000000000000000000000000000000\n        /* \"@prb/math/contracts/PRBMath.sol\":5052:5111  result = 0x800000000000000000000000000000000000000000000000 */\n      swap1\n      pop\n        /* \"@prb/math/contracts/PRBMath.sol\":5376:5377  0 */\n      0x00\n        /* \"@prb/math/contracts/PRBMath.sol\":5355:5373  0x8000000000000000 */\n      0x8000000000000000\n        /* \"@prb/math/contracts/PRBMath.sol\":5351:5352  x */\n      dup4\n        /* \"@prb/math/contracts/PRBMath.sol\":5351:5373  x & 0x8000000000000000 */\n      and\n        /* \"@prb/math/contracts/PRBMath.sol\":5351:5377  x & 0x8000000000000000 > 0 */\n      gt\n        /* \"@prb/math/contracts/PRBMath.sol\":5347:5457  if (x & 0x8000000000000000 > 0) {... */\n      iszero\n      tag_220\n      jumpi\n        /* \"@prb/math/contracts/PRBMath.sol\":5440:5442  64 */\n      0x40\n        /* \"@prb/math/contracts/PRBMath.sol\":5416:5435  0x16A09E667F3BCC909 */\n      0x016a09e667f3bcc909\n        /* \"@prb/math/contracts/PRBMath.sol\":5407:5413  result */\n      dup3\n        /* \"@prb/math/contracts/PRBMath.sol\":5407:5435  result * 0x16A09E667F3BCC909 */\n      mul\n        /* \"@prb/math/contracts/PRBMath.sol\":5406:5442  (result * 0x16A09E667F3BCC909) >> 64 */\n      swap1\n      shr\n        /* \"@prb/math/contracts/PRBMath.sol\":5397:5442  result = (result * 0x16A09E667F3BCC909) >> 64 */\n      swap1\n      pop\n        /* \"@prb/math/contracts/PRBMath.sol\":5347:5457  if (x & 0x8000000000000000 > 0) {... */\n    tag_220:\n        /* \"@prb/math/contracts/PRBMath.sol\":5499:5500  0 */\n      0x00\n        /* \"@prb/math/contracts/PRBMath.sol\":5478:5496  0x4000000000000000 */\n      0x4000000000000000\n        /* \"@prb/math/contracts/PRBMath.sol\":5474:5475  x */\n      dup4\n        /* \"@prb/math/contracts/PRBMath.sol\":5474:5496  x & 0x4000000000000000 */\n      and\n        /* \"@prb/math/contracts/PRBMath.sol\":5474:5500  x & 0x4000000000000000 > 0 */\n      gt\n        /* \"@prb/math/contracts/PRBMath.sol\":5470:5580  if (x & 0x4000000000000000 > 0) {... */\n      iszero\n      tag_221\n      jumpi\n        /* \"@prb/math/contracts/PRBMath.sol\":5563:5565  64 */\n      0x40\n        /* \"@prb/math/contracts/PRBMath.sol\":5539:5558  0x1306FE0A31B7152DF */\n      0x01306fe0a31b7152df\n        /* \"@prb/math/contracts/PRBMath.sol\":5530:5536  result */\n      dup3\n        /* \"@prb/math/contracts/PRBMath.sol\":5530:5558  result * 0x1306FE0A31B7152DF */\n      mul\n        /* \"@prb/math/contracts/PRBMath.sol\":5529:5565  (result * 0x1306FE0A31B7152DF) >> 64 */\n      swap1\n      shr\n        /* \"@prb/math/contracts/PRBMath.sol\":5520:5565  result = (result * 0x1306FE0A31B7152DF) >> 64 */\n      swap1\n      pop\n        /* \"@prb/math/contracts/PRBMath.sol\":5470:5580  if (x & 0x4000000000000000 > 0) {... */\n    tag_221:\n        /* \"@prb/math/contracts/PRBMath.sol\":5622:5623  0 */\n      0x00\n        /* \"@prb/math/contracts/PRBMath.sol\":5601:5619  0x2000000000000000 */\n      0x2000000000000000\n        /* \"@prb/math/contracts/PRBMath.sol\":5597:5598  x */\n      dup4\n        /* \"@prb/math/contracts/PRBMath.sol\":5597:5619  x & 0x2000000000000000 */\n      and\n        /* \"@prb/math/contracts/PRBMath.sol\":5597:5623  x & 0x2000000000000000 > 0 */\n      gt\n        /* \"@prb/math/contracts/PRBMath.sol\":5593:5703  if (x & 0x2000000000000000 > 0) {... */\n      iszero\n      tag_222\n      jumpi\n        /* \"@prb/math/contracts/PRBMath.sol\":5686:5688  64 */\n      0x40\n        /* \"@prb/math/contracts/PRBMath.sol\":5662:5681  0x1172B83C7D517ADCE */\n      0x01172b83c7d517adce\n        /* \"@prb/math/contracts/PRBMath.sol\":5653:5659  result */\n      dup3\n        /* \"@prb/math/contracts/PRBMath.sol\":5653:5681  result * 0x1172B83C7D517ADCE */\n      mul\n        /* \"@prb/math/contracts/PRBMath.sol\":5652:5688  (result * 0x1172B83C7D517ADCE) >> 64 */\n      swap1\n      shr\n        /* \"@prb/math/contracts/PRBMath.sol\":5643:5688  result = (result * 0x1172B83C7D517ADCE) >> 64 */\n      swap1\n      pop\n        /* \"@prb/math/contracts/PRBMath.sol\":5593:5703  if (x & 0x2000000000000000 > 0) {... */\n    tag_222:\n        /* \"@prb/math/contracts/PRBMath.sol\":5745:5746  0 */\n      0x00\n        /* \"@prb/math/contracts/PRBMath.sol\":5724:5742  0x1000000000000000 */\n      0x1000000000000000\n        /* \"@prb/math/contracts/PRBMath.sol\":5720:5721  x */\n      dup4\n        /* \"@prb/math/contracts/PRBMath.sol\":5720:5742  x & 0x1000000000000000 */\n      and\n        /* \"@prb/math/contracts/PRBMath.sol\":5720:5746  x & 0x1000000000000000 > 0 */\n      gt\n        /* \"@prb/math/contracts/PRBMath.sol\":5716:5826  if (x & 0x1000000000000000 > 0) {... */\n      iszero\n      tag_223\n      jumpi\n        /* \"@prb/math/contracts/PRBMath.sol\":5809:5811  64 */\n      0x40\n        /* \"@prb/math/contracts/PRBMath.sol\":5785:5804  0x10B5586CF9890F62A */\n      0x010b5586cf9890f62a\n        /* \"@prb/math/contracts/PRBMath.sol\":5776:5782  result */\n      dup3\n        /* \"@prb/math/contracts/PRBMath.sol\":5776:5804  result * 0x10B5586CF9890F62A */\n      mul\n        /* \"@prb/math/contracts/PRBMath.sol\":5775:5811  (result * 0x10B5586CF9890F62A) >> 64 */\n      swap1\n      shr\n        /* \"@prb/math/contracts/PRBMath.sol\":5766:5811  result = (result * 0x10B5586CF9890F62A) >> 64 */\n      swap1\n      pop\n        /* \"@prb/math/contracts/PRBMath.sol\":5716:5826  if (x & 0x1000000000000000 > 0) {... */\n    tag_223:\n        /* \"@prb/math/contracts/PRBMath.sol\":5867:5868  0 */\n      0x00\n        /* \"@prb/math/contracts/PRBMath.sol\":5847:5864  0x800000000000000 */\n      0x0800000000000000\n        /* \"@prb/math/contracts/PRBMath.sol\":5843:5844  x */\n      dup4\n        /* \"@prb/math/contracts/PRBMath.sol\":5843:5864  x & 0x800000000000000 */\n      and\n        /* \"@prb/math/contracts/PRBMath.sol\":5843:5868  x & 0x800000000000000 > 0 */\n      gt\n        /* \"@prb/math/contracts/PRBMath.sol\":5839:5948  if (x & 0x800000000000000 > 0) {... */\n      iszero\n      tag_224\n      jumpi\n        /* \"@prb/math/contracts/PRBMath.sol\":5931:5933  64 */\n      0x40\n        /* \"@prb/math/contracts/PRBMath.sol\":5907:5926  0x1059B0D31585743AE */\n      0x01059b0d31585743ae\n        /* \"@prb/math/contracts/PRBMath.sol\":5898:5904  result */\n      dup3\n        /* \"@prb/math/contracts/PRBMath.sol\":5898:5926  result * 0x1059B0D31585743AE */\n      mul\n        /* \"@prb/math/contracts/PRBMath.sol\":5897:5933  (result * 0x1059B0D31585743AE) >> 64 */\n      swap1\n      shr\n        /* \"@prb/math/contracts/PRBMath.sol\":5888:5933  result = (result * 0x1059B0D31585743AE) >> 64 */\n      swap1\n      pop\n        /* \"@prb/math/contracts/PRBMath.sol\":5839:5948  if (x & 0x800000000000000 > 0) {... */\n    tag_224:\n        /* \"@prb/math/contracts/PRBMath.sol\":5989:5990  0 */\n      0x00\n        /* \"@prb/math/contracts/PRBMath.sol\":5969:5986  0x400000000000000 */\n      0x0400000000000000\n        /* \"@prb/math/contracts/PRBMath.sol\":5965:5966  x */\n      dup4\n        /* \"@prb/math/contracts/PRBMath.sol\":5965:5986  x & 0x400000000000000 */\n      and\n        /* \"@prb/math/contracts/PRBMath.sol\":5965:5990  x & 0x400000000000000 > 0 */\n      gt\n        /* \"@prb/math/contracts/PRBMath.sol\":5961:6070  if (x & 0x400000000000000 > 0) {... */\n      iszero\n      tag_225\n      jumpi\n        /* \"@prb/math/contracts/PRBMath.sol\":6053:6055  64 */\n      0x40\n        /* \"@prb/math/contracts/PRBMath.sol\":6029:6048  0x102C9A3E778060EE7 */\n      0x0102c9a3e778060ee7\n        /* \"@prb/math/contracts/PRBMath.sol\":6020:6026  result */\n      dup3\n        /* \"@prb/math/contracts/PRBMath.sol\":6020:6048  result * 0x102C9A3E778060EE7 */\n      mul\n        /* \"@prb/math/contracts/PRBMath.sol\":6019:6055  (result * 0x102C9A3E778060EE7) >> 64 */\n      swap1\n      shr\n        /* \"@prb/math/contracts/PRBMath.sol\":6010:6055  result = (result * 0x102C9A3E778060EE7) >> 64 */\n      swap1\n      pop\n        /* \"@prb/math/contracts/PRBMath.sol\":5961:6070  if (x & 0x400000000000000 > 0) {... */\n    tag_225:\n        /* \"@prb/math/contracts/PRBMath.sol\":6111:6112  0 */\n      0x00\n        /* \"@prb/math/contracts/PRBMath.sol\":6091:6108  0x200000000000000 */\n      0x0200000000000000\n        /* \"@prb/math/contracts/PRBMath.sol\":6087:6088  x */\n      dup4\n        /* \"@prb/math/contracts/PRBMath.sol\":6087:6108  x & 0x200000000000000 */\n      and\n        /* \"@prb/math/contracts/PRBMath.sol\":6087:6112  x & 0x200000000000000 > 0 */\n      gt\n        /* \"@prb/math/contracts/PRBMath.sol\":6083:6192  if (x & 0x200000000000000 > 0) {... */\n      iszero\n      tag_226\n      jumpi\n        /* \"@prb/math/contracts/PRBMath.sol\":6175:6177  64 */\n      0x40\n        /* \"@prb/math/contracts/PRBMath.sol\":6151:6170  0x10163DA9FB33356D8 */\n      0x010163da9fb33356d8\n        /* \"@prb/math/contracts/PRBMath.sol\":6142:6148  result */\n      dup3\n        /* \"@prb/math/contracts/PRBMath.sol\":6142:6170  result * 0x10163DA9FB33356D8 */\n      mul\n        /* \"@prb/math/contracts/PRBMath.sol\":6141:6177  (result * 0x10163DA9FB33356D8) >> 64 */\n      swap1\n      shr\n        /* \"@prb/math/contracts/PRBMath.sol\":6132:6177  result = (result * 0x10163DA9FB33356D8) >> 64 */\n      swap1\n      pop\n        /* \"@prb/math/contracts/PRBMath.sol\":6083:6192  if (x & 0x200000000000000 > 0) {... */\n    tag_226:\n        /* \"@prb/math/contracts/PRBMath.sol\":6233:6234  0 */\n      0x00\n        /* \"@prb/math/contracts/PRBMath.sol\":6213:6230  0x100000000000000 */\n      0x0100000000000000\n        /* \"@prb/math/contracts/PRBMath.sol\":6209:6210  x */\n      dup4\n        /* \"@prb/math/contracts/PRBMath.sol\":6209:6230  x & 0x100000000000000 */\n      and\n        /* \"@prb/math/contracts/PRBMath.sol\":6209:6234  x & 0x100000000000000 > 0 */\n      gt\n        /* \"@prb/math/contracts/PRBMath.sol\":6205:6314  if (x & 0x100000000000000 > 0) {... */\n      iszero\n      tag_227\n      jumpi\n        /* \"@prb/math/contracts/PRBMath.sol\":6297:6299  64 */\n      0x40\n        /* \"@prb/math/contracts/PRBMath.sol\":6273:6292  0x100B1AFA5ABCBED61 */\n      0x0100b1afa5abcbed61\n        /* \"@prb/math/contracts/PRBMath.sol\":6264:6270  result */\n      dup3\n        /* \"@prb/math/contracts/PRBMath.sol\":6264:6292  result * 0x100B1AFA5ABCBED61 */\n      mul\n        /* \"@prb/math/contracts/PRBMath.sol\":6263:6299  (result * 0x100B1AFA5ABCBED61) >> 64 */\n      swap1\n      shr\n        /* \"@prb/math/contracts/PRBMath.sol\":6254:6299  result = (result * 0x100B1AFA5ABCBED61) >> 64 */\n      swap1\n      pop\n        /* \"@prb/math/contracts/PRBMath.sol\":6205:6314  if (x & 0x100000000000000 > 0) {... */\n    tag_227:\n        /* \"@prb/math/contracts/PRBMath.sol\":6354:6355  0 */\n      0x00\n        /* \"@prb/math/contracts/PRBMath.sol\":6335:6351  0x80000000000000 */\n      0x80000000000000\n        /* \"@prb/math/contracts/PRBMath.sol\":6331:6332  x */\n      dup4\n        /* \"@prb/math/contracts/PRBMath.sol\":6331:6351  x & 0x80000000000000 */\n      and\n        /* \"@prb/math/contracts/PRBMath.sol\":6331:6355  x & 0x80000000000000 > 0 */\n      gt\n        /* \"@prb/math/contracts/PRBMath.sol\":6327:6435  if (x & 0x80000000000000 > 0) {... */\n      iszero\n      tag_228\n      jumpi\n        /* \"@prb/math/contracts/PRBMath.sol\":6418:6420  64 */\n      0x40\n        /* \"@prb/math/contracts/PRBMath.sol\":6394:6413  0x10058C86DA1C09EA2 */\n      0x010058c86da1c09ea2\n        /* \"@prb/math/contracts/PRBMath.sol\":6385:6391  result */\n      dup3\n        /* \"@prb/math/contracts/PRBMath.sol\":6385:6413  result * 0x10058C86DA1C09EA2 */\n      mul\n        /* \"@prb/math/contracts/PRBMath.sol\":6384:6420  (result * 0x10058C86DA1C09EA2) >> 64 */\n      swap1\n      shr\n        /* \"@prb/math/contracts/PRBMath.sol\":6375:6420  result = (result * 0x10058C86DA1C09EA2) >> 64 */\n      swap1\n      pop\n        /* \"@prb/math/contracts/PRBMath.sol\":6327:6435  if (x & 0x80000000000000 > 0) {... */\n    tag_228:\n        /* \"@prb/math/contracts/PRBMath.sol\":6475:6476  0 */\n      0x00\n        /* \"@prb/math/contracts/PRBMath.sol\":6456:6472  0x40000000000000 */\n      0x40000000000000\n        /* \"@prb/math/contracts/PRBMath.sol\":6452:6453  x */\n      dup4\n        /* \"@prb/math/contracts/PRBMath.sol\":6452:6472  x & 0x40000000000000 */\n      and\n        /* \"@prb/math/contracts/PRBMath.sol\":6452:6476  x & 0x40000000000000 > 0 */\n      gt\n        /* \"@prb/math/contracts/PRBMath.sol\":6448:6556  if (x & 0x40000000000000 > 0) {... */\n      iszero\n      tag_229\n      jumpi\n        /* \"@prb/math/contracts/PRBMath.sol\":6539:6541  64 */\n      0x40\n        /* \"@prb/math/contracts/PRBMath.sol\":6515:6534  0x1002C605E2E8CEC50 */\n      0x01002c605e2e8cec50\n        /* \"@prb/math/contracts/PRBMath.sol\":6506:6512  result */\n      dup3\n        /* \"@prb/math/contracts/PRBMath.sol\":6506:6534  result * 0x1002C605E2E8CEC50 */\n      mul\n        /* \"@prb/math/contracts/PRBMath.sol\":6505:6541  (result * 0x1002C605E2E8CEC50) >> 64 */\n      swap1\n      shr\n        /* \"@prb/math/contracts/PRBMath.sol\":6496:6541  result = (result * 0x1002C605E2E8CEC50) >> 64 */\n      swap1\n      pop\n        /* \"@prb/math/contracts/PRBMath.sol\":6448:6556  if (x & 0x40000000000000 > 0) {... */\n    tag_229:\n        /* \"@prb/math/contracts/PRBMath.sol\":6596:6597  0 */\n      0x00\n        /* \"@prb/math/contracts/PRBMath.sol\":6577:6593  0x20000000000000 */\n      0x20000000000000\n        /* \"@prb/math/contracts/PRBMath.sol\":6573:6574  x */\n      dup4\n        /* \"@prb/math/contracts/PRBMath.sol\":6573:6593  x & 0x20000000000000 */\n      and\n        /* \"@prb/math/contracts/PRBMath.sol\":6573:6597  x & 0x20000000000000 > 0 */\n      gt\n        /* \"@prb/math/contracts/PRBMath.sol\":6569:6677  if (x & 0x20000000000000 > 0) {... */\n      iszero\n      tag_230\n      jumpi\n        /* \"@prb/math/contracts/PRBMath.sol\":6660:6662  64 */\n      0x40\n        /* \"@prb/math/contracts/PRBMath.sol\":6636:6655  0x100162F3904051FA1 */\n      0x0100162f3904051fa1\n        /* \"@prb/math/contracts/PRBMath.sol\":6627:6633  result */\n      dup3\n        /* \"@prb/math/contracts/PRBMath.sol\":6627:6655  result * 0x100162F3904051FA1 */\n      mul\n        /* \"@prb/math/contracts/PRBMath.sol\":6626:6662  (result * 0x100162F3904051FA1) >> 64 */\n      swap1\n      shr\n        /* \"@prb/math/contracts/PRBMath.sol\":6617:6662  result = (result * 0x100162F3904051FA1) >> 64 */\n      swap1\n      pop\n        /* \"@prb/math/contracts/PRBMath.sol\":6569:6677  if (x & 0x20000000000000 > 0) {... */\n    tag_230:\n        /* \"@prb/math/contracts/PRBMath.sol\":6717:6718  0 */\n      0x00\n        /* \"@prb/math/contracts/PRBMath.sol\":6698:6714  0x10000000000000 */\n      0x10000000000000\n        /* \"@prb/math/contracts/PRBMath.sol\":6694:6695  x */\n      dup4\n        /* \"@prb/math/contracts/PRBMath.sol\":6694:6714  x & 0x10000000000000 */\n      and\n        /* \"@prb/math/contracts/PRBMath.sol\":6694:6718  x & 0x10000000000000 > 0 */\n      gt\n        /* \"@prb/math/contracts/PRBMath.sol\":6690:6798  if (x & 0x10000000000000 > 0) {... */\n      iszero\n      tag_231\n      jumpi\n        /* \"@prb/math/contracts/PRBMath.sol\":6781:6783  64 */\n      0x40\n        /* \"@prb/math/contracts/PRBMath.sol\":6757:6776  0x1000B175EFFDC76BA */\n      0x01000b175effdc76ba\n        /* \"@prb/math/contracts/PRBMath.sol\":6748:6754  result */\n      dup3\n        /* \"@prb/math/contracts/PRBMath.sol\":6748:6776  result * 0x1000B175EFFDC76BA */\n      mul\n        /* \"@prb/math/contracts/PRBMath.sol\":6747:6783  (result * 0x1000B175EFFDC76BA) >> 64 */\n      swap1\n      shr\n        /* \"@prb/math/contracts/PRBMath.sol\":6738:6783  result = (result * 0x1000B175EFFDC76BA) >> 64 */\n      swap1\n      pop\n        /* \"@prb/math/contracts/PRBMath.sol\":6690:6798  if (x & 0x10000000000000 > 0) {... */\n    tag_231:\n        /* \"@prb/math/contracts/PRBMath.sol\":6837:6838  0 */\n      0x00\n        /* \"@prb/math/contracts/PRBMath.sol\":6819:6834  0x8000000000000 */\n      0x08000000000000\n        /* \"@prb/math/contracts/PRBMath.sol\":6815:6816  x */\n      dup4\n        /* \"@prb/math/contracts/PRBMath.sol\":6815:6834  x & 0x8000000000000 */\n      and\n        /* \"@prb/math/contracts/PRBMath.sol\":6815:6838  x & 0x8000000000000 > 0 */\n      gt\n        /* \"@prb/math/contracts/PRBMath.sol\":6811:6918  if (x & 0x8000000000000 > 0) {... */\n      iszero\n      tag_232\n      jumpi\n        /* \"@prb/math/contracts/PRBMath.sol\":6901:6903  64 */\n      0x40\n        /* \"@prb/math/contracts/PRBMath.sol\":6877:6896  0x100058BA01FB9F96D */\n      0x0100058ba01fb9f96d\n        /* \"@prb/math/contracts/PRBMath.sol\":6868:6874  result */\n      dup3\n        /* \"@prb/math/contracts/PRBMath.sol\":6868:6896  result * 0x100058BA01FB9F96D */\n      mul\n        /* \"@prb/math/contracts/PRBMath.sol\":6867:6903  (result * 0x100058BA01FB9F96D) >> 64 */\n      swap1\n      shr\n        /* \"@prb/math/contracts/PRBMath.sol\":6858:6903  result = (result * 0x100058BA01FB9F96D) >> 64 */\n      swap1\n      pop\n        /* \"@prb/math/contracts/PRBMath.sol\":6811:6918  if (x & 0x8000000000000 > 0) {... */\n    tag_232:\n        /* \"@prb/math/contracts/PRBMath.sol\":6957:6958  0 */\n      0x00\n        /* \"@prb/math/contracts/PRBMath.sol\":6939:6954  0x4000000000000 */\n      0x04000000000000\n        /* \"@prb/math/contracts/PRBMath.sol\":6935:6936  x */\n      dup4\n        /* \"@prb/math/contracts/PRBMath.sol\":6935:6954  x & 0x4000000000000 */\n      and\n        /* \"@prb/math/contracts/PRBMath.sol\":6935:6958  x & 0x4000000000000 > 0 */\n      gt\n        /* \"@prb/math/contracts/PRBMath.sol\":6931:7038  if (x & 0x4000000000000 > 0) {... */\n      iszero\n      tag_233\n      jumpi\n        /* \"@prb/math/contracts/PRBMath.sol\":7021:7023  64 */\n      0x40\n        /* \"@prb/math/contracts/PRBMath.sol\":6997:7016  0x10002C5CC37DA9492 */\n      0x010002c5cc37da9492\n        /* \"@prb/math/contracts/PRBMath.sol\":6988:6994  result */\n      dup3\n        /* \"@prb/math/contracts/PRBMath.sol\":6988:7016  result * 0x10002C5CC37DA9492 */\n      mul\n        /* \"@prb/math/contracts/PRBMath.sol\":6987:7023  (result * 0x10002C5CC37DA9492) >> 64 */\n      swap1\n      shr\n        /* \"@prb/math/contracts/PRBMath.sol\":6978:7023  result = (result * 0x10002C5CC37DA9492) >> 64 */\n      swap1\n      pop\n        /* \"@prb/math/contracts/PRBMath.sol\":6931:7038  if (x & 0x4000000000000 > 0) {... */\n    tag_233:\n        /* \"@prb/math/contracts/PRBMath.sol\":7077:7078  0 */\n      0x00\n        /* \"@prb/math/contracts/PRBMath.sol\":7059:7074  0x2000000000000 */\n      0x02000000000000\n        /* \"@prb/math/contracts/PRBMath.sol\":7055:7056  x */\n      dup4\n        /* \"@prb/math/contracts/PRBMath.sol\":7055:7074  x & 0x2000000000000 */\n      and\n        /* \"@prb/math/contracts/PRBMath.sol\":7055:7078  x & 0x2000000000000 > 0 */\n      gt\n        /* \"@prb/math/contracts/PRBMath.sol\":7051:7158  if (x & 0x2000000000000 > 0) {... */\n      iszero\n      tag_234\n      jumpi\n        /* \"@prb/math/contracts/PRBMath.sol\":7141:7143  64 */\n      0x40\n        /* \"@prb/math/contracts/PRBMath.sol\":7117:7136  0x1000162E525EE0547 */\n      0x01000162e525ee0547\n        /* \"@prb/math/contracts/PRBMath.sol\":7108:7114  result */\n      dup3\n        /* \"@prb/math/contracts/PRBMath.sol\":7108:7136  result * 0x1000162E525EE0547 */\n      mul\n        /* \"@prb/math/contracts/PRBMath.sol\":7107:7143  (result * 0x1000162E525EE0547) >> 64 */\n      swap1\n      shr\n        /* \"@prb/math/contracts/PRBMath.sol\":7098:7143  result = (result * 0x1000162E525EE0547) >> 64 */\n      swap1\n      pop\n        /* \"@prb/math/contracts/PRBMath.sol\":7051:7158  if (x & 0x2000000000000 > 0) {... */\n    tag_234:\n        /* \"@prb/math/contracts/PRBMath.sol\":7197:7198  0 */\n      0x00\n        /* \"@prb/math/contracts/PRBMath.sol\":7179:7194  0x1000000000000 */\n      0x01000000000000\n        /* \"@prb/math/contracts/PRBMath.sol\":7175:7176  x */\n      dup4\n        /* \"@prb/math/contracts/PRBMath.sol\":7175:7194  x & 0x1000000000000 */\n      and\n        /* \"@prb/math/contracts/PRBMath.sol\":7175:7198  x & 0x1000000000000 > 0 */\n      gt\n        /* \"@prb/math/contracts/PRBMath.sol\":7171:7278  if (x & 0x1000000000000 > 0) {... */\n      iszero\n      tag_235\n      jumpi\n        /* \"@prb/math/contracts/PRBMath.sol\":7261:7263  64 */\n      0x40\n        /* \"@prb/math/contracts/PRBMath.sol\":7237:7256  0x10000B17255775C04 */\n      0x010000b17255775c04\n        /* \"@prb/math/contracts/PRBMath.sol\":7228:7234  result */\n      dup3\n        /* \"@prb/math/contracts/PRBMath.sol\":7228:7256  result * 0x10000B17255775C04 */\n      mul\n        /* \"@prb/math/contracts/PRBMath.sol\":7227:7263  (result * 0x10000B17255775C04) >> 64 */\n      swap1\n      shr\n        /* \"@prb/math/contracts/PRBMath.sol\":7218:7263  result = (result * 0x10000B17255775C04) >> 64 */\n      swap1\n      pop\n        /* \"@prb/math/contracts/PRBMath.sol\":7171:7278  if (x & 0x1000000000000 > 0) {... */\n    tag_235:\n        /* \"@prb/math/contracts/PRBMath.sol\":7316:7317  0 */\n      0x00\n        /* \"@prb/math/contracts/PRBMath.sol\":7299:7313  0x800000000000 */\n      0x800000000000\n        /* \"@prb/math/contracts/PRBMath.sol\":7295:7296  x */\n      dup4\n        /* \"@prb/math/contracts/PRBMath.sol\":7295:7313  x & 0x800000000000 */\n      and\n        /* \"@prb/math/contracts/PRBMath.sol\":7295:7317  x & 0x800000000000 > 0 */\n      gt\n        /* \"@prb/math/contracts/PRBMath.sol\":7291:7397  if (x & 0x800000000000 > 0) {... */\n      iszero\n      tag_236\n      jumpi\n        /* \"@prb/math/contracts/PRBMath.sol\":7380:7382  64 */\n      0x40\n        /* \"@prb/math/contracts/PRBMath.sol\":7356:7375  0x1000058B91B5BC9AE */\n      0x01000058b91b5bc9ae\n        /* \"@prb/math/contracts/PRBMath.sol\":7347:7353  result */\n      dup3\n        /* \"@prb/math/contracts/PRBMath.sol\":7347:7375  result * 0x1000058B91B5BC9AE */\n      mul\n        /* \"@prb/math/contracts/PRBMath.sol\":7346:7382  (result * 0x1000058B91B5BC9AE) >> 64 */\n      swap1\n      shr\n        /* \"@prb/math/contracts/PRBMath.sol\":7337:7382  result = (result * 0x1000058B91B5BC9AE) >> 64 */\n      swap1\n      pop\n        /* \"@prb/math/contracts/PRBMath.sol\":7291:7397  if (x & 0x800000000000 > 0) {... */\n    tag_236:\n        /* \"@prb/math/contracts/PRBMath.sol\":7435:7436  0 */\n      0x00\n        /* \"@prb/math/contracts/PRBMath.sol\":7418:7432  0x400000000000 */\n      0x400000000000\n        /* \"@prb/math/contracts/PRBMath.sol\":7414:7415  x */\n      dup4\n        /* \"@prb/math/contracts/PRBMath.sol\":7414:7432  x & 0x400000000000 */\n      and\n        /* \"@prb/math/contracts/PRBMath.sol\":7414:7436  x & 0x400000000000 > 0 */\n      gt\n        /* \"@prb/math/contracts/PRBMath.sol\":7410:7516  if (x & 0x400000000000 > 0) {... */\n      iszero\n      tag_237\n      jumpi\n        /* \"@prb/math/contracts/PRBMath.sol\":7499:7501  64 */\n      0x40\n        /* \"@prb/math/contracts/PRBMath.sol\":7475:7494  0x100002C5C89D5EC6D */\n      0x0100002c5c89d5ec6d\n        /* \"@prb/math/contracts/PRBMath.sol\":7466:7472  result */\n      dup3\n        /* \"@prb/math/contracts/PRBMath.sol\":7466:7494  result * 0x100002C5C89D5EC6D */\n      mul\n        /* \"@prb/math/contracts/PRBMath.sol\":7465:7501  (result * 0x100002C5C89D5EC6D) >> 64 */\n      swap1\n      shr\n        /* \"@prb/math/contracts/PRBMath.sol\":7456:7501  result = (result * 0x100002C5C89D5EC6D) >> 64 */\n      swap1\n      pop\n        /* \"@prb/math/contracts/PRBMath.sol\":7410:7516  if (x & 0x400000000000 > 0) {... */\n    tag_237:\n        /* \"@prb/math/contracts/PRBMath.sol\":7554:7555  0 */\n      0x00\n        /* \"@prb/math/contracts/PRBMath.sol\":7537:7551  0x200000000000 */\n      0x200000000000\n        /* \"@prb/math/contracts/PRBMath.sol\":7533:7534  x */\n      dup4\n        /* \"@prb/math/contracts/PRBMath.sol\":7533:7551  x & 0x200000000000 */\n      and\n        /* \"@prb/math/contracts/PRBMath.sol\":7533:7555  x & 0x200000000000 > 0 */\n      gt\n        /* \"@prb/math/contracts/PRBMath.sol\":7529:7635  if (x & 0x200000000000 > 0) {... */\n      iszero\n      tag_238\n      jumpi\n        /* \"@prb/math/contracts/PRBMath.sol\":7618:7620  64 */\n      0x40\n        /* \"@prb/math/contracts/PRBMath.sol\":7594:7613  0x10000162E43F4F831 */\n      0x010000162e43f4f831\n        /* \"@prb/math/contracts/PRBMath.sol\":7585:7591  result */\n      dup3\n        /* \"@prb/math/contracts/PRBMath.sol\":7585:7613  result * 0x10000162E43F4F831 */\n      mul\n        /* \"@prb/math/contracts/PRBMath.sol\":7584:7620  (result * 0x10000162E43F4F831) >> 64 */\n      swap1\n      shr\n        /* \"@prb/math/contracts/PRBMath.sol\":7575:7620  result = (result * 0x10000162E43F4F831) >> 64 */\n      swap1\n      pop\n        /* \"@prb/math/contracts/PRBMath.sol\":7529:7635  if (x & 0x200000000000 > 0) {... */\n    tag_238:\n        /* \"@prb/math/contracts/PRBMath.sol\":7673:7674  0 */\n      0x00\n        /* \"@prb/math/contracts/PRBMath.sol\":7656:7670  0x100000000000 */\n      0x100000000000\n        /* \"@prb/math/contracts/PRBMath.sol\":7652:7653  x */\n      dup4\n        /* \"@prb/math/contracts/PRBMath.sol\":7652:7670  x & 0x100000000000 */\n      and\n        /* \"@prb/math/contracts/PRBMath.sol\":7652:7674  x & 0x100000000000 > 0 */\n      gt\n        /* \"@prb/math/contracts/PRBMath.sol\":7648:7754  if (x & 0x100000000000 > 0) {... */\n      iszero\n      tag_239\n      jumpi\n        /* \"@prb/math/contracts/PRBMath.sol\":7737:7739  64 */\n      0x40\n        /* \"@prb/math/contracts/PRBMath.sol\":7713:7732  0x100000B1721BCFC9A */\n      0x0100000b1721bcfc9a\n        /* \"@prb/math/contracts/PRBMath.sol\":7704:7710  result */\n      dup3\n        /* \"@prb/math/contracts/PRBMath.sol\":7704:7732  result * 0x100000B1721BCFC9A */\n      mul\n        /* \"@prb/math/contracts/PRBMath.sol\":7703:7739  (result * 0x100000B1721BCFC9A) >> 64 */\n      swap1\n      shr\n        /* \"@prb/math/contracts/PRBMath.sol\":7694:7739  result = (result * 0x100000B1721BCFC9A) >> 64 */\n      swap1\n      pop\n        /* \"@prb/math/contracts/PRBMath.sol\":7648:7754  if (x & 0x100000000000 > 0) {... */\n    tag_239:\n        /* \"@prb/math/contracts/PRBMath.sol\":7791:7792  0 */\n      0x00\n        /* \"@prb/math/contracts/PRBMath.sol\":7775:7788  0x80000000000 */\n      0x080000000000\n        /* \"@prb/math/contracts/PRBMath.sol\":7771:7772  x */\n      dup4\n        /* \"@prb/math/contracts/PRBMath.sol\":7771:7788  x & 0x80000000000 */\n      and\n        /* \"@prb/math/contracts/PRBMath.sol\":7771:7792  x & 0x80000000000 > 0 */\n      gt\n        /* \"@prb/math/contracts/PRBMath.sol\":7767:7872  if (x & 0x80000000000 > 0) {... */\n      iszero\n      tag_240\n      jumpi\n        /* \"@prb/math/contracts/PRBMath.sol\":7855:7857  64 */\n      0x40\n        /* \"@prb/math/contracts/PRBMath.sol\":7831:7850  0x10000058B90CF1E6E */\n      0x010000058b90cf1e6e\n        /* \"@prb/math/contracts/PRBMath.sol\":7822:7828  result */\n      dup3\n        /* \"@prb/math/contracts/PRBMath.sol\":7822:7850  result * 0x10000058B90CF1E6E */\n      mul\n        /* \"@prb/math/contracts/PRBMath.sol\":7821:7857  (result * 0x10000058B90CF1E6E) >> 64 */\n      swap1\n      shr\n        /* \"@prb/math/contracts/PRBMath.sol\":7812:7857  result = (result * 0x10000058B90CF1E6E) >> 64 */\n      swap1\n      pop\n        /* \"@prb/math/contracts/PRBMath.sol\":7767:7872  if (x & 0x80000000000 > 0) {... */\n    tag_240:\n        /* \"@prb/math/contracts/PRBMath.sol\":7909:7910  0 */\n      0x00\n        /* \"@prb/math/contracts/PRBMath.sol\":7893:7906  0x40000000000 */\n      0x040000000000\n        /* \"@prb/math/contracts/PRBMath.sol\":7889:7890  x */\n      dup4\n        /* \"@prb/math/contracts/PRBMath.sol\":7889:7906  x & 0x40000000000 */\n      and\n        /* \"@prb/math/contracts/PRBMath.sol\":7889:7910  x & 0x40000000000 > 0 */\n      gt\n        /* \"@prb/math/contracts/PRBMath.sol\":7885:7990  if (x & 0x40000000000 > 0) {... */\n      iszero\n      tag_241\n      jumpi\n        /* \"@prb/math/contracts/PRBMath.sol\":7973:7975  64 */\n      0x40\n        /* \"@prb/math/contracts/PRBMath.sol\":7949:7968  0x1000002C5C863B73F */\n      0x01000002c5c863b73f\n        /* \"@prb/math/contracts/PRBMath.sol\":7940:7946  result */\n      dup3\n        /* \"@prb/math/contracts/PRBMath.sol\":7940:7968  result * 0x1000002C5C863B73F */\n      mul\n        /* \"@prb/math/contracts/PRBMath.sol\":7939:7975  (result * 0x1000002C5C863B73F) >> 64 */\n      swap1\n      shr\n        /* \"@prb/math/contracts/PRBMath.sol\":7930:7975  result = (result * 0x1000002C5C863B73F) >> 64 */\n      swap1\n      pop\n        /* \"@prb/math/contracts/PRBMath.sol\":7885:7990  if (x & 0x40000000000 > 0) {... */\n    tag_241:\n        /* \"@prb/math/contracts/PRBMath.sol\":8027:8028  0 */\n      0x00\n        /* \"@prb/math/contracts/PRBMath.sol\":8011:8024  0x20000000000 */\n      0x020000000000\n        /* \"@prb/math/contracts/PRBMath.sol\":8007:8008  x */\n      dup4\n        /* \"@prb/math/contracts/PRBMath.sol\":8007:8024  x & 0x20000000000 */\n      and\n        /* \"@prb/math/contracts/PRBMath.sol\":8007:8028  x & 0x20000000000 > 0 */\n      gt\n        /* \"@prb/math/contracts/PRBMath.sol\":8003:8108  if (x & 0x20000000000 > 0) {... */\n      iszero\n      tag_242\n      jumpi\n        /* \"@prb/math/contracts/PRBMath.sol\":8091:8093  64 */\n      0x40\n        /* \"@prb/math/contracts/PRBMath.sol\":8067:8086  0x100000162E430E5A2 */\n      0x0100000162e430e5a2\n        /* \"@prb/math/contracts/PRBMath.sol\":8058:8064  result */\n      dup3\n        /* \"@prb/math/contracts/PRBMath.sol\":8058:8086  result * 0x100000162E430E5A2 */\n      mul\n        /* \"@prb/math/contracts/PRBMath.sol\":8057:8093  (result * 0x100000162E430E5A2) >> 64 */\n      swap1\n      shr\n        /* \"@prb/math/contracts/PRBMath.sol\":8048:8093  result = (result * 0x100000162E430E5A2) >> 64 */\n      swap1\n      pop\n        /* \"@prb/math/contracts/PRBMath.sol\":8003:8108  if (x & 0x20000000000 > 0) {... */\n    tag_242:\n        /* \"@prb/math/contracts/PRBMath.sol\":8145:8146  0 */\n      0x00\n        /* \"@prb/math/contracts/PRBMath.sol\":8129:8142  0x10000000000 */\n      0x010000000000\n        /* \"@prb/math/contracts/PRBMath.sol\":8125:8126  x */\n      dup4\n        /* \"@prb/math/contracts/PRBMath.sol\":8125:8142  x & 0x10000000000 */\n      and\n        /* \"@prb/math/contracts/PRBMath.sol\":8125:8146  x & 0x10000000000 > 0 */\n      gt\n        /* \"@prb/math/contracts/PRBMath.sol\":8121:8226  if (x & 0x10000000000 > 0) {... */\n      iszero\n      tag_243\n      jumpi\n        /* \"@prb/math/contracts/PRBMath.sol\":8209:8211  64 */\n      0x40\n        /* \"@prb/math/contracts/PRBMath.sol\":8185:8204  0x1000000B172183551 */\n      0x01000000b172183551\n        /* \"@prb/math/contracts/PRBMath.sol\":8176:8182  result */\n      dup3\n        /* \"@prb/math/contracts/PRBMath.sol\":8176:8204  result * 0x1000000B172183551 */\n      mul\n        /* \"@prb/math/contracts/PRBMath.sol\":8175:8211  (result * 0x1000000B172183551) >> 64 */\n      swap1\n      shr\n        /* \"@prb/math/contracts/PRBMath.sol\":8166:8211  result = (result * 0x1000000B172183551) >> 64 */\n      swap1\n      pop\n        /* \"@prb/math/contracts/PRBMath.sol\":8121:8226  if (x & 0x10000000000 > 0) {... */\n    tag_243:\n        /* \"@prb/math/contracts/PRBMath.sol\":8262:8263  0 */\n      0x00\n        /* \"@prb/math/contracts/PRBMath.sol\":8247:8259  0x8000000000 */\n      0x8000000000\n        /* \"@prb/math/contracts/PRBMath.sol\":8243:8244  x */\n      dup4\n        /* \"@prb/math/contracts/PRBMath.sol\":8243:8259  x & 0x8000000000 */\n      and\n        /* \"@prb/math/contracts/PRBMath.sol\":8243:8263  x & 0x8000000000 > 0 */\n      gt\n        /* \"@prb/math/contracts/PRBMath.sol\":8239:8343  if (x & 0x8000000000 > 0) {... */\n      iszero\n      tag_244\n      jumpi\n        /* \"@prb/math/contracts/PRBMath.sol\":8326:8328  64 */\n      0x40\n        /* \"@prb/math/contracts/PRBMath.sol\":8302:8321  0x100000058B90C0B49 */\n      0x0100000058b90c0b49\n        /* \"@prb/math/contracts/PRBMath.sol\":8293:8299  result */\n      dup3\n        /* \"@prb/math/contracts/PRBMath.sol\":8293:8321  result * 0x100000058B90C0B49 */\n      mul\n        /* \"@prb/math/contracts/PRBMath.sol\":8292:8328  (result * 0x100000058B90C0B49) >> 64 */\n      swap1\n      shr\n        /* \"@prb/math/contracts/PRBMath.sol\":8283:8328  result = (result * 0x100000058B90C0B49) >> 64 */\n      swap1\n      pop\n        /* \"@prb/math/contracts/PRBMath.sol\":8239:8343  if (x & 0x8000000000 > 0) {... */\n    tag_244:\n        /* \"@prb/math/contracts/PRBMath.sol\":8379:8380  0 */\n      0x00\n        /* \"@prb/math/contracts/PRBMath.sol\":8364:8376  0x4000000000 */\n      0x4000000000\n        /* \"@prb/math/contracts/PRBMath.sol\":8360:8361  x */\n      dup4\n        /* \"@prb/math/contracts/PRBMath.sol\":8360:8376  x & 0x4000000000 */\n      and\n        /* \"@prb/math/contracts/PRBMath.sol\":8360:8380  x & 0x4000000000 > 0 */\n      gt\n        /* \"@prb/math/contracts/PRBMath.sol\":8356:8460  if (x & 0x4000000000 > 0) {... */\n      iszero\n      tag_245\n      jumpi\n        /* \"@prb/math/contracts/PRBMath.sol\":8443:8445  64 */\n      0x40\n        /* \"@prb/math/contracts/PRBMath.sol\":8419:8438  0x10000002C5C8601CC */\n      0x010000002c5c8601cc\n        /* \"@prb/math/contracts/PRBMath.sol\":8410:8416  result */\n      dup3\n        /* \"@prb/math/contracts/PRBMath.sol\":8410:8438  result * 0x10000002C5C8601CC */\n      mul\n        /* \"@prb/math/contracts/PRBMath.sol\":8409:8445  (result * 0x10000002C5C8601CC) >> 64 */\n      swap1\n      shr\n        /* \"@prb/math/contracts/PRBMath.sol\":8400:8445  result = (result * 0x10000002C5C8601CC) >> 64 */\n      swap1\n      pop\n        /* \"@prb/math/contracts/PRBMath.sol\":8356:8460  if (x & 0x4000000000 > 0) {... */\n    tag_245:\n        /* \"@prb/math/contracts/PRBMath.sol\":8496:8497  0 */\n      0x00\n        /* \"@prb/math/contracts/PRBMath.sol\":8481:8493  0x2000000000 */\n      0x2000000000\n        /* \"@prb/math/contracts/PRBMath.sol\":8477:8478  x */\n      dup4\n        /* \"@prb/math/contracts/PRBMath.sol\":8477:8493  x & 0x2000000000 */\n      and\n        /* \"@prb/math/contracts/PRBMath.sol\":8477:8497  x & 0x2000000000 > 0 */\n      gt\n        /* \"@prb/math/contracts/PRBMath.sol\":8473:8577  if (x & 0x2000000000 > 0) {... */\n      iszero\n      tag_246\n      jumpi\n        /* \"@prb/math/contracts/PRBMath.sol\":8560:8562  64 */\n      0x40\n        /* \"@prb/math/contracts/PRBMath.sol\":8536:8555  0x1000000162E42FFF0 */\n      0x01000000162e42fff0\n        /* \"@prb/math/contracts/PRBMath.sol\":8527:8533  result */\n      dup3\n        /* \"@prb/math/contracts/PRBMath.sol\":8527:8555  result * 0x1000000162E42FFF0 */\n      mul\n        /* \"@prb/math/contracts/PRBMath.sol\":8526:8562  (result * 0x1000000162E42FFF0) >> 64 */\n      swap1\n      shr\n        /* \"@prb/math/contracts/PRBMath.sol\":8517:8562  result = (result * 0x1000000162E42FFF0) >> 64 */\n      swap1\n      pop\n        /* \"@prb/math/contracts/PRBMath.sol\":8473:8577  if (x & 0x2000000000 > 0) {... */\n    tag_246:\n        /* \"@prb/math/contracts/PRBMath.sol\":8613:8614  0 */\n      0x00\n        /* \"@prb/math/contracts/PRBMath.sol\":8598:8610  0x1000000000 */\n      0x1000000000\n        /* \"@prb/math/contracts/PRBMath.sol\":8594:8595  x */\n      dup4\n        /* \"@prb/math/contracts/PRBMath.sol\":8594:8610  x & 0x1000000000 */\n      and\n        /* \"@prb/math/contracts/PRBMath.sol\":8594:8614  x & 0x1000000000 > 0 */\n      gt\n        /* \"@prb/math/contracts/PRBMath.sol\":8590:8694  if (x & 0x1000000000 > 0) {... */\n      iszero\n      tag_247\n      jumpi\n        /* \"@prb/math/contracts/PRBMath.sol\":8677:8679  64 */\n      0x40\n        /* \"@prb/math/contracts/PRBMath.sol\":8653:8672  0x10000000B17217FBB */\n      0x010000000b17217fbb\n        /* \"@prb/math/contracts/PRBMath.sol\":8644:8650  result */\n      dup3\n        /* \"@prb/math/contracts/PRBMath.sol\":8644:8672  result * 0x10000000B17217FBB */\n      mul\n        /* \"@prb/math/contracts/PRBMath.sol\":8643:8679  (result * 0x10000000B17217FBB) >> 64 */\n      swap1\n      shr\n        /* \"@prb/math/contracts/PRBMath.sol\":8634:8679  result = (result * 0x10000000B17217FBB) >> 64 */\n      swap1\n      pop\n        /* \"@prb/math/contracts/PRBMath.sol\":8590:8694  if (x & 0x1000000000 > 0) {... */\n    tag_247:\n        /* \"@prb/math/contracts/PRBMath.sol\":8729:8730  0 */\n      0x00\n        /* \"@prb/math/contracts/PRBMath.sol\":8715:8726  0x800000000 */\n      0x0800000000\n        /* \"@prb/math/contracts/PRBMath.sol\":8711:8712  x */\n      dup4\n        /* \"@prb/math/contracts/PRBMath.sol\":8711:8726  x & 0x800000000 */\n      and\n        /* \"@prb/math/contracts/PRBMath.sol\":8711:8730  x & 0x800000000 > 0 */\n      gt\n        /* \"@prb/math/contracts/PRBMath.sol\":8707:8810  if (x & 0x800000000 > 0) {... */\n      iszero\n      tag_248\n      jumpi\n        /* \"@prb/math/contracts/PRBMath.sol\":8793:8795  64 */\n      0x40\n        /* \"@prb/math/contracts/PRBMath.sol\":8769:8788  0x1000000058B90BFCE */\n      0x01000000058b90bfce\n        /* \"@prb/math/contracts/PRBMath.sol\":8760:8766  result */\n      dup3\n        /* \"@prb/math/contracts/PRBMath.sol\":8760:8788  result * 0x1000000058B90BFCE */\n      mul\n        /* \"@prb/math/contracts/PRBMath.sol\":8759:8795  (result * 0x1000000058B90BFCE) >> 64 */\n      swap1\n      shr\n        /* \"@prb/math/contracts/PRBMath.sol\":8750:8795  result = (result * 0x1000000058B90BFCE) >> 64 */\n      swap1\n      pop\n        /* \"@prb/math/contracts/PRBMath.sol\":8707:8810  if (x & 0x800000000 > 0) {... */\n    tag_248:\n        /* \"@prb/math/contracts/PRBMath.sol\":8845:8846  0 */\n      0x00\n        /* \"@prb/math/contracts/PRBMath.sol\":8831:8842  0x400000000 */\n      0x0400000000\n        /* \"@prb/math/contracts/PRBMath.sol\":8827:8828  x */\n      dup4\n        /* \"@prb/math/contracts/PRBMath.sol\":8827:8842  x & 0x400000000 */\n      and\n        /* \"@prb/math/contracts/PRBMath.sol\":8827:8846  x & 0x400000000 > 0 */\n      gt\n        /* \"@prb/math/contracts/PRBMath.sol\":8823:8926  if (x & 0x400000000 > 0) {... */\n      iszero\n      tag_249\n      jumpi\n        /* \"@prb/math/contracts/PRBMath.sol\":8909:8911  64 */\n      0x40\n        /* \"@prb/math/contracts/PRBMath.sol\":8885:8904  0x100000002C5C85FE3 */\n      0x0100000002c5c85fe3\n        /* \"@prb/math/contracts/PRBMath.sol\":8876:8882  result */\n      dup3\n        /* \"@prb/math/contracts/PRBMath.sol\":8876:8904  result * 0x100000002C5C85FE3 */\n      mul\n        /* \"@prb/math/contracts/PRBMath.sol\":8875:8911  (result * 0x100000002C5C85FE3) >> 64 */\n      swap1\n      shr\n        /* \"@prb/math/contracts/PRBMath.sol\":8866:8911  result = (result * 0x100000002C5C85FE3) >> 64 */\n      swap1\n      pop\n        /* \"@prb/math/contracts/PRBMath.sol\":8823:8926  if (x & 0x400000000 > 0) {... */\n    tag_249:\n        /* \"@prb/math/contracts/PRBMath.sol\":8961:8962  0 */\n      0x00\n        /* \"@prb/math/contracts/PRBMath.sol\":8947:8958  0x200000000 */\n      0x0200000000\n        /* \"@prb/math/contracts/PRBMath.sol\":8943:8944  x */\n      dup4\n        /* \"@prb/math/contracts/PRBMath.sol\":8943:8958  x & 0x200000000 */\n      and\n        /* \"@prb/math/contracts/PRBMath.sol\":8943:8962  x & 0x200000000 > 0 */\n      gt\n        /* \"@prb/math/contracts/PRBMath.sol\":8939:9042  if (x & 0x200000000 > 0) {... */\n      iszero\n      tag_250\n      jumpi\n        /* \"@prb/math/contracts/PRBMath.sol\":9025:9027  64 */\n      0x40\n        /* \"@prb/math/contracts/PRBMath.sol\":9001:9020  0x10000000162E42FF1 */\n      0x010000000162e42ff1\n        /* \"@prb/math/contracts/PRBMath.sol\":8992:8998  result */\n      dup3\n        /* \"@prb/math/contracts/PRBMath.sol\":8992:9020  result * 0x10000000162E42FF1 */\n      mul\n        /* \"@prb/math/contracts/PRBMath.sol\":8991:9027  (result * 0x10000000162E42FF1) >> 64 */\n      swap1\n      shr\n        /* \"@prb/math/contracts/PRBMath.sol\":8982:9027  result = (result * 0x10000000162E42FF1) >> 64 */\n      swap1\n      pop\n        /* \"@prb/math/contracts/PRBMath.sol\":8939:9042  if (x & 0x200000000 > 0) {... */\n    tag_250:\n        /* \"@prb/math/contracts/PRBMath.sol\":9077:9078  0 */\n      0x00\n        /* \"@prb/math/contracts/PRBMath.sol\":9063:9074  0x100000000 */\n      0x0100000000\n        /* \"@prb/math/contracts/PRBMath.sol\":9059:9060  x */\n      dup4\n        /* \"@prb/math/contracts/PRBMath.sol\":9059:9074  x & 0x100000000 */\n      and\n        /* \"@prb/math/contracts/PRBMath.sol\":9059:9078  x & 0x100000000 > 0 */\n      gt\n        /* \"@prb/math/contracts/PRBMath.sol\":9055:9158  if (x & 0x100000000 > 0) {... */\n      iszero\n      tag_251\n      jumpi\n        /* \"@prb/math/contracts/PRBMath.sol\":9141:9143  64 */\n      0x40\n        /* \"@prb/math/contracts/PRBMath.sol\":9117:9136  0x100000000B17217F8 */\n      0x0100000000b17217f8\n        /* \"@prb/math/contracts/PRBMath.sol\":9108:9114  result */\n      dup3\n        /* \"@prb/math/contracts/PRBMath.sol\":9108:9136  result * 0x100000000B17217F8 */\n      mul\n        /* \"@prb/math/contracts/PRBMath.sol\":9107:9143  (result * 0x100000000B17217F8) >> 64 */\n      swap1\n      shr\n        /* \"@prb/math/contracts/PRBMath.sol\":9098:9143  result = (result * 0x100000000B17217F8) >> 64 */\n      swap1\n      pop\n        /* \"@prb/math/contracts/PRBMath.sol\":9055:9158  if (x & 0x100000000 > 0) {... */\n    tag_251:\n        /* \"@prb/math/contracts/PRBMath.sol\":9192:9193  0 */\n      0x00\n        /* \"@prb/math/contracts/PRBMath.sol\":9179:9189  0x80000000 */\n      0x80000000\n        /* \"@prb/math/contracts/PRBMath.sol\":9175:9176  x */\n      dup4\n        /* \"@prb/math/contracts/PRBMath.sol\":9175:9189  x & 0x80000000 */\n      and\n        /* \"@prb/math/contracts/PRBMath.sol\":9175:9193  x & 0x80000000 > 0 */\n      gt\n        /* \"@prb/math/contracts/PRBMath.sol\":9171:9273  if (x & 0x80000000 > 0) {... */\n      iszero\n      tag_252\n      jumpi\n        /* \"@prb/math/contracts/PRBMath.sol\":9256:9258  64 */\n      0x40\n        /* \"@prb/math/contracts/PRBMath.sol\":9232:9251  0x10000000058B90BFC */\n      0x010000000058b90bfc\n        /* \"@prb/math/contracts/PRBMath.sol\":9223:9229  result */\n      dup3\n        /* \"@prb/math/contracts/PRBMath.sol\":9223:9251  result * 0x10000000058B90BFC */\n      mul\n        /* \"@prb/math/contracts/PRBMath.sol\":9222:9258  (result * 0x10000000058B90BFC) >> 64 */\n      swap1\n      shr\n        /* \"@prb/math/contracts/PRBMath.sol\":9213:9258  result = (result * 0x10000000058B90BFC) >> 64 */\n      swap1\n      pop\n        /* \"@prb/math/contracts/PRBMath.sol\":9171:9273  if (x & 0x80000000 > 0) {... */\n    tag_252:\n        /* \"@prb/math/contracts/PRBMath.sol\":9307:9308  0 */\n      0x00\n        /* \"@prb/math/contracts/PRBMath.sol\":9294:9304  0x40000000 */\n      0x40000000\n        /* \"@prb/math/contracts/PRBMath.sol\":9290:9291  x */\n      dup4\n        /* \"@prb/math/contracts/PRBMath.sol\":9290:9304  x & 0x40000000 */\n      and\n        /* \"@prb/math/contracts/PRBMath.sol\":9290:9308  x & 0x40000000 > 0 */\n      gt\n        /* \"@prb/math/contracts/PRBMath.sol\":9286:9388  if (x & 0x40000000 > 0) {... */\n      iszero\n      tag_253\n      jumpi\n        /* \"@prb/math/contracts/PRBMath.sol\":9371:9373  64 */\n      0x40\n        /* \"@prb/math/contracts/PRBMath.sol\":9347:9366  0x1000000002C5C85FE */\n      0x01000000002c5c85fe\n        /* \"@prb/math/contracts/PRBMath.sol\":9338:9344  result */\n      dup3\n        /* \"@prb/math/contracts/PRBMath.sol\":9338:9366  result * 0x1000000002C5C85FE */\n      mul\n        /* \"@prb/math/contracts/PRBMath.sol\":9337:9373  (result * 0x1000000002C5C85FE) >> 64 */\n      swap1\n      shr\n        /* \"@prb/math/contracts/PRBMath.sol\":9328:9373  result = (result * 0x1000000002C5C85FE) >> 64 */\n      swap1\n      pop\n        /* \"@prb/math/contracts/PRBMath.sol\":9286:9388  if (x & 0x40000000 > 0) {... */\n    tag_253:\n        /* \"@prb/math/contracts/PRBMath.sol\":9422:9423  0 */\n      0x00\n        /* \"@prb/math/contracts/PRBMath.sol\":9409:9419  0x20000000 */\n      0x20000000\n        /* \"@prb/math/contracts/PRBMath.sol\":9405:9406  x */\n      dup4\n        /* \"@prb/math/contracts/PRBMath.sol\":9405:9419  x & 0x20000000 */\n      and\n        /* \"@prb/math/contracts/PRBMath.sol\":9405:9423  x & 0x20000000 > 0 */\n      gt\n        /* \"@prb/math/contracts/PRBMath.sol\":9401:9503  if (x & 0x20000000 > 0) {... */\n      iszero\n      tag_254\n      jumpi\n        /* \"@prb/math/contracts/PRBMath.sol\":9486:9488  64 */\n      0x40\n        /* \"@prb/math/contracts/PRBMath.sol\":9462:9481  0x100000000162E42FF */\n      0x0100000000162e42ff\n        /* \"@prb/math/contracts/PRBMath.sol\":9453:9459  result */\n      dup3\n        /* \"@prb/math/contracts/PRBMath.sol\":9453:9481  result * 0x100000000162E42FF */\n      mul\n        /* \"@prb/math/contracts/PRBMath.sol\":9452:9488  (result * 0x100000000162E42FF) >> 64 */\n      swap1\n      shr\n        /* \"@prb/math/contracts/PRBMath.sol\":9443:9488  result = (result * 0x100000000162E42FF) >> 64 */\n      swap1\n      pop\n        /* \"@prb/math/contracts/PRBMath.sol\":9401:9503  if (x & 0x20000000 > 0) {... */\n    tag_254:\n        /* \"@prb/math/contracts/PRBMath.sol\":9537:9538  0 */\n      0x00\n        /* \"@prb/math/contracts/PRBMath.sol\":9524:9534  0x10000000 */\n      0x10000000\n        /* \"@prb/math/contracts/PRBMath.sol\":9520:9521  x */\n      dup4\n        /* \"@prb/math/contracts/PRBMath.sol\":9520:9534  x & 0x10000000 */\n      and\n        /* \"@prb/math/contracts/PRBMath.sol\":9520:9538  x & 0x10000000 > 0 */\n      gt\n        /* \"@prb/math/contracts/PRBMath.sol\":9516:9618  if (x & 0x10000000 > 0) {... */\n      iszero\n      tag_255\n      jumpi\n        /* \"@prb/math/contracts/PRBMath.sol\":9601:9603  64 */\n      0x40\n        /* \"@prb/math/contracts/PRBMath.sol\":9577:9596  0x1000000000B17217F */\n      0x01000000000b17217f\n        /* \"@prb/math/contracts/PRBMath.sol\":9568:9574  result */\n      dup3\n        /* \"@prb/math/contracts/PRBMath.sol\":9568:9596  result * 0x1000000000B17217F */\n      mul\n        /* \"@prb/math/contracts/PRBMath.sol\":9567:9603  (result * 0x1000000000B17217F) >> 64 */\n      swap1\n      shr\n        /* \"@prb/math/contracts/PRBMath.sol\":9558:9603  result = (result * 0x1000000000B17217F) >> 64 */\n      swap1\n      pop\n        /* \"@prb/math/contracts/PRBMath.sol\":9516:9618  if (x & 0x10000000 > 0) {... */\n    tag_255:\n        /* \"@prb/math/contracts/PRBMath.sol\":9651:9652  0 */\n      0x00\n        /* \"@prb/math/contracts/PRBMath.sol\":9639:9648  0x8000000 */\n      0x08000000\n        /* \"@prb/math/contracts/PRBMath.sol\":9635:9636  x */\n      dup4\n        /* \"@prb/math/contracts/PRBMath.sol\":9635:9648  x & 0x8000000 */\n      and\n        /* \"@prb/math/contracts/PRBMath.sol\":9635:9652  x & 0x8000000 > 0 */\n      gt\n        /* \"@prb/math/contracts/PRBMath.sol\":9631:9732  if (x & 0x8000000 > 0) {... */\n      iszero\n      tag_256\n      jumpi\n        /* \"@prb/math/contracts/PRBMath.sol\":9715:9717  64 */\n      0x40\n        /* \"@prb/math/contracts/PRBMath.sol\":9691:9710  0x100000000058B90C0 */\n      0x0100000000058b90c0\n        /* \"@prb/math/contracts/PRBMath.sol\":9682:9688  result */\n      dup3\n        /* \"@prb/math/contracts/PRBMath.sol\":9682:9710  result * 0x100000000058B90C0 */\n      mul\n        /* \"@prb/math/contracts/PRBMath.sol\":9681:9717  (result * 0x100000000058B90C0) >> 64 */\n      swap1\n      shr\n        /* \"@prb/math/contracts/PRBMath.sol\":9672:9717  result = (result * 0x100000000058B90C0) >> 64 */\n      swap1\n      pop\n        /* \"@prb/math/contracts/PRBMath.sol\":9631:9732  if (x & 0x8000000 > 0) {... */\n    tag_256:\n        /* \"@prb/math/contracts/PRBMath.sol\":9765:9766  0 */\n      0x00\n        /* \"@prb/math/contracts/PRBMath.sol\":9753:9762  0x4000000 */\n      0x04000000\n        /* \"@prb/math/contracts/PRBMath.sol\":9749:9750  x */\n      dup4\n        /* \"@prb/math/contracts/PRBMath.sol\":9749:9762  x & 0x4000000 */\n      and\n        /* \"@prb/math/contracts/PRBMath.sol\":9749:9766  x & 0x4000000 > 0 */\n      gt\n        /* \"@prb/math/contracts/PRBMath.sol\":9745:9846  if (x & 0x4000000 > 0) {... */\n      iszero\n      tag_257\n      jumpi\n        /* \"@prb/math/contracts/PRBMath.sol\":9829:9831  64 */\n      0x40\n        /* \"@prb/math/contracts/PRBMath.sol\":9805:9824  0x10000000002C5C860 */\n      0x010000000002c5c860\n        /* \"@prb/math/contracts/PRBMath.sol\":9796:9802  result */\n      dup3\n        /* \"@prb/math/contracts/PRBMath.sol\":9796:9824  result * 0x10000000002C5C860 */\n      mul\n        /* \"@prb/math/contracts/PRBMath.sol\":9795:9831  (result * 0x10000000002C5C860) >> 64 */\n      swap1\n      shr\n        /* \"@prb/math/contracts/PRBMath.sol\":9786:9831  result = (result * 0x10000000002C5C860) >> 64 */\n      swap1\n      pop\n        /* \"@prb/math/contracts/PRBMath.sol\":9745:9846  if (x & 0x4000000 > 0) {... */\n    tag_257:\n        /* \"@prb/math/contracts/PRBMath.sol\":9879:9880  0 */\n      0x00\n        /* \"@prb/math/contracts/PRBMath.sol\":9867:9876  0x2000000 */\n      0x02000000\n        /* \"@prb/math/contracts/PRBMath.sol\":9863:9864  x */\n      dup4\n        /* \"@prb/math/contracts/PRBMath.sol\":9863:9876  x & 0x2000000 */\n      and\n        /* \"@prb/math/contracts/PRBMath.sol\":9863:9880  x & 0x2000000 > 0 */\n      gt\n        /* \"@prb/math/contracts/PRBMath.sol\":9859:9960  if (x & 0x2000000 > 0) {... */\n      iszero\n      tag_258\n      jumpi\n        /* \"@prb/math/contracts/PRBMath.sol\":9943:9945  64 */\n      0x40\n        /* \"@prb/math/contracts/PRBMath.sol\":9919:9938  0x1000000000162E430 */\n      0x01000000000162e430\n        /* \"@prb/math/contracts/PRBMath.sol\":9910:9916  result */\n      dup3\n        /* \"@prb/math/contracts/PRBMath.sol\":9910:9938  result * 0x1000000000162E430 */\n      mul\n        /* \"@prb/math/contracts/PRBMath.sol\":9909:9945  (result * 0x1000000000162E430) >> 64 */\n      swap1\n      shr\n        /* \"@prb/math/contracts/PRBMath.sol\":9900:9945  result = (result * 0x1000000000162E430) >> 64 */\n      swap1\n      pop\n        /* \"@prb/math/contracts/PRBMath.sol\":9859:9960  if (x & 0x2000000 > 0) {... */\n    tag_258:\n        /* \"@prb/math/contracts/PRBMath.sol\":9993:9994  0 */\n      0x00\n        /* \"@prb/math/contracts/PRBMath.sol\":9981:9990  0x1000000 */\n      0x01000000\n        /* \"@prb/math/contracts/PRBMath.sol\":9977:9978  x */\n      dup4\n        /* \"@prb/math/contracts/PRBMath.sol\":9977:9990  x & 0x1000000 */\n      and\n        /* \"@prb/math/contracts/PRBMath.sol\":9977:9994  x & 0x1000000 > 0 */\n      gt\n        /* \"@prb/math/contracts/PRBMath.sol\":9973:10074  if (x & 0x1000000 > 0) {... */\n      iszero\n      tag_259\n      jumpi\n        /* \"@prb/math/contracts/PRBMath.sol\":10057:10059  64 */\n      0x40\n        /* \"@prb/math/contracts/PRBMath.sol\":10033:10052  0x10000000000B17218 */\n      0x010000000000b17218\n        /* \"@prb/math/contracts/PRBMath.sol\":10024:10030  result */\n      dup3\n        /* \"@prb/math/contracts/PRBMath.sol\":10024:10052  result * 0x10000000000B17218 */\n      mul\n        /* \"@prb/math/contracts/PRBMath.sol\":10023:10059  (result * 0x10000000000B17218) >> 64 */\n      swap1\n      shr\n        /* \"@prb/math/contracts/PRBMath.sol\":10014:10059  result = (result * 0x10000000000B17218) >> 64 */\n      swap1\n      pop\n        /* \"@prb/math/contracts/PRBMath.sol\":9973:10074  if (x & 0x1000000 > 0) {... */\n    tag_259:\n        /* \"@prb/math/contracts/PRBMath.sol\":10106:10107  0 */\n      0x00\n        /* \"@prb/math/contracts/PRBMath.sol\":10095:10103  0x800000 */\n      0x800000\n        /* \"@prb/math/contracts/PRBMath.sol\":10091:10092  x */\n      dup4\n        /* \"@prb/math/contracts/PRBMath.sol\":10091:10103  x & 0x800000 */\n      and\n        /* \"@prb/math/contracts/PRBMath.sol\":10091:10107  x & 0x800000 > 0 */\n      gt\n        /* \"@prb/math/contracts/PRBMath.sol\":10087:10187  if (x & 0x800000 > 0) {... */\n      iszero\n      tag_260\n      jumpi\n        /* \"@prb/math/contracts/PRBMath.sol\":10170:10172  64 */\n      0x40\n        /* \"@prb/math/contracts/PRBMath.sol\":10146:10165  0x1000000000058B90C */\n      0x01000000000058b90c\n        /* \"@prb/math/contracts/PRBMath.sol\":10137:10143  result */\n      dup3\n        /* \"@prb/math/contracts/PRBMath.sol\":10137:10165  result * 0x1000000000058B90C */\n      mul\n        /* \"@prb/math/contracts/PRBMath.sol\":10136:10172  (result * 0x1000000000058B90C) >> 64 */\n      swap1\n      shr\n        /* \"@prb/math/contracts/PRBMath.sol\":10127:10172  result = (result * 0x1000000000058B90C) >> 64 */\n      swap1\n      pop\n        /* \"@prb/math/contracts/PRBMath.sol\":10087:10187  if (x & 0x800000 > 0) {... */\n    tag_260:\n        /* \"@prb/math/contracts/PRBMath.sol\":10219:10220  0 */\n      0x00\n        /* \"@prb/math/contracts/PRBMath.sol\":10208:10216  0x400000 */\n      0x400000\n        /* \"@prb/math/contracts/PRBMath.sol\":10204:10205  x */\n      dup4\n        /* \"@prb/math/contracts/PRBMath.sol\":10204:10216  x & 0x400000 */\n      and\n        /* \"@prb/math/contracts/PRBMath.sol\":10204:10220  x & 0x400000 > 0 */\n      gt\n        /* \"@prb/math/contracts/PRBMath.sol\":10200:10300  if (x & 0x400000 > 0) {... */\n      iszero\n      tag_261\n      jumpi\n        /* \"@prb/math/contracts/PRBMath.sol\":10283:10285  64 */\n      0x40\n        /* \"@prb/math/contracts/PRBMath.sol\":10259:10278  0x100000000002C5C86 */\n      0x0100000000002c5c86\n        /* \"@prb/math/contracts/PRBMath.sol\":10250:10256  result */\n      dup3\n        /* \"@prb/math/contracts/PRBMath.sol\":10250:10278  result * 0x100000000002C5C86 */\n      mul\n        /* \"@prb/math/contracts/PRBMath.sol\":10249:10285  (result * 0x100000000002C5C86) >> 64 */\n      swap1\n      shr\n        /* \"@prb/math/contracts/PRBMath.sol\":10240:10285  result = (result * 0x100000000002C5C86) >> 64 */\n      swap1\n      pop\n        /* \"@prb/math/contracts/PRBMath.sol\":10200:10300  if (x & 0x400000 > 0) {... */\n    tag_261:\n        /* \"@prb/math/contracts/PRBMath.sol\":10332:10333  0 */\n      0x00\n        /* \"@prb/math/contracts/PRBMath.sol\":10321:10329  0x200000 */\n      0x200000\n        /* \"@prb/math/contracts/PRBMath.sol\":10317:10318  x */\n      dup4\n        /* \"@prb/math/contracts/PRBMath.sol\":10317:10329  x & 0x200000 */\n      and\n        /* \"@prb/math/contracts/PRBMath.sol\":10317:10333  x & 0x200000 > 0 */\n      gt\n        /* \"@prb/math/contracts/PRBMath.sol\":10313:10413  if (x & 0x200000 > 0) {... */\n      iszero\n      tag_262\n      jumpi\n        /* \"@prb/math/contracts/PRBMath.sol\":10396:10398  64 */\n      0x40\n        /* \"@prb/math/contracts/PRBMath.sol\":10372:10391  0x10000000000162E43 */\n      0x010000000000162e43\n        /* \"@prb/math/contracts/PRBMath.sol\":10363:10369  result */\n      dup3\n        /* \"@prb/math/contracts/PRBMath.sol\":10363:10391  result * 0x10000000000162E43 */\n      mul\n        /* \"@prb/math/contracts/PRBMath.sol\":10362:10398  (result * 0x10000000000162E43) >> 64 */\n      swap1\n      shr\n        /* \"@prb/math/contracts/PRBMath.sol\":10353:10398  result = (result * 0x10000000000162E43) >> 64 */\n      swap1\n      pop\n        /* \"@prb/math/contracts/PRBMath.sol\":10313:10413  if (x & 0x200000 > 0) {... */\n    tag_262:\n        /* \"@prb/math/contracts/PRBMath.sol\":10445:10446  0 */\n      0x00\n        /* \"@prb/math/contracts/PRBMath.sol\":10434:10442  0x100000 */\n      0x100000\n        /* \"@prb/math/contracts/PRBMath.sol\":10430:10431  x */\n      dup4\n        /* \"@prb/math/contracts/PRBMath.sol\":10430:10442  x & 0x100000 */\n      and\n        /* \"@prb/math/contracts/PRBMath.sol\":10430:10446  x & 0x100000 > 0 */\n      gt\n        /* \"@prb/math/contracts/PRBMath.sol\":10426:10526  if (x & 0x100000 > 0) {... */\n      iszero\n      tag_263\n      jumpi\n        /* \"@prb/math/contracts/PRBMath.sol\":10509:10511  64 */\n      0x40\n        /* \"@prb/math/contracts/PRBMath.sol\":10485:10504  0x100000000000B1721 */\n      0x0100000000000b1721\n        /* \"@prb/math/contracts/PRBMath.sol\":10476:10482  result */\n      dup3\n        /* \"@prb/math/contracts/PRBMath.sol\":10476:10504  result * 0x100000000000B1721 */\n      mul\n        /* \"@prb/math/contracts/PRBMath.sol\":10475:10511  (result * 0x100000000000B1721) >> 64 */\n      swap1\n      shr\n        /* \"@prb/math/contracts/PRBMath.sol\":10466:10511  result = (result * 0x100000000000B1721) >> 64 */\n      swap1\n      pop\n        /* \"@prb/math/contracts/PRBMath.sol\":10426:10526  if (x & 0x100000 > 0) {... */\n    tag_263:\n        /* \"@prb/math/contracts/PRBMath.sol\":10557:10558  0 */\n      0x00\n        /* \"@prb/math/contracts/PRBMath.sol\":10547:10554  0x80000 */\n      0x080000\n        /* \"@prb/math/contracts/PRBMath.sol\":10543:10544  x */\n      dup4\n        /* \"@prb/math/contracts/PRBMath.sol\":10543:10554  x & 0x80000 */\n      and\n        /* \"@prb/math/contracts/PRBMath.sol\":10543:10558  x & 0x80000 > 0 */\n      gt\n        /* \"@prb/math/contracts/PRBMath.sol\":10539:10638  if (x & 0x80000 > 0) {... */\n      iszero\n      tag_264\n      jumpi\n        /* \"@prb/math/contracts/PRBMath.sol\":10621:10623  64 */\n      0x40\n        /* \"@prb/math/contracts/PRBMath.sol\":10597:10616  0x10000000000058B91 */\n      0x010000000000058b91\n        /* \"@prb/math/contracts/PRBMath.sol\":10588:10594  result */\n      dup3\n        /* \"@prb/math/contracts/PRBMath.sol\":10588:10616  result * 0x10000000000058B91 */\n      mul\n        /* \"@prb/math/contracts/PRBMath.sol\":10587:10623  (result * 0x10000000000058B91) >> 64 */\n      swap1\n      shr\n        /* \"@prb/math/contracts/PRBMath.sol\":10578:10623  result = (result * 0x10000000000058B91) >> 64 */\n      swap1\n      pop\n        /* \"@prb/math/contracts/PRBMath.sol\":10539:10638  if (x & 0x80000 > 0) {... */\n    tag_264:\n        /* \"@prb/math/contracts/PRBMath.sol\":10669:10670  0 */\n      0x00\n        /* \"@prb/math/contracts/PRBMath.sol\":10659:10666  0x40000 */\n      0x040000\n        /* \"@prb/math/contracts/PRBMath.sol\":10655:10656  x */\n      dup4\n        /* \"@prb/math/contracts/PRBMath.sol\":10655:10666  x & 0x40000 */\n      and\n        /* \"@prb/math/contracts/PRBMath.sol\":10655:10670  x & 0x40000 > 0 */\n      gt\n        /* \"@prb/math/contracts/PRBMath.sol\":10651:10750  if (x & 0x40000 > 0) {... */\n      iszero\n      tag_265\n      jumpi\n        /* \"@prb/math/contracts/PRBMath.sol\":10733:10735  64 */\n      0x40\n        /* \"@prb/math/contracts/PRBMath.sol\":10709:10728  0x1000000000002C5C8 */\n      0x01000000000002c5c8\n        /* \"@prb/math/contracts/PRBMath.sol\":10700:10706  result */\n      dup3\n        /* \"@prb/math/contracts/PRBMath.sol\":10700:10728  result * 0x1000000000002C5C8 */\n      mul\n        /* \"@prb/math/contracts/PRBMath.sol\":10699:10735  (result * 0x1000000000002C5C8) >> 64 */\n      swap1\n      shr\n        /* \"@prb/math/contracts/PRBMath.sol\":10690:10735  result = (result * 0x1000000000002C5C8) >> 64 */\n      swap1\n      pop\n        /* \"@prb/math/contracts/PRBMath.sol\":10651:10750  if (x & 0x40000 > 0) {... */\n    tag_265:\n        /* \"@prb/math/contracts/PRBMath.sol\":10781:10782  0 */\n      0x00\n        /* \"@prb/math/contracts/PRBMath.sol\":10771:10778  0x20000 */\n      0x020000\n        /* \"@prb/math/contracts/PRBMath.sol\":10767:10768  x */\n      dup4\n        /* \"@prb/math/contracts/PRBMath.sol\":10767:10778  x & 0x20000 */\n      and\n        /* \"@prb/math/contracts/PRBMath.sol\":10767:10782  x & 0x20000 > 0 */\n      gt\n        /* \"@prb/math/contracts/PRBMath.sol\":10763:10862  if (x & 0x20000 > 0) {... */\n      iszero\n      tag_266\n      jumpi\n        /* \"@prb/math/contracts/PRBMath.sol\":10845:10847  64 */\n      0x40\n        /* \"@prb/math/contracts/PRBMath.sol\":10821:10840  0x100000000000162E4 */\n      0x0100000000000162e4\n        /* \"@prb/math/contracts/PRBMath.sol\":10812:10818  result */\n      dup3\n        /* \"@prb/math/contracts/PRBMath.sol\":10812:10840  result * 0x100000000000162E4 */\n      mul\n        /* \"@prb/math/contracts/PRBMath.sol\":10811:10847  (result * 0x100000000000162E4) >> 64 */\n      swap1\n      shr\n        /* \"@prb/math/contracts/PRBMath.sol\":10802:10847  result = (result * 0x100000000000162E4) >> 64 */\n      swap1\n      pop\n        /* \"@prb/math/contracts/PRBMath.sol\":10763:10862  if (x & 0x20000 > 0) {... */\n    tag_266:\n        /* \"@prb/math/contracts/PRBMath.sol\":10893:10894  0 */\n      0x00\n        /* \"@prb/math/contracts/PRBMath.sol\":10883:10890  0x10000 */\n      0x010000\n        /* \"@prb/math/contracts/PRBMath.sol\":10879:10880  x */\n      dup4\n        /* \"@prb/math/contracts/PRBMath.sol\":10879:10890  x & 0x10000 */\n      and\n        /* \"@prb/math/contracts/PRBMath.sol\":10879:10894  x & 0x10000 > 0 */\n      gt\n        /* \"@prb/math/contracts/PRBMath.sol\":10875:10974  if (x & 0x10000 > 0) {... */\n      iszero\n      tag_267\n      jumpi\n        /* \"@prb/math/contracts/PRBMath.sol\":10957:10959  64 */\n      0x40\n        /* \"@prb/math/contracts/PRBMath.sol\":10933:10952  0x1000000000000B172 */\n      0x01000000000000b172\n        /* \"@prb/math/contracts/PRBMath.sol\":10924:10930  result */\n      dup3\n        /* \"@prb/math/contracts/PRBMath.sol\":10924:10952  result * 0x1000000000000B172 */\n      mul\n        /* \"@prb/math/contracts/PRBMath.sol\":10923:10959  (result * 0x1000000000000B172) >> 64 */\n      swap1\n      shr\n        /* \"@prb/math/contracts/PRBMath.sol\":10914:10959  result = (result * 0x1000000000000B172) >> 64 */\n      swap1\n      pop\n        /* \"@prb/math/contracts/PRBMath.sol\":10875:10974  if (x & 0x10000 > 0) {... */\n    tag_267:\n        /* \"@prb/math/contracts/PRBMath.sol\":11004:11005  0 */\n      0x00\n        /* \"@prb/math/contracts/PRBMath.sol\":10995:11001  0x8000 */\n      0x8000\n        /* \"@prb/math/contracts/PRBMath.sol\":10991:10992  x */\n      dup4\n        /* \"@prb/math/contracts/PRBMath.sol\":10991:11001  x & 0x8000 */\n      and\n        /* \"@prb/math/contracts/PRBMath.sol\":10991:11005  x & 0x8000 > 0 */\n      gt\n        /* \"@prb/math/contracts/PRBMath.sol\":10987:11085  if (x & 0x8000 > 0) {... */\n      iszero\n      tag_268\n      jumpi\n        /* \"@prb/math/contracts/PRBMath.sol\":11068:11070  64 */\n      0x40\n        /* \"@prb/math/contracts/PRBMath.sol\":11044:11063  0x100000000000058B9 */\n      0x0100000000000058b9\n        /* \"@prb/math/contracts/PRBMath.sol\":11035:11041  result */\n      dup3\n        /* \"@prb/math/contracts/PRBMath.sol\":11035:11063  result * 0x100000000000058B9 */\n      mul\n        /* \"@prb/math/contracts/PRBMath.sol\":11034:11070  (result * 0x100000000000058B9) >> 64 */\n      swap1\n      shr\n        /* \"@prb/math/contracts/PRBMath.sol\":11025:11070  result = (result * 0x100000000000058B9) >> 64 */\n      swap1\n      pop\n        /* \"@prb/math/contracts/PRBMath.sol\":10987:11085  if (x & 0x8000 > 0) {... */\n    tag_268:\n        /* \"@prb/math/contracts/PRBMath.sol\":11115:11116  0 */\n      0x00\n        /* \"@prb/math/contracts/PRBMath.sol\":11106:11112  0x4000 */\n      0x4000\n        /* \"@prb/math/contracts/PRBMath.sol\":11102:11103  x */\n      dup4\n        /* \"@prb/math/contracts/PRBMath.sol\":11102:11112  x & 0x4000 */\n      and\n        /* \"@prb/math/contracts/PRBMath.sol\":11102:11116  x & 0x4000 > 0 */\n      gt\n        /* \"@prb/math/contracts/PRBMath.sol\":11098:11196  if (x & 0x4000 > 0) {... */\n      iszero\n      tag_269\n      jumpi\n        /* \"@prb/math/contracts/PRBMath.sol\":11179:11181  64 */\n      0x40\n        /* \"@prb/math/contracts/PRBMath.sol\":11155:11174  0x10000000000002C5D */\n      0x010000000000002c5d\n        /* \"@prb/math/contracts/PRBMath.sol\":11146:11152  result */\n      dup3\n        /* \"@prb/math/contracts/PRBMath.sol\":11146:11174  result * 0x10000000000002C5D */\n      mul\n        /* \"@prb/math/contracts/PRBMath.sol\":11145:11181  (result * 0x10000000000002C5D) >> 64 */\n      swap1\n      shr\n        /* \"@prb/math/contracts/PRBMath.sol\":11136:11181  result = (result * 0x10000000000002C5D) >> 64 */\n      swap1\n      pop\n        /* \"@prb/math/contracts/PRBMath.sol\":11098:11196  if (x & 0x4000 > 0) {... */\n    tag_269:\n        /* \"@prb/math/contracts/PRBMath.sol\":11226:11227  0 */\n      0x00\n        /* \"@prb/math/contracts/PRBMath.sol\":11217:11223  0x2000 */\n      0x2000\n        /* \"@prb/math/contracts/PRBMath.sol\":11213:11214  x */\n      dup4\n        /* \"@prb/math/contracts/PRBMath.sol\":11213:11223  x & 0x2000 */\n      and\n        /* \"@prb/math/contracts/PRBMath.sol\":11213:11227  x & 0x2000 > 0 */\n      gt\n        /* \"@prb/math/contracts/PRBMath.sol\":11209:11307  if (x & 0x2000 > 0) {... */\n      iszero\n      tag_270\n      jumpi\n        /* \"@prb/math/contracts/PRBMath.sol\":11290:11292  64 */\n      0x40\n        /* \"@prb/math/contracts/PRBMath.sol\":11266:11285  0x1000000000000162E */\n      0x01000000000000162e\n        /* \"@prb/math/contracts/PRBMath.sol\":11257:11263  result */\n      dup3\n        /* \"@prb/math/contracts/PRBMath.sol\":11257:11285  result * 0x1000000000000162E */\n      mul\n        /* \"@prb/math/contracts/PRBMath.sol\":11256:11292  (result * 0x1000000000000162E) >> 64 */\n      swap1\n      shr\n        /* \"@prb/math/contracts/PRBMath.sol\":11247:11292  result = (result * 0x1000000000000162E) >> 64 */\n      swap1\n      pop\n        /* \"@prb/math/contracts/PRBMath.sol\":11209:11307  if (x & 0x2000 > 0) {... */\n    tag_270:\n        /* \"@prb/math/contracts/PRBMath.sol\":11337:11338  0 */\n      0x00\n        /* \"@prb/math/contracts/PRBMath.sol\":11328:11334  0x1000 */\n      0x1000\n        /* \"@prb/math/contracts/PRBMath.sol\":11324:11325  x */\n      dup4\n        /* \"@prb/math/contracts/PRBMath.sol\":11324:11334  x & 0x1000 */\n      and\n        /* \"@prb/math/contracts/PRBMath.sol\":11324:11338  x & 0x1000 > 0 */\n      gt\n        /* \"@prb/math/contracts/PRBMath.sol\":11320:11418  if (x & 0x1000 > 0) {... */\n      iszero\n      tag_271\n      jumpi\n        /* \"@prb/math/contracts/PRBMath.sol\":11401:11403  64 */\n      0x40\n        /* \"@prb/math/contracts/PRBMath.sol\":11377:11396  0x10000000000000B17 */\n      0x010000000000000b17\n        /* \"@prb/math/contracts/PRBMath.sol\":11368:11374  result */\n      dup3\n        /* \"@prb/math/contracts/PRBMath.sol\":11368:11396  result * 0x10000000000000B17 */\n      mul\n        /* \"@prb/math/contracts/PRBMath.sol\":11367:11403  (result * 0x10000000000000B17) >> 64 */\n      swap1\n      shr\n        /* \"@prb/math/contracts/PRBMath.sol\":11358:11403  result = (result * 0x10000000000000B17) >> 64 */\n      swap1\n      pop\n        /* \"@prb/math/contracts/PRBMath.sol\":11320:11418  if (x & 0x1000 > 0) {... */\n    tag_271:\n        /* \"@prb/math/contracts/PRBMath.sol\":11447:11448  0 */\n      0x00\n        /* \"@prb/math/contracts/PRBMath.sol\":11439:11444  0x800 */\n      0x0800\n        /* \"@prb/math/contracts/PRBMath.sol\":11435:11436  x */\n      dup4\n        /* \"@prb/math/contracts/PRBMath.sol\":11435:11444  x & 0x800 */\n      and\n        /* \"@prb/math/contracts/PRBMath.sol\":11435:11448  x & 0x800 > 0 */\n      gt\n        /* \"@prb/math/contracts/PRBMath.sol\":11431:11528  if (x & 0x800 > 0) {... */\n      iszero\n      tag_272\n      jumpi\n        /* \"@prb/math/contracts/PRBMath.sol\":11511:11513  64 */\n      0x40\n        /* \"@prb/math/contracts/PRBMath.sol\":11487:11506  0x1000000000000058C */\n      0x01000000000000058c\n        /* \"@prb/math/contracts/PRBMath.sol\":11478:11484  result */\n      dup3\n        /* \"@prb/math/contracts/PRBMath.sol\":11478:11506  result * 0x1000000000000058C */\n      mul\n        /* \"@prb/math/contracts/PRBMath.sol\":11477:11513  (result * 0x1000000000000058C) >> 64 */\n      swap1\n      shr\n        /* \"@prb/math/contracts/PRBMath.sol\":11468:11513  result = (result * 0x1000000000000058C) >> 64 */\n      swap1\n      pop\n        /* \"@prb/math/contracts/PRBMath.sol\":11431:11528  if (x & 0x800 > 0) {... */\n    tag_272:\n        /* \"@prb/math/contracts/PRBMath.sol\":11557:11558  0 */\n      0x00\n        /* \"@prb/math/contracts/PRBMath.sol\":11549:11554  0x400 */\n      0x0400\n        /* \"@prb/math/contracts/PRBMath.sol\":11545:11546  x */\n      dup4\n        /* \"@prb/math/contracts/PRBMath.sol\":11545:11554  x & 0x400 */\n      and\n        /* \"@prb/math/contracts/PRBMath.sol\":11545:11558  x & 0x400 > 0 */\n      gt\n        /* \"@prb/math/contracts/PRBMath.sol\":11541:11638  if (x & 0x400 > 0) {... */\n      iszero\n      tag_273\n      jumpi\n        /* \"@prb/math/contracts/PRBMath.sol\":11621:11623  64 */\n      0x40\n        /* \"@prb/math/contracts/PRBMath.sol\":11597:11616  0x100000000000002C6 */\n      0x0100000000000002c6\n        /* \"@prb/math/contracts/PRBMath.sol\":11588:11594  result */\n      dup3\n        /* \"@prb/math/contracts/PRBMath.sol\":11588:11616  result * 0x100000000000002C6 */\n      mul\n        /* \"@prb/math/contracts/PRBMath.sol\":11587:11623  (result * 0x100000000000002C6) >> 64 */\n      swap1\n      shr\n        /* \"@prb/math/contracts/PRBMath.sol\":11578:11623  result = (result * 0x100000000000002C6) >> 64 */\n      swap1\n      pop\n        /* \"@prb/math/contracts/PRBMath.sol\":11541:11638  if (x & 0x400 > 0) {... */\n    tag_273:\n        /* \"@prb/math/contracts/PRBMath.sol\":11667:11668  0 */\n      0x00\n        /* \"@prb/math/contracts/PRBMath.sol\":11659:11664  0x200 */\n      0x0200\n        /* \"@prb/math/contracts/PRBMath.sol\":11655:11656  x */\n      dup4\n        /* \"@prb/math/contracts/PRBMath.sol\":11655:11664  x & 0x200 */\n      and\n        /* \"@prb/math/contracts/PRBMath.sol\":11655:11668  x & 0x200 > 0 */\n      gt\n        /* \"@prb/math/contracts/PRBMath.sol\":11651:11748  if (x & 0x200 > 0) {... */\n      iszero\n      tag_274\n      jumpi\n        /* \"@prb/math/contracts/PRBMath.sol\":11731:11733  64 */\n      0x40\n        /* \"@prb/math/contracts/PRBMath.sol\":11707:11726  0x10000000000000163 */\n      0x010000000000000163\n        /* \"@prb/math/contracts/PRBMath.sol\":11698:11704  result */\n      dup3\n        /* \"@prb/math/contracts/PRBMath.sol\":11698:11726  result * 0x10000000000000163 */\n      mul\n        /* \"@prb/math/contracts/PRBMath.sol\":11697:11733  (result * 0x10000000000000163) >> 64 */\n      swap1\n      shr\n        /* \"@prb/math/contracts/PRBMath.sol\":11688:11733  result = (result * 0x10000000000000163) >> 64 */\n      swap1\n      pop\n        /* \"@prb/math/contracts/PRBMath.sol\":11651:11748  if (x & 0x200 > 0) {... */\n    tag_274:\n        /* \"@prb/math/contracts/PRBMath.sol\":11777:11778  0 */\n      0x00\n        /* \"@prb/math/contracts/PRBMath.sol\":11769:11774  0x100 */\n      0x0100\n        /* \"@prb/math/contracts/PRBMath.sol\":11765:11766  x */\n      dup4\n        /* \"@prb/math/contracts/PRBMath.sol\":11765:11774  x & 0x100 */\n      and\n        /* \"@prb/math/contracts/PRBMath.sol\":11765:11778  x & 0x100 > 0 */\n      gt\n        /* \"@prb/math/contracts/PRBMath.sol\":11761:11858  if (x & 0x100 > 0) {... */\n      iszero\n      tag_275\n      jumpi\n        /* \"@prb/math/contracts/PRBMath.sol\":11841:11843  64 */\n      0x40\n        /* \"@prb/math/contracts/PRBMath.sol\":11817:11836  0x100000000000000B1 */\n      0x0100000000000000b1\n        /* \"@prb/math/contracts/PRBMath.sol\":11808:11814  result */\n      dup3\n        /* \"@prb/math/contracts/PRBMath.sol\":11808:11836  result * 0x100000000000000B1 */\n      mul\n        /* \"@prb/math/contracts/PRBMath.sol\":11807:11843  (result * 0x100000000000000B1) >> 64 */\n      swap1\n      shr\n        /* \"@prb/math/contracts/PRBMath.sol\":11798:11843  result = (result * 0x100000000000000B1) >> 64 */\n      swap1\n      pop\n        /* \"@prb/math/contracts/PRBMath.sol\":11761:11858  if (x & 0x100 > 0) {... */\n    tag_275:\n        /* \"@prb/math/contracts/PRBMath.sol\":11886:11887  0 */\n      0x00\n        /* \"@prb/math/contracts/PRBMath.sol\":11879:11883  0x80 */\n      0x80\n        /* \"@prb/math/contracts/PRBMath.sol\":11875:11876  x */\n      dup4\n        /* \"@prb/math/contracts/PRBMath.sol\":11875:11883  x & 0x80 */\n      and\n        /* \"@prb/math/contracts/PRBMath.sol\":11875:11887  x & 0x80 > 0 */\n      gt\n        /* \"@prb/math/contracts/PRBMath.sol\":11871:11967  if (x & 0x80 > 0) {... */\n      iszero\n      tag_276\n      jumpi\n        /* \"@prb/math/contracts/PRBMath.sol\":11950:11952  64 */\n      0x40\n        /* \"@prb/math/contracts/PRBMath.sol\":11926:11945  0x10000000000000059 */\n      0x010000000000000059\n        /* \"@prb/math/contracts/PRBMath.sol\":11917:11923  result */\n      dup3\n        /* \"@prb/math/contracts/PRBMath.sol\":11917:11945  result * 0x10000000000000059 */\n      mul\n        /* \"@prb/math/contracts/PRBMath.sol\":11916:11952  (result * 0x10000000000000059) >> 64 */\n      swap1\n      shr\n        /* \"@prb/math/contracts/PRBMath.sol\":11907:11952  result = (result * 0x10000000000000059) >> 64 */\n      swap1\n      pop\n        /* \"@prb/math/contracts/PRBMath.sol\":11871:11967  if (x & 0x80 > 0) {... */\n    tag_276:\n        /* \"@prb/math/contracts/PRBMath.sol\":11995:11996  0 */\n      0x00\n        /* \"@prb/math/contracts/PRBMath.sol\":11988:11992  0x40 */\n      0x40\n        /* \"@prb/math/contracts/PRBMath.sol\":11984:11985  x */\n      dup4\n        /* \"@prb/math/contracts/PRBMath.sol\":11984:11992  x & 0x40 */\n      and\n        /* \"@prb/math/contracts/PRBMath.sol\":11984:11996  x & 0x40 > 0 */\n      gt\n        /* \"@prb/math/contracts/PRBMath.sol\":11980:12076  if (x & 0x40 > 0) {... */\n      iszero\n      tag_277\n      jumpi\n        /* \"@prb/math/contracts/PRBMath.sol\":12059:12061  64 */\n      0x40\n        /* \"@prb/math/contracts/PRBMath.sol\":12035:12054  0x1000000000000002C */\n      0x01000000000000002c\n        /* \"@prb/math/contracts/PRBMath.sol\":12026:12032  result */\n      dup3\n        /* \"@prb/math/contracts/PRBMath.sol\":12026:12054  result * 0x1000000000000002C */\n      mul\n        /* \"@prb/math/contracts/PRBMath.sol\":12025:12061  (result * 0x1000000000000002C) >> 64 */\n      swap1\n      shr\n        /* \"@prb/math/contracts/PRBMath.sol\":12016:12061  result = (result * 0x1000000000000002C) >> 64 */\n      swap1\n      pop\n        /* \"@prb/math/contracts/PRBMath.sol\":11980:12076  if (x & 0x40 > 0) {... */\n    tag_277:\n        /* \"@prb/math/contracts/PRBMath.sol\":12104:12105  0 */\n      0x00\n        /* \"@prb/math/contracts/PRBMath.sol\":12097:12101  0x20 */\n      0x20\n        /* \"@prb/math/contracts/PRBMath.sol\":12093:12094  x */\n      dup4\n        /* \"@prb/math/contracts/PRBMath.sol\":12093:12101  x & 0x20 */\n      and\n        /* \"@prb/math/contracts/PRBMath.sol\":12093:12105  x & 0x20 > 0 */\n      gt\n        /* \"@prb/math/contracts/PRBMath.sol\":12089:12185  if (x & 0x20 > 0) {... */\n      iszero\n      tag_278\n      jumpi\n        /* \"@prb/math/contracts/PRBMath.sol\":12168:12170  64 */\n      0x40\n        /* \"@prb/math/contracts/PRBMath.sol\":12144:12163  0x10000000000000016 */\n      0x010000000000000016\n        /* \"@prb/math/contracts/PRBMath.sol\":12135:12141  result */\n      dup3\n        /* \"@prb/math/contracts/PRBMath.sol\":12135:12163  result * 0x10000000000000016 */\n      mul\n        /* \"@prb/math/contracts/PRBMath.sol\":12134:12170  (result * 0x10000000000000016) >> 64 */\n      swap1\n      shr\n        /* \"@prb/math/contracts/PRBMath.sol\":12125:12170  result = (result * 0x10000000000000016) >> 64 */\n      swap1\n      pop\n        /* \"@prb/math/contracts/PRBMath.sol\":12089:12185  if (x & 0x20 > 0) {... */\n    tag_278:\n        /* \"@prb/math/contracts/PRBMath.sol\":12213:12214  0 */\n      0x00\n        /* \"@prb/math/contracts/PRBMath.sol\":12206:12210  0x10 */\n      0x10\n        /* \"@prb/math/contracts/PRBMath.sol\":12202:12203  x */\n      dup4\n        /* \"@prb/math/contracts/PRBMath.sol\":12202:12210  x & 0x10 */\n      and\n        /* \"@prb/math/contracts/PRBMath.sol\":12202:12214  x & 0x10 > 0 */\n      gt\n        /* \"@prb/math/contracts/PRBMath.sol\":12198:12294  if (x & 0x10 > 0) {... */\n      iszero\n      tag_279\n      jumpi\n        /* \"@prb/math/contracts/PRBMath.sol\":12277:12279  64 */\n      0x40\n        /* \"@prb/math/contracts/PRBMath.sol\":12253:12272  0x1000000000000000B */\n      0x01000000000000000b\n        /* \"@prb/math/contracts/PRBMath.sol\":12244:12250  result */\n      dup3\n        /* \"@prb/math/contracts/PRBMath.sol\":12244:12272  result * 0x1000000000000000B */\n      mul\n        /* \"@prb/math/contracts/PRBMath.sol\":12243:12279  (result * 0x1000000000000000B) >> 64 */\n      swap1\n      shr\n        /* \"@prb/math/contracts/PRBMath.sol\":12234:12279  result = (result * 0x1000000000000000B) >> 64 */\n      swap1\n      pop\n        /* \"@prb/math/contracts/PRBMath.sol\":12198:12294  if (x & 0x10 > 0) {... */\n    tag_279:\n        /* \"@prb/math/contracts/PRBMath.sol\":12321:12322  0 */\n      0x00\n        /* \"@prb/math/contracts/PRBMath.sol\":12315:12318  0x8 */\n      0x08\n        /* \"@prb/math/contracts/PRBMath.sol\":12311:12312  x */\n      dup4\n        /* \"@prb/math/contracts/PRBMath.sol\":12311:12318  x & 0x8 */\n      and\n        /* \"@prb/math/contracts/PRBMath.sol\":12311:12322  x & 0x8 > 0 */\n      gt\n        /* \"@prb/math/contracts/PRBMath.sol\":12307:12402  if (x & 0x8 > 0) {... */\n      iszero\n      tag_280\n      jumpi\n        /* \"@prb/math/contracts/PRBMath.sol\":12385:12387  64 */\n      0x40\n        /* \"@prb/math/contracts/PRBMath.sol\":12361:12380  0x10000000000000006 */\n      0x010000000000000006\n        /* \"@prb/math/contracts/PRBMath.sol\":12352:12358  result */\n      dup3\n        /* \"@prb/math/contracts/PRBMath.sol\":12352:12380  result * 0x10000000000000006 */\n      mul\n        /* \"@prb/math/contracts/PRBMath.sol\":12351:12387  (result * 0x10000000000000006) >> 64 */\n      swap1\n      shr\n        /* \"@prb/math/contracts/PRBMath.sol\":12342:12387  result = (result * 0x10000000000000006) >> 64 */\n      swap1\n      pop\n        /* \"@prb/math/contracts/PRBMath.sol\":12307:12402  if (x & 0x8 > 0) {... */\n    tag_280:\n        /* \"@prb/math/contracts/PRBMath.sol\":12429:12430  0 */\n      0x00\n        /* \"@prb/math/contracts/PRBMath.sol\":12423:12426  0x4 */\n      0x04\n        /* \"@prb/math/contracts/PRBMath.sol\":12419:12420  x */\n      dup4\n        /* \"@prb/math/contracts/PRBMath.sol\":12419:12426  x & 0x4 */\n      and\n        /* \"@prb/math/contracts/PRBMath.sol\":12419:12430  x & 0x4 > 0 */\n      gt\n        /* \"@prb/math/contracts/PRBMath.sol\":12415:12510  if (x & 0x4 > 0) {... */\n      iszero\n      tag_281\n      jumpi\n        /* \"@prb/math/contracts/PRBMath.sol\":12493:12495  64 */\n      0x40\n        /* \"@prb/math/contracts/PRBMath.sol\":12469:12488  0x10000000000000003 */\n      0x010000000000000003\n        /* \"@prb/math/contracts/PRBMath.sol\":12460:12466  result */\n      dup3\n        /* \"@prb/math/contracts/PRBMath.sol\":12460:12488  result * 0x10000000000000003 */\n      mul\n        /* \"@prb/math/contracts/PRBMath.sol\":12459:12495  (result * 0x10000000000000003) >> 64 */\n      swap1\n      shr\n        /* \"@prb/math/contracts/PRBMath.sol\":12450:12495  result = (result * 0x10000000000000003) >> 64 */\n      swap1\n      pop\n        /* \"@prb/math/contracts/PRBMath.sol\":12415:12510  if (x & 0x4 > 0) {... */\n    tag_281:\n        /* \"@prb/math/contracts/PRBMath.sol\":12537:12538  0 */\n      0x00\n        /* \"@prb/math/contracts/PRBMath.sol\":12531:12534  0x2 */\n      0x02\n        /* \"@prb/math/contracts/PRBMath.sol\":12527:12528  x */\n      dup4\n        /* \"@prb/math/contracts/PRBMath.sol\":12527:12534  x & 0x2 */\n      and\n        /* \"@prb/math/contracts/PRBMath.sol\":12527:12538  x & 0x2 > 0 */\n      gt\n        /* \"@prb/math/contracts/PRBMath.sol\":12523:12618  if (x & 0x2 > 0) {... */\n      iszero\n      tag_282\n      jumpi\n        /* \"@prb/math/contracts/PRBMath.sol\":12601:12603  64 */\n      0x40\n        /* \"@prb/math/contracts/PRBMath.sol\":12577:12596  0x10000000000000001 */\n      0x010000000000000001\n        /* \"@prb/math/contracts/PRBMath.sol\":12568:12574  result */\n      dup3\n        /* \"@prb/math/contracts/PRBMath.sol\":12568:12596  result * 0x10000000000000001 */\n      mul\n        /* \"@prb/math/contracts/PRBMath.sol\":12567:12603  (result * 0x10000000000000001) >> 64 */\n      swap1\n      shr\n        /* \"@prb/math/contracts/PRBMath.sol\":12558:12603  result = (result * 0x10000000000000001) >> 64 */\n      swap1\n      pop\n        /* \"@prb/math/contracts/PRBMath.sol\":12523:12618  if (x & 0x2 > 0) {... */\n    tag_282:\n        /* \"@prb/math/contracts/PRBMath.sol\":12645:12646  0 */\n      0x00\n        /* \"@prb/math/contracts/PRBMath.sol\":12639:12642  0x1 */\n      0x01\n        /* \"@prb/math/contracts/PRBMath.sol\":12635:12636  x */\n      dup4\n        /* \"@prb/math/contracts/PRBMath.sol\":12635:12642  x & 0x1 */\n      and\n        /* \"@prb/math/contracts/PRBMath.sol\":12635:12646  x & 0x1 > 0 */\n      gt\n        /* \"@prb/math/contracts/PRBMath.sol\":12631:12726  if (x & 0x1 > 0) {... */\n      iszero\n      tag_283\n      jumpi\n        /* \"@prb/math/contracts/PRBMath.sol\":12709:12711  64 */\n      0x40\n        /* \"@prb/math/contracts/PRBMath.sol\":12685:12704  0x10000000000000001 */\n      0x010000000000000001\n        /* \"@prb/math/contracts/PRBMath.sol\":12676:12682  result */\n      dup3\n        /* \"@prb/math/contracts/PRBMath.sol\":12676:12704  result * 0x10000000000000001 */\n      mul\n        /* \"@prb/math/contracts/PRBMath.sol\":12675:12711  (result * 0x10000000000000001) >> 64 */\n      swap1\n      shr\n        /* \"@prb/math/contracts/PRBMath.sol\":12666:12711  result = (result * 0x10000000000000001) >> 64 */\n      swap1\n      pop\n        /* \"@prb/math/contracts/PRBMath.sol\":12631:12726  if (x & 0x1 > 0) {... */\n    tag_283:\n        /* \"@prb/math/contracts/PRBMath.sol\":4210:4214  1e18 */\n      0x0de0b6b3a7640000\n        /* \"@prb/math/contracts/PRBMath.sol\":13286:13301  result *= SCALE */\n      dup2\n      mul\n      swap1\n      pop\n        /* \"@prb/math/contracts/PRBMath.sol\":13339:13341  64 */\n      0x40\n        /* \"@prb/math/contracts/PRBMath.sol\":13334:13335  x */\n      dup3\n        /* \"@prb/math/contracts/PRBMath.sol\":13334:13341  x >> 64 */\n      swap1\n      shr\n        /* \"@prb/math/contracts/PRBMath.sol\":13327:13330  191 */\n      0xbf\n        /* \"@prb/math/contracts/PRBMath.sol\":13327:13342  191 - (x >> 64) */\n      sub\n        /* \"@prb/math/contracts/PRBMath.sol\":13315:13343  result >>= (191 - (x >> 64)) */\n      dup2\n      swap1\n      shr\n      swap1\n      pop\n        /* \"@prb/math/contracts/PRBMath.sol\":4886:13360  function exp2(uint256 x) internal pure returns (uint256 result) {... */\n      swap2\n      swap1\n      pop\n      jump\t// out\n        /* \"@prb/math/contracts/PRBMath.sol\":13747:14491  function mostSignificantBit(uint256 x) internal pure returns (uint256 msb) {... */\n    tag_205:\n        /* \"@prb/math/contracts/PRBMath.sol\":13809:13820  uint256 msb */\n      0x00\n        /* \"@prb/math/contracts/PRBMath.sol\":13841:13847  2**128 */\n      0x0100000000000000000000000000000000\n        /* \"@prb/math/contracts/PRBMath.sol\":13836:13837  x */\n      dup3\n        /* \"@prb/math/contracts/PRBMath.sol\":13836:13847  x >= 2**128 */\n      lt\n        /* \"@prb/math/contracts/PRBMath.sol\":13832:13907  if (x >= 2**128) {... */\n      tag_285\n      jumpi\n        /* \"@prb/math/contracts/PRBMath.sol\":13869:13872  128 */\n      0x80\n        /* \"@prb/math/contracts/PRBMath.sol\":13863:13872  x >>= 128 */\n      dup3\n      swap1\n      shr\n      swap2\n      pop\n        /* \"@prb/math/contracts/PRBMath.sol\":13893:13896  128 */\n      0x80\n        /* \"@prb/math/contracts/PRBMath.sol\":13886:13896  msb += 128 */\n      dup2\n      tag_286\n      swap2\n      swap1\n      tag_53\n      jump\t// in\n    tag_286:\n      swap1\n      pop\n        /* \"@prb/math/contracts/PRBMath.sol\":13832:13907  if (x >= 2**128) {... */\n    tag_285:\n        /* \"@prb/math/contracts/PRBMath.sol\":13925:13930  2**64 */\n      0x010000000000000000\n        /* \"@prb/math/contracts/PRBMath.sol\":13920:13921  x */\n      dup3\n        /* \"@prb/math/contracts/PRBMath.sol\":13920:13930  x >= 2**64 */\n      lt\n        /* \"@prb/math/contracts/PRBMath.sol\":13916:13988  if (x >= 2**64) {... */\n      tag_287\n      jumpi\n        /* \"@prb/math/contracts/PRBMath.sol\":13952:13954  64 */\n      0x40\n        /* \"@prb/math/contracts/PRBMath.sol\":13946:13954  x >>= 64 */\n      dup3\n      swap1\n      shr\n      swap2\n      pop\n        /* \"@prb/math/contracts/PRBMath.sol\":13975:13977  64 */\n      0x40\n        /* \"@prb/math/contracts/PRBMath.sol\":13968:13977  msb += 64 */\n      dup2\n      tag_288\n      swap2\n      swap1\n      tag_53\n      jump\t// in\n    tag_288:\n      swap1\n      pop\n        /* \"@prb/math/contracts/PRBMath.sol\":13916:13988  if (x >= 2**64) {... */\n    tag_287:\n        /* \"@prb/math/contracts/PRBMath.sol\":14006:14011  2**32 */\n      0x0100000000\n        /* \"@prb/math/contracts/PRBMath.sol\":14001:14002  x */\n      dup3\n        /* \"@prb/math/contracts/PRBMath.sol\":14001:14011  x >= 2**32 */\n      lt\n        /* \"@prb/math/contracts/PRBMath.sol\":13997:14069  if (x >= 2**32) {... */\n      tag_289\n      jumpi\n        /* \"@prb/math/contracts/PRBMath.sol\":14033:14035  32 */\n      0x20\n        /* \"@prb/math/contracts/PRBMath.sol\":14027:14035  x >>= 32 */\n      dup3\n      swap1\n      shr\n      swap2\n      pop\n        /* \"@prb/math/contracts/PRBMath.sol\":14056:14058  32 */\n      0x20\n        /* \"@prb/math/contracts/PRBMath.sol\":14049:14058  msb += 32 */\n      dup2\n      tag_290\n      swap2\n      swap1\n      tag_53\n      jump\t// in\n    tag_290:\n      swap1\n      pop\n        /* \"@prb/math/contracts/PRBMath.sol\":13997:14069  if (x >= 2**32) {... */\n    tag_289:\n        /* \"@prb/math/contracts/PRBMath.sol\":14087:14092  2**16 */\n      0x010000\n        /* \"@prb/math/contracts/PRBMath.sol\":14082:14083  x */\n      dup3\n        /* \"@prb/math/contracts/PRBMath.sol\":14082:14092  x >= 2**16 */\n      lt\n        /* \"@prb/math/contracts/PRBMath.sol\":14078:14150  if (x >= 2**16) {... */\n      tag_291\n      jumpi\n        /* \"@prb/math/contracts/PRBMath.sol\":14114:14116  16 */\n      0x10\n        /* \"@prb/math/contracts/PRBMath.sol\":14108:14116  x >>= 16 */\n      dup3\n      swap1\n      shr\n      swap2\n      pop\n        /* \"@prb/math/contracts/PRBMath.sol\":14137:14139  16 */\n      0x10\n        /* \"@prb/math/contracts/PRBMath.sol\":14130:14139  msb += 16 */\n      dup2\n      tag_292\n      swap2\n      swap1\n      tag_53\n      jump\t// in\n    tag_292:\n      swap1\n      pop\n        /* \"@prb/math/contracts/PRBMath.sol\":14078:14150  if (x >= 2**16) {... */\n    tag_291:\n        /* \"@prb/math/contracts/PRBMath.sol\":14168:14172  2**8 */\n      0x0100\n        /* \"@prb/math/contracts/PRBMath.sol\":14163:14164  x */\n      dup3\n        /* \"@prb/math/contracts/PRBMath.sol\":14163:14172  x >= 2**8 */\n      lt\n        /* \"@prb/math/contracts/PRBMath.sol\":14159:14228  if (x >= 2**8) {... */\n      tag_293\n      jumpi\n        /* \"@prb/math/contracts/PRBMath.sol\":14194:14195  8 */\n      0x08\n        /* \"@prb/math/contracts/PRBMath.sol\":14188:14195  x >>= 8 */\n      dup3\n      swap1\n      shr\n      swap2\n      pop\n        /* \"@prb/math/contracts/PRBMath.sol\":14216:14217  8 */\n      0x08\n        /* \"@prb/math/contracts/PRBMath.sol\":14209:14217  msb += 8 */\n      dup2\n      tag_294\n      swap2\n      swap1\n      tag_53\n      jump\t// in\n    tag_294:\n      swap1\n      pop\n        /* \"@prb/math/contracts/PRBMath.sol\":14159:14228  if (x >= 2**8) {... */\n    tag_293:\n        /* \"@prb/math/contracts/PRBMath.sol\":14246:14250  2**4 */\n      0x10\n        /* \"@prb/math/contracts/PRBMath.sol\":14241:14242  x */\n      dup3\n        /* \"@prb/math/contracts/PRBMath.sol\":14241:14250  x >= 2**4 */\n      lt\n        /* \"@prb/math/contracts/PRBMath.sol\":14237:14306  if (x >= 2**4) {... */\n      tag_295\n      jumpi\n        /* \"@prb/math/contracts/PRBMath.sol\":14272:14273  4 */\n      0x04\n        /* \"@prb/math/contracts/PRBMath.sol\":14266:14273  x >>= 4 */\n      dup3\n      swap1\n      shr\n      swap2\n      pop\n        /* \"@prb/math/contracts/PRBMath.sol\":14294:14295  4 */\n      0x04\n        /* \"@prb/math/contracts/PRBMath.sol\":14287:14295  msb += 4 */\n      dup2\n      tag_296\n      swap2\n      swap1\n      tag_53\n      jump\t// in\n    tag_296:\n      swap1\n      pop\n        /* \"@prb/math/contracts/PRBMath.sol\":14237:14306  if (x >= 2**4) {... */\n    tag_295:\n        /* \"@prb/math/contracts/PRBMath.sol\":14324:14328  2**2 */\n      0x04\n        /* \"@prb/math/contracts/PRBMath.sol\":14319:14320  x */\n      dup3\n        /* \"@prb/math/contracts/PRBMath.sol\":14319:14328  x >= 2**2 */\n      lt\n        /* \"@prb/math/contracts/PRBMath.sol\":14315:14384  if (x >= 2**2) {... */\n      tag_297\n      jumpi\n        /* \"@prb/math/contracts/PRBMath.sol\":14350:14351  2 */\n      0x02\n        /* \"@prb/math/contracts/PRBMath.sol\":14344:14351  x >>= 2 */\n      dup3\n      swap1\n      shr\n      swap2\n      pop\n        /* \"@prb/math/contracts/PRBMath.sol\":14372:14373  2 */\n      0x02\n        /* \"@prb/math/contracts/PRBMath.sol\":14365:14373  msb += 2 */\n      dup2\n      tag_298\n      swap2\n      swap1\n      tag_53\n      jump\t// in\n    tag_298:\n      swap1\n      pop\n        /* \"@prb/math/contracts/PRBMath.sol\":14315:14384  if (x >= 2**2) {... */\n    tag_297:\n        /* \"@prb/math/contracts/PRBMath.sol\":14402:14406  2**1 */\n      0x02\n        /* \"@prb/math/contracts/PRBMath.sol\":14397:14398  x */\n      dup3\n        /* \"@prb/math/contracts/PRBMath.sol\":14397:14406  x >= 2**1 */\n      lt\n        /* \"@prb/math/contracts/PRBMath.sol\":14393:14485  if (x >= 2**1) {... */\n      tag_299\n      jumpi\n        /* \"@prb/math/contracts/PRBMath.sol\":14473:14474  1 */\n      0x01\n        /* \"@prb/math/contracts/PRBMath.sol\":14466:14474  msb += 1 */\n      dup2\n      tag_300\n      swap2\n      swap1\n      tag_53\n      jump\t// in\n    tag_300:\n      swap1\n      pop\n        /* \"@prb/math/contracts/PRBMath.sol\":14393:14485  if (x >= 2**1) {... */\n    tag_299:\n        /* \"@prb/math/contracts/PRBMath.sol\":13747:14491  function mostSignificantBit(uint256 x) internal pure returns (uint256 msb) {... */\n      swap2\n      swap1\n      pop\n      jump\t// out\n        /* \"#utility.yul\":88:205   */\n    tag_302:\n        /* \"#utility.yul\":197:198   */\n      0x00\n        /* \"#utility.yul\":194:195   */\n      dup1\n        /* \"#utility.yul\":187:199   */\n      revert\n        /* \"#utility.yul\":334:411   */\n    tag_304:\n        /* \"#utility.yul\":371:378   */\n      0x00\n        /* \"#utility.yul\":400:405   */\n      dup2\n        /* \"#utility.yul\":389:405   */\n      swap1\n      pop\n        /* \"#utility.yul\":334:411   */\n      swap2\n      swap1\n      pop\n      jump\t// out\n        /* \"#utility.yul\":417:539   */\n    tag_305:\n        /* \"#utility.yul\":490:514   */\n      tag_346\n        /* \"#utility.yul\":508:513   */\n      dup2\n        /* \"#utility.yul\":490:514   */\n      tag_304\n      jump\t// in\n    tag_346:\n        /* \"#utility.yul\":483:488   */\n      dup2\n        /* \"#utility.yul\":480:515   */\n      eq\n        /* \"#utility.yul\":470:533   */\n      tag_347\n      jumpi\n        /* \"#utility.yul\":529:530   */\n      0x00\n        /* \"#utility.yul\":526:527   */\n      dup1\n        /* \"#utility.yul\":519:531   */\n      revert\n        /* \"#utility.yul\":470:533   */\n    tag_347:\n        /* \"#utility.yul\":417:539   */\n      pop\n      jump\t// out\n        /* \"#utility.yul\":545:684   */\n    tag_306:\n        /* \"#utility.yul\":591:596   */\n      0x00\n        /* \"#utility.yul\":629:635   */\n      dup2\n        /* \"#utility.yul\":616:636   */\n      calldataload\n        /* \"#utility.yul\":607:636   */\n      swap1\n      pop\n        /* \"#utility.yul\":645:678   */\n      tag_349\n        /* \"#utility.yul\":672:677   */\n      dup2\n        /* \"#utility.yul\":645:678   */\n      tag_305\n      jump\t// in\n    tag_349:\n        /* \"#utility.yul\":545:684   */\n      swap3\n      swap2\n      pop\n      pop\n      jump\t// out\n        /* \"#utility.yul\":690:1019   */\n    tag_17:\n        /* \"#utility.yul\":749:755   */\n      0x00\n        /* \"#utility.yul\":798:800   */\n      0x20\n        /* \"#utility.yul\":786:795   */\n      dup3\n        /* \"#utility.yul\":777:784   */\n      dup5\n        /* \"#utility.yul\":773:796   */\n      sub\n        /* \"#utility.yul\":769:801   */\n      slt\n        /* \"#utility.yul\":766:885   */\n      iszero\n      tag_351\n      jumpi\n        /* \"#utility.yul\":804:883   */\n      tag_352\n      tag_302\n      jump\t// in\n    tag_352:\n        /* \"#utility.yul\":766:885   */\n    tag_351:\n        /* \"#utility.yul\":924:925   */\n      0x00\n        /* \"#utility.yul\":949:1002   */\n      tag_353\n        /* \"#utility.yul\":994:1001   */\n      dup5\n        /* \"#utility.yul\":985:991   */\n      dup3\n        /* \"#utility.yul\":974:983   */\n      dup6\n        /* \"#utility.yul\":970:992   */\n      add\n        /* \"#utility.yul\":949:1002   */\n      tag_306\n      jump\t// in\n    tag_353:\n        /* \"#utility.yul\":939:1002   */\n      swap2\n      pop\n        /* \"#utility.yul\":895:1012   */\n      pop\n        /* \"#utility.yul\":690:1019   */\n      swap3\n      swap2\n      pop\n      pop\n      jump\t// out\n        /* \"#utility.yul\":1025:1151   */\n    tag_307:\n        /* \"#utility.yul\":1062:1069   */\n      0x00\n        /* \"#utility.yul\":1102:1144   */\n      0xffffffffffffffffffffffffffffffffffffffff\n        /* \"#utility.yul\":1095:1100   */\n      dup3\n        /* \"#utility.yul\":1091:1145   */\n      and\n        /* \"#utility.yul\":1080:1145   */\n      swap1\n      pop\n        /* \"#utility.yul\":1025:1151   */\n      swap2\n      swap1\n      pop\n      jump\t// out\n        /* \"#utility.yul\":1157:1253   */\n    tag_308:\n        /* \"#utility.yul\":1194:1201   */\n      0x00\n        /* \"#utility.yul\":1223:1247   */\n      tag_356\n        /* \"#utility.yul\":1241:1246   */\n      dup3\n        /* \"#utility.yul\":1223:1247   */\n      tag_307\n      jump\t// in\n    tag_356:\n        /* \"#utility.yul\":1212:1247   */\n      swap1\n      pop\n        /* \"#utility.yul\":1157:1253   */\n      swap2\n      swap1\n      pop\n      jump\t// out\n        /* \"#utility.yul\":1259:1381   */\n    tag_309:\n        /* \"#utility.yul\":1332:1356   */\n      tag_358\n        /* \"#utility.yul\":1350:1355   */\n      dup2\n        /* \"#utility.yul\":1332:1356   */\n      tag_308\n      jump\t// in\n    tag_358:\n        /* \"#utility.yul\":1325:1330   */\n      dup2\n        /* \"#utility.yul\":1322:1357   */\n      eq\n        /* \"#utility.yul\":1312:1375   */\n      tag_359\n      jumpi\n        /* \"#utility.yul\":1371:1372   */\n      0x00\n        /* \"#utility.yul\":1368:1369   */\n      dup1\n        /* \"#utility.yul\":1361:1373   */\n      revert\n        /* \"#utility.yul\":1312:1375   */\n    tag_359:\n        /* \"#utility.yul\":1259:1381   */\n      pop\n      jump\t// out\n        /* \"#utility.yul\":1387:1526   */\n    tag_310:\n        /* \"#utility.yul\":1433:1438   */\n      0x00\n        /* \"#utility.yul\":1471:1477   */\n      dup2\n        /* \"#utility.yul\":1458:1478   */\n      calldataload\n        /* \"#utility.yul\":1449:1478   */\n      swap1\n      pop\n        /* \"#utility.yul\":1487:1520   */\n      tag_361\n        /* \"#utility.yul\":1514:1519   */\n      dup2\n        /* \"#utility.yul\":1487:1520   */\n      tag_309\n      jump\t// in\n    tag_361:\n        /* \"#utility.yul\":1387:1526   */\n      swap3\n      swap2\n      pop\n      pop\n      jump\t// out\n        /* \"#utility.yul\":1532:1861   */\n    tag_22:\n        /* \"#utility.yul\":1591:1597   */\n      0x00\n        /* \"#utility.yul\":1640:1642   */\n      0x20\n        /* \"#utility.yul\":1628:1637   */\n      dup3\n        /* \"#utility.yul\":1619:1626   */\n      dup5\n        /* \"#utility.yul\":1615:1638   */\n      sub\n        /* \"#utility.yul\":1611:1643   */\n      slt\n        /* \"#utility.yul\":1608:1727   */\n      iszero\n      tag_363\n      jumpi\n        /* \"#utility.yul\":1646:1725   */\n      tag_364\n      tag_302\n      jump\t// in\n    tag_364:\n        /* \"#utility.yul\":1608:1727   */\n    tag_363:\n        /* \"#utility.yul\":1766:1767   */\n      0x00\n        /* \"#utility.yul\":1791:1844   */\n      tag_365\n        /* \"#utility.yul\":1836:1843   */\n      dup5\n        /* \"#utility.yul\":1827:1833   */\n      dup3\n        /* \"#utility.yul\":1816:1825   */\n      dup6\n        /* \"#utility.yul\":1812:1834   */\n      add\n        /* \"#utility.yul\":1791:1844   */\n      tag_310\n      jump\t// in\n    tag_365:\n        /* \"#utility.yul\":1781:1844   */\n      swap2\n      pop\n        /* \"#utility.yul\":1737:1854   */\n      pop\n        /* \"#utility.yul\":1532:1861   */\n      swap3\n      swap2\n      pop\n      pop\n      jump\t// out\n        /* \"#utility.yul\":1867:1985   */\n    tag_311:\n        /* \"#utility.yul\":1954:1978   */\n      tag_367\n        /* \"#utility.yul\":1972:1977   */\n      dup2\n        /* \"#utility.yul\":1954:1978   */\n      tag_304\n      jump\t// in\n    tag_367:\n        /* \"#utility.yul\":1949:1952   */\n      dup3\n        /* \"#utility.yul\":1942:1979   */\n      mstore\n        /* \"#utility.yul\":1867:1985   */\n      pop\n      pop\n      jump\t// out\n        /* \"#utility.yul\":1991:2544   */\n    tag_34:\n        /* \"#utility.yul\":2168:2172   */\n      0x00\n        /* \"#utility.yul\":2206:2209   */\n      0x80\n        /* \"#utility.yul\":2195:2204   */\n      dup3\n        /* \"#utility.yul\":2191:2210   */\n      add\n        /* \"#utility.yul\":2183:2210   */\n      swap1\n      pop\n        /* \"#utility.yul\":2220:2291   */\n      tag_369\n        /* \"#utility.yul\":2288:2289   */\n      0x00\n        /* \"#utility.yul\":2277:2286   */\n      dup4\n        /* \"#utility.yul\":2273:2290   */\n      add\n        /* \"#utility.yul\":2264:2270   */\n      dup8\n        /* \"#utility.yul\":2220:2291   */\n      tag_311\n      jump\t// in\n    tag_369:\n        /* \"#utility.yul\":2301:2373   */\n      tag_370\n        /* \"#utility.yul\":2369:2371   */\n      0x20\n        /* \"#utility.yul\":2358:2367   */\n      dup4\n        /* \"#utility.yul\":2354:2372   */\n      add\n        /* \"#utility.yul\":2345:2351   */\n      dup7\n        /* \"#utility.yul\":2301:2373   */\n      tag_311\n      jump\t// in\n    tag_370:\n        /* \"#utility.yul\":2383:2455   */\n      tag_371\n        /* \"#utility.yul\":2451:2453   */\n      0x40\n        /* \"#utility.yul\":2440:2449   */\n      dup4\n        /* \"#utility.yul\":2436:2454   */\n      add\n        /* \"#utility.yul\":2427:2433   */\n      dup6\n        /* \"#utility.yul\":2383:2455   */\n      tag_311\n      jump\t// in\n    tag_371:\n        /* \"#utility.yul\":2465:2537   */\n      tag_372\n        /* \"#utility.yul\":2533:2535   */\n      0x60\n        /* \"#utility.yul\":2522:2531   */\n      dup4\n        /* \"#utility.yul\":2518:2536   */\n      add\n        /* \"#utility.yul\":2509:2515   */\n      dup5\n        /* \"#utility.yul\":2465:2537   */\n      tag_311\n      jump\t// in\n    tag_372:\n        /* \"#utility.yul\":1991:2544   */\n      swap6\n      swap5\n      pop\n      pop\n      pop\n      pop\n      pop\n      jump\t// out\n        /* \"#utility.yul\":2550:2719   */\n    tag_312:\n        /* \"#utility.yul\":2634:2645   */\n      0x00\n        /* \"#utility.yul\":2668:2674   */\n      dup3\n        /* \"#utility.yul\":2663:2666   */\n      dup3\n        /* \"#utility.yul\":2656:2675   */\n      mstore\n        /* \"#utility.yul\":2708:2712   */\n      0x20\n        /* \"#utility.yul\":2703:2706   */\n      dup3\n        /* \"#utility.yul\":2699:2713   */\n      add\n        /* \"#utility.yul\":2684:2713   */\n      swap1\n      pop\n        /* \"#utility.yul\":2550:2719   */\n      swap3\n      swap2\n      pop\n      pop\n      jump\t// out\n        /* \"#utility.yul\":2725:2903   */\n    tag_313:\n        /* \"#utility.yul\":2865:2895   */\n      0x4d75737420737570706c79206174206c65617374203120746f6b656e00000000\n        /* \"#utility.yul\":2861:2862   */\n      0x00\n        /* \"#utility.yul\":2853:2859   */\n      dup3\n        /* \"#utility.yul\":2849:2863   */\n      add\n        /* \"#utility.yul\":2842:2896   */\n      mstore\n        /* \"#utility.yul\":2725:2903   */\n      pop\n      jump\t// out\n        /* \"#utility.yul\":2909:3275   */\n    tag_314:\n        /* \"#utility.yul\":3051:3054   */\n      0x00\n        /* \"#utility.yul\":3072:3139   */\n      tag_376\n        /* \"#utility.yul\":3136:3138   */\n      0x1c\n        /* \"#utility.yul\":3131:3134   */\n      dup4\n        /* \"#utility.yul\":3072:3139   */\n      tag_312\n      jump\t// in\n    tag_376:\n        /* \"#utility.yul\":3065:3139   */\n      swap2\n      pop\n        /* \"#utility.yul\":3148:3241   */\n      tag_377\n        /* \"#utility.yul\":3237:3240   */\n      dup3\n        /* \"#utility.yul\":3148:3241   */\n      tag_313\n      jump\t// in\n    tag_377:\n        /* \"#utility.yul\":3266:3268   */\n      0x20\n        /* \"#utility.yul\":3261:3264   */\n      dup3\n        /* \"#utility.yul\":3257:3269   */\n      add\n        /* \"#utility.yul\":3250:3269   */\n      swap1\n      pop\n        /* \"#utility.yul\":2909:3275   */\n      swap2\n      swap1\n      pop\n      jump\t// out\n        /* \"#utility.yul\":3281:3700   */\n    tag_49:\n        /* \"#utility.yul\":3447:3451   */\n      0x00\n        /* \"#utility.yul\":3485:3487   */\n      0x20\n        /* \"#utility.yul\":3474:3483   */\n      dup3\n        /* \"#utility.yul\":3470:3488   */\n      add\n        /* \"#utility.yul\":3462:3488   */\n      swap1\n      pop\n        /* \"#utility.yul\":3534:3543   */\n      dup2\n        /* \"#utility.yul\":3528:3532   */\n      dup2\n        /* \"#utility.yul\":3524:3544   */\n      sub\n        /* \"#utility.yul\":3520:3521   */\n      0x00\n        /* \"#utility.yul\":3509:3518   */\n      dup4\n        /* \"#utility.yul\":3505:3522   */\n      add\n        /* \"#utility.yul\":3498:3545   */\n      mstore\n        /* \"#utility.yul\":3562:3693   */\n      tag_379\n        /* \"#utility.yul\":3688:3692   */\n      dup2\n        /* \"#utility.yul\":3562:3693   */\n      tag_314\n      jump\t// in\n    tag_379:\n        /* \"#utility.yul\":3554:3693   */\n      swap1\n      pop\n        /* \"#utility.yul\":3281:3700   */\n      swap2\n      swap1\n      pop\n      jump\t// out\n        /* \"#utility.yul\":3706:3886   */\n    tag_315:\n        /* \"#utility.yul\":3754:3831   */\n      0x4e487b7100000000000000000000000000000000000000000000000000000000\n        /* \"#utility.yul\":3751:3752   */\n      0x00\n        /* \"#utility.yul\":3744:3832   */\n      mstore\n        /* \"#utility.yul\":3851:3855   */\n      0x11\n        /* \"#utility.yul\":3848:3849   */\n      0x04\n        /* \"#utility.yul\":3841:3856   */\n      mstore\n        /* \"#utility.yul\":3875:3879   */\n      0x24\n        /* \"#utility.yul\":3872:3873   */\n      0x00\n        /* \"#utility.yul\":3865:3880   */\n      revert\n        /* \"#utility.yul\":3892:4083   */\n    tag_53:\n        /* \"#utility.yul\":3932:3935   */\n      0x00\n        /* \"#utility.yul\":3951:3971   */\n      tag_382\n        /* \"#utility.yul\":3969:3970   */\n      dup3\n        /* \"#utility.yul\":3951:3971   */\n      tag_304\n      jump\t// in\n    tag_382:\n        /* \"#utility.yul\":3946:3971   */\n      swap2\n      pop\n        /* \"#utility.yul\":3985:4005   */\n      tag_383\n        /* \"#utility.yul\":4003:4004   */\n      dup4\n        /* \"#utility.yul\":3985:4005   */\n      tag_304\n      jump\t// in\n    tag_383:\n        /* \"#utility.yul\":3980:4005   */\n      swap3\n      pop\n        /* \"#utility.yul\":4028:4029   */\n      dup3\n        /* \"#utility.yul\":4025:4026   */\n      dup3\n        /* \"#utility.yul\":4021:4030   */\n      add\n        /* \"#utility.yul\":4014:4030   */\n      swap1\n      pop\n        /* \"#utility.yul\":4049:4052   */\n      dup1\n        /* \"#utility.yul\":4046:4047   */\n      dup3\n        /* \"#utility.yul\":4043:4053   */\n      gt\n        /* \"#utility.yul\":4040:4076   */\n      iszero\n      tag_384\n      jumpi\n        /* \"#utility.yul\":4056:4074   */\n      tag_385\n      tag_315\n      jump\t// in\n    tag_385:\n        /* \"#utility.yul\":4040:4076   */\n    tag_384:\n        /* \"#utility.yul\":3892:4083   */\n      swap3\n      swap2\n      pop\n      pop\n      jump\t// out\n        /* \"#utility.yul\":4089:4311   */\n    tag_56:\n        /* \"#utility.yul\":4182:4186   */\n      0x00\n        /* \"#utility.yul\":4220:4222   */\n      0x20\n        /* \"#utility.yul\":4209:4218   */\n      dup3\n        /* \"#utility.yul\":4205:4223   */\n      add\n        /* \"#utility.yul\":4197:4223   */\n      swap1\n      pop\n        /* \"#utility.yul\":4233:4304   */\n      tag_387\n        /* \"#utility.yul\":4301:4302   */\n      0x00\n        /* \"#utility.yul\":4290:4299   */\n      dup4\n        /* \"#utility.yul\":4286:4303   */\n      add\n        /* \"#utility.yul\":4277:4283   */\n      dup5\n        /* \"#utility.yul\":4233:4304   */\n      tag_311\n      jump\t// in\n    tag_387:\n        /* \"#utility.yul\":4089:4311   */\n      swap3\n      swap2\n      pop\n      pop\n      jump\t// out\n        /* \"#utility.yul\":4317:4487   */\n    tag_316:\n        /* \"#utility.yul\":4457:4479   */\n      0x4e6f20746f6b656e20746f207769746864726177000000000000000000000000\n        /* \"#utility.yul\":4453:4454   */\n      0x00\n        /* \"#utility.yul\":4445:4451   */\n      dup3\n        /* \"#utility.yul\":4441:4455   */\n      add\n        /* \"#utility.yul\":4434:4480   */\n      mstore\n        /* \"#utility.yul\":4317:4487   */\n      pop\n      jump\t// out\n        /* \"#utility.yul\":4493:4859   */\n    tag_317:\n        /* \"#utility.yul\":4635:4638   */\n      0x00\n        /* \"#utility.yul\":4656:4723   */\n      tag_390\n        /* \"#utility.yul\":4720:4722   */\n      0x14\n        /* \"#utility.yul\":4715:4718   */\n      dup4\n        /* \"#utility.yul\":4656:4723   */\n      tag_312\n      jump\t// in\n    tag_390:\n        /* \"#utility.yul\":4649:4723   */\n      swap2\n      pop\n        /* \"#utility.yul\":4732:4825   */\n      tag_391\n        /* \"#utility.yul\":4821:4824   */\n      dup3\n        /* \"#utility.yul\":4732:4825   */\n      tag_316\n      jump\t// in\n    tag_391:\n        /* \"#utility.yul\":4850:4852   */\n      0x20\n        /* \"#utility.yul\":4845:4848   */\n      dup3\n        /* \"#utility.yul\":4841:4853   */\n      add\n        /* \"#utility.yul\":4834:4853   */\n      swap1\n      pop\n        /* \"#utility.yul\":4493:4859   */\n      swap2\n      swap1\n      pop\n      jump\t// out\n        /* \"#utility.yul\":4865:5284   */\n    tag_60:\n        /* \"#utility.yul\":5031:5035   */\n      0x00\n        /* \"#utility.yul\":5069:5071   */\n      0x20\n        /* \"#utility.yul\":5058:5067   */\n      dup3\n        /* \"#utility.yul\":5054:5072   */\n      add\n        /* \"#utility.yul\":5046:5072   */\n      swap1\n      pop\n        /* \"#utility.yul\":5118:5127   */\n      dup2\n        /* \"#utility.yul\":5112:5116   */\n      dup2\n        /* \"#utility.yul\":5108:5128   */\n      sub\n        /* \"#utility.yul\":5104:5105   */\n      0x00\n        /* \"#utility.yul\":5093:5102   */\n      dup4\n        /* \"#utility.yul\":5089:5106   */\n      add\n        /* \"#utility.yul\":5082:5129   */\n      mstore\n        /* \"#utility.yul\":5146:5277   */\n      tag_393\n        /* \"#utility.yul\":5272:5276   */\n      dup2\n        /* \"#utility.yul\":5146:5277   */\n      tag_317\n      jump\t// in\n    tag_393:\n        /* \"#utility.yul\":5138:5277   */\n      swap1\n      pop\n        /* \"#utility.yul\":4865:5284   */\n      swap2\n      swap1\n      pop\n      jump\t// out\n        /* \"#utility.yul\":5290:5467   */\n    tag_318:\n        /* \"#utility.yul\":5430:5459   */\n      0x496e73756666696369656e7420737570706c792062616c616e63650000000000\n        /* \"#utility.yul\":5426:5427   */\n      0x00\n        /* \"#utility.yul\":5418:5424   */\n      dup3\n        /* \"#utility.yul\":5414:5428   */\n      add\n        /* \"#utility.yul\":5407:5460   */\n      mstore\n        /* \"#utility.yul\":5290:5467   */\n      pop\n      jump\t// out\n        /* \"#utility.yul\":5473:5839   */\n    tag_319:\n        /* \"#utility.yul\":5615:5618   */\n      0x00\n        /* \"#utility.yul\":5636:5703   */\n      tag_396\n        /* \"#utility.yul\":5700:5702   */\n      0x1b\n        /* \"#utility.yul\":5695:5698   */\n      dup4\n        /* \"#utility.yul\":5636:5703   */\n      tag_312\n      jump\t// in\n    tag_396:\n        /* \"#utility.yul\":5629:5703   */\n      swap2\n      pop\n        /* \"#utility.yul\":5712:5805   */\n      tag_397\n        /* \"#utility.yul\":5801:5804   */\n      dup3\n        /* \"#utility.yul\":5712:5805   */\n      tag_318\n      jump\t// in\n    tag_397:\n        /* \"#utility.yul\":5830:5832   */\n      0x20\n        /* \"#utility.yul\":5825:5828   */\n      dup3\n        /* \"#utility.yul\":5821:5833   */\n      add\n        /* \"#utility.yul\":5814:5833   */\n      swap1\n      pop\n        /* \"#utility.yul\":5473:5839   */\n      swap2\n      swap1\n      pop\n      jump\t// out\n        /* \"#utility.yul\":5845:6264   */\n    tag_64:\n        /* \"#utility.yul\":6011:6015   */\n      0x00\n        /* \"#utility.yul\":6049:6051   */\n      0x20\n        /* \"#utility.yul\":6038:6047   */\n      dup3\n        /* \"#utility.yul\":6034:6052   */\n      add\n        /* \"#utility.yul\":6026:6052   */\n      swap1\n      pop\n        /* \"#utility.yul\":6098:6107   */\n      dup2\n        /* \"#utility.yul\":6092:6096   */\n      dup2\n        /* \"#utility.yul\":6088:6108   */\n      sub\n        /* \"#utility.yul\":6084:6085   */\n      0x00\n        /* \"#utility.yul\":6073:6082   */\n      dup4\n        /* \"#utility.yul\":6069:6086   */\n      add\n        /* \"#utility.yul\":6062:6109   */\n      mstore\n        /* \"#utility.yul\":6126:6257   */\n      tag_399\n        /* \"#utility.yul\":6252:6256   */\n      dup2\n        /* \"#utility.yul\":6126:6257   */\n      tag_319\n      jump\t// in\n    tag_399:\n        /* \"#utility.yul\":6118:6257   */\n      swap1\n      pop\n        /* \"#utility.yul\":5845:6264   */\n      swap2\n      swap1\n      pop\n      jump\t// out\n        /* \"#utility.yul\":6270:6448   */\n    tag_320:\n        /* \"#utility.yul\":6410:6440   */\n      0x496e73756666696369656e742062616c616e636520696e20706f6f6c00000000\n        /* \"#utility.yul\":6406:6407   */\n      0x00\n        /* \"#utility.yul\":6398:6404   */\n      dup3\n        /* \"#utility.yul\":6394:6408   */\n      add\n        /* \"#utility.yul\":6387:6441   */\n      mstore\n        /* \"#utility.yul\":6270:6448   */\n      pop\n      jump\t// out\n        /* \"#utility.yul\":6454:6820   */\n    tag_321:\n        /* \"#utility.yul\":6596:6599   */\n      0x00\n        /* \"#utility.yul\":6617:6684   */\n      tag_402\n        /* \"#utility.yul\":6681:6683   */\n      0x1c\n        /* \"#utility.yul\":6676:6679   */\n      dup4\n        /* \"#utility.yul\":6617:6684   */\n      tag_312\n      jump\t// in\n    tag_402:\n        /* \"#utility.yul\":6610:6684   */\n      swap2\n      pop\n        /* \"#utility.yul\":6693:6786   */\n      tag_403\n        /* \"#utility.yul\":6782:6785   */\n      dup3\n        /* \"#utility.yul\":6693:6786   */\n      tag_320\n      jump\t// in\n    tag_403:\n        /* \"#utility.yul\":6811:6813   */\n      0x20\n        /* \"#utility.yul\":6806:6809   */\n      dup3\n        /* \"#utility.yul\":6802:6814   */\n      add\n        /* \"#utility.yul\":6795:6814   */\n      swap1\n      pop\n        /* \"#utility.yul\":6454:6820   */\n      swap2\n      swap1\n      pop\n      jump\t// out\n        /* \"#utility.yul\":6826:7245   */\n    tag_67:\n        /* \"#utility.yul\":6992:6996   */\n      0x00\n        /* \"#utility.yul\":7030:7032   */\n      0x20\n        /* \"#utility.yul\":7019:7028   */\n      dup3\n        /* \"#utility.yul\":7015:7033   */\n      add\n        /* \"#utility.yul\":7007:7033   */\n      swap1\n      pop\n        /* \"#utility.yul\":7079:7088   */\n      dup2\n        /* \"#utility.yul\":7073:7077   */\n      dup2\n        /* \"#utility.yul\":7069:7089   */\n      sub\n        /* \"#utility.yul\":7065:7066   */\n      0x00\n        /* \"#utility.yul\":7054:7063   */\n      dup4\n        /* \"#utility.yul\":7050:7067   */\n      add\n        /* \"#utility.yul\":7043:7090   */\n      mstore\n        /* \"#utility.yul\":7107:7238   */\n      tag_405\n        /* \"#utility.yul\":7233:7237   */\n      dup2\n        /* \"#utility.yul\":7107:7238   */\n      tag_321\n      jump\t// in\n    tag_405:\n        /* \"#utility.yul\":7099:7238   */\n      swap1\n      pop\n        /* \"#utility.yul\":6826:7245   */\n      swap2\n      swap1\n      pop\n      jump\t// out\n        /* \"#utility.yul\":7251:7445   */\n    tag_69:\n        /* \"#utility.yul\":7291:7295   */\n      0x00\n        /* \"#utility.yul\":7311:7331   */\n      tag_407\n        /* \"#utility.yul\":7329:7330   */\n      dup3\n        /* \"#utility.yul\":7311:7331   */\n      tag_304\n      jump\t// in\n    tag_407:\n        /* \"#utility.yul\":7306:7331   */\n      swap2\n      pop\n        /* \"#utility.yul\":7345:7365   */\n      tag_408\n        /* \"#utility.yul\":7363:7364   */\n      dup4\n        /* \"#utility.yul\":7345:7365   */\n      tag_304\n      jump\t// in\n    tag_408:\n        /* \"#utility.yul\":7340:7365   */\n      swap3\n      pop\n        /* \"#utility.yul\":7389:7390   */\n      dup3\n        /* \"#utility.yul\":7386:7387   */\n      dup3\n        /* \"#utility.yul\":7382:7391   */\n      sub\n        /* \"#utility.yul\":7374:7391   */\n      swap1\n      pop\n        /* \"#utility.yul\":7413:7414   */\n      dup2\n        /* \"#utility.yul\":7407:7411   */\n      dup2\n        /* \"#utility.yul\":7404:7415   */\n      gt\n        /* \"#utility.yul\":7401:7438   */\n      iszero\n      tag_409\n      jumpi\n        /* \"#utility.yul\":7418:7436   */\n      tag_410\n      tag_315\n      jump\t// in\n    tag_410:\n        /* \"#utility.yul\":7401:7438   */\n    tag_409:\n        /* \"#utility.yul\":7251:7445   */\n      swap3\n      swap2\n      pop\n      pop\n      jump\t// out\n        /* \"#utility.yul\":7451:7630   */\n    tag_322:\n        /* \"#utility.yul\":7591:7622   */\n      0x426f72726f7765722063616e6e6f74206265206c697175696461746564000000\n        /* \"#utility.yul\":7587:7588   */\n      0x00\n        /* \"#utility.yul\":7579:7585   */\n      dup3\n        /* \"#utility.yul\":7575:7589   */\n      add\n        /* \"#utility.yul\":7568:7623   */\n      mstore\n        /* \"#utility.yul\":7451:7630   */\n      pop\n      jump\t// out\n        /* \"#utility.yul\":7636:8002   */\n    tag_323:\n        /* \"#utility.yul\":7778:7781   */\n      0x00\n        /* \"#utility.yul\":7799:7866   */\n      tag_413\n        /* \"#utility.yul\":7863:7865   */\n      0x1d\n        /* \"#utility.yul\":7858:7861   */\n      dup4\n        /* \"#utility.yul\":7799:7866   */\n      tag_312\n      jump\t// in\n    tag_413:\n        /* \"#utility.yul\":7792:7866   */\n      swap2\n      pop\n        /* \"#utility.yul\":7875:7968   */\n      tag_414\n        /* \"#utility.yul\":7964:7967   */\n      dup3\n        /* \"#utility.yul\":7875:7968   */\n      tag_322\n      jump\t// in\n    tag_414:\n        /* \"#utility.yul\":7993:7995   */\n      0x20\n        /* \"#utility.yul\":7988:7991   */\n      dup3\n        /* \"#utility.yul\":7984:7996   */\n      add\n        /* \"#utility.yul\":7977:7996   */\n      swap1\n      pop\n        /* \"#utility.yul\":7636:8002   */\n      swap2\n      swap1\n      pop\n      jump\t// out\n        /* \"#utility.yul\":8008:8427   */\n    tag_79:\n        /* \"#utility.yul\":8174:8178   */\n      0x00\n        /* \"#utility.yul\":8212:8214   */\n      0x20\n        /* \"#utility.yul\":8201:8210   */\n      dup3\n        /* \"#utility.yul\":8197:8215   */\n      add\n        /* \"#utility.yul\":8189:8215   */\n      swap1\n      pop\n        /* \"#utility.yul\":8261:8270   */\n      dup2\n        /* \"#utility.yul\":8255:8259   */\n      dup2\n        /* \"#utility.yul\":8251:8271   */\n      sub\n        /* \"#utility.yul\":8247:8248   */\n      0x00\n        /* \"#utility.yul\":8236:8245   */\n      dup4\n        /* \"#utility.yul\":8232:8249   */\n      add\n        /* \"#utility.yul\":8225:8272   */\n      mstore\n        /* \"#utility.yul\":8289:8420   */\n      tag_416\n        /* \"#utility.yul\":8415:8419   */\n      dup2\n        /* \"#utility.yul\":8289:8420   */\n      tag_323\n      jump\t// in\n    tag_416:\n        /* \"#utility.yul\":8281:8420   */\n      swap1\n      pop\n        /* \"#utility.yul\":8008:8427   */\n      swap2\n      swap1\n      pop\n      jump\t// out\n        /* \"#utility.yul\":8433:8609   */\n    tag_324:\n        /* \"#utility.yul\":8573:8601   */\n      0x43616e6e6f742072656d6f7665203020636f6c6c61746572616c000000000000\n        /* \"#utility.yul\":8569:8570   */\n      0x00\n        /* \"#utility.yul\":8561:8567   */\n      dup3\n        /* \"#utility.yul\":8557:8571   */\n      add\n        /* \"#utility.yul\":8550:8602   */\n      mstore\n        /* \"#utility.yul\":8433:8609   */\n      pop\n      jump\t// out\n        /* \"#utility.yul\":8615:8981   */\n    tag_325:\n        /* \"#utility.yul\":8757:8760   */\n      0x00\n        /* \"#utility.yul\":8778:8845   */\n      tag_419\n        /* \"#utility.yul\":8842:8844   */\n      0x1a\n        /* \"#utility.yul\":8837:8840   */\n      dup4\n        /* \"#utility.yul\":8778:8845   */\n      tag_312\n      jump\t// in\n    tag_419:\n        /* \"#utility.yul\":8771:8845   */\n      swap2\n      pop\n        /* \"#utility.yul\":8854:8947   */\n      tag_420\n        /* \"#utility.yul\":8943:8946   */\n      dup3\n        /* \"#utility.yul\":8854:8947   */\n      tag_324\n      jump\t// in\n    tag_420:\n        /* \"#utility.yul\":8972:8974   */\n      0x20\n        /* \"#utility.yul\":8967:8970   */\n      dup3\n        /* \"#utility.yul\":8963:8975   */\n      add\n        /* \"#utility.yul\":8956:8975   */\n      swap1\n      pop\n        /* \"#utility.yul\":8615:8981   */\n      swap2\n      swap1\n      pop\n      jump\t// out\n        /* \"#utility.yul\":8987:9406   */\n    tag_88:\n        /* \"#utility.yul\":9153:9157   */\n      0x00\n        /* \"#utility.yul\":9191:9193   */\n      0x20\n        /* \"#utility.yul\":9180:9189   */\n      dup3\n        /* \"#utility.yul\":9176:9194   */\n      add\n        /* \"#utility.yul\":9168:9194   */\n      swap1\n      pop\n        /* \"#utility.yul\":9240:9249   */\n      dup2\n        /* \"#utility.yul\":9234:9238   */\n      dup2\n        /* \"#utility.yul\":9230:9250   */\n      sub\n        /* \"#utility.yul\":9226:9227   */\n      0x00\n        /* \"#utility.yul\":9215:9224   */\n      dup4\n        /* \"#utility.yul\":9211:9228   */\n      add\n        /* \"#utility.yul\":9204:9251   */\n      mstore\n        /* \"#utility.yul\":9268:9399   */\n      tag_422\n        /* \"#utility.yul\":9394:9398   */\n      dup2\n        /* \"#utility.yul\":9268:9399   */\n      tag_325\n      jump\t// in\n    tag_422:\n        /* \"#utility.yul\":9260:9399   */\n      swap1\n      pop\n        /* \"#utility.yul\":8987:9406   */\n      swap2\n      swap1\n      pop\n      jump\t// out\n        /* \"#utility.yul\":9412:9585   */\n    tag_326:\n        /* \"#utility.yul\":9552:9577   */\n      0x496e73756666696369656e7420436f6c6c61746572616c000000000000000000\n        /* \"#utility.yul\":9548:9549   */\n      0x00\n        /* \"#utility.yul\":9540:9546   */\n      dup3\n        /* \"#utility.yul\":9536:9550   */\n      add\n        /* \"#utility.yul\":9529:9578   */\n      mstore\n        /* \"#utility.yul\":9412:9585   */\n      pop\n      jump\t// out\n        /* \"#utility.yul\":9591:9957   */\n    tag_327:\n        /* \"#utility.yul\":9733:9736   */\n      0x00\n        /* \"#utility.yul\":9754:9821   */\n      tag_425\n        /* \"#utility.yul\":9818:9820   */\n      0x17\n        /* \"#utility.yul\":9813:9816   */\n      dup4\n        /* \"#utility.yul\":9754:9821   */\n      tag_312\n      jump\t// in\n    tag_425:\n        /* \"#utility.yul\":9747:9821   */\n      swap2\n      pop\n        /* \"#utility.yul\":9830:9923   */\n      tag_426\n        /* \"#utility.yul\":9919:9922   */\n      dup3\n        /* \"#utility.yul\":9830:9923   */\n      tag_326\n      jump\t// in\n    tag_426:\n        /* \"#utility.yul\":9948:9950   */\n      0x20\n        /* \"#utility.yul\":9943:9946   */\n      dup3\n        /* \"#utility.yul\":9939:9951   */\n      add\n        /* \"#utility.yul\":9932:9951   */\n      swap1\n      pop\n        /* \"#utility.yul\":9591:9957   */\n      swap2\n      swap1\n      pop\n      jump\t// out\n        /* \"#utility.yul\":9963:10382   */\n    tag_91:\n        /* \"#utility.yul\":10129:10133   */\n      0x00\n        /* \"#utility.yul\":10167:10169   */\n      0x20\n        /* \"#utility.yul\":10156:10165   */\n      dup3\n        /* \"#utility.yul\":10152:10170   */\n      add\n        /* \"#utility.yul\":10144:10170   */\n      swap1\n      pop\n        /* \"#utility.yul\":10216:10225   */\n      dup2\n        /* \"#utility.yul\":10210:10214   */\n      dup2\n        /* \"#utility.yul\":10206:10226   */\n      sub\n        /* \"#utility.yul\":10202:10203   */\n      0x00\n        /* \"#utility.yul\":10191:10200   */\n      dup4\n        /* \"#utility.yul\":10187:10204   */\n      add\n        /* \"#utility.yul\":10180:10227   */\n      mstore\n        /* \"#utility.yul\":10244:10375   */\n      tag_428\n        /* \"#utility.yul\":10370:10374   */\n      dup2\n        /* \"#utility.yul\":10244:10375   */\n      tag_327\n      jump\t// in\n    tag_428:\n        /* \"#utility.yul\":10236:10375   */\n      swap1\n      pop\n        /* \"#utility.yul\":9963:10382   */\n      swap2\n      swap1\n      pop\n      jump\t// out\n        /* \"#utility.yul\":10388:10798   */\n    tag_94:\n        /* \"#utility.yul\":10428:10435   */\n      0x00\n        /* \"#utility.yul\":10451:10471   */\n      tag_430\n        /* \"#utility.yul\":10469:10470   */\n      dup3\n        /* \"#utility.yul\":10451:10471   */\n      tag_304\n      jump\t// in\n    tag_430:\n        /* \"#utility.yul\":10446:10471   */\n      swap2\n      pop\n        /* \"#utility.yul\":10485:10505   */\n      tag_431\n        /* \"#utility.yul\":10503:10504   */\n      dup4\n        /* \"#utility.yul\":10485:10505   */\n      tag_304\n      jump\t// in\n    tag_431:\n        /* \"#utility.yul\":10480:10505   */\n      swap3\n      pop\n        /* \"#utility.yul\":10540:10541   */\n      dup3\n        /* \"#utility.yul\":10537:10538   */\n      dup3\n        /* \"#utility.yul\":10533:10542   */\n      mul\n        /* \"#utility.yul\":10562:10592   */\n      tag_432\n        /* \"#utility.yul\":10580:10591   */\n      dup2\n        /* \"#utility.yul\":10562:10592   */\n      tag_304\n      jump\t// in\n    tag_432:\n        /* \"#utility.yul\":10551:10592   */\n      swap2\n      pop\n        /* \"#utility.yul\":10741:10742   */\n      dup3\n        /* \"#utility.yul\":10732:10739   */\n      dup3\n        /* \"#utility.yul\":10728:10743   */\n      div\n        /* \"#utility.yul\":10725:10726   */\n      dup5\n        /* \"#utility.yul\":10722:10744   */\n      eq\n        /* \"#utility.yul\":10702:10703   */\n      dup4\n        /* \"#utility.yul\":10695:10704   */\n      iszero\n        /* \"#utility.yul\":10675:10758   */\n      or\n        /* \"#utility.yul\":10652:10791   */\n      tag_433\n      jumpi\n        /* \"#utility.yul\":10771:10789   */\n      tag_434\n      tag_315\n      jump\t// in\n    tag_434:\n        /* \"#utility.yul\":10652:10791   */\n    tag_433:\n        /* \"#utility.yul\":10436:10798   */\n      pop\n        /* \"#utility.yul\":10388:10798   */\n      swap3\n      swap2\n      pop\n      pop\n      jump\t// out\n        /* \"#utility.yul\":10804:10984   */\n    tag_188:\n        /* \"#utility.yul\":10852:10929   */\n      0x4e487b7100000000000000000000000000000000000000000000000000000000\n        /* \"#utility.yul\":10849:10850   */\n      0x00\n        /* \"#utility.yul\":10842:10930   */\n      mstore\n        /* \"#utility.yul\":10949:10953   */\n      0x12\n        /* \"#utility.yul\":10946:10947   */\n      0x04\n        /* \"#utility.yul\":10939:10954   */\n      mstore\n        /* \"#utility.yul\":10973:10977   */\n      0x24\n        /* \"#utility.yul\":10970:10971   */\n      0x00\n        /* \"#utility.yul\":10963:10978   */\n      revert\n        /* \"#utility.yul\":10990:11175   */\n    tag_96:\n        /* \"#utility.yul\":11030:11031   */\n      0x00\n        /* \"#utility.yul\":11047:11067   */\n      tag_437\n        /* \"#utility.yul\":11065:11066   */\n      dup3\n        /* \"#utility.yul\":11047:11067   */\n      tag_304\n      jump\t// in\n    tag_437:\n        /* \"#utility.yul\":11042:11067   */\n      swap2\n      pop\n        /* \"#utility.yul\":11081:11101   */\n      tag_438\n        /* \"#utility.yul\":11099:11100   */\n      dup4\n        /* \"#utility.yul\":11081:11101   */\n      tag_304\n      jump\t// in\n    tag_438:\n        /* \"#utility.yul\":11076:11101   */\n      swap3\n      pop\n        /* \"#utility.yul\":11120:11121   */\n      dup3\n        /* \"#utility.yul\":11110:11145   */\n      tag_439\n      jumpi\n        /* \"#utility.yul\":11125:11143   */\n      tag_440\n      tag_188\n      jump\t// in\n    tag_440:\n        /* \"#utility.yul\":11110:11145   */\n    tag_439:\n        /* \"#utility.yul\":11167:11168   */\n      dup3\n        /* \"#utility.yul\":11164:11165   */\n      dup3\n        /* \"#utility.yul\":11160:11169   */\n      div\n        /* \"#utility.yul\":11155:11169   */\n      swap1\n      pop\n        /* \"#utility.yul\":10990:11175   */\n      swap3\n      swap2\n      pop\n      pop\n      jump\t// out\n        /* \"#utility.yul\":11181:11421   */\n    tag_328:\n        /* \"#utility.yul\":11321:11355   */\n      0x436f6c6c61746572616c2072656d6f76616c20776f756c642076696f6c617465\n        /* \"#utility.yul\":11317:11318   */\n      0x00\n        /* \"#utility.yul\":11309:11315   */\n      dup3\n        /* \"#utility.yul\":11305:11319   */\n      add\n        /* \"#utility.yul\":11298:11356   */\n      mstore\n        /* \"#utility.yul\":11390:11413   */\n      0x20746865206c656e64696e672070726f746f636f6c0000000000000000000000\n        /* \"#utility.yul\":11385:11387   */\n      0x20\n        /* \"#utility.yul\":11377:11383   */\n      dup3\n        /* \"#utility.yul\":11373:11388   */\n      add\n        /* \"#utility.yul\":11366:11414   */\n      mstore\n        /* \"#utility.yul\":11181:11421   */\n      pop\n      jump\t// out\n        /* \"#utility.yul\":11427:11793   */\n    tag_329:\n        /* \"#utility.yul\":11569:11572   */\n      0x00\n        /* \"#utility.yul\":11590:11657   */\n      tag_443\n        /* \"#utility.yul\":11654:11656   */\n      0x35\n        /* \"#utility.yul\":11649:11652   */\n      dup4\n        /* \"#utility.yul\":11590:11657   */\n      tag_312\n      jump\t// in\n    tag_443:\n        /* \"#utility.yul\":11583:11657   */\n      swap2\n      pop\n        /* \"#utility.yul\":11666:11759   */\n      tag_444\n        /* \"#utility.yul\":11755:11758   */\n      dup3\n        /* \"#utility.yul\":11666:11759   */\n      tag_328\n      jump\t// in\n    tag_444:\n        /* \"#utility.yul\":11784:11786   */\n      0x40\n        /* \"#utility.yul\":11779:11782   */\n      dup3\n        /* \"#utility.yul\":11775:11787   */\n      add\n        /* \"#utility.yul\":11768:11787   */\n      swap1\n      pop\n        /* \"#utility.yul\":11427:11793   */\n      swap2\n      swap1\n      pop\n      jump\t// out\n        /* \"#utility.yul\":11799:12218   */\n    tag_100:\n        /* \"#utility.yul\":11965:11969   */\n      0x00\n        /* \"#utility.yul\":12003:12005   */\n      0x20\n        /* \"#utility.yul\":11992:12001   */\n      dup3\n        /* \"#utility.yul\":11988:12006   */\n      add\n        /* \"#utility.yul\":11980:12006   */\n      swap1\n      pop\n        /* \"#utility.yul\":12052:12061   */\n      dup2\n        /* \"#utility.yul\":12046:12050   */\n      dup2\n        /* \"#utility.yul\":12042:12062   */\n      sub\n        /* \"#utility.yul\":12038:12039   */\n      0x00\n        /* \"#utility.yul\":12027:12036   */\n      dup4\n        /* \"#utility.yul\":12023:12040   */\n      add\n        /* \"#utility.yul\":12016:12063   */\n      mstore\n        /* \"#utility.yul\":12080:12211   */\n      tag_446\n        /* \"#utility.yul\":12206:12210   */\n      dup2\n        /* \"#utility.yul\":12080:12211   */\n      tag_329\n      jump\t// in\n    tag_446:\n        /* \"#utility.yul\":12072:12211   */\n      swap1\n      pop\n        /* \"#utility.yul\":11799:12218   */\n      swap2\n      swap1\n      pop\n      jump\t// out\n        /* \"#utility.yul\":12224:12395   */\n    tag_330:\n        /* \"#utility.yul\":12364:12387   */\n      0x43616e6e6f74207265706179203020616d6f756e740000000000000000000000\n        /* \"#utility.yul\":12360:12361   */\n      0x00\n        /* \"#utility.yul\":12352:12358   */\n      dup3\n        /* \"#utility.yul\":12348:12362   */\n      add\n        /* \"#utility.yul\":12341:12388   */\n      mstore\n        /* \"#utility.yul\":12224:12395   */\n      pop\n      jump\t// out\n        /* \"#utility.yul\":12401:12767   */\n    tag_331:\n        /* \"#utility.yul\":12543:12546   */\n      0x00\n        /* \"#utility.yul\":12564:12631   */\n      tag_449\n        /* \"#utility.yul\":12628:12630   */\n      0x15\n        /* \"#utility.yul\":12623:12626   */\n      dup4\n        /* \"#utility.yul\":12564:12631   */\n      tag_312\n      jump\t// in\n    tag_449:\n        /* \"#utility.yul\":12557:12631   */\n      swap2\n      pop\n        /* \"#utility.yul\":12640:12733   */\n      tag_450\n        /* \"#utility.yul\":12729:12732   */\n      dup3\n        /* \"#utility.yul\":12640:12733   */\n      tag_330\n      jump\t// in\n    tag_450:\n        /* \"#utility.yul\":12758:12760   */\n      0x20\n        /* \"#utility.yul\":12753:12756   */\n      dup3\n        /* \"#utility.yul\":12749:12761   */\n      add\n        /* \"#utility.yul\":12742:12761   */\n      swap1\n      pop\n        /* \"#utility.yul\":12401:12767   */\n      swap2\n      swap1\n      pop\n      jump\t// out\n        /* \"#utility.yul\":12773:13192   */\n    tag_108:\n        /* \"#utility.yul\":12939:12943   */\n      0x00\n        /* \"#utility.yul\":12977:12979   */\n      0x20\n        /* \"#utility.yul\":12966:12975   */\n      dup3\n        /* \"#utility.yul\":12962:12980   */\n      add\n        /* \"#utility.yul\":12954:12980   */\n      swap1\n      pop\n        /* \"#utility.yul\":13026:13035   */\n      dup2\n        /* \"#utility.yul\":13020:13024   */\n      dup2\n        /* \"#utility.yul\":13016:13036   */\n      sub\n        /* \"#utility.yul\":13012:13013   */\n      0x00\n        /* \"#utility.yul\":13001:13010   */\n      dup4\n        /* \"#utility.yul\":12997:13014   */\n      add\n        /* \"#utility.yul\":12990:13037   */\n      mstore\n        /* \"#utility.yul\":13054:13185   */\n      tag_452\n        /* \"#utility.yul\":13180:13184   */\n      dup2\n        /* \"#utility.yul\":13054:13185   */\n      tag_331\n      jump\t// in\n    tag_452:\n        /* \"#utility.yul\":13046:13185   */\n      swap1\n      pop\n        /* \"#utility.yul\":12773:13192   */\n      swap2\n      swap1\n      pop\n      jump\t// out\n        /* \"#utility.yul\":13198:13371   */\n    tag_332:\n        /* \"#utility.yul\":13338:13363   */\n      0x43616e6e6f7420616464203020636f6c6c61746572616c000000000000000000\n        /* \"#utility.yul\":13334:13335   */\n      0x00\n        /* \"#utility.yul\":13326:13332   */\n      dup3\n        /* \"#utility.yul\":13322:13336   */\n      add\n        /* \"#utility.yul\":13315:13364   */\n      mstore\n        /* \"#utility.yul\":13198:13371   */\n      pop\n      jump\t// out\n        /* \"#utility.yul\":13377:13743   */\n    tag_333:\n        /* \"#utility.yul\":13519:13522   */\n      0x00\n        /* \"#utility.yul\":13540:13607   */\n      tag_455\n        /* \"#utility.yul\":13604:13606   */\n      0x17\n        /* \"#utility.yul\":13599:13602   */\n      dup4\n        /* \"#utility.yul\":13540:13607   */\n      tag_312\n      jump\t// in\n    tag_455:\n        /* \"#utility.yul\":13533:13607   */\n      swap2\n      pop\n        /* \"#utility.yul\":13616:13709   */\n      tag_456\n        /* \"#utility.yul\":13705:13708   */\n      dup3\n        /* \"#utility.yul\":13616:13709   */\n      tag_332\n      jump\t// in\n    tag_456:\n        /* \"#utility.yul\":13734:13736   */\n      0x20\n        /* \"#utility.yul\":13729:13732   */\n      dup3\n        /* \"#utility.yul\":13725:13737   */\n      add\n        /* \"#utility.yul\":13718:13737   */\n      swap1\n      pop\n        /* \"#utility.yul\":13377:13743   */\n      swap2\n      swap1\n      pop\n      jump\t// out\n        /* \"#utility.yul\":13749:14168   */\n    tag_130:\n        /* \"#utility.yul\":13915:13919   */\n      0x00\n        /* \"#utility.yul\":13953:13955   */\n      0x20\n        /* \"#utility.yul\":13942:13951   */\n      dup3\n        /* \"#utility.yul\":13938:13956   */\n      add\n        /* \"#utility.yul\":13930:13956   */\n      swap1\n      pop\n        /* \"#utility.yul\":14002:14011   */\n      dup2\n        /* \"#utility.yul\":13996:14000   */\n      dup2\n        /* \"#utility.yul\":13992:14012   */\n      sub\n        /* \"#utility.yul\":13988:13989   */\n      0x00\n        /* \"#utility.yul\":13977:13986   */\n      dup4\n        /* \"#utility.yul\":13973:13990   */\n      add\n        /* \"#utility.yul\":13966:14013   */\n      mstore\n        /* \"#utility.yul\":14030:14161   */\n      tag_458\n        /* \"#utility.yul\":14156:14160   */\n      dup2\n        /* \"#utility.yul\":14030:14161   */\n      tag_333\n      jump\t// in\n    tag_458:\n        /* \"#utility.yul\":14022:14161   */\n      swap1\n      pop\n        /* \"#utility.yul\":13749:14168   */\n      swap2\n      swap1\n      pop\n      jump\t// out\n        /* \"#utility.yul\":14174:14346   */\n    tag_334:\n        /* \"#utility.yul\":14314:14338   */\n      0x43616e6e6f7420626f72726f77203020616d6f756e7400000000000000000000\n        /* \"#utility.yul\":14310:14311   */\n      0x00\n        /* \"#utility.yul\":14302:14308   */\n      dup3\n        /* \"#utility.yul\":14298:14312   */\n      add\n        /* \"#utility.yul\":14291:14339   */\n      mstore\n        /* \"#utility.yul\":14174:14346   */\n      pop\n      jump\t// out\n        /* \"#utility.yul\":14352:14718   */\n    tag_335:\n        /* \"#utility.yul\":14494:14497   */\n      0x00\n        /* \"#utility.yul\":14515:14582   */\n      tag_461\n        /* \"#utility.yul\":14579:14581   */\n      0x16\n        /* \"#utility.yul\":14574:14577   */\n      dup4\n        /* \"#utility.yul\":14515:14582   */\n      tag_312\n      jump\t// in\n    tag_461:\n        /* \"#utility.yul\":14508:14582   */\n      swap2\n      pop\n        /* \"#utility.yul\":14591:14684   */\n      tag_462\n        /* \"#utility.yul\":14680:14683   */\n      dup3\n        /* \"#utility.yul\":14591:14684   */\n      tag_334\n      jump\t// in\n    tag_462:\n        /* \"#utility.yul\":14709:14711   */\n      0x20\n        /* \"#utility.yul\":14704:14707   */\n      dup3\n        /* \"#utility.yul\":14700:14712   */\n      add\n        /* \"#utility.yul\":14693:14712   */\n      swap1\n      pop\n        /* \"#utility.yul\":14352:14718   */\n      swap2\n      swap1\n      pop\n      jump\t// out\n        /* \"#utility.yul\":14724:15143   */\n    tag_136:\n        /* \"#utility.yul\":14890:14894   */\n      0x00\n        /* \"#utility.yul\":14928:14930   */\n      0x20\n        /* \"#utility.yul\":14917:14926   */\n      dup3\n        /* \"#utility.yul\":14913:14931   */\n      add\n        /* \"#utility.yul\":14905:14931   */\n      swap1\n      pop\n        /* \"#utility.yul\":14977:14986   */\n      dup2\n        /* \"#utility.yul\":14971:14975   */\n      dup2\n        /* \"#utility.yul\":14967:14987   */\n      sub\n        /* \"#utility.yul\":14963:14964   */\n      0x00\n        /* \"#utility.yul\":14952:14961   */\n      dup4\n        /* \"#utility.yul\":14948:14965   */\n      add\n        /* \"#utility.yul\":14941:14988   */\n      mstore\n        /* \"#utility.yul\":15005:15136   */\n      tag_464\n        /* \"#utility.yul\":15131:15135   */\n      dup2\n        /* \"#utility.yul\":15005:15136   */\n      tag_335\n      jump\t// in\n    tag_464:\n        /* \"#utility.yul\":14997:15136   */\n      swap1\n      pop\n        /* \"#utility.yul\":14724:15143   */\n      swap2\n      swap1\n      pop\n      jump\t// out\n        /* \"#utility.yul\":15149:15374   */\n    tag_336:\n        /* \"#utility.yul\":15289:15323   */\n      0x426f72726f7720616d6f756e74206578636565647320636f6c6c61746572616c\n        /* \"#utility.yul\":15285:15286   */\n      0x00\n        /* \"#utility.yul\":15277:15283   */\n      dup3\n        /* \"#utility.yul\":15273:15287   */\n      add\n        /* \"#utility.yul\":15266:15324   */\n      mstore\n        /* \"#utility.yul\":15358:15366   */\n      0x20726174696f0000000000000000000000000000000000000000000000000000\n        /* \"#utility.yul\":15353:15355   */\n      0x20\n        /* \"#utility.yul\":15345:15351   */\n      dup3\n        /* \"#utility.yul\":15341:15356   */\n      add\n        /* \"#utility.yul\":15334:15367   */\n      mstore\n        /* \"#utility.yul\":15149:15374   */\n      pop\n      jump\t// out\n        /* \"#utility.yul\":15380:15746   */\n    tag_337:\n        /* \"#utility.yul\":15522:15525   */\n      0x00\n        /* \"#utility.yul\":15543:15610   */\n      tag_467\n        /* \"#utility.yul\":15607:15609   */\n      0x26\n        /* \"#utility.yul\":15602:15605   */\n      dup4\n        /* \"#utility.yul\":15543:15610   */\n      tag_312\n      jump\t// in\n    tag_467:\n        /* \"#utility.yul\":15536:15610   */\n      swap2\n      pop\n        /* \"#utility.yul\":15619:15712   */\n      tag_468\n        /* \"#utility.yul\":15708:15711   */\n      dup3\n        /* \"#utility.yul\":15619:15712   */\n      tag_336\n      jump\t// in\n    tag_468:\n        /* \"#utility.yul\":15737:15739   */\n      0x40\n        /* \"#utility.yul\":15732:15735   */\n      dup3\n        /* \"#utility.yul\":15728:15740   */\n      add\n        /* \"#utility.yul\":15721:15740   */\n      swap1\n      pop\n        /* \"#utility.yul\":15380:15746   */\n      swap2\n      swap1\n      pop\n      jump\t// out\n        /* \"#utility.yul\":15752:16171   */\n    tag_143:\n        /* \"#utility.yul\":15918:15922   */\n      0x00\n        /* \"#utility.yul\":15956:15958   */\n      0x20\n        /* \"#utility.yul\":15945:15954   */\n      dup3\n        /* \"#utility.yul\":15941:15959   */\n      add\n        /* \"#utility.yul\":15933:15959   */\n      swap1\n      pop\n        /* \"#utility.yul\":16005:16014   */\n      dup2\n        /* \"#utility.yul\":15999:16003   */\n      dup2\n        /* \"#utility.yul\":15995:16015   */\n      sub\n        /* \"#utility.yul\":15991:15992   */\n      0x00\n        /* \"#utility.yul\":15980:15989   */\n      dup4\n        /* \"#utility.yul\":15976:15993   */\n      add\n        /* \"#utility.yul\":15969:16016   */\n      mstore\n        /* \"#utility.yul\":16033:16164   */\n      tag_470\n        /* \"#utility.yul\":16159:16163   */\n      dup2\n        /* \"#utility.yul\":16033:16164   */\n      tag_337\n      jump\t// in\n    tag_470:\n        /* \"#utility.yul\":16025:16164   */\n      swap1\n      pop\n        /* \"#utility.yul\":15752:16171   */\n      swap2\n      swap1\n      pop\n      jump\t// out\n        /* \"#utility.yul\":16177:16398   */\n    tag_338:\n        /* \"#utility.yul\":16317:16351   */\n      0x496e73756666696369656e74206c697175696469747920696e20636f6e747261\n        /* \"#utility.yul\":16313:16314   */\n      0x00\n        /* \"#utility.yul\":16305:16311   */\n      dup3\n        /* \"#utility.yul\":16301:16315   */\n      add\n        /* \"#utility.yul\":16294:16352   */\n      mstore\n        /* \"#utility.yul\":16386:16390   */\n      0x6374000000000000000000000000000000000000000000000000000000000000\n        /* \"#utility.yul\":16381:16383   */\n      0x20\n        /* \"#utility.yul\":16373:16379   */\n      dup3\n        /* \"#utility.yul\":16369:16384   */\n      add\n        /* \"#utility.yul\":16362:16391   */\n      mstore\n        /* \"#utility.yul\":16177:16398   */\n      pop\n      jump\t// out\n        /* \"#utility.yul\":16404:16770   */\n    tag_339:\n        /* \"#utility.yul\":16546:16549   */\n      0x00\n        /* \"#utility.yul\":16567:16634   */\n      tag_473\n        /* \"#utility.yul\":16631:16633   */\n      0x22\n        /* \"#utility.yul\":16626:16629   */\n      dup4\n        /* \"#utility.yul\":16567:16634   */\n      tag_312\n      jump\t// in\n    tag_473:\n        /* \"#utility.yul\":16560:16634   */\n      swap2\n      pop\n        /* \"#utility.yul\":16643:16736   */\n      tag_474\n        /* \"#utility.yul\":16732:16735   */\n      dup3\n        /* \"#utility.yul\":16643:16736   */\n      tag_338\n      jump\t// in\n    tag_474:\n        /* \"#utility.yul\":16761:16763   */\n      0x40\n        /* \"#utility.yul\":16756:16759   */\n      dup3\n        /* \"#utility.yul\":16752:16764   */\n      add\n        /* \"#utility.yul\":16745:16764   */\n      swap1\n      pop\n        /* \"#utility.yul\":16404:16770   */\n      swap2\n      swap1\n      pop\n      jump\t// out\n        /* \"#utility.yul\":16776:17195   */\n    tag_147:\n        /* \"#utility.yul\":16942:16946   */\n      0x00\n        /* \"#utility.yul\":16980:16982   */\n      0x20\n        /* \"#utility.yul\":16969:16978   */\n      dup3\n        /* \"#utility.yul\":16965:16983   */\n      add\n        /* \"#utility.yul\":16957:16983   */\n      swap1\n      pop\n        /* \"#utility.yul\":17029:17038   */\n      dup2\n        /* \"#utility.yul\":17023:17027   */\n      dup2\n        /* \"#utility.yul\":17019:17039   */\n      sub\n        /* \"#utility.yul\":17015:17016   */\n      0x00\n        /* \"#utility.yul\":17004:17013   */\n      dup4\n        /* \"#utility.yul\":17000:17017   */\n      add\n        /* \"#utility.yul\":16993:17040   */\n      mstore\n        /* \"#utility.yul\":17057:17188   */\n      tag_476\n        /* \"#utility.yul\":17183:17187   */\n      dup2\n        /* \"#utility.yul\":17057:17188   */\n      tag_339\n      jump\t// in\n    tag_476:\n        /* \"#utility.yul\":17049:17188   */\n      swap1\n      pop\n        /* \"#utility.yul\":16776:17195   */\n      swap2\n      swap1\n      pop\n      jump\t// out\n\n    auxdata: 0xa264697066735822122023344b2d07f8d9bd1c40a6d6c438b8237ef2183fe5d90ccda09baab0de4777db64736f6c634300081a0033\n}\n",
				"bytecode": {
					"linkReferences": {},
					"object": "6080604052348015600e575f80fd5b506129d68061001c5f395ff3fe608060405260043610610085575f3560e01c8063402d888311610058578063402d88831461010b5780635fd7f162146101155780637b510fe8146101425780639e81699914610181578063c5ebeaec1461018b57610085565b8063047fc9aa146100895780632e1a7d4d146100935780632f865568146100bb5780633237c158146100e3575b5f80fd5b6100916101b3565b005b34801561009e575f80fd5b506100b960048036038101906100b4919061218a565b6102b8565b005b3480156100c6575f80fd5b506100e160048036038101906100dc919061220f565b610500565b005b3480156100ee575f80fd5b506101096004803603810190610104919061218a565b610706565b005b6101136109a0565b005b348015610120575f80fd5b50610129610b8b565b6040516101399493929190612249565b60405180910390f35b34801561014d575f80fd5b506101686004803603810190610163919061220f565b610bd4565b6040516101789493929190612249565b60405180910390f35b610189610cbb565b005b348015610196575f80fd5b506101b160048036038101906101ac919061218a565b610da0565b005b5f34116101f5576040517f08c379a00000000000000000000000000000000000000000000000000000000081526004016101ec906122e6565b60405180910390fd5b6101fe33610fde565b3460045f82825461020f9190612331565b92505081905550345f803373ffffffffffffffffffffffffffffffffffffffff1673ffffffffffffffffffffffffffffffffffffffff1681526020019081526020015f205f8282546102619190612331565b925050819055503373ffffffffffffffffffffffffffffffffffffffff167f6473c9f7da8f23a3d810f05b3e8fb3945f0ad17deadcc09e302cdf5d58e48fe7346040516102ae9190612364565b60405180910390a2565b5f805f3373ffffffffffffffffffffffffffffffffffffffff1673ffffffffffffffffffffffffffffffffffffffff1681526020019081526020015f205411610336576040517f08c379a000000000000000000000000000000000000000000000000000000000815260040161032d906123c7565b60405180910390fd5b61033f33610fde565b805f803373ffffffffffffffffffffffffffffffffffffffff1673ffffffffffffffffffffffffffffffffffffffff1681526020019081526020015f205410156103be576040517f08c379a00000000000000000000000000000000000000000000000000000000081526004016103b59061242f565b60405180910390fd5b80471015610401576040517f08c379a00000000000000000000000000000000000000000000000000000000081526004016103f890612497565b60405180910390fd5b805f803373ffffffffffffffffffffffffffffffffffffffff1673ffffffffffffffffffffffffffffffffffffffff1681526020019081526020015f205f82825461044c91906124b5565b925050819055508060045f82825461046491906124b5565b925050819055503373ffffffffffffffffffffffffffffffffffffffff166108fc8290811502906040515f60405180830381858888f193505050501580156104ae573d5f803e3d5ffd5b503373ffffffffffffffffffffffffffffffffffffffff167f7084f5476618d8e60b11ef0d7d3f06914655adb8793e28ff7f018d4c76d505d5826040516104f59190612364565b60405180910390a250565b610509816113f2565b610548576040517f08c379a000000000000000000000000000000000000000000000000000000000815260040161053f90612532565b60405180910390fd5b61055181610fde565b5f60015f8373ffffffffffffffffffffffffffffffffffffffff1673ffffffffffffffffffffffffffffffffffffffff1681526020019081526020015f205490505f60025f8473ffffffffffffffffffffffffffffffffffffffff1673ffffffffffffffffffffffffffffffffffffffff1681526020019081526020015f205490505f60015f8573ffffffffffffffffffffffffffffffffffffffff1673ffffffffffffffffffffffffffffffffffffffff1681526020019081526020015f20819055505f60025f8573ffffffffffffffffffffffffffffffffffffffff1673ffffffffffffffffffffffffffffffffffffffff1681526020019081526020015f20819055508160055f82825461066891906124b5565b925050819055508273ffffffffffffffffffffffffffffffffffffffff166108fc8290811502906040515f60405180830381858888f193505050501580156106b2573d5f803e3d5ffd5b508273ffffffffffffffffffffffffffffffffffffffff167fff09e04a5a43921171a2fe9933986fc6d31b14e40cad3a5828d17f85118f2f21826040516106f99190612364565b60405180910390a2505050565b5f8111610748576040517f08c379a000000000000000000000000000000000000000000000000000000000815260040161073f9061259a565b60405180910390fd5b8060025f3373ffffffffffffffffffffffffffffffffffffffff1673ffffffffffffffffffffffffffffffffffffffff1681526020019081526020015f205410156107c8576040517f08c379a00000000000000000000000000000000000000000000000000000000081526004016107bf90612602565b60405180910390fd5b6107d133610fde565b5f612710613a9860015f3373ffffffffffffffffffffffffffffffffffffffff1673ffffffffffffffffffffffffffffffffffffffff1681526020019081526020015f20546108209190612620565b61082a919061268e565b9050808260025f3373ffffffffffffffffffffffffffffffffffffffff1673ffffffffffffffffffffffffffffffffffffffff1681526020019081526020015f205461087691906124b5565b10156108b7576040517f08c379a00000000000000000000000000000000000000000000000000000000081526004016108ae9061272e565b60405180910390fd5b8160025f3373ffffffffffffffffffffffffffffffffffffffff1673ffffffffffffffffffffffffffffffffffffffff1681526020019081526020015f205f82825461090391906124b5565b925050819055503373ffffffffffffffffffffffffffffffffffffffff166108fc8390811502906040515f60405180830381858888f1935050505015801561094d573d5f803e3d5ffd5b503373ffffffffffffffffffffffffffffffffffffffff167f12c7466676da8453fdc8fb091f1a24d31919043a79a50ebe022867a5f5c1ed34836040516109949190612364565b60405180910390a25050565b5f34116109e2576040517f08c379a00000000000000000000000000000000000000000000000000000000081526004016109d990612796565b60405180910390fd5b6109eb33610fde565b60015f3373ffffffffffffffffffffffffffffffffffffffff1673ffffffffffffffffffffffffffffffffffffffff1681526020019081526020015f2054341115610ad0575f60015f3373ffffffffffffffffffffffffffffffffffffffff1673ffffffffffffffffffffffffffffffffffffffff1681526020019081526020015f205490505f8134610a7e91906124b5565b90505f811115610acd573373ffffffffffffffffffffffffffffffffffffffff166108fc8290811502906040515f60405180830381858888f19350505050158015610acb573d5f803e3d5ffd5b505b50505b3460015f3373ffffffffffffffffffffffffffffffffffffffff1673ffffffffffffffffffffffffffffffffffffffff1681526020019081526020015f205f828254610b1c91906124b5565b925050819055503460055f828254610b3491906124b5565b925050819055503373ffffffffffffffffffffffffffffffffffffffff167f0516911bcc3a0a7412a44601057c0a0a1ec628bde049a84284bc42886653448834604051610b819190612364565b60405180910390a2565b5f805f8060055447610b9d91906124b5565b91505f60045411610bae575f610bcc565b600454612710600554610bc19190612620565b610bcb919061268e565b5b905090919293565b5f805f805f808673ffffffffffffffffffffffffffffffffffffffff1673ffffffffffffffffffffffffffffffffffffffff1681526020019081526020015f2054935060015f8673ffffffffffffffffffffffffffffffffffffffff1673ffffffffffffffffffffffffffffffffffffffff1681526020019081526020015f2054925060025f8673ffffffffffffffffffffffffffffffffffffffff1673ffffffffffffffffffffffffffffffffffffffff1681526020019081526020015f20549150613a9861271083610ca89190612620565b610cb2919061268e565b90509193509193565b5f3411610cfd576040517f08c379a0000000000000000000000000000000000000000000000000000000008152600401610cf4906127fe565b60405180910390fd5b3460025f3373ffffffffffffffffffffffffffffffffffffffff1673ffffffffffffffffffffffffffffffffffffffff1681526020019081526020015f205f828254610d499190612331565b925050819055503373ffffffffffffffffffffffffffffffffffffffff167f7dba1be544024070cd5eebfa8bdd80a8b198cea8058c7d3cc1f8dd36e41ab2f734604051610d969190612364565b60405180910390a2565b5f8111610de2576040517f08c379a0000000000000000000000000000000000000000000000000000000008152600401610dd990612866565b60405180910390fd5b610deb33610fde565b5f613a9861271060025f3373ffffffffffffffffffffffffffffffffffffffff1673ffffffffffffffffffffffffffffffffffffffff1681526020019081526020015f2054610e3a9190612620565b610e44919061268e565b9050808260015f3373ffffffffffffffffffffffffffffffffffffffff1673ffffffffffffffffffffffffffffffffffffffff1681526020019081526020015f2054610e909190612331565b1115610ed1576040517f08c379a0000000000000000000000000000000000000000000000000000000008152600401610ec8906128f4565b60405180910390fd5b8160055447610ee091906124b5565b1015610f21576040517f08c379a0000000000000000000000000000000000000000000000000000000008152600401610f1890612982565b60405180910390fd5b8160015f3373ffffffffffffffffffffffffffffffffffffffff1673ffffffffffffffffffffffffffffffffffffffff1681526020019081526020015f205f828254610f6d9190612331565b925050819055508160055f828254610f859190612331565b925050819055503373ffffffffffffffffffffffffffffffffffffffff167fac59582e5396aca512fa873a2047e7f4c80f8f55d4a06cb34a78a0187f62719f83604051610fd29190612364565b60405180910390a25050565b5f60035f8373ffffffffffffffffffffffffffffffffffffffff1673ffffffffffffffffffffffffffffffffffffffff1681526020019081526020015f205490505f810361106e574260035f8473ffffffffffffffffffffffffffffffffffffffff1673ffffffffffffffffffffffffffffffffffffffff1681526020019081526020015f2081905550506113ef565b5f814261107b91906124b5565b90505f6276a7008261108d919061268e565b90505f8111156113a9575f60015f8673ffffffffffffffffffffffffffffffffffffffff1673ffffffffffffffffffffffffffffffffffffffff1681526020019081526020015f20541115611222575f619c40670de0b6b3a76400006101f46110f69190612620565b611100919061268e565b90505f61113061112b61112584670de0b6b3a76400006111209190612331565b6114e3565b85611516565b611529565b90505f61117a60015f8973ffffffffffffffffffffffffffffffffffffffff1673ffffffffffffffffffffffffffffffffffffffff1681526020019081526020015f205483611516565b905060015f8873ffffffffffffffffffffffffffffffffffffffff1673ffffffffffffffffffffffffffffffffffffffff1681526020019081526020015f2054816111c591906124b5565b60055f8282546111d59190612331565b925050819055508060015f8973ffffffffffffffffffffffffffffffffffffffff1673ffffffffffffffffffffffffffffffffffffffff1681526020019081526020015f20819055505050505b5f805f8673ffffffffffffffffffffffffffffffffffffffff1673ffffffffffffffffffffffffffffffffffffffff1681526020019081526020015f205411156113a8575f619c40670de0b6b3a764000060c861127f9190612620565b611289919061268e565b90505f6112b96112b46112ae84670de0b6b3a76400006112a99190612331565b6114e3565b85611516565b611529565b90505f6113025f808973ffffffffffffffffffffffffffffffffffffffff1673ffffffffffffffffffffffffffffffffffffffff1681526020019081526020015f205483611516565b90505f808873ffffffffffffffffffffffffffffffffffffffff1673ffffffffffffffffffffffffffffffffffffffff1681526020019081526020015f20548161134c91906124b5565b60045f82825461135c9190612331565b92505081905550805f808973ffffffffffffffffffffffffffffffffffffffff1673ffffffffffffffffffffffffffffffffffffffff1681526020019081526020015f20819055505050505b5b4260035f8673ffffffffffffffffffffffffffffffffffffffff1673ffffffffffffffffffffffffffffffffffffffff1681526020019081526020015f20819055505050505b50565b5f8060015f8473ffffffffffffffffffffffffffffffffffffffff1673ffffffffffffffffffffffffffffffffffffffff1681526020019081526020015f20540361143f575f90506114de565b5f612710613a9860015f8673ffffffffffffffffffffffffffffffffffffffff1673ffffffffffffffffffffffffffffffffffffffff1681526020019081526020015f205461148e9190612620565b611498919061268e565b90508060025f8573ffffffffffffffffffffffffffffffffffffffff1673ffffffffffffffffffffffffffffffffffffffff1681526020019081526020015f2054109150505b919050565b5f6714057b7ef767814f670de0b6b3a76400006114ff846115a8565b028161150e5761150d612661565b5b049050919050565b5f61152183836116aa565b905092915050565b5f680a688906bd8b000000821061157757816040517f4a4f26f100000000000000000000000000000000000000000000000000000000815260040161156e9190612364565b60405180910390fd5b5f670de0b6b3a7640000604084901b8161159457611593612661565b5b0490506115a0816117a2565b915050919050565b5f670de0b6b3a76400008210156115f657816040517fd88504dc0000000000000000000000000000000000000000000000000000000081526004016115ed9190612364565b60405180910390fd5b5f611618670de0b6b3a7640000848161161257611611612661565b5b0461203d565b9050670de0b6b3a7640000810291505f8184901c9050670de0b6b3a764000081036116445750506116a5565b5f6706f05b59d3b2000090505b5f8111156116a157670de0b6b3a76400008283028161167357611672612661565b5b049150670de0b6b3a76400006002028210611695578084019350600182901c91505b600181901c9050611651565b5050505b919050565b5f805f8019848609848602925082811083820303915050670de0b6b3a7640000811061170d57806040517fd31b34020000000000000000000000000000000000000000000000000000000081526004016117049190612364565b60405180910390fd5b5f80670de0b6b3a764000086880991506706f05b59d3b1ffff821190505f83036117575780670de0b6b3a7640000858161174a57611749612661565b5b040194505050505061179c565b807faccb18165bd6fe31ae1cf318dc5b51eee0e1ba569b88cd74c1773b91fac10669600162040000805f03040186851186030262040000858803041702019450505050505b92915050565b5f7780000000000000000000000000000000000000000000000090505f678000000000000000831611156117e357604068016a09e667f3bcc9098202901c90505b5f674000000000000000831611156118085760406801306fe0a31b7152df8202901c90505b5f6720000000000000008316111561182d5760406801172b83c7d517adce8202901c90505b5f6710000000000000008316111561185257604068010b5586cf9890f62a8202901c90505b5f670800000000000000831611156118775760406801059b0d31585743ae8202901c90505b5f6704000000000000008316111561189c576040680102c9a3e778060ee78202901c90505b5f670200000000000000831611156118c157604068010163da9fb33356d88202901c90505b5f670100000000000000831611156118e6576040680100b1afa5abcbed618202901c90505b5f66800000000000008316111561190a57604068010058c86da1c09ea28202901c90505b5f66400000000000008316111561192e5760406801002c605e2e8cec508202901c90505b5f662000000000000083161115611952576040680100162f3904051fa18202901c90505b5f6610000000000000831611156119765760406801000b175effdc76ba8202901c90505b5f66080000000000008316111561199a576040680100058ba01fb9f96d8202901c90505b5f6604000000000000831611156119be57604068010002c5cc37da94928202901c90505b5f6602000000000000831611156119e25760406801000162e525ee05478202901c90505b5f660100000000000083161115611a0657604068010000b17255775c048202901c90505b5f6580000000000083161115611a295760406801000058b91b5bc9ae8202901c90505b5f6540000000000083161115611a4c576040680100002c5c89d5ec6d8202901c90505b5f6520000000000083161115611a6f57604068010000162e43f4f8318202901c90505b5f6510000000000083161115611a92576040680100000b1721bcfc9a8202901c90505b5f6508000000000083161115611ab557604068010000058b90cf1e6e8202901c90505b5f6504000000000083161115611ad85760406801000002c5c863b73f8202901c90505b5f6502000000000083161115611afb576040680100000162e430e5a28202901c90505b5f6501000000000083161115611b1e5760406801000000b1721835518202901c90505b5f64800000000083161115611b40576040680100000058b90c0b498202901c90505b5f64400000000083161115611b6257604068010000002c5c8601cc8202901c90505b5f64200000000083161115611b845760406801000000162e42fff08202901c90505b5f64100000000083161115611ba657604068010000000b17217fbb8202901c90505b5f64080000000083161115611bc85760406801000000058b90bfce8202901c90505b5f64040000000083161115611bea576040680100000002c5c85fe38202901c90505b5f64020000000083161115611c0c57604068010000000162e42ff18202901c90505b5f64010000000083161115611c2e576040680100000000b17217f88202901c90505b5f638000000083161115611c4f57604068010000000058b90bfc8202901c90505b5f634000000083161115611c705760406801000000002c5c85fe8202901c90505b5f632000000083161115611c91576040680100000000162e42ff8202901c90505b5f631000000083161115611cb25760406801000000000b17217f8202901c90505b5f630800000083161115611cd3576040680100000000058b90c08202901c90505b5f630400000083161115611cf457604068010000000002c5c8608202901c90505b5f630200000083161115611d155760406801000000000162e4308202901c90505b5f630100000083161115611d3657604068010000000000b172188202901c90505b5f6280000083161115611d565760406801000000000058b90c8202901c90505b5f6240000083161115611d76576040680100000000002c5c868202901c90505b5f6220000083161115611d9657604068010000000000162e438202901c90505b5f6210000083161115611db6576040680100000000000b17218202901c90505b5f6208000083161115611dd657604068010000000000058b918202901c90505b5f6204000083161115611df65760406801000000000002c5c88202901c90505b5f6202000083161115611e16576040680100000000000162e48202901c90505b5f6201000083161115611e365760406801000000000000b1728202901c90505b5f61800083161115611e55576040680100000000000058b98202901c90505b5f61400083161115611e7457604068010000000000002c5d8202901c90505b5f61200083161115611e935760406801000000000000162e8202901c90505b5f61100083161115611eb257604068010000000000000b178202901c90505b5f61080083161115611ed15760406801000000000000058c8202901c90505b5f61040083161115611ef0576040680100000000000002c68202901c90505b5f61020083161115611f0f576040680100000000000001638202901c90505b5f61010083161115611f2e576040680100000000000000b18202901c90505b5f608083161115611f4c576040680100000000000000598202901c90505b5f604083161115611f6a5760406801000000000000002c8202901c90505b5f602083161115611f88576040680100000000000000168202901c90505b5f601083161115611fa65760406801000000000000000b8202901c90505b5f600883161115611fc4576040680100000000000000068202901c90505b5f600483161115611fe2576040680100000000000000038202901c90505b5f600283161115612000576040680100000000000000018202901c90505b5f60018316111561201e576040680100000000000000018202901c90505b670de0b6b3a764000081029050604082901c60bf0381901c9050919050565b5f700100000000000000000000000000000000821061206d57608082901c915060808161206a9190612331565b90505b68010000000000000000821061209457604082901c91506040816120919190612331565b90505b64010000000082106120b757602082901c91506020816120b49190612331565b90505b6201000082106120d857601082901c91506010816120d59190612331565b90505b61010082106120f857600882901c91506008816120f59190612331565b90505b6010821061211757600482901c91506004816121149190612331565b90505b6004821061213657600282901c91506002816121339190612331565b90505b6002821061214e5760018161214b9190612331565b90505b919050565b5f80fd5b5f819050919050565b61216981612157565b8114612173575f80fd5b50565b5f8135905061218481612160565b92915050565b5f6020828403121561219f5761219e612153565b5b5f6121ac84828501612176565b91505092915050565b5f73ffffffffffffffffffffffffffffffffffffffff82169050919050565b5f6121de826121b5565b9050919050565b6121ee816121d4565b81146121f8575f80fd5b50565b5f81359050612209816121e5565b92915050565b5f6020828403121561222457612223612153565b5b5f612231848285016121fb565b91505092915050565b61224381612157565b82525050565b5f60808201905061225c5f83018761223a565b612269602083018661223a565b612276604083018561223a565b612283606083018461223a565b95945050505050565b5f82825260208201905092915050565b7f4d75737420737570706c79206174206c65617374203120746f6b656e000000005f82015250565b5f6122d0601c8361228c565b91506122db8261229c565b602082019050919050565b5f6020820190508181035f8301526122fd816122c4565b9050919050565b7f4e487b71000000000000000000000000000000000000000000000000000000005f52601160045260245ffd5b5f61233b82612157565b915061234683612157565b925082820190508082111561235e5761235d612304565b5b92915050565b5f6020820190506123775f83018461223a565b92915050565b7f4e6f20746f6b656e20746f2077697468647261770000000000000000000000005f82015250565b5f6123b160148361228c565b91506123bc8261237d565b602082019050919050565b5f6020820190508181035f8301526123de816123a5565b9050919050565b7f496e73756666696369656e7420737570706c792062616c616e636500000000005f82015250565b5f612419601b8361228c565b9150612424826123e5565b602082019050919050565b5f6020820190508181035f8301526124468161240d565b9050919050565b7f496e73756666696369656e742062616c616e636520696e20706f6f6c000000005f82015250565b5f612481601c8361228c565b915061248c8261244d565b602082019050919050565b5f6020820190508181035f8301526124ae81612475565b9050919050565b5f6124bf82612157565b91506124ca83612157565b92508282039050818111156124e2576124e1612304565b5b92915050565b7f426f72726f7765722063616e6e6f74206265206c6971756964617465640000005f82015250565b5f61251c601d8361228c565b9150612527826124e8565b602082019050919050565b5f6020820190508181035f83015261254981612510565b9050919050565b7f43616e6e6f742072656d6f7665203020636f6c6c61746572616c0000000000005f82015250565b5f612584601a8361228c565b915061258f82612550565b602082019050919050565b5f6020820190508181035f8301526125b181612578565b9050919050565b7f496e73756666696369656e7420436f6c6c61746572616c0000000000000000005f82015250565b5f6125ec60178361228c565b91506125f7826125b8565b602082019050919050565b5f6020820190508181035f830152612619816125e0565b9050919050565b5f61262a82612157565b915061263583612157565b925082820261264381612157565b9150828204841483151761265a57612659612304565b5b5092915050565b7f4e487b71000000000000000000000000000000000000000000000000000000005f52601260045260245ffd5b5f61269882612157565b91506126a383612157565b9250826126b3576126b2612661565b5b828204905092915050565b7f436f6c6c61746572616c2072656d6f76616c20776f756c642076696f6c6174655f8201527f20746865206c656e64696e672070726f746f636f6c0000000000000000000000602082015250565b5f61271860358361228c565b9150612723826126be565b604082019050919050565b5f6020820190508181035f8301526127458161270c565b9050919050565b7f43616e6e6f74207265706179203020616d6f756e7400000000000000000000005f82015250565b5f61278060158361228c565b915061278b8261274c565b602082019050919050565b5f6020820190508181035f8301526127ad81612774565b9050919050565b7f43616e6e6f7420616464203020636f6c6c61746572616c0000000000000000005f82015250565b5f6127e860178361228c565b91506127f3826127b4565b602082019050919050565b5f6020820190508181035f830152612815816127dc565b9050919050565b7f43616e6e6f7420626f72726f77203020616d6f756e74000000000000000000005f82015250565b5f61285060168361228c565b915061285b8261281c565b602082019050919050565b5f6020820190508181035f83015261287d81612844565b9050919050565b7f426f72726f7720616d6f756e74206578636565647320636f6c6c61746572616c5f8201527f20726174696f0000000000000000000000000000000000000000000000000000602082015250565b5f6128de60268361228c565b91506128e982612884565b604082019050919050565b5f6020820190508181035f83015261290b816128d2565b9050919050565b7f496e73756666696369656e74206c697175696469747920696e20636f6e7472615f8201527f6374000000000000000000000000000000000000000000000000000000000000602082015250565b5f61296c60228361228c565b915061297782612912565b604082019050919050565b5f6020820190508181035f83015261299981612960565b905091905056fea264697066735822122023344b2d07f8d9bd1c40a6d6c438b8237ef2183fe5d90ccda09baab0de4777db64736f6c634300081a0033",
					"opcodes": "PUSH1 0x80 PUSH1 0x40 MSTORE CALLVALUE DUP1 ISZERO PUSH1 0xE JUMPI PUSH0 DUP1 REVERT JUMPDEST POP PUSH2 0x29D6 DUP1 PUSH2 0x1C PUSH0 CODECOPY PUSH0 RETURN INVALID PUSH1 0x80 PUSH1 0x40 MSTORE PUSH1 0x4 CALLDATASIZE LT PUSH2 0x85 JUMPI PUSH0 CALLDATALOAD PUSH1 0xE0 SHR DUP1 PUSH4 0x402D8883 GT PUSH2 0x58 JUMPI DUP1 PUSH4 0x402D8883 EQ PUSH2 0x10B JUMPI DUP1 PUSH4 0x5FD7F162 EQ PUSH2 0x115 JUMPI DUP1 PUSH4 0x7B510FE8 EQ PUSH2 0x142 JUMPI DUP1 PUSH4 0x9E816999 EQ PUSH2 0x181 JUMPI DUP1 PUSH4 0xC5EBEAEC EQ PUSH2 0x18B JUMPI PUSH2 0x85 JUMP JUMPDEST DUP1 PUSH4 0x47FC9AA EQ PUSH2 0x89 JUMPI DUP1 PUSH4 0x2E1A7D4D EQ PUSH2 0x93 JUMPI DUP1 PUSH4 0x2F865568 EQ PUSH2 0xBB JUMPI DUP1 PUSH4 0x3237C158 EQ PUSH2 0xE3 JUMPI JUMPDEST PUSH0 DUP1 REVERT JUMPDEST PUSH2 0x91 PUSH2 0x1B3 JUMP JUMPDEST STOP JUMPDEST CALLVALUE DUP1 ISZERO PUSH2 0x9E JUMPI PUSH0 DUP1 REVERT JUMPDEST POP PUSH2 0xB9 PUSH1 0x4 DUP1 CALLDATASIZE SUB DUP2 ADD SWAP1 PUSH2 0xB4 SWAP2 SWAP1 PUSH2 0x218A JUMP JUMPDEST PUSH2 0x2B8 JUMP JUMPDEST STOP JUMPDEST CALLVALUE DUP1 ISZERO PUSH2 0xC6 JUMPI PUSH0 DUP1 REVERT JUMPDEST POP PUSH2 0xE1 PUSH1 0x4 DUP1 CALLDATASIZE SUB DUP2 ADD SWAP1 PUSH2 0xDC SWAP2 SWAP1 PUSH2 0x220F JUMP JUMPDEST PUSH2 0x500 JUMP JUMPDEST STOP JUMPDEST CALLVALUE DUP1 ISZERO PUSH2 0xEE JUMPI PUSH0 DUP1 REVERT JUMPDEST POP PUSH2 0x109 PUSH1 0x4 DUP1 CALLDATASIZE SUB DUP2 ADD SWAP1 PUSH2 0x104 SWAP2 SWAP1 PUSH2 0x218A JUMP JUMPDEST PUSH2 0x706 JUMP JUMPDEST STOP JUMPDEST PUSH2 0x113 PUSH2 0x9A0 JUMP JUMPDEST STOP JUMPDEST CALLVALUE DUP1 ISZERO PUSH2 0x120 JUMPI PUSH0 DUP1 REVERT JUMPDEST POP PUSH2 0x129 PUSH2 0xB8B JUMP JUMPDEST PUSH1 0x40 MLOAD PUSH2 0x139 SWAP5 SWAP4 SWAP3 SWAP2 SWAP1 PUSH2 0x2249 JUMP JUMPDEST PUSH1 0x40 MLOAD DUP1 SWAP2 SUB SWAP1 RETURN JUMPDEST CALLVALUE DUP1 ISZERO PUSH2 0x14D JUMPI PUSH0 DUP1 REVERT JUMPDEST POP PUSH2 0x168 PUSH1 0x4 DUP1 CALLDATASIZE SUB DUP2 ADD SWAP1 PUSH2 0x163 SWAP2 SWAP1 PUSH2 0x220F JUMP JUMPDEST PUSH2 0xBD4 JUMP JUMPDEST PUSH1 0x40 MLOAD PUSH2 0x178 SWAP5 SWAP4 SWAP3 SWAP2 SWAP1 PUSH2 0x2249 JUMP JUMPDEST PUSH1 0x40 MLOAD DUP1 SWAP2 SUB SWAP1 RETURN JUMPDEST PUSH2 0x189 PUSH2 0xCBB JUMP JUMPDEST STOP JUMPDEST CALLVALUE DUP1 ISZERO PUSH2 0x196 JUMPI PUSH0 DUP1 REVERT JUMPDEST POP PUSH2 0x1B1 PUSH1 0x4 DUP1 CALLDATASIZE SUB DUP2 ADD SWAP1 PUSH2 0x1AC SWAP2 SWAP1 PUSH2 0x218A JUMP JUMPDEST PUSH2 0xDA0 JUMP JUMPDEST STOP JUMPDEST PUSH0 CALLVALUE GT PUSH2 0x1F5 JUMPI PUSH1 0x40 MLOAD PUSH32 0x8C379A000000000000000000000000000000000000000000000000000000000 DUP2 MSTORE PUSH1 0x4 ADD PUSH2 0x1EC SWAP1 PUSH2 0x22E6 JUMP JUMPDEST PUSH1 0x40 MLOAD DUP1 SWAP2 SUB SWAP1 REVERT JUMPDEST PUSH2 0x1FE CALLER PUSH2 0xFDE JUMP JUMPDEST CALLVALUE PUSH1 0x4 PUSH0 DUP3 DUP3 SLOAD PUSH2 0x20F SWAP2 SWAP1 PUSH2 0x2331 JUMP JUMPDEST SWAP3 POP POP DUP2 SWAP1 SSTORE POP CALLVALUE PUSH0 DUP1 CALLER PUSH20 0xFFFFFFFFFFFFFFFFFFFFFFFFFFFFFFFFFFFFFFFF AND PUSH20 0xFFFFFFFFFFFFFFFFFFFFFFFFFFFFFFFFFFFFFFFF AND DUP2 MSTORE PUSH1 0x20 ADD SWAP1 DUP2 MSTORE PUSH1 0x20 ADD PUSH0 KECCAK256 PUSH0 DUP3 DUP3 SLOAD PUSH2 0x261 SWAP2 SWAP1 PUSH2 0x2331 JUMP JUMPDEST SWAP3 POP POP DUP2 SWAP1 SSTORE POP CALLER PUSH20 0xFFFFFFFFFFFFFFFFFFFFFFFFFFFFFFFFFFFFFFFF AND PUSH32 0x6473C9F7DA8F23A3D810F05B3E8FB3945F0AD17DEADCC09E302CDF5D58E48FE7 CALLVALUE PUSH1 0x40 MLOAD PUSH2 0x2AE SWAP2 SWAP1 PUSH2 0x2364 JUMP JUMPDEST PUSH1 0x40 MLOAD DUP1 SWAP2 SUB SWAP1 LOG2 JUMP JUMPDEST PUSH0 DUP1 PUSH0 CALLER PUSH20 0xFFFFFFFFFFFFFFFFFFFFFFFFFFFFFFFFFFFFFFFF AND PUSH20 0xFFFFFFFFFFFFFFFFFFFFFFFFFFFFFFFFFFFFFFFF AND DUP2 MSTORE PUSH1 0x20 ADD SWAP1 DUP2 MSTORE PUSH1 0x20 ADD PUSH0 KECCAK256 SLOAD GT PUSH2 0x336 JUMPI PUSH1 0x40 MLOAD PUSH32 0x8C379A000000000000000000000000000000000000000000000000000000000 DUP2 MSTORE PUSH1 0x4 ADD PUSH2 0x32D SWAP1 PUSH2 0x23C7 JUMP JUMPDEST PUSH1 0x40 MLOAD DUP1 SWAP2 SUB SWAP1 REVERT JUMPDEST PUSH2 0x33F CALLER PUSH2 0xFDE JUMP JUMPDEST DUP1 PUSH0 DUP1 CALLER PUSH20 0xFFFFFFFFFFFFFFFFFFFFFFFFFFFFFFFFFFFFFFFF AND PUSH20 0xFFFFFFFFFFFFFFFFFFFFFFFFFFFFFFFFFFFFFFFF AND DUP2 MSTORE PUSH1 0x20 ADD SWAP1 DUP2 MSTORE PUSH1 0x20 ADD PUSH0 KECCAK256 SLOAD LT ISZERO PUSH2 0x3BE JUMPI PUSH1 0x40 MLOAD PUSH32 0x8C379A000000000000000000000000000000000000000000000000000000000 DUP2 MSTORE PUSH1 0x4 ADD PUSH2 0x3B5 SWAP1 PUSH2 0x242F JUMP JUMPDEST PUSH1 0x40 MLOAD DUP1 SWAP2 SUB SWAP1 REVERT JUMPDEST DUP1 SELFBALANCE LT ISZERO PUSH2 0x401 JUMPI PUSH1 0x40 MLOAD PUSH32 0x8C379A000000000000000000000000000000000000000000000000000000000 DUP2 MSTORE PUSH1 0x4 ADD PUSH2 0x3F8 SWAP1 PUSH2 0x2497 JUMP JUMPDEST PUSH1 0x40 MLOAD DUP1 SWAP2 SUB SWAP1 REVERT JUMPDEST DUP1 PUSH0 DUP1 CALLER PUSH20 0xFFFFFFFFFFFFFFFFFFFFFFFFFFFFFFFFFFFFFFFF AND PUSH20 0xFFFFFFFFFFFFFFFFFFFFFFFFFFFFFFFFFFFFFFFF AND DUP2 MSTORE PUSH1 0x20 ADD SWAP1 DUP2 MSTORE PUSH1 0x20 ADD PUSH0 KECCAK256 PUSH0 DUP3 DUP3 SLOAD PUSH2 0x44C SWAP2 SWAP1 PUSH2 0x24B5 JUMP JUMPDEST SWAP3 POP POP DUP2 SWAP1 SSTORE POP DUP1 PUSH1 0x4 PUSH0 DUP3 DUP3 SLOAD PUSH2 0x464 SWAP2 SWAP1 PUSH2 0x24B5 JUMP JUMPDEST SWAP3 POP POP DUP2 SWAP1 SSTORE POP CALLER PUSH20 0xFFFFFFFFFFFFFFFFFFFFFFFFFFFFFFFFFFFFFFFF AND PUSH2 0x8FC DUP3 SWAP1 DUP2 ISZERO MUL SWAP1 PUSH1 0x40 MLOAD PUSH0 PUSH1 0x40 MLOAD DUP1 DUP4 SUB DUP2 DUP6 DUP9 DUP9 CALL SWAP4 POP POP POP POP ISZERO DUP1 ISZERO PUSH2 0x4AE JUMPI RETURNDATASIZE PUSH0 DUP1 RETURNDATACOPY RETURNDATASIZE PUSH0 REVERT JUMPDEST POP CALLER PUSH20 0xFFFFFFFFFFFFFFFFFFFFFFFFFFFFFFFFFFFFFFFF AND PUSH32 0x7084F5476618D8E60B11EF0D7D3F06914655ADB8793E28FF7F018D4C76D505D5 DUP3 PUSH1 0x40 MLOAD PUSH2 0x4F5 SWAP2 SWAP1 PUSH2 0x2364 JUMP JUMPDEST PUSH1 0x40 MLOAD DUP1 SWAP2 SUB SWAP1 LOG2 POP JUMP JUMPDEST PUSH2 0x509 DUP2 PUSH2 0x13F2 JUMP JUMPDEST PUSH2 0x548 JUMPI PUSH1 0x40 MLOAD PUSH32 0x8C379A000000000000000000000000000000000000000000000000000000000 DUP2 MSTORE PUSH1 0x4 ADD PUSH2 0x53F SWAP1 PUSH2 0x2532 JUMP JUMPDEST PUSH1 0x40 MLOAD DUP1 SWAP2 SUB SWAP1 REVERT JUMPDEST PUSH2 0x551 DUP2 PUSH2 0xFDE JUMP JUMPDEST PUSH0 PUSH1 0x1 PUSH0 DUP4 PUSH20 0xFFFFFFFFFFFFFFFFFFFFFFFFFFFFFFFFFFFFFFFF AND PUSH20 0xFFFFFFFFFFFFFFFFFFFFFFFFFFFFFFFFFFFFFFFF AND DUP2 MSTORE PUSH1 0x20 ADD SWAP1 DUP2 MSTORE PUSH1 0x20 ADD PUSH0 KECCAK256 SLOAD SWAP1 POP PUSH0 PUSH1 0x2 PUSH0 DUP5 PUSH20 0xFFFFFFFFFFFFFFFFFFFFFFFFFFFFFFFFFFFFFFFF AND PUSH20 0xFFFFFFFFFFFFFFFFFFFFFFFFFFFFFFFFFFFFFFFF AND DUP2 MSTORE PUSH1 0x20 ADD SWAP1 DUP2 MSTORE PUSH1 0x20 ADD PUSH0 KECCAK256 SLOAD SWAP1 POP PUSH0 PUSH1 0x1 PUSH0 DUP6 PUSH20 0xFFFFFFFFFFFFFFFFFFFFFFFFFFFFFFFFFFFFFFFF AND PUSH20 0xFFFFFFFFFFFFFFFFFFFFFFFFFFFFFFFFFFFFFFFF AND DUP2 MSTORE PUSH1 0x20 ADD SWAP1 DUP2 MSTORE PUSH1 0x20 ADD PUSH0 KECCAK256 DUP2 SWAP1 SSTORE POP PUSH0 PUSH1 0x2 PUSH0 DUP6 PUSH20 0xFFFFFFFFFFFFFFFFFFFFFFFFFFFFFFFFFFFFFFFF AND PUSH20 0xFFFFFFFFFFFFFFFFFFFFFFFFFFFFFFFFFFFFFFFF AND DUP2 MSTORE PUSH1 0x20 ADD SWAP1 DUP2 MSTORE PUSH1 0x20 ADD PUSH0 KECCAK256 DUP2 SWAP1 SSTORE POP DUP2 PUSH1 0x5 PUSH0 DUP3 DUP3 SLOAD PUSH2 0x668 SWAP2 SWAP1 PUSH2 0x24B5 JUMP JUMPDEST SWAP3 POP POP DUP2 SWAP1 SSTORE POP DUP3 PUSH20 0xFFFFFFFFFFFFFFFFFFFFFFFFFFFFFFFFFFFFFFFF AND PUSH2 0x8FC DUP3 SWAP1 DUP2 ISZERO MUL SWAP1 PUSH1 0x40 MLOAD PUSH0 PUSH1 0x40 MLOAD DUP1 DUP4 SUB DUP2 DUP6 DUP9 DUP9 CALL SWAP4 POP POP POP POP ISZERO DUP1 ISZERO PUSH2 0x6B2 JUMPI RETURNDATASIZE PUSH0 DUP1 RETURNDATACOPY RETURNDATASIZE PUSH0 REVERT JUMPDEST POP DUP3 PUSH20 0xFFFFFFFFFFFFFFFFFFFFFFFFFFFFFFFFFFFFFFFF AND PUSH32 0xFF09E04A5A43921171A2FE9933986FC6D31B14E40CAD3A5828D17F85118F2F21 DUP3 PUSH1 0x40 MLOAD PUSH2 0x6F9 SWAP2 SWAP1 PUSH2 0x2364 JUMP JUMPDEST PUSH1 0x40 MLOAD DUP1 SWAP2 SUB SWAP1 LOG2 POP POP POP JUMP JUMPDEST PUSH0 DUP2 GT PUSH2 0x748 JUMPI PUSH1 0x40 MLOAD PUSH32 0x8C379A000000000000000000000000000000000000000000000000000000000 DUP2 MSTORE PUSH1 0x4 ADD PUSH2 0x73F SWAP1 PUSH2 0x259A JUMP JUMPDEST PUSH1 0x40 MLOAD DUP1 SWAP2 SUB SWAP1 REVERT JUMPDEST DUP1 PUSH1 0x2 PUSH0 CALLER PUSH20 0xFFFFFFFFFFFFFFFFFFFFFFFFFFFFFFFFFFFFFFFF AND PUSH20 0xFFFFFFFFFFFFFFFFFFFFFFFFFFFFFFFFFFFFFFFF AND DUP2 MSTORE PUSH1 0x20 ADD SWAP1 DUP2 MSTORE PUSH1 0x20 ADD PUSH0 KECCAK256 SLOAD LT ISZERO PUSH2 0x7C8 JUMPI PUSH1 0x40 MLOAD PUSH32 0x8C379A000000000000000000000000000000000000000000000000000000000 DUP2 MSTORE PUSH1 0x4 ADD PUSH2 0x7BF SWAP1 PUSH2 0x2602 JUMP JUMPDEST PUSH1 0x40 MLOAD DUP1 SWAP2 SUB SWAP1 REVERT JUMPDEST PUSH2 0x7D1 CALLER PUSH2 0xFDE JUMP JUMPDEST PUSH0 PUSH2 0x2710 PUSH2 0x3A98 PUSH1 0x1 PUSH0 CALLER PUSH20 0xFFFFFFFFFFFFFFFFFFFFFFFFFFFFFFFFFFFFFFFF AND PUSH20 0xFFFFFFFFFFFFFFFFFFFFFFFFFFFFFFFFFFFFFFFF AND DUP2 MSTORE PUSH1 0x20 ADD SWAP1 DUP2 MSTORE PUSH1 0x20 ADD PUSH0 KECCAK256 SLOAD PUSH2 0x820 SWAP2 SWAP1 PUSH2 0x2620 JUMP JUMPDEST PUSH2 0x82A SWAP2 SWAP1 PUSH2 0x268E JUMP JUMPDEST SWAP1 POP DUP1 DUP3 PUSH1 0x2 PUSH0 CALLER PUSH20 0xFFFFFFFFFFFFFFFFFFFFFFFFFFFFFFFFFFFFFFFF AND PUSH20 0xFFFFFFFFFFFFFFFFFFFFFFFFFFFFFFFFFFFFFFFF AND DUP2 MSTORE PUSH1 0x20 ADD SWAP1 DUP2 MSTORE PUSH1 0x20 ADD PUSH0 KECCAK256 SLOAD PUSH2 0x876 SWAP2 SWAP1 PUSH2 0x24B5 JUMP JUMPDEST LT ISZERO PUSH2 0x8B7 JUMPI PUSH1 0x40 MLOAD PUSH32 0x8C379A000000000000000000000000000000000000000000000000000000000 DUP2 MSTORE PUSH1 0x4 ADD PUSH2 0x8AE SWAP1 PUSH2 0x272E JUMP JUMPDEST PUSH1 0x40 MLOAD DUP1 SWAP2 SUB SWAP1 REVERT JUMPDEST DUP2 PUSH1 0x2 PUSH0 CALLER PUSH20 0xFFFFFFFFFFFFFFFFFFFFFFFFFFFFFFFFFFFFFFFF AND PUSH20 0xFFFFFFFFFFFFFFFFFFFFFFFFFFFFFFFFFFFFFFFF AND DUP2 MSTORE PUSH1 0x20 ADD SWAP1 DUP2 MSTORE PUSH1 0x20 ADD PUSH0 KECCAK256 PUSH0 DUP3 DUP3 SLOAD PUSH2 0x903 SWAP2 SWAP1 PUSH2 0x24B5 JUMP JUMPDEST SWAP3 POP POP DUP2 SWAP1 SSTORE POP CALLER PUSH20 0xFFFFFFFFFFFFFFFFFFFFFFFFFFFFFFFFFFFFFFFF AND PUSH2 0x8FC DUP4 SWAP1 DUP2 ISZERO MUL SWAP1 PUSH1 0x40 MLOAD PUSH0 PUSH1 0x40 MLOAD DUP1 DUP4 SUB DUP2 DUP6 DUP9 DUP9 CALL SWAP4 POP POP POP POP ISZERO DUP1 ISZERO PUSH2 0x94D JUMPI RETURNDATASIZE PUSH0 DUP1 RETURNDATACOPY RETURNDATASIZE PUSH0 REVERT JUMPDEST POP CALLER PUSH20 0xFFFFFFFFFFFFFFFFFFFFFFFFFFFFFFFFFFFFFFFF AND PUSH32 0x12C7466676DA8453FDC8FB091F1A24D31919043A79A50EBE022867A5F5C1ED34 DUP4 PUSH1 0x40 MLOAD PUSH2 0x994 SWAP2 SWAP1 PUSH2 0x2364 JUMP JUMPDEST PUSH1 0x40 MLOAD DUP1 SWAP2 SUB SWAP1 LOG2 POP POP JUMP JUMPDEST PUSH0 CALLVALUE GT PUSH2 0x9E2 JUMPI PUSH1 0x40 MLOAD PUSH32 0x8C379A000000000000000000000000000000000000000000000000000000000 DUP2 MSTORE PUSH1 0x4 ADD PUSH2 0x9D9 SWAP1 PUSH2 0x2796 JUMP JUMPDEST PUSH1 0x40 MLOAD DUP1 SWAP2 SUB SWAP1 REVERT JUMPDEST PUSH2 0x9EB CALLER PUSH2 0xFDE JUMP JUMPDEST PUSH1 0x1 PUSH0 CALLER PUSH20 0xFFFFFFFFFFFFFFFFFFFFFFFFFFFFFFFFFFFFFFFF AND PUSH20 0xFFFFFFFFFFFFFFFFFFFFFFFFFFFFFFFFFFFFFFFF AND DUP2 MSTORE PUSH1 0x20 ADD SWAP1 DUP2 MSTORE PUSH1 0x20 ADD PUSH0 KECCAK256 SLOAD CALLVALUE GT ISZERO PUSH2 0xAD0 JUMPI PUSH0 PUSH1 0x1 PUSH0 CALLER PUSH20 0xFFFFFFFFFFFFFFFFFFFFFFFFFFFFFFFFFFFFFFFF AND PUSH20 0xFFFFFFFFFFFFFFFFFFFFFFFFFFFFFFFFFFFFFFFF AND DUP2 MSTORE PUSH1 0x20 ADD SWAP1 DUP2 MSTORE PUSH1 0x20 ADD PUSH0 KECCAK256 SLOAD SWAP1 POP PUSH0 DUP2 CALLVALUE PUSH2 0xA7E SWAP2 SWAP1 PUSH2 0x24B5 JUMP JUMPDEST SWAP1 POP PUSH0 DUP2 GT ISZERO PUSH2 0xACD JUMPI CALLER PUSH20 0xFFFFFFFFFFFFFFFFFFFFFFFFFFFFFFFFFFFFFFFF AND PUSH2 0x8FC DUP3 SWAP1 DUP2 ISZERO MUL SWAP1 PUSH1 0x40 MLOAD PUSH0 PUSH1 0x40 MLOAD DUP1 DUP4 SUB DUP2 DUP6 DUP9 DUP9 CALL SWAP4 POP POP POP POP ISZERO DUP1 ISZERO PUSH2 0xACB JUMPI RETURNDATASIZE PUSH0 DUP1 RETURNDATACOPY RETURNDATASIZE PUSH0 REVERT JUMPDEST POP JUMPDEST POP POP JUMPDEST CALLVALUE PUSH1 0x1 PUSH0 CALLER PUSH20 0xFFFFFFFFFFFFFFFFFFFFFFFFFFFFFFFFFFFFFFFF AND PUSH20 0xFFFFFFFFFFFFFFFFFFFFFFFFFFFFFFFFFFFFFFFF AND DUP2 MSTORE PUSH1 0x20 ADD SWAP1 DUP2 MSTORE PUSH1 0x20 ADD PUSH0 KECCAK256 PUSH0 DUP3 DUP3 SLOAD PUSH2 0xB1C SWAP2 SWAP1 PUSH2 0x24B5 JUMP JUMPDEST SWAP3 POP POP DUP2 SWAP1 SSTORE POP CALLVALUE PUSH1 0x5 PUSH0 DUP3 DUP3 SLOAD PUSH2 0xB34 SWAP2 SWAP1 PUSH2 0x24B5 JUMP JUMPDEST SWAP3 POP POP DUP2 SWAP1 SSTORE POP CALLER PUSH20 0xFFFFFFFFFFFFFFFFFFFFFFFFFFFFFFFFFFFFFFFF AND PUSH32 0x516911BCC3A0A7412A44601057C0A0A1EC628BDE049A84284BC428866534488 CALLVALUE PUSH1 0x40 MLOAD PUSH2 0xB81 SWAP2 SWAP1 PUSH2 0x2364 JUMP JUMPDEST PUSH1 0x40 MLOAD DUP1 SWAP2 SUB SWAP1 LOG2 JUMP JUMPDEST PUSH0 DUP1 PUSH0 DUP1 PUSH1 0x5 SLOAD SELFBALANCE PUSH2 0xB9D SWAP2 SWAP1 PUSH2 0x24B5 JUMP JUMPDEST SWAP2 POP PUSH0 PUSH1 0x4 SLOAD GT PUSH2 0xBAE JUMPI PUSH0 PUSH2 0xBCC JUMP JUMPDEST PUSH1 0x4 SLOAD PUSH2 0x2710 PUSH1 0x5 SLOAD PUSH2 0xBC1 SWAP2 SWAP1 PUSH2 0x2620 JUMP JUMPDEST PUSH2 0xBCB SWAP2 SWAP1 PUSH2 0x268E JUMP JUMPDEST JUMPDEST SWAP1 POP SWAP1 SWAP2 SWAP3 SWAP4 JUMP JUMPDEST PUSH0 DUP1 PUSH0 DUP1 PUSH0 DUP1 DUP7 PUSH20 0xFFFFFFFFFFFFFFFFFFFFFFFFFFFFFFFFFFFFFFFF AND PUSH20 0xFFFFFFFFFFFFFFFFFFFFFFFFFFFFFFFFFFFFFFFF AND DUP2 MSTORE PUSH1 0x20 ADD SWAP1 DUP2 MSTORE PUSH1 0x20 ADD PUSH0 KECCAK256 SLOAD SWAP4 POP PUSH1 0x1 PUSH0 DUP7 PUSH20 0xFFFFFFFFFFFFFFFFFFFFFFFFFFFFFFFFFFFFFFFF AND PUSH20 0xFFFFFFFFFFFFFFFFFFFFFFFFFFFFFFFFFFFFFFFF AND DUP2 MSTORE PUSH1 0x20 ADD SWAP1 DUP2 MSTORE PUSH1 0x20 ADD PUSH0 KECCAK256 SLOAD SWAP3 POP PUSH1 0x2 PUSH0 DUP7 PUSH20 0xFFFFFFFFFFFFFFFFFFFFFFFFFFFFFFFFFFFFFFFF AND PUSH20 0xFFFFFFFFFFFFFFFFFFFFFFFFFFFFFFFFFFFFFFFF AND DUP2 MSTORE PUSH1 0x20 ADD SWAP1 DUP2 MSTORE PUSH1 0x20 ADD PUSH0 KECCAK256 SLOAD SWAP2 POP PUSH2 0x3A98 PUSH2 0x2710 DUP4 PUSH2 0xCA8 SWAP2 SWAP1 PUSH2 0x2620 JUMP JUMPDEST PUSH2 0xCB2 SWAP2 SWAP1 PUSH2 0x268E JUMP JUMPDEST SWAP1 POP SWAP2 SWAP4 POP SWAP2 SWAP4 JUMP JUMPDEST PUSH0 CALLVALUE GT PUSH2 0xCFD JUMPI PUSH1 0x40 MLOAD PUSH32 0x8C379A000000000000000000000000000000000000000000000000000000000 DUP2 MSTORE PUSH1 0x4 ADD PUSH2 0xCF4 SWAP1 PUSH2 0x27FE JUMP JUMPDEST PUSH1 0x40 MLOAD DUP1 SWAP2 SUB SWAP1 REVERT JUMPDEST CALLVALUE PUSH1 0x2 PUSH0 CALLER PUSH20 0xFFFFFFFFFFFFFFFFFFFFFFFFFFFFFFFFFFFFFFFF AND PUSH20 0xFFFFFFFFFFFFFFFFFFFFFFFFFFFFFFFFFFFFFFFF AND DUP2 MSTORE PUSH1 0x20 ADD SWAP1 DUP2 MSTORE PUSH1 0x20 ADD PUSH0 KECCAK256 PUSH0 DUP3 DUP3 SLOAD PUSH2 0xD49 SWAP2 SWAP1 PUSH2 0x2331 JUMP JUMPDEST SWAP3 POP POP DUP2 SWAP1 SSTORE POP CALLER PUSH20 0xFFFFFFFFFFFFFFFFFFFFFFFFFFFFFFFFFFFFFFFF AND PUSH32 0x7DBA1BE544024070CD5EEBFA8BDD80A8B198CEA8058C7D3CC1F8DD36E41AB2F7 CALLVALUE PUSH1 0x40 MLOAD PUSH2 0xD96 SWAP2 SWAP1 PUSH2 0x2364 JUMP JUMPDEST PUSH1 0x40 MLOAD DUP1 SWAP2 SUB SWAP1 LOG2 JUMP JUMPDEST PUSH0 DUP2 GT PUSH2 0xDE2 JUMPI PUSH1 0x40 MLOAD PUSH32 0x8C379A000000000000000000000000000000000000000000000000000000000 DUP2 MSTORE PUSH1 0x4 ADD PUSH2 0xDD9 SWAP1 PUSH2 0x2866 JUMP JUMPDEST PUSH1 0x40 MLOAD DUP1 SWAP2 SUB SWAP1 REVERT JUMPDEST PUSH2 0xDEB CALLER PUSH2 0xFDE JUMP JUMPDEST PUSH0 PUSH2 0x3A98 PUSH2 0x2710 PUSH1 0x2 PUSH0 CALLER PUSH20 0xFFFFFFFFFFFFFFFFFFFFFFFFFFFFFFFFFFFFFFFF AND PUSH20 0xFFFFFFFFFFFFFFFFFFFFFFFFFFFFFFFFFFFFFFFF AND DUP2 MSTORE PUSH1 0x20 ADD SWAP1 DUP2 MSTORE PUSH1 0x20 ADD PUSH0 KECCAK256 SLOAD PUSH2 0xE3A SWAP2 SWAP1 PUSH2 0x2620 JUMP JUMPDEST PUSH2 0xE44 SWAP2 SWAP1 PUSH2 0x268E JUMP JUMPDEST SWAP1 POP DUP1 DUP3 PUSH1 0x1 PUSH0 CALLER PUSH20 0xFFFFFFFFFFFFFFFFFFFFFFFFFFFFFFFFFFFFFFFF AND PUSH20 0xFFFFFFFFFFFFFFFFFFFFFFFFFFFFFFFFFFFFFFFF AND DUP2 MSTORE PUSH1 0x20 ADD SWAP1 DUP2 MSTORE PUSH1 0x20 ADD PUSH0 KECCAK256 SLOAD PUSH2 0xE90 SWAP2 SWAP1 PUSH2 0x2331 JUMP JUMPDEST GT ISZERO PUSH2 0xED1 JUMPI PUSH1 0x40 MLOAD PUSH32 0x8C379A000000000000000000000000000000000000000000000000000000000 DUP2 MSTORE PUSH1 0x4 ADD PUSH2 0xEC8 SWAP1 PUSH2 0x28F4 JUMP JUMPDEST PUSH1 0x40 MLOAD DUP1 SWAP2 SUB SWAP1 REVERT JUMPDEST DUP2 PUSH1 0x5 SLOAD SELFBALANCE PUSH2 0xEE0 SWAP2 SWAP1 PUSH2 0x24B5 JUMP JUMPDEST LT ISZERO PUSH2 0xF21 JUMPI PUSH1 0x40 MLOAD PUSH32 0x8C379A000000000000000000000000000000000000000000000000000000000 DUP2 MSTORE PUSH1 0x4 ADD PUSH2 0xF18 SWAP1 PUSH2 0x2982 JUMP JUMPDEST PUSH1 0x40 MLOAD DUP1 SWAP2 SUB SWAP1 REVERT JUMPDEST DUP2 PUSH1 0x1 PUSH0 CALLER PUSH20 0xFFFFFFFFFFFFFFFFFFFFFFFFFFFFFFFFFFFFFFFF AND PUSH20 0xFFFFFFFFFFFFFFFFFFFFFFFFFFFFFFFFFFFFFFFF AND DUP2 MSTORE PUSH1 0x20 ADD SWAP1 DUP2 MSTORE PUSH1 0x20 ADD PUSH0 KECCAK256 PUSH0 DUP3 DUP3 SLOAD PUSH2 0xF6D SWAP2 SWAP1 PUSH2 0x2331 JUMP JUMPDEST SWAP3 POP POP DUP2 SWAP1 SSTORE POP DUP2 PUSH1 0x5 PUSH0 DUP3 DUP3 SLOAD PUSH2 0xF85 SWAP2 SWAP1 PUSH2 0x2331 JUMP JUMPDEST SWAP3 POP POP DUP2 SWAP1 SSTORE POP CALLER PUSH20 0xFFFFFFFFFFFFFFFFFFFFFFFFFFFFFFFFFFFFFFFF AND PUSH32 0xAC59582E5396ACA512FA873A2047E7F4C80F8F55D4A06CB34A78A0187F62719F DUP4 PUSH1 0x40 MLOAD PUSH2 0xFD2 SWAP2 SWAP1 PUSH2 0x2364 JUMP JUMPDEST PUSH1 0x40 MLOAD DUP1 SWAP2 SUB SWAP1 LOG2 POP POP JUMP JUMPDEST PUSH0 PUSH1 0x3 PUSH0 DUP4 PUSH20 0xFFFFFFFFFFFFFFFFFFFFFFFFFFFFFFFFFFFFFFFF AND PUSH20 0xFFFFFFFFFFFFFFFFFFFFFFFFFFFFFFFFFFFFFFFF AND DUP2 MSTORE PUSH1 0x20 ADD SWAP1 DUP2 MSTORE PUSH1 0x20 ADD PUSH0 KECCAK256 SLOAD SWAP1 POP PUSH0 DUP2 SUB PUSH2 0x106E JUMPI TIMESTAMP PUSH1 0x3 PUSH0 DUP5 PUSH20 0xFFFFFFFFFFFFFFFFFFFFFFFFFFFFFFFFFFFFFFFF AND PUSH20 0xFFFFFFFFFFFFFFFFFFFFFFFFFFFFFFFFFFFFFFFF AND DUP2 MSTORE PUSH1 0x20 ADD SWAP1 DUP2 MSTORE PUSH1 0x20 ADD PUSH0 KECCAK256 DUP2 SWAP1 SSTORE POP POP PUSH2 0x13EF JUMP JUMPDEST PUSH0 DUP2 TIMESTAMP PUSH2 0x107B SWAP2 SWAP1 PUSH2 0x24B5 JUMP JUMPDEST SWAP1 POP PUSH0 PUSH3 0x76A700 DUP3 PUSH2 0x108D SWAP2 SWAP1 PUSH2 0x268E JUMP JUMPDEST SWAP1 POP PUSH0 DUP2 GT ISZERO PUSH2 0x13A9 JUMPI PUSH0 PUSH1 0x1 PUSH0 DUP7 PUSH20 0xFFFFFFFFFFFFFFFFFFFFFFFFFFFFFFFFFFFFFFFF AND PUSH20 0xFFFFFFFFFFFFFFFFFFFFFFFFFFFFFFFFFFFFFFFF AND DUP2 MSTORE PUSH1 0x20 ADD SWAP1 DUP2 MSTORE PUSH1 0x20 ADD PUSH0 KECCAK256 SLOAD GT ISZERO PUSH2 0x1222 JUMPI PUSH0 PUSH2 0x9C40 PUSH8 0xDE0B6B3A7640000 PUSH2 0x1F4 PUSH2 0x10F6 SWAP2 SWAP1 PUSH2 0x2620 JUMP JUMPDEST PUSH2 0x1100 SWAP2 SWAP1 PUSH2 0x268E JUMP JUMPDEST SWAP1 POP PUSH0 PUSH2 0x1130 PUSH2 0x112B PUSH2 0x1125 DUP5 PUSH8 0xDE0B6B3A7640000 PUSH2 0x1120 SWAP2 SWAP1 PUSH2 0x2331 JUMP JUMPDEST PUSH2 0x14E3 JUMP JUMPDEST DUP6 PUSH2 0x1516 JUMP JUMPDEST PUSH2 0x1529 JUMP JUMPDEST SWAP1 POP PUSH0 PUSH2 0x117A PUSH1 0x1 PUSH0 DUP10 PUSH20 0xFFFFFFFFFFFFFFFFFFFFFFFFFFFFFFFFFFFFFFFF AND PUSH20 0xFFFFFFFFFFFFFFFFFFFFFFFFFFFFFFFFFFFFFFFF AND DUP2 MSTORE PUSH1 0x20 ADD SWAP1 DUP2 MSTORE PUSH1 0x20 ADD PUSH0 KECCAK256 SLOAD DUP4 PUSH2 0x1516 JUMP JUMPDEST SWAP1 POP PUSH1 0x1 PUSH0 DUP9 PUSH20 0xFFFFFFFFFFFFFFFFFFFFFFFFFFFFFFFFFFFFFFFF AND PUSH20 0xFFFFFFFFFFFFFFFFFFFFFFFFFFFFFFFFFFFFFFFF AND DUP2 MSTORE PUSH1 0x20 ADD SWAP1 DUP2 MSTORE PUSH1 0x20 ADD PUSH0 KECCAK256 SLOAD DUP2 PUSH2 0x11C5 SWAP2 SWAP1 PUSH2 0x24B5 JUMP JUMPDEST PUSH1 0x5 PUSH0 DUP3 DUP3 SLOAD PUSH2 0x11D5 SWAP2 SWAP1 PUSH2 0x2331 JUMP JUMPDEST SWAP3 POP POP DUP2 SWAP1 SSTORE POP DUP1 PUSH1 0x1 PUSH0 DUP10 PUSH20 0xFFFFFFFFFFFFFFFFFFFFFFFFFFFFFFFFFFFFFFFF AND PUSH20 0xFFFFFFFFFFFFFFFFFFFFFFFFFFFFFFFFFFFFFFFF AND DUP2 MSTORE PUSH1 0x20 ADD SWAP1 DUP2 MSTORE PUSH1 0x20 ADD PUSH0 KECCAK256 DUP2 SWAP1 SSTORE POP POP POP POP JUMPDEST PUSH0 DUP1 PUSH0 DUP7 PUSH20 0xFFFFFFFFFFFFFFFFFFFFFFFFFFFFFFFFFFFFFFFF AND PUSH20 0xFFFFFFFFFFFFFFFFFFFFFFFFFFFFFFFFFFFFFFFF AND DUP2 MSTORE PUSH1 0x20 ADD SWAP1 DUP2 MSTORE PUSH1 0x20 ADD PUSH0 KECCAK256 SLOAD GT ISZERO PUSH2 0x13A8 JUMPI PUSH0 PUSH2 0x9C40 PUSH8 0xDE0B6B3A7640000 PUSH1 0xC8 PUSH2 0x127F SWAP2 SWAP1 PUSH2 0x2620 JUMP JUMPDEST PUSH2 0x1289 SWAP2 SWAP1 PUSH2 0x268E JUMP JUMPDEST SWAP1 POP PUSH0 PUSH2 0x12B9 PUSH2 0x12B4 PUSH2 0x12AE DUP5 PUSH8 0xDE0B6B3A7640000 PUSH2 0x12A9 SWAP2 SWAP1 PUSH2 0x2331 JUMP JUMPDEST PUSH2 0x14E3 JUMP JUMPDEST DUP6 PUSH2 0x1516 JUMP JUMPDEST PUSH2 0x1529 JUMP JUMPDEST SWAP1 POP PUSH0 PUSH2 0x1302 PUSH0 DUP1 DUP10 PUSH20 0xFFFFFFFFFFFFFFFFFFFFFFFFFFFFFFFFFFFFFFFF AND PUSH20 0xFFFFFFFFFFFFFFFFFFFFFFFFFFFFFFFFFFFFFFFF AND DUP2 MSTORE PUSH1 0x20 ADD SWAP1 DUP2 MSTORE PUSH1 0x20 ADD PUSH0 KECCAK256 SLOAD DUP4 PUSH2 0x1516 JUMP JUMPDEST SWAP1 POP PUSH0 DUP1 DUP9 PUSH20 0xFFFFFFFFFFFFFFFFFFFFFFFFFFFFFFFFFFFFFFFF AND PUSH20 0xFFFFFFFFFFFFFFFFFFFFFFFFFFFFFFFFFFFFFFFF AND DUP2 MSTORE PUSH1 0x20 ADD SWAP1 DUP2 MSTORE PUSH1 0x20 ADD PUSH0 KECCAK256 SLOAD DUP2 PUSH2 0x134C SWAP2 SWAP1 PUSH2 0x24B5 JUMP JUMPDEST PUSH1 0x4 PUSH0 DUP3 DUP3 SLOAD PUSH2 0x135C SWAP2 SWAP1 PUSH2 0x2331 JUMP JUMPDEST SWAP3 POP POP DUP2 SWAP1 SSTORE POP DUP1 PUSH0 DUP1 DUP10 PUSH20 0xFFFFFFFFFFFFFFFFFFFFFFFFFFFFFFFFFFFFFFFF AND PUSH20 0xFFFFFFFFFFFFFFFFFFFFFFFFFFFFFFFFFFFFFFFF AND DUP2 MSTORE PUSH1 0x20 ADD SWAP1 DUP2 MSTORE PUSH1 0x20 ADD PUSH0 KECCAK256 DUP2 SWAP1 SSTORE POP POP POP POP JUMPDEST JUMPDEST TIMESTAMP PUSH1 0x3 PUSH0 DUP7 PUSH20 0xFFFFFFFFFFFFFFFFFFFFFFFFFFFFFFFFFFFFFFFF AND PUSH20 0xFFFFFFFFFFFFFFFFFFFFFFFFFFFFFFFFFFFFFFFF AND DUP2 MSTORE PUSH1 0x20 ADD SWAP1 DUP2 MSTORE PUSH1 0x20 ADD PUSH0 KECCAK256 DUP2 SWAP1 SSTORE POP POP POP POP JUMPDEST POP JUMP JUMPDEST PUSH0 DUP1 PUSH1 0x1 PUSH0 DUP5 PUSH20 0xFFFFFFFFFFFFFFFFFFFFFFFFFFFFFFFFFFFFFFFF AND PUSH20 0xFFFFFFFFFFFFFFFFFFFFFFFFFFFFFFFFFFFFFFFF AND DUP2 MSTORE PUSH1 0x20 ADD SWAP1 DUP2 MSTORE PUSH1 0x20 ADD PUSH0 KECCAK256 SLOAD SUB PUSH2 0x143F JUMPI PUSH0 SWAP1 POP PUSH2 0x14DE JUMP JUMPDEST PUSH0 PUSH2 0x2710 PUSH2 0x3A98 PUSH1 0x1 PUSH0 DUP7 PUSH20 0xFFFFFFFFFFFFFFFFFFFFFFFFFFFFFFFFFFFFFFFF AND PUSH20 0xFFFFFFFFFFFFFFFFFFFFFFFFFFFFFFFFFFFFFFFF AND DUP2 MSTORE PUSH1 0x20 ADD SWAP1 DUP2 MSTORE PUSH1 0x20 ADD PUSH0 KECCAK256 SLOAD PUSH2 0x148E SWAP2 SWAP1 PUSH2 0x2620 JUMP JUMPDEST PUSH2 0x1498 SWAP2 SWAP1 PUSH2 0x268E JUMP JUMPDEST SWAP1 POP DUP1 PUSH1 0x2 PUSH0 DUP6 PUSH20 0xFFFFFFFFFFFFFFFFFFFFFFFFFFFFFFFFFFFFFFFF AND PUSH20 0xFFFFFFFFFFFFFFFFFFFFFFFFFFFFFFFFFFFFFFFF AND DUP2 MSTORE PUSH1 0x20 ADD SWAP1 DUP2 MSTORE PUSH1 0x20 ADD PUSH0 KECCAK256 SLOAD LT SWAP2 POP POP JUMPDEST SWAP2 SWAP1 POP JUMP JUMPDEST PUSH0 PUSH8 0x14057B7EF767814F PUSH8 0xDE0B6B3A7640000 PUSH2 0x14FF DUP5 PUSH2 0x15A8 JUMP JUMPDEST MUL DUP2 PUSH2 0x150E JUMPI PUSH2 0x150D PUSH2 0x2661 JUMP JUMPDEST JUMPDEST DIV SWAP1 POP SWAP2 SWAP1 POP JUMP JUMPDEST PUSH0 PUSH2 0x1521 DUP4 DUP4 PUSH2 0x16AA JUMP JUMPDEST SWAP1 POP SWAP3 SWAP2 POP POP JUMP JUMPDEST PUSH0 PUSH9 0xA688906BD8B000000 DUP3 LT PUSH2 0x1577 JUMPI DUP2 PUSH1 0x40 MLOAD PUSH32 0x4A4F26F100000000000000000000000000000000000000000000000000000000 DUP2 MSTORE PUSH1 0x4 ADD PUSH2 0x156E SWAP2 SWAP1 PUSH2 0x2364 JUMP JUMPDEST PUSH1 0x40 MLOAD DUP1 SWAP2 SUB SWAP1 REVERT JUMPDEST PUSH0 PUSH8 0xDE0B6B3A7640000 PUSH1 0x40 DUP5 SWAP1 SHL DUP2 PUSH2 0x1594 JUMPI PUSH2 0x1593 PUSH2 0x2661 JUMP JUMPDEST JUMPDEST DIV SWAP1 POP PUSH2 0x15A0 DUP2 PUSH2 0x17A2 JUMP JUMPDEST SWAP2 POP POP SWAP2 SWAP1 POP JUMP JUMPDEST PUSH0 PUSH8 0xDE0B6B3A7640000 DUP3 LT ISZERO PUSH2 0x15F6 JUMPI DUP2 PUSH1 0x40 MLOAD PUSH32 0xD88504DC00000000000000000000000000000000000000000000000000000000 DUP2 MSTORE PUSH1 0x4 ADD PUSH2 0x15ED SWAP2 SWAP1 PUSH2 0x2364 JUMP JUMPDEST PUSH1 0x40 MLOAD DUP1 SWAP2 SUB SWAP1 REVERT JUMPDEST PUSH0 PUSH2 0x1618 PUSH8 0xDE0B6B3A7640000 DUP5 DUP2 PUSH2 0x1612 JUMPI PUSH2 0x1611 PUSH2 0x2661 JUMP JUMPDEST JUMPDEST DIV PUSH2 0x203D JUMP JUMPDEST SWAP1 POP PUSH8 0xDE0B6B3A7640000 DUP2 MUL SWAP2 POP PUSH0 DUP2 DUP5 SWAP1 SHR SWAP1 POP PUSH8 0xDE0B6B3A7640000 DUP2 SUB PUSH2 0x1644 JUMPI POP POP PUSH2 0x16A5 JUMP JUMPDEST PUSH0 PUSH8 0x6F05B59D3B20000 SWAP1 POP JUMPDEST PUSH0 DUP2 GT ISZERO PUSH2 0x16A1 JUMPI PUSH8 0xDE0B6B3A7640000 DUP3 DUP4 MUL DUP2 PUSH2 0x1673 JUMPI PUSH2 0x1672 PUSH2 0x2661 JUMP JUMPDEST JUMPDEST DIV SWAP2 POP PUSH8 0xDE0B6B3A7640000 PUSH1 0x2 MUL DUP3 LT PUSH2 0x1695 JUMPI DUP1 DUP5 ADD SWAP4 POP PUSH1 0x1 DUP3 SWAP1 SHR SWAP2 POP JUMPDEST PUSH1 0x1 DUP2 SWAP1 SHR SWAP1 POP PUSH2 0x1651 JUMP JUMPDEST POP POP POP JUMPDEST SWAP2 SWAP1 POP JUMP JUMPDEST PUSH0 DUP1 PUSH0 DUP1 NOT DUP5 DUP7 MULMOD DUP5 DUP7 MUL SWAP3 POP DUP3 DUP2 LT DUP4 DUP3 SUB SUB SWAP2 POP POP PUSH8 0xDE0B6B3A7640000 DUP2 LT PUSH2 0x170D JUMPI DUP1 PUSH1 0x40 MLOAD PUSH32 0xD31B340200000000000000000000000000000000000000000000000000000000 DUP2 MSTORE PUSH1 0x4 ADD PUSH2 0x1704 SWAP2 SWAP1 PUSH2 0x2364 JUMP JUMPDEST PUSH1 0x40 MLOAD DUP1 SWAP2 SUB SWAP1 REVERT JUMPDEST PUSH0 DUP1 PUSH8 0xDE0B6B3A7640000 DUP7 DUP9 MULMOD SWAP2 POP PUSH8 0x6F05B59D3B1FFFF DUP3 GT SWAP1 POP PUSH0 DUP4 SUB PUSH2 0x1757 JUMPI DUP1 PUSH8 0xDE0B6B3A7640000 DUP6 DUP2 PUSH2 0x174A JUMPI PUSH2 0x1749 PUSH2 0x2661 JUMP JUMPDEST JUMPDEST DIV ADD SWAP5 POP POP POP POP POP PUSH2 0x179C JUMP JUMPDEST DUP1 PUSH32 0xACCB18165BD6FE31AE1CF318DC5B51EEE0E1BA569B88CD74C1773B91FAC10669 PUSH1 0x1 PUSH3 0x40000 DUP1 PUSH0 SUB DIV ADD DUP7 DUP6 GT DUP7 SUB MUL PUSH3 0x40000 DUP6 DUP9 SUB DIV OR MUL ADD SWAP5 POP POP POP POP POP JUMPDEST SWAP3 SWAP2 POP POP JUMP JUMPDEST PUSH0 PUSH24 0x800000000000000000000000000000000000000000000000 SWAP1 POP PUSH0 PUSH8 0x8000000000000000 DUP4 AND GT ISZERO PUSH2 0x17E3 JUMPI PUSH1 0x40 PUSH9 0x16A09E667F3BCC909 DUP3 MUL SWAP1 SHR SWAP1 POP JUMPDEST PUSH0 PUSH8 0x4000000000000000 DUP4 AND GT ISZERO PUSH2 0x1808 JUMPI PUSH1 0x40 PUSH9 0x1306FE0A31B7152DF DUP3 MUL SWAP1 SHR SWAP1 POP JUMPDEST PUSH0 PUSH8 0x2000000000000000 DUP4 AND GT ISZERO PUSH2 0x182D JUMPI PUSH1 0x40 PUSH9 0x1172B83C7D517ADCE DUP3 MUL SWAP1 SHR SWAP1 POP JUMPDEST PUSH0 PUSH8 0x1000000000000000 DUP4 AND GT ISZERO PUSH2 0x1852 JUMPI PUSH1 0x40 PUSH9 0x10B5586CF9890F62A DUP3 MUL SWAP1 SHR SWAP1 POP JUMPDEST PUSH0 PUSH8 0x800000000000000 DUP4 AND GT ISZERO PUSH2 0x1877 JUMPI PUSH1 0x40 PUSH9 0x1059B0D31585743AE DUP3 MUL SWAP1 SHR SWAP1 POP JUMPDEST PUSH0 PUSH8 0x400000000000000 DUP4 AND GT ISZERO PUSH2 0x189C JUMPI PUSH1 0x40 PUSH9 0x102C9A3E778060EE7 DUP3 MUL SWAP1 SHR SWAP1 POP JUMPDEST PUSH0 PUSH8 0x200000000000000 DUP4 AND GT ISZERO PUSH2 0x18C1 JUMPI PUSH1 0x40 PUSH9 0x10163DA9FB33356D8 DUP3 MUL SWAP1 SHR SWAP1 POP JUMPDEST PUSH0 PUSH8 0x100000000000000 DUP4 AND GT ISZERO PUSH2 0x18E6 JUMPI PUSH1 0x40 PUSH9 0x100B1AFA5ABCBED61 DUP3 MUL SWAP1 SHR SWAP1 POP JUMPDEST PUSH0 PUSH7 0x80000000000000 DUP4 AND GT ISZERO PUSH2 0x190A JUMPI PUSH1 0x40 PUSH9 0x10058C86DA1C09EA2 DUP3 MUL SWAP1 SHR SWAP1 POP JUMPDEST PUSH0 PUSH7 0x40000000000000 DUP4 AND GT ISZERO PUSH2 0x192E JUMPI PUSH1 0x40 PUSH9 0x1002C605E2E8CEC50 DUP3 MUL SWAP1 SHR SWAP1 POP JUMPDEST PUSH0 PUSH7 0x20000000000000 DUP4 AND GT ISZERO PUSH2 0x1952 JUMPI PUSH1 0x40 PUSH9 0x100162F3904051FA1 DUP3 MUL SWAP1 SHR SWAP1 POP JUMPDEST PUSH0 PUSH7 0x10000000000000 DUP4 AND GT ISZERO PUSH2 0x1976 JUMPI PUSH1 0x40 PUSH9 0x1000B175EFFDC76BA DUP3 MUL SWAP1 SHR SWAP1 POP JUMPDEST PUSH0 PUSH7 0x8000000000000 DUP4 AND GT ISZERO PUSH2 0x199A JUMPI PUSH1 0x40 PUSH9 0x100058BA01FB9F96D DUP3 MUL SWAP1 SHR SWAP1 POP JUMPDEST PUSH0 PUSH7 0x4000000000000 DUP4 AND GT ISZERO PUSH2 0x19BE JUMPI PUSH1 0x40 PUSH9 0x10002C5CC37DA9492 DUP3 MUL SWAP1 SHR SWAP1 POP JUMPDEST PUSH0 PUSH7 0x2000000000000 DUP4 AND GT ISZERO PUSH2 0x19E2 JUMPI PUSH1 0x40 PUSH9 0x1000162E525EE0547 DUP3 MUL SWAP1 SHR SWAP1 POP JUMPDEST PUSH0 PUSH7 0x1000000000000 DUP4 AND GT ISZERO PUSH2 0x1A06 JUMPI PUSH1 0x40 PUSH9 0x10000B17255775C04 DUP3 MUL SWAP1 SHR SWAP1 POP JUMPDEST PUSH0 PUSH6 0x800000000000 DUP4 AND GT ISZERO PUSH2 0x1A29 JUMPI PUSH1 0x40 PUSH9 0x1000058B91B5BC9AE DUP3 MUL SWAP1 SHR SWAP1 POP JUMPDEST PUSH0 PUSH6 0x400000000000 DUP4 AND GT ISZERO PUSH2 0x1A4C JUMPI PUSH1 0x40 PUSH9 0x100002C5C89D5EC6D DUP3 MUL SWAP1 SHR SWAP1 POP JUMPDEST PUSH0 PUSH6 0x200000000000 DUP4 AND GT ISZERO PUSH2 0x1A6F JUMPI PUSH1 0x40 PUSH9 0x10000162E43F4F831 DUP3 MUL SWAP1 SHR SWAP1 POP JUMPDEST PUSH0 PUSH6 0x100000000000 DUP4 AND GT ISZERO PUSH2 0x1A92 JUMPI PUSH1 0x40 PUSH9 0x100000B1721BCFC9A DUP3 MUL SWAP1 SHR SWAP1 POP JUMPDEST PUSH0 PUSH6 0x80000000000 DUP4 AND GT ISZERO PUSH2 0x1AB5 JUMPI PUSH1 0x40 PUSH9 0x10000058B90CF1E6E DUP3 MUL SWAP1 SHR SWAP1 POP JUMPDEST PUSH0 PUSH6 0x40000000000 DUP4 AND GT ISZERO PUSH2 0x1AD8 JUMPI PUSH1 0x40 PUSH9 0x1000002C5C863B73F DUP3 MUL SWAP1 SHR SWAP1 POP JUMPDEST PUSH0 PUSH6 0x20000000000 DUP4 AND GT ISZERO PUSH2 0x1AFB JUMPI PUSH1 0x40 PUSH9 0x100000162E430E5A2 DUP3 MUL SWAP1 SHR SWAP1 POP JUMPDEST PUSH0 PUSH6 0x10000000000 DUP4 AND GT ISZERO PUSH2 0x1B1E JUMPI PUSH1 0x40 PUSH9 0x1000000B172183551 DUP3 MUL SWAP1 SHR SWAP1 POP JUMPDEST PUSH0 PUSH5 0x8000000000 DUP4 AND GT ISZERO PUSH2 0x1B40 JUMPI PUSH1 0x40 PUSH9 0x100000058B90C0B49 DUP3 MUL SWAP1 SHR SWAP1 POP JUMPDEST PUSH0 PUSH5 0x4000000000 DUP4 AND GT ISZERO PUSH2 0x1B62 JUMPI PUSH1 0x40 PUSH9 0x10000002C5C8601CC DUP3 MUL SWAP1 SHR SWAP1 POP JUMPDEST PUSH0 PUSH5 0x2000000000 DUP4 AND GT ISZERO PUSH2 0x1B84 JUMPI PUSH1 0x40 PUSH9 0x1000000162E42FFF0 DUP3 MUL SWAP1 SHR SWAP1 POP JUMPDEST PUSH0 PUSH5 0x1000000000 DUP4 AND GT ISZERO PUSH2 0x1BA6 JUMPI PUSH1 0x40 PUSH9 0x10000000B17217FBB DUP3 MUL SWAP1 SHR SWAP1 POP JUMPDEST PUSH0 PUSH5 0x800000000 DUP4 AND GT ISZERO PUSH2 0x1BC8 JUMPI PUSH1 0x40 PUSH9 0x1000000058B90BFCE DUP3 MUL SWAP1 SHR SWAP1 POP JUMPDEST PUSH0 PUSH5 0x400000000 DUP4 AND GT ISZERO PUSH2 0x1BEA JUMPI PUSH1 0x40 PUSH9 0x100000002C5C85FE3 DUP3 MUL SWAP1 SHR SWAP1 POP JUMPDEST PUSH0 PUSH5 0x200000000 DUP4 AND GT ISZERO PUSH2 0x1C0C JUMPI PUSH1 0x40 PUSH9 0x10000000162E42FF1 DUP3 MUL SWAP1 SHR SWAP1 POP JUMPDEST PUSH0 PUSH5 0x100000000 DUP4 AND GT ISZERO PUSH2 0x1C2E JUMPI PUSH1 0x40 PUSH9 0x100000000B17217F8 DUP3 MUL SWAP1 SHR SWAP1 POP JUMPDEST PUSH0 PUSH4 0x80000000 DUP4 AND GT ISZERO PUSH2 0x1C4F JUMPI PUSH1 0x40 PUSH9 0x10000000058B90BFC DUP3 MUL SWAP1 SHR SWAP1 POP JUMPDEST PUSH0 PUSH4 0x40000000 DUP4 AND GT ISZERO PUSH2 0x1C70 JUMPI PUSH1 0x40 PUSH9 0x1000000002C5C85FE DUP3 MUL SWAP1 SHR SWAP1 POP JUMPDEST PUSH0 PUSH4 0x20000000 DUP4 AND GT ISZERO PUSH2 0x1C91 JUMPI PUSH1 0x40 PUSH9 0x100000000162E42FF DUP3 MUL SWAP1 SHR SWAP1 POP JUMPDEST PUSH0 PUSH4 0x10000000 DUP4 AND GT ISZERO PUSH2 0x1CB2 JUMPI PUSH1 0x40 PUSH9 0x1000000000B17217F DUP3 MUL SWAP1 SHR SWAP1 POP JUMPDEST PUSH0 PUSH4 0x8000000 DUP4 AND GT ISZERO PUSH2 0x1CD3 JUMPI PUSH1 0x40 PUSH9 0x100000000058B90C0 DUP3 MUL SWAP1 SHR SWAP1 POP JUMPDEST PUSH0 PUSH4 0x4000000 DUP4 AND GT ISZERO PUSH2 0x1CF4 JUMPI PUSH1 0x40 PUSH9 0x10000000002C5C860 DUP3 MUL SWAP1 SHR SWAP1 POP JUMPDEST PUSH0 PUSH4 0x2000000 DUP4 AND GT ISZERO PUSH2 0x1D15 JUMPI PUSH1 0x40 PUSH9 0x1000000000162E430 DUP3 MUL SWAP1 SHR SWAP1 POP JUMPDEST PUSH0 PUSH4 0x1000000 DUP4 AND GT ISZERO PUSH2 0x1D36 JUMPI PUSH1 0x40 PUSH9 0x10000000000B17218 DUP3 MUL SWAP1 SHR SWAP1 POP JUMPDEST PUSH0 PUSH3 0x800000 DUP4 AND GT ISZERO PUSH2 0x1D56 JUMPI PUSH1 0x40 PUSH9 0x1000000000058B90C DUP3 MUL SWAP1 SHR SWAP1 POP JUMPDEST PUSH0 PUSH3 0x400000 DUP4 AND GT ISZERO PUSH2 0x1D76 JUMPI PUSH1 0x40 PUSH9 0x100000000002C5C86 DUP3 MUL SWAP1 SHR SWAP1 POP JUMPDEST PUSH0 PUSH3 0x200000 DUP4 AND GT ISZERO PUSH2 0x1D96 JUMPI PUSH1 0x40 PUSH9 0x10000000000162E43 DUP3 MUL SWAP1 SHR SWAP1 POP JUMPDEST PUSH0 PUSH3 0x100000 DUP4 AND GT ISZERO PUSH2 0x1DB6 JUMPI PUSH1 0x40 PUSH9 0x100000000000B1721 DUP3 MUL SWAP1 SHR SWAP1 POP JUMPDEST PUSH0 PUSH3 0x80000 DUP4 AND GT ISZERO PUSH2 0x1DD6 JUMPI PUSH1 0x40 PUSH9 0x10000000000058B91 DUP3 MUL SWAP1 SHR SWAP1 POP JUMPDEST PUSH0 PUSH3 0x40000 DUP4 AND GT ISZERO PUSH2 0x1DF6 JUMPI PUSH1 0x40 PUSH9 0x1000000000002C5C8 DUP3 MUL SWAP1 SHR SWAP1 POP JUMPDEST PUSH0 PUSH3 0x20000 DUP4 AND GT ISZERO PUSH2 0x1E16 JUMPI PUSH1 0x40 PUSH9 0x100000000000162E4 DUP3 MUL SWAP1 SHR SWAP1 POP JUMPDEST PUSH0 PUSH3 0x10000 DUP4 AND GT ISZERO PUSH2 0x1E36 JUMPI PUSH1 0x40 PUSH9 0x1000000000000B172 DUP3 MUL SWAP1 SHR SWAP1 POP JUMPDEST PUSH0 PUSH2 0x8000 DUP4 AND GT ISZERO PUSH2 0x1E55 JUMPI PUSH1 0x40 PUSH9 0x100000000000058B9 DUP3 MUL SWAP1 SHR SWAP1 POP JUMPDEST PUSH0 PUSH2 0x4000 DUP4 AND GT ISZERO PUSH2 0x1E74 JUMPI PUSH1 0x40 PUSH9 0x10000000000002C5D DUP3 MUL SWAP1 SHR SWAP1 POP JUMPDEST PUSH0 PUSH2 0x2000 DUP4 AND GT ISZERO PUSH2 0x1E93 JUMPI PUSH1 0x40 PUSH9 0x1000000000000162E DUP3 MUL SWAP1 SHR SWAP1 POP JUMPDEST PUSH0 PUSH2 0x1000 DUP4 AND GT ISZERO PUSH2 0x1EB2 JUMPI PUSH1 0x40 PUSH9 0x10000000000000B17 DUP3 MUL SWAP1 SHR SWAP1 POP JUMPDEST PUSH0 PUSH2 0x800 DUP4 AND GT ISZERO PUSH2 0x1ED1 JUMPI PUSH1 0x40 PUSH9 0x1000000000000058C DUP3 MUL SWAP1 SHR SWAP1 POP JUMPDEST PUSH0 PUSH2 0x400 DUP4 AND GT ISZERO PUSH2 0x1EF0 JUMPI PUSH1 0x40 PUSH9 0x100000000000002C6 DUP3 MUL SWAP1 SHR SWAP1 POP JUMPDEST PUSH0 PUSH2 0x200 DUP4 AND GT ISZERO PUSH2 0x1F0F JUMPI PUSH1 0x40 PUSH9 0x10000000000000163 DUP3 MUL SWAP1 SHR SWAP1 POP JUMPDEST PUSH0 PUSH2 0x100 DUP4 AND GT ISZERO PUSH2 0x1F2E JUMPI PUSH1 0x40 PUSH9 0x100000000000000B1 DUP3 MUL SWAP1 SHR SWAP1 POP JUMPDEST PUSH0 PUSH1 0x80 DUP4 AND GT ISZERO PUSH2 0x1F4C JUMPI PUSH1 0x40 PUSH9 0x10000000000000059 DUP3 MUL SWAP1 SHR SWAP1 POP JUMPDEST PUSH0 PUSH1 0x40 DUP4 AND GT ISZERO PUSH2 0x1F6A JUMPI PUSH1 0x40 PUSH9 0x1000000000000002C DUP3 MUL SWAP1 SHR SWAP1 POP JUMPDEST PUSH0 PUSH1 0x20 DUP4 AND GT ISZERO PUSH2 0x1F88 JUMPI PUSH1 0x40 PUSH9 0x10000000000000016 DUP3 MUL SWAP1 SHR SWAP1 POP JUMPDEST PUSH0 PUSH1 0x10 DUP4 AND GT ISZERO PUSH2 0x1FA6 JUMPI PUSH1 0x40 PUSH9 0x1000000000000000B DUP3 MUL SWAP1 SHR SWAP1 POP JUMPDEST PUSH0 PUSH1 0x8 DUP4 AND GT ISZERO PUSH2 0x1FC4 JUMPI PUSH1 0x40 PUSH9 0x10000000000000006 DUP3 MUL SWAP1 SHR SWAP1 POP JUMPDEST PUSH0 PUSH1 0x4 DUP4 AND GT ISZERO PUSH2 0x1FE2 JUMPI PUSH1 0x40 PUSH9 0x10000000000000003 DUP3 MUL SWAP1 SHR SWAP1 POP JUMPDEST PUSH0 PUSH1 0x2 DUP4 AND GT ISZERO PUSH2 0x2000 JUMPI PUSH1 0x40 PUSH9 0x10000000000000001 DUP3 MUL SWAP1 SHR SWAP1 POP JUMPDEST PUSH0 PUSH1 0x1 DUP4 AND GT ISZERO PUSH2 0x201E JUMPI PUSH1 0x40 PUSH9 0x10000000000000001 DUP3 MUL SWAP1 SHR SWAP1 POP JUMPDEST PUSH8 0xDE0B6B3A7640000 DUP2 MUL SWAP1 POP PUSH1 0x40 DUP3 SWAP1 SHR PUSH1 0xBF SUB DUP2 SWAP1 SHR SWAP1 POP SWAP2 SWAP1 POP JUMP JUMPDEST PUSH0 PUSH17 0x100000000000000000000000000000000 DUP3 LT PUSH2 0x206D JUMPI PUSH1 0x80 DUP3 SWAP1 SHR SWAP2 POP PUSH1 0x80 DUP2 PUSH2 0x206A SWAP2 SWAP1 PUSH2 0x2331 JUMP JUMPDEST SWAP1 POP JUMPDEST PUSH9 0x10000000000000000 DUP3 LT PUSH2 0x2094 JUMPI PUSH1 0x40 DUP3 SWAP1 SHR SWAP2 POP PUSH1 0x40 DUP2 PUSH2 0x2091 SWAP2 SWAP1 PUSH2 0x2331 JUMP JUMPDEST SWAP1 POP JUMPDEST PUSH5 0x100000000 DUP3 LT PUSH2 0x20B7 JUMPI PUSH1 0x20 DUP3 SWAP1 SHR SWAP2 POP PUSH1 0x20 DUP2 PUSH2 0x20B4 SWAP2 SWAP1 PUSH2 0x2331 JUMP JUMPDEST SWAP1 POP JUMPDEST PUSH3 0x10000 DUP3 LT PUSH2 0x20D8 JUMPI PUSH1 0x10 DUP3 SWAP1 SHR SWAP2 POP PUSH1 0x10 DUP2 PUSH2 0x20D5 SWAP2 SWAP1 PUSH2 0x2331 JUMP JUMPDEST SWAP1 POP JUMPDEST PUSH2 0x100 DUP3 LT PUSH2 0x20F8 JUMPI PUSH1 0x8 DUP3 SWAP1 SHR SWAP2 POP PUSH1 0x8 DUP2 PUSH2 0x20F5 SWAP2 SWAP1 PUSH2 0x2331 JUMP JUMPDEST SWAP1 POP JUMPDEST PUSH1 0x10 DUP3 LT PUSH2 0x2117 JUMPI PUSH1 0x4 DUP3 SWAP1 SHR SWAP2 POP PUSH1 0x4 DUP2 PUSH2 0x2114 SWAP2 SWAP1 PUSH2 0x2331 JUMP JUMPDEST SWAP1 POP JUMPDEST PUSH1 0x4 DUP3 LT PUSH2 0x2136 JUMPI PUSH1 0x2 DUP3 SWAP1 SHR SWAP2 POP PUSH1 0x2 DUP2 PUSH2 0x2133 SWAP2 SWAP1 PUSH2 0x2331 JUMP JUMPDEST SWAP1 POP JUMPDEST PUSH1 0x2 DUP3 LT PUSH2 0x214E JUMPI PUSH1 0x1 DUP2 PUSH2 0x214B SWAP2 SWAP1 PUSH2 0x2331 JUMP JUMPDEST SWAP1 POP JUMPDEST SWAP2 SWAP1 POP JUMP JUMPDEST PUSH0 DUP1 REVERT JUMPDEST PUSH0 DUP2 SWAP1 POP SWAP2 SWAP1 POP JUMP JUMPDEST PUSH2 0x2169 DUP2 PUSH2 0x2157 JUMP JUMPDEST DUP2 EQ PUSH2 0x2173 JUMPI PUSH0 DUP1 REVERT JUMPDEST POP JUMP JUMPDEST PUSH0 DUP2 CALLDATALOAD SWAP1 POP PUSH2 0x2184 DUP2 PUSH2 0x2160 JUMP JUMPDEST SWAP3 SWAP2 POP POP JUMP JUMPDEST PUSH0 PUSH1 0x20 DUP3 DUP5 SUB SLT ISZERO PUSH2 0x219F JUMPI PUSH2 0x219E PUSH2 0x2153 JUMP JUMPDEST JUMPDEST PUSH0 PUSH2 0x21AC DUP5 DUP3 DUP6 ADD PUSH2 0x2176 JUMP JUMPDEST SWAP2 POP POP SWAP3 SWAP2 POP POP JUMP JUMPDEST PUSH0 PUSH20 0xFFFFFFFFFFFFFFFFFFFFFFFFFFFFFFFFFFFFFFFF DUP3 AND SWAP1 POP SWAP2 SWAP1 POP JUMP JUMPDEST PUSH0 PUSH2 0x21DE DUP3 PUSH2 0x21B5 JUMP JUMPDEST SWAP1 POP SWAP2 SWAP1 POP JUMP JUMPDEST PUSH2 0x21EE DUP2 PUSH2 0x21D4 JUMP JUMPDEST DUP2 EQ PUSH2 0x21F8 JUMPI PUSH0 DUP1 REVERT JUMPDEST POP JUMP JUMPDEST PUSH0 DUP2 CALLDATALOAD SWAP1 POP PUSH2 0x2209 DUP2 PUSH2 0x21E5 JUMP JUMPDEST SWAP3 SWAP2 POP POP JUMP JUMPDEST PUSH0 PUSH1 0x20 DUP3 DUP5 SUB SLT ISZERO PUSH2 0x2224 JUMPI PUSH2 0x2223 PUSH2 0x2153 JUMP JUMPDEST JUMPDEST PUSH0 PUSH2 0x2231 DUP5 DUP3 DUP6 ADD PUSH2 0x21FB JUMP JUMPDEST SWAP2 POP POP SWAP3 SWAP2 POP POP JUMP JUMPDEST PUSH2 0x2243 DUP2 PUSH2 0x2157 JUMP JUMPDEST DUP3 MSTORE POP POP JUMP JUMPDEST PUSH0 PUSH1 0x80 DUP3 ADD SWAP1 POP PUSH2 0x225C PUSH0 DUP4 ADD DUP8 PUSH2 0x223A JUMP JUMPDEST PUSH2 0x2269 PUSH1 0x20 DUP4 ADD DUP7 PUSH2 0x223A JUMP JUMPDEST PUSH2 0x2276 PUSH1 0x40 DUP4 ADD DUP6 PUSH2 0x223A JUMP JUMPDEST PUSH2 0x2283 PUSH1 0x60 DUP4 ADD DUP5 PUSH2 0x223A JUMP JUMPDEST SWAP6 SWAP5 POP POP POP POP POP JUMP JUMPDEST PUSH0 DUP3 DUP3 MSTORE PUSH1 0x20 DUP3 ADD SWAP1 POP SWAP3 SWAP2 POP POP JUMP JUMPDEST PUSH32 0x4D75737420737570706C79206174206C65617374203120746F6B656E00000000 PUSH0 DUP3 ADD MSTORE POP JUMP JUMPDEST PUSH0 PUSH2 0x22D0 PUSH1 0x1C DUP4 PUSH2 0x228C JUMP JUMPDEST SWAP2 POP PUSH2 0x22DB DUP3 PUSH2 0x229C JUMP JUMPDEST PUSH1 0x20 DUP3 ADD SWAP1 POP SWAP2 SWAP1 POP JUMP JUMPDEST PUSH0 PUSH1 0x20 DUP3 ADD SWAP1 POP DUP2 DUP2 SUB PUSH0 DUP4 ADD MSTORE PUSH2 0x22FD DUP2 PUSH2 0x22C4 JUMP JUMPDEST SWAP1 POP SWAP2 SWAP1 POP JUMP JUMPDEST PUSH32 0x4E487B7100000000000000000000000000000000000000000000000000000000 PUSH0 MSTORE PUSH1 0x11 PUSH1 0x4 MSTORE PUSH1 0x24 PUSH0 REVERT JUMPDEST PUSH0 PUSH2 0x233B DUP3 PUSH2 0x2157 JUMP JUMPDEST SWAP2 POP PUSH2 0x2346 DUP4 PUSH2 0x2157 JUMP JUMPDEST SWAP3 POP DUP3 DUP3 ADD SWAP1 POP DUP1 DUP3 GT ISZERO PUSH2 0x235E JUMPI PUSH2 0x235D PUSH2 0x2304 JUMP JUMPDEST JUMPDEST SWAP3 SWAP2 POP POP JUMP JUMPDEST PUSH0 PUSH1 0x20 DUP3 ADD SWAP1 POP PUSH2 0x2377 PUSH0 DUP4 ADD DUP5 PUSH2 0x223A JUMP JUMPDEST SWAP3 SWAP2 POP POP JUMP JUMPDEST PUSH32 0x4E6F20746F6B656E20746F207769746864726177000000000000000000000000 PUSH0 DUP3 ADD MSTORE POP JUMP JUMPDEST PUSH0 PUSH2 0x23B1 PUSH1 0x14 DUP4 PUSH2 0x228C JUMP JUMPDEST SWAP2 POP PUSH2 0x23BC DUP3 PUSH2 0x237D JUMP JUMPDEST PUSH1 0x20 DUP3 ADD SWAP1 POP SWAP2 SWAP1 POP JUMP JUMPDEST PUSH0 PUSH1 0x20 DUP3 ADD SWAP1 POP DUP2 DUP2 SUB PUSH0 DUP4 ADD MSTORE PUSH2 0x23DE DUP2 PUSH2 0x23A5 JUMP JUMPDEST SWAP1 POP SWAP2 SWAP1 POP JUMP JUMPDEST PUSH32 0x496E73756666696369656E7420737570706C792062616C616E63650000000000 PUSH0 DUP3 ADD MSTORE POP JUMP JUMPDEST PUSH0 PUSH2 0x2419 PUSH1 0x1B DUP4 PUSH2 0x228C JUMP JUMPDEST SWAP2 POP PUSH2 0x2424 DUP3 PUSH2 0x23E5 JUMP JUMPDEST PUSH1 0x20 DUP3 ADD SWAP1 POP SWAP2 SWAP1 POP JUMP JUMPDEST PUSH0 PUSH1 0x20 DUP3 ADD SWAP1 POP DUP2 DUP2 SUB PUSH0 DUP4 ADD MSTORE PUSH2 0x2446 DUP2 PUSH2 0x240D JUMP JUMPDEST SWAP1 POP SWAP2 SWAP1 POP JUMP JUMPDEST PUSH32 0x496E73756666696369656E742062616C616E636520696E20706F6F6C00000000 PUSH0 DUP3 ADD MSTORE POP JUMP JUMPDEST PUSH0 PUSH2 0x2481 PUSH1 0x1C DUP4 PUSH2 0x228C JUMP JUMPDEST SWAP2 POP PUSH2 0x248C DUP3 PUSH2 0x244D JUMP JUMPDEST PUSH1 0x20 DUP3 ADD SWAP1 POP SWAP2 SWAP1 POP JUMP JUMPDEST PUSH0 PUSH1 0x20 DUP3 ADD SWAP1 POP DUP2 DUP2 SUB PUSH0 DUP4 ADD MSTORE PUSH2 0x24AE DUP2 PUSH2 0x2475 JUMP JUMPDEST SWAP1 POP SWAP2 SWAP1 POP JUMP JUMPDEST PUSH0 PUSH2 0x24BF DUP3 PUSH2 0x2157 JUMP JUMPDEST SWAP2 POP PUSH2 0x24CA DUP4 PUSH2 0x2157 JUMP JUMPDEST SWAP3 POP DUP3 DUP3 SUB SWAP1 POP DUP2 DUP2 GT ISZERO PUSH2 0x24E2 JUMPI PUSH2 0x24E1 PUSH2 0x2304 JUMP JUMPDEST JUMPDEST SWAP3 SWAP2 POP POP JUMP JUMPDEST PUSH32 0x426F72726F7765722063616E6E6F74206265206C697175696461746564000000 PUSH0 DUP3 ADD MSTORE POP JUMP JUMPDEST PUSH0 PUSH2 0x251C PUSH1 0x1D DUP4 PUSH2 0x228C JUMP JUMPDEST SWAP2 POP PUSH2 0x2527 DUP3 PUSH2 0x24E8 JUMP JUMPDEST PUSH1 0x20 DUP3 ADD SWAP1 POP SWAP2 SWAP1 POP JUMP JUMPDEST PUSH0 PUSH1 0x20 DUP3 ADD SWAP1 POP DUP2 DUP2 SUB PUSH0 DUP4 ADD MSTORE PUSH2 0x2549 DUP2 PUSH2 0x2510 JUMP JUMPDEST SWAP1 POP SWAP2 SWAP1 POP JUMP JUMPDEST PUSH32 0x43616E6E6F742072656D6F7665203020636F6C6C61746572616C000000000000 PUSH0 DUP3 ADD MSTORE POP JUMP JUMPDEST PUSH0 PUSH2 0x2584 PUSH1 0x1A DUP4 PUSH2 0x228C JUMP JUMPDEST SWAP2 POP PUSH2 0x258F DUP3 PUSH2 0x2550 JUMP JUMPDEST PUSH1 0x20 DUP3 ADD SWAP1 POP SWAP2 SWAP1 POP JUMP JUMPDEST PUSH0 PUSH1 0x20 DUP3 ADD SWAP1 POP DUP2 DUP2 SUB PUSH0 DUP4 ADD MSTORE PUSH2 0x25B1 DUP2 PUSH2 0x2578 JUMP JUMPDEST SWAP1 POP SWAP2 SWAP1 POP JUMP JUMPDEST PUSH32 0x496E73756666696369656E7420436F6C6C61746572616C000000000000000000 PUSH0 DUP3 ADD MSTORE POP JUMP JUMPDEST PUSH0 PUSH2 0x25EC PUSH1 0x17 DUP4 PUSH2 0x228C JUMP JUMPDEST SWAP2 POP PUSH2 0x25F7 DUP3 PUSH2 0x25B8 JUMP JUMPDEST PUSH1 0x20 DUP3 ADD SWAP1 POP SWAP2 SWAP1 POP JUMP JUMPDEST PUSH0 PUSH1 0x20 DUP3 ADD SWAP1 POP DUP2 DUP2 SUB PUSH0 DUP4 ADD MSTORE PUSH2 0x2619 DUP2 PUSH2 0x25E0 JUMP JUMPDEST SWAP1 POP SWAP2 SWAP1 POP JUMP JUMPDEST PUSH0 PUSH2 0x262A DUP3 PUSH2 0x2157 JUMP JUMPDEST SWAP2 POP PUSH2 0x2635 DUP4 PUSH2 0x2157 JUMP JUMPDEST SWAP3 POP DUP3 DUP3 MUL PUSH2 0x2643 DUP2 PUSH2 0x2157 JUMP JUMPDEST SWAP2 POP DUP3 DUP3 DIV DUP5 EQ DUP4 ISZERO OR PUSH2 0x265A JUMPI PUSH2 0x2659 PUSH2 0x2304 JUMP JUMPDEST JUMPDEST POP SWAP3 SWAP2 POP POP JUMP JUMPDEST PUSH32 0x4E487B7100000000000000000000000000000000000000000000000000000000 PUSH0 MSTORE PUSH1 0x12 PUSH1 0x4 MSTORE PUSH1 0x24 PUSH0 REVERT JUMPDEST PUSH0 PUSH2 0x2698 DUP3 PUSH2 0x2157 JUMP JUMPDEST SWAP2 POP PUSH2 0x26A3 DUP4 PUSH2 0x2157 JUMP JUMPDEST SWAP3 POP DUP3 PUSH2 0x26B3 JUMPI PUSH2 0x26B2 PUSH2 0x2661 JUMP JUMPDEST JUMPDEST DUP3 DUP3 DIV SWAP1 POP SWAP3 SWAP2 POP POP JUMP JUMPDEST PUSH32 0x436F6C6C61746572616C2072656D6F76616C20776F756C642076696F6C617465 PUSH0 DUP3 ADD MSTORE PUSH32 0x20746865206C656E64696E672070726F746F636F6C0000000000000000000000 PUSH1 0x20 DUP3 ADD MSTORE POP JUMP JUMPDEST PUSH0 PUSH2 0x2718 PUSH1 0x35 DUP4 PUSH2 0x228C JUMP JUMPDEST SWAP2 POP PUSH2 0x2723 DUP3 PUSH2 0x26BE JUMP JUMPDEST PUSH1 0x40 DUP3 ADD SWAP1 POP SWAP2 SWAP1 POP JUMP JUMPDEST PUSH0 PUSH1 0x20 DUP3 ADD SWAP1 POP DUP2 DUP2 SUB PUSH0 DUP4 ADD MSTORE PUSH2 0x2745 DUP2 PUSH2 0x270C JUMP JUMPDEST SWAP1 POP SWAP2 SWAP1 POP JUMP JUMPDEST PUSH32 0x43616E6E6F74207265706179203020616D6F756E740000000000000000000000 PUSH0 DUP3 ADD MSTORE POP JUMP JUMPDEST PUSH0 PUSH2 0x2780 PUSH1 0x15 DUP4 PUSH2 0x228C JUMP JUMPDEST SWAP2 POP PUSH2 0x278B DUP3 PUSH2 0x274C JUMP JUMPDEST PUSH1 0x20 DUP3 ADD SWAP1 POP SWAP2 SWAP1 POP JUMP JUMPDEST PUSH0 PUSH1 0x20 DUP3 ADD SWAP1 POP DUP2 DUP2 SUB PUSH0 DUP4 ADD MSTORE PUSH2 0x27AD DUP2 PUSH2 0x2774 JUMP JUMPDEST SWAP1 POP SWAP2 SWAP1 POP JUMP JUMPDEST PUSH32 0x43616E6E6F7420616464203020636F6C6C61746572616C000000000000000000 PUSH0 DUP3 ADD MSTORE POP JUMP JUMPDEST PUSH0 PUSH2 0x27E8 PUSH1 0x17 DUP4 PUSH2 0x228C JUMP JUMPDEST SWAP2 POP PUSH2 0x27F3 DUP3 PUSH2 0x27B4 JUMP JUMPDEST PUSH1 0x20 DUP3 ADD SWAP1 POP SWAP2 SWAP1 POP JUMP JUMPDEST PUSH0 PUSH1 0x20 DUP3 ADD SWAP1 POP DUP2 DUP2 SUB PUSH0 DUP4 ADD MSTORE PUSH2 0x2815 DUP2 PUSH2 0x27DC JUMP JUMPDEST SWAP1 POP SWAP2 SWAP1 POP JUMP JUMPDEST PUSH32 0x43616E6E6F7420626F72726F77203020616D6F756E7400000000000000000000 PUSH0 DUP3 ADD MSTORE POP JUMP JUMPDEST PUSH0 PUSH2 0x2850 PUSH1 0x16 DUP4 PUSH2 0x228C JUMP JUMPDEST SWAP2 POP PUSH2 0x285B DUP3 PUSH2 0x281C JUMP JUMPDEST PUSH1 0x20 DUP3 ADD SWAP1 POP SWAP2 SWAP1 POP JUMP JUMPDEST PUSH0 PUSH1 0x20 DUP3 ADD SWAP1 POP DUP2 DUP2 SUB PUSH0 DUP4 ADD MSTORE PUSH2 0x287D DUP2 PUSH2 0x2844 JUMP JUMPDEST SWAP1 POP SWAP2 SWAP1 POP JUMP JUMPDEST PUSH32 0x426F72726F7720616D6F756E74206578636565647320636F6C6C61746572616C PUSH0 DUP3 ADD MSTORE PUSH32 0x20726174696F0000000000000000000000000000000000000000000000000000 PUSH1 0x20 DUP3 ADD MSTORE POP JUMP JUMPDEST PUSH0 PUSH2 0x28DE PUSH1 0x26 DUP4 PUSH2 0x228C JUMP JUMPDEST SWAP2 POP PUSH2 0x28E9 DUP3 PUSH2 0x2884 JUMP JUMPDEST PUSH1 0x40 DUP3 ADD SWAP1 POP SWAP2 SWAP1 POP JUMP JUMPDEST PUSH0 PUSH1 0x20 DUP3 ADD SWAP1 POP DUP2 DUP2 SUB PUSH0 DUP4 ADD MSTORE PUSH2 0x290B DUP2 PUSH2 0x28D2 JUMP JUMPDEST SWAP1 POP SWAP2 SWAP1 POP JUMP JUMPDEST PUSH32 0x496E73756666696369656E74206C697175696469747920696E20636F6E747261 PUSH0 DUP3 ADD MSTORE PUSH32 0x6374000000000000000000000000000000000000000000000000000000000000 PUSH1 0x20 DUP3 ADD MSTORE POP JUMP JUMPDEST PUSH0 PUSH2 0x296C PUSH1 0x22 DUP4 PUSH2 0x228C JUMP JUMPDEST SWAP2 POP PUSH2 0x2977 DUP3 PUSH2 0x2912 JUMP JUMPDEST PUSH1 0x40 DUP3 ADD SWAP1 POP SWAP2 SWAP1 POP JUMP JUMPDEST PUSH0 PUSH1 0x20 DUP3 ADD SWAP1 POP DUP2 DUP2 SUB PUSH0 DUP4 ADD MSTORE PUSH2 0x2999 DUP2 PUSH2 0x2960 JUMP JUMPDEST SWAP1 POP SWAP2 SWAP1 POP JUMP INVALID LOG2 PUSH5 0x6970667358 0x22 SLT KECCAK256 0x23 CALLVALUE 0x4B 0x2D SMOD 0xF8 0xD9 0xBD SHR BLOCKHASH 0xA6 0xD6 0xC4 CODESIZE 0xB8 0x23 PUSH31 0xF2183FE5D90CCDA09BAAB0DE4777DB64736F6C634300081A00330000000000 "
				},
				"gasEstimates": {
					"creation": {
						"codeDepositCost": "2142000",
						"executionCost": "2278",
						"totalCost": "2144278"
					},
					"external": {
						"addCollateral()": "infinite",
						"borrow(uint256)": "infinite",
						"getAccountInfo(address)": "infinite",
						"getProtocolStatus()": "infinite",
						"liquidate(address)": "infinite",
						"removeCollateral(uint256)": "infinite",
						"repay()": "infinite",
						"supply()": "infinite",
						"withdraw(uint256)": "infinite"
					},
					"internal": {
						"canLiquidate(address)": "infinite",
						"updateInterest(address)": "infinite"
					}
				},
				"methodIdentifiers": {
					"addCollateral()": "9e816999",
					"borrow(uint256)": "c5ebeaec",
					"getAccountInfo(address)": "7b510fe8",
					"getProtocolStatus()": "5fd7f162",
					"liquidate(address)": "2f865568",
					"removeCollateral(uint256)": "3237c158",
					"repay()": "402d8883",
					"supply()": "047fc9aa",
					"withdraw(uint256)": "2e1a7d4d"
				}
			},
			"storageLayout": {
				"storage": [
					{
						"astId": 2511,
						"contract": "LendingContract.sol:LendingContract",
						"label": "supplyBalances",
						"offset": 0,
						"slot": "0",
						"type": "t_mapping(t_address,t_uint256)"
					},
					{
						"astId": 2515,
						"contract": "LendingContract.sol:LendingContract",
						"label": "borrowBalances",
						"offset": 0,
						"slot": "1",
						"type": "t_mapping(t_address,t_uint256)"
					},
					{
						"astId": 2519,
						"contract": "LendingContract.sol:LendingContract",
						"label": "collateralAmounts",
						"offset": 0,
						"slot": "2",
						"type": "t_mapping(t_address,t_uint256)"
					},
					{
						"astId": 2523,
						"contract": "LendingContract.sol:LendingContract",
						"label": "lastInterestUpdateTimeStamp",
						"offset": 0,
						"slot": "3",
						"type": "t_mapping(t_address,t_uint256)"
					},
					{
						"astId": 2534,
						"contract": "LendingContract.sol:LendingContract",
						"label": "totalSupplied",
						"offset": 0,
						"slot": "4",
						"type": "t_uint256"
					},
					{
						"astId": 2536,
						"contract": "LendingContract.sol:LendingContract",
						"label": "totalBorrowed",
						"offset": 0,
						"slot": "5",
						"type": "t_uint256"
					}
				],
				"types": {
					"t_address": {
						"encoding": "inplace",
						"label": "address",
						"numberOfBytes": "20"
					},
					"t_mapping(t_address,t_uint256)": {
						"encoding": "mapping",
						"key": "t_address",
						"label": "mapping(address => uint256)",
						"numberOfBytes": "32",
						"value": "t_uint256"
					},
					"t_uint256": {
						"encoding": "inplace",
						"label": "uint256",
						"numberOfBytes": "32"
					}
				}
			},
			"userdoc": {
				"errors": {
					"PRBMathUD60x18__Exp2InputTooBig(uint256)": [
						{
							"notice": "Emitted when the input is greater than 192."
						}
					],
					"PRBMathUD60x18__LogInputTooSmall(uint256)": [
						{
							"notice": "Emitted when the input is less than 1."
						}
					],
					"PRBMath__MulDivFixedPointOverflow(uint256)": [
						{
							"notice": "Emitted when the result overflows uint256."
						}
					]
				},
				"kind": "user",
				"methods": {},
				"version": 1
			}
		}
	}
}