{
	"data": {
		"bytecode": {
			"linkReferences": {},
			"object": "6080604052348015600e575f80fd5b506129d68061001c5f395ff3fe608060405260043610610085575f3560e01c8063402d888311610058578063402d88831461010b5780635fd7f162146101155780637b510fe8146101425780639e81699914610181578063c5ebeaec1461018b57610085565b8063047fc9aa146100895780632e1a7d4d146100935780632f865568146100bb5780633237c158146100e3575b5f80fd5b6100916101b3565b005b34801561009e575f80fd5b506100b960048036038101906100b4919061218a565b6102b8565b005b3480156100c6575f80fd5b506100e160048036038101906100dc919061220f565b610500565b005b3480156100ee575f80fd5b506101096004803603810190610104919061218a565b610706565b005b6101136109a0565b005b348015610120575f80fd5b50610129610b8b565b6040516101399493929190612249565b60405180910390f35b34801561014d575f80fd5b506101686004803603810190610163919061220f565b610bd4565b6040516101789493929190612249565b60405180910390f35b610189610cbb565b005b348015610196575f80fd5b506101b160048036038101906101ac919061218a565b610da0565b005b5f34116101f5576040517f08c379a00000000000000000000000000000000000000000000000000000000081526004016101ec906122e6565b60405180910390fd5b6101fe33610fde565b3460045f82825461020f9190612331565b92505081905550345f803373ffffffffffffffffffffffffffffffffffffffff1673ffffffffffffffffffffffffffffffffffffffff1681526020019081526020015f205f8282546102619190612331565b925050819055503373ffffffffffffffffffffffffffffffffffffffff167f6473c9f7da8f23a3d810f05b3e8fb3945f0ad17deadcc09e302cdf5d58e48fe7346040516102ae9190612364565b60405180910390a2565b5f805f3373ffffffffffffffffffffffffffffffffffffffff1673ffffffffffffffffffffffffffffffffffffffff1681526020019081526020015f205411610336576040517f08c379a000000000000000000000000000000000000000000000000000000000815260040161032d906123c7565b60405180910390fd5b61033f33610fde565b805f803373ffffffffffffffffffffffffffffffffffffffff1673ffffffffffffffffffffffffffffffffffffffff1681526020019081526020015f205410156103be576040517f08c379a00000000000000000000000000000000000000000000000000000000081526004016103b59061242f565b60405180910390fd5b80471015610401576040517f08c379a00000000000000000000000000000000000000000000000000000000081526004016103f890612497565b60405180910390fd5b805f803373ffffffffffffffffffffffffffffffffffffffff1673ffffffffffffffffffffffffffffffffffffffff1681526020019081526020015f205f82825461044c91906124b5565b925050819055508060045f82825461046491906124b5565b925050819055503373ffffffffffffffffffffffffffffffffffffffff166108fc8290811502906040515f60405180830381858888f193505050501580156104ae573d5f803e3d5ffd5b503373ffffffffffffffffffffffffffffffffffffffff167f7084f5476618d8e60b11ef0d7d3f06914655adb8793e28ff7f018d4c76d505d5826040516104f59190612364565b60405180910390a250565b610509816113f2565b610548576040517f08c379a000000000000000000000000000000000000000000000000000000000815260040161053f90612532565b60405180910390fd5b61055181610fde565b5f60015f8373ffffffffffffffffffffffffffffffffffffffff1673ffffffffffffffffffffffffffffffffffffffff1681526020019081526020015f205490505f60025f8473ffffffffffffffffffffffffffffffffffffffff1673ffffffffffffffffffffffffffffffffffffffff1681526020019081526020015f205490505f60015f8573ffffffffffffffffffffffffffffffffffffffff1673ffffffffffffffffffffffffffffffffffffffff1681526020019081526020015f20819055505f60025f8573ffffffffffffffffffffffffffffffffffffffff1673ffffffffffffffffffffffffffffffffffffffff1681526020019081526020015f20819055508160055f82825461066891906124b5565b925050819055508273ffffffffffffffffffffffffffffffffffffffff166108fc8290811502906040515f60405180830381858888f193505050501580156106b2573d5f803e3d5ffd5b508273ffffffffffffffffffffffffffffffffffffffff167fff09e04a5a43921171a2fe9933986fc6d31b14e40cad3a5828d17f85118f2f21826040516106f99190612364565b60405180910390a2505050565b5f8111610748576040517f08c379a000000000000000000000000000000000000000000000000000000000815260040161073f9061259a565b60405180910390fd5b8060025f3373ffffffffffffffffffffffffffffffffffffffff1673ffffffffffffffffffffffffffffffffffffffff1681526020019081526020015f205410156107c8576040517f08c379a00000000000000000000000000000000000000000000000000000000081526004016107bf90612602565b60405180910390fd5b6107d133610fde565b5f612710613a9860015f3373ffffffffffffffffffffffffffffffffffffffff1673ffffffffffffffffffffffffffffffffffffffff1681526020019081526020015f20546108209190612620565b61082a919061268e565b9050808260025f3373ffffffffffffffffffffffffffffffffffffffff1673ffffffffffffffffffffffffffffffffffffffff1681526020019081526020015f205461087691906124b5565b10156108b7576040517f08c379a00000000000000000000000000000000000000000000000000000000081526004016108ae9061272e565b60405180910390fd5b8160025f3373ffffffffffffffffffffffffffffffffffffffff1673ffffffffffffffffffffffffffffffffffffffff1681526020019081526020015f205f82825461090391906124b5565b925050819055503373ffffffffffffffffffffffffffffffffffffffff166108fc8390811502906040515f60405180830381858888f1935050505015801561094d573d5f803e3d5ffd5b503373ffffffffffffffffffffffffffffffffffffffff167f12c7466676da8453fdc8fb091f1a24d31919043a79a50ebe022867a5f5c1ed34836040516109949190612364565b60405180910390a25050565b5f34116109e2576040517f08c379a00000000000000000000000000000000000000000000000000000000081526004016109d990612796565b60405180910390fd5b6109eb33610fde565b60015f3373ffffffffffffffffffffffffffffffffffffffff1673ffffffffffffffffffffffffffffffffffffffff1681526020019081526020015f2054341115610ad0575f60015f3373ffffffffffffffffffffffffffffffffffffffff1673ffffffffffffffffffffffffffffffffffffffff1681526020019081526020015f205490505f8134610a7e91906124b5565b90505f811115610acd573373ffffffffffffffffffffffffffffffffffffffff166108fc8290811502906040515f60405180830381858888f19350505050158015610acb573d5f803e3d5ffd5b505b50505b3460015f3373ffffffffffffffffffffffffffffffffffffffff1673ffffffffffffffffffffffffffffffffffffffff1681526020019081526020015f205f828254610b1c91906124b5565b925050819055503460055f828254610b3491906124b5565b925050819055503373ffffffffffffffffffffffffffffffffffffffff167f0516911bcc3a0a7412a44601057c0a0a1ec628bde049a84284bc42886653448834604051610b819190612364565b60405180910390a2565b5f805f8060055447610b9d91906124b5565b91505f60045411610bae575f610bcc565b600454612710600554610bc19190612620565b610bcb919061268e565b5b905090919293565b5f805f805f808673ffffffffffffffffffffffffffffffffffffffff1673ffffffffffffffffffffffffffffffffffffffff1681526020019081526020015f2054935060015f8673ffffffffffffffffffffffffffffffffffffffff1673ffffffffffffffffffffffffffffffffffffffff1681526020019081526020015f2054925060025f8673ffffffffffffffffffffffffffffffffffffffff1673ffffffffffffffffffffffffffffffffffffffff1681526020019081526020015f20549150613a9861271083610ca89190612620565b610cb2919061268e565b90509193509193565b5f3411610cfd576040517f08c379a0000000000000000000000000000000000000000000000000000000008152600401610cf4906127fe565b60405180910390fd5b3460025f3373ffffffffffffffffffffffffffffffffffffffff1673ffffffffffffffffffffffffffffffffffffffff1681526020019081526020015f205f828254610d499190612331565b925050819055503373ffffffffffffffffffffffffffffffffffffffff167f7dba1be544024070cd5eebfa8bdd80a8b198cea8058c7d3cc1f8dd36e41ab2f734604051610d969190612364565b60405180910390a2565b5f8111610de2576040517f08c379a0000000000000000000000000000000000000000000000000000000008152600401610dd990612866565b60405180910390fd5b610deb33610fde565b5f613a9861271060025f3373ffffffffffffffffffffffffffffffffffffffff1673ffffffffffffffffffffffffffffffffffffffff1681526020019081526020015f2054610e3a9190612620565b610e44919061268e565b9050808260015f3373ffffffffffffffffffffffffffffffffffffffff1673ffffffffffffffffffffffffffffffffffffffff1681526020019081526020015f2054610e909190612331565b1115610ed1576040517f08c379a0000000000000000000000000000000000000000000000000000000008152600401610ec8906128f4565b60405180910390fd5b8160055447610ee091906124b5565b1015610f21576040517f08c379a0000000000000000000000000000000000000000000000000000000008152600401610f1890612982565b60405180910390fd5b8160015f3373ffffffffffffffffffffffffffffffffffffffff1673ffffffffffffffffffffffffffffffffffffffff1681526020019081526020015f205f828254610f6d9190612331565b925050819055508160055f828254610f859190612331565b925050819055503373ffffffffffffffffffffffffffffffffffffffff167fac59582e5396aca512fa873a2047e7f4c80f8f55d4a06cb34a78a0187f62719f83604051610fd29190612364565b60405180910390a25050565b5f60035f8373ffffffffffffffffffffffffffffffffffffffff1673ffffffffffffffffffffffffffffffffffffffff1681526020019081526020015f205490505f810361106e574260035f8473ffffffffffffffffffffffffffffffffffffffff1673ffffffffffffffffffffffffffffffffffffffff1681526020019081526020015f2081905550506113ef565b5f814261107b91906124b5565b90505f6276a7008261108d919061268e565b90505f8111156113a9575f60015f8673ffffffffffffffffffffffffffffffffffffffff1673ffffffffffffffffffffffffffffffffffffffff1681526020019081526020015f20541115611222575f619c40670de0b6b3a76400006101f46110f69190612620565b611100919061268e565b90505f61113061112b61112584670de0b6b3a76400006111209190612331565b6114e3565b85611516565b611529565b90505f61117a60015f8973ffffffffffffffffffffffffffffffffffffffff1673ffffffffffffffffffffffffffffffffffffffff1681526020019081526020015f205483611516565b905060015f8873ffffffffffffffffffffffffffffffffffffffff1673ffffffffffffffffffffffffffffffffffffffff1681526020019081526020015f2054816111c591906124b5565b60055f8282546111d59190612331565b925050819055508060015f8973ffffffffffffffffffffffffffffffffffffffff1673ffffffffffffffffffffffffffffffffffffffff1681526020019081526020015f20819055505050505b5f805f8673ffffffffffffffffffffffffffffffffffffffff1673ffffffffffffffffffffffffffffffffffffffff1681526020019081526020015f205411156113a8575f619c40670de0b6b3a764000060c861127f9190612620565b611289919061268e565b90505f6112b96112b46112ae84670de0b6b3a76400006112a99190612331565b6114e3565b85611516565b611529565b90505f6113025f808973ffffffffffffffffffffffffffffffffffffffff1673ffffffffffffffffffffffffffffffffffffffff1681526020019081526020015f205483611516565b90505f808873ffffffffffffffffffffffffffffffffffffffff1673ffffffffffffffffffffffffffffffffffffffff1681526020019081526020015f20548161134c91906124b5565b60045f82825461135c9190612331565b92505081905550805f808973ffffffffffffffffffffffffffffffffffffffff1673ffffffffffffffffffffffffffffffffffffffff1681526020019081526020015f20819055505050505b5b4260035f8673ffffffffffffffffffffffffffffffffffffffff1673ffffffffffffffffffffffffffffffffffffffff1681526020019081526020015f20819055505050505b50565b5f8060015f8473ffffffffffffffffffffffffffffffffffffffff1673ffffffffffffffffffffffffffffffffffffffff1681526020019081526020015f20540361143f575f90506114de565b5f612710613a9860015f8673ffffffffffffffffffffffffffffffffffffffff1673ffffffffffffffffffffffffffffffffffffffff1681526020019081526020015f205461148e9190612620565b611498919061268e565b90508060025f8573ffffffffffffffffffffffffffffffffffffffff1673ffffffffffffffffffffffffffffffffffffffff1681526020019081526020015f2054109150505b919050565b5f6714057b7ef767814f670de0b6b3a76400006114ff846115a8565b028161150e5761150d612661565b5b049050919050565b5f61152183836116aa565b905092915050565b5f680a688906bd8b000000821061157757816040517f4a4f26f100000000000000000000000000000000000000000000000000000000815260040161156e9190612364565b60405180910390fd5b5f670de0b6b3a7640000604084901b8161159457611593612661565b5b0490506115a0816117a2565b915050919050565b5f670de0b6b3a76400008210156115f657816040517fd88504dc0000000000000000000000000000000000000000000000000000000081526004016115ed9190612364565b60405180910390fd5b5f611618670de0b6b3a7640000848161161257611611612661565b5b0461203d565b9050670de0b6b3a7640000810291505f8184901c9050670de0b6b3a764000081036116445750506116a5565b5f6706f05b59d3b2000090505b5f8111156116a157670de0b6b3a76400008283028161167357611672612661565b5b049150670de0b6b3a76400006002028210611695578084019350600182901c91505b600181901c9050611651565b5050505b919050565b5f805f8019848609848602925082811083820303915050670de0b6b3a7640000811061170d57806040517fd31b34020000000000000000000000000000000000000000000000000000000081526004016117049190612364565b60405180910390fd5b5f80670de0b6b3a764000086880991506706f05b59d3b1ffff821190505f83036117575780670de0b6b3a7640000858161174a57611749612661565b5b040194505050505061179c565b807faccb18165bd6fe31ae1cf318dc5b51eee0e1ba569b88cd74c1773b91fac10669600162040000805f03040186851186030262040000858803041702019450505050505b92915050565b5f7780000000000000000000000000000000000000000000000090505f678000000000000000831611156117e357604068016a09e667f3bcc9098202901c90505b5f674000000000000000831611156118085760406801306fe0a31b7152df8202901c90505b5f6720000000000000008316111561182d5760406801172b83c7d517adce8202901c90505b5f6710000000000000008316111561185257604068010b5586cf9890f62a8202901c90505b5f670800000000000000831611156118775760406801059b0d31585743ae8202901c90505b5f6704000000000000008316111561189c576040680102c9a3e778060ee78202901c90505b5f670200000000000000831611156118c157604068010163da9fb33356d88202901c90505b5f670100000000000000831611156118e6576040680100b1afa5abcbed618202901c90505b5f66800000000000008316111561190a57604068010058c86da1c09ea28202901c90505b5f66400000000000008316111561192e5760406801002c605e2e8cec508202901c90505b5f662000000000000083161115611952576040680100162f3904051fa18202901c90505b5f6610000000000000831611156119765760406801000b175effdc76ba8202901c90505b5f66080000000000008316111561199a576040680100058ba01fb9f96d8202901c90505b5f6604000000000000831611156119be57604068010002c5cc37da94928202901c90505b5f6602000000000000831611156119e25760406801000162e525ee05478202901c90505b5f660100000000000083161115611a0657604068010000b17255775c048202901c90505b5f6580000000000083161115611a295760406801000058b91b5bc9ae8202901c90505b5f6540000000000083161115611a4c576040680100002c5c89d5ec6d8202901c90505b5f6520000000000083161115611a6f57604068010000162e43f4f8318202901c90505b5f6510000000000083161115611a92576040680100000b1721bcfc9a8202901c90505b5f6508000000000083161115611ab557604068010000058b90cf1e6e8202901c90505b5f6504000000000083161115611ad85760406801000002c5c863b73f8202901c90505b5f6502000000000083161115611afb576040680100000162e430e5a28202901c90505b5f6501000000000083161115611b1e5760406801000000b1721835518202901c90505b5f64800000000083161115611b40576040680100000058b90c0b498202901c90505b5f64400000000083161115611b6257604068010000002c5c8601cc8202901c90505b5f64200000000083161115611b845760406801000000162e42fff08202901c90505b5f64100000000083161115611ba657604068010000000b17217fbb8202901c90505b5f64080000000083161115611bc85760406801000000058b90bfce8202901c90505b5f64040000000083161115611bea576040680100000002c5c85fe38202901c90505b5f64020000000083161115611c0c57604068010000000162e42ff18202901c90505b5f64010000000083161115611c2e576040680100000000b17217f88202901c90505b5f638000000083161115611c4f57604068010000000058b90bfc8202901c90505b5f634000000083161115611c705760406801000000002c5c85fe8202901c90505b5f632000000083161115611c91576040680100000000162e42ff8202901c90505b5f631000000083161115611cb25760406801000000000b17217f8202901c90505b5f630800000083161115611cd3576040680100000000058b90c08202901c90505b5f630400000083161115611cf457604068010000000002c5c8608202901c90505b5f630200000083161115611d155760406801000000000162e4308202901c90505b5f630100000083161115611d3657604068010000000000b172188202901c90505b5f6280000083161115611d565760406801000000000058b90c8202901c90505b5f6240000083161115611d76576040680100000000002c5c868202901c90505b5f6220000083161115611d9657604068010000000000162e438202901c90505b5f6210000083161115611db6576040680100000000000b17218202901c90505b5f6208000083161115611dd657604068010000000000058b918202901c90505b5f6204000083161115611df65760406801000000000002c5c88202901c90505b5f6202000083161115611e16576040680100000000000162e48202901c90505b5f6201000083161115611e365760406801000000000000b1728202901c90505b5f61800083161115611e55576040680100000000000058b98202901c90505b5f61400083161115611e7457604068010000000000002c5d8202901c90505b5f61200083161115611e935760406801000000000000162e8202901c90505b5f61100083161115611eb257604068010000000000000b178202901c90505b5f61080083161115611ed15760406801000000000000058c8202901c90505b5f61040083161115611ef0576040680100000000000002c68202901c90505b5f61020083161115611f0f576040680100000000000001638202901c90505b5f61010083161115611f2e576040680100000000000000b18202901c90505b5f608083161115611f4c576040680100000000000000598202901c90505b5f604083161115611f6a5760406801000000000000002c8202901c90505b5f602083161115611f88576040680100000000000000168202901c90505b5f601083161115611fa65760406801000000000000000b8202901c90505b5f600883161115611fc4576040680100000000000000068202901c90505b5f600483161115611fe2576040680100000000000000038202901c90505b5f600283161115612000576040680100000000000000018202901c90505b5f60018316111561201e576040680100000000000000018202901c90505b670de0b6b3a764000081029050604082901c60bf0381901c9050919050565b5f700100000000000000000000000000000000821061206d57608082901c915060808161206a9190612331565b90505b68010000000000000000821061209457604082901c91506040816120919190612331565b90505b64010000000082106120b757602082901c91506020816120b49190612331565b90505b6201000082106120d857601082901c91506010816120d59190612331565b90505b61010082106120f857600882901c91506008816120f59190612331565b90505b6010821061211757600482901c91506004816121149190612331565b90505b6004821061213657600282901c91506002816121339190612331565b90505b6002821061214e5760018161214b9190612331565b90505b919050565b5f80fd5b5f819050919050565b61216981612157565b8114612173575f80fd5b50565b5f8135905061218481612160565b92915050565b5f6020828403121561219f5761219e612153565b5b5f6121ac84828501612176565b91505092915050565b5f73ffffffffffffffffffffffffffffffffffffffff82169050919050565b5f6121de826121b5565b9050919050565b6121ee816121d4565b81146121f8575f80fd5b50565b5f81359050612209816121e5565b92915050565b5f6020828403121561222457612223612153565b5b5f612231848285016121fb565b91505092915050565b61224381612157565b82525050565b5f60808201905061225c5f83018761223a565b612269602083018661223a565b612276604083018561223a565b612283606083018461223a565b95945050505050565b5f82825260208201905092915050565b7f4d75737420737570706c79206174206c65617374203120746f6b656e000000005f82015250565b5f6122d0601c8361228c565b91506122db8261229c565b602082019050919050565b5f6020820190508181035f8301526122fd816122c4565b9050919050565b7f4e487b71000000000000000000000000000000000000000000000000000000005f52601160045260245ffd5b5f61233b82612157565b915061234683612157565b925082820190508082111561235e5761235d612304565b5b92915050565b5f6020820190506123775f83018461223a565b92915050565b7f4e6f20746f6b656e20746f2077697468647261770000000000000000000000005f82015250565b5f6123b160148361228c565b91506123bc8261237d565b602082019050919050565b5f6020820190508181035f8301526123de816123a5565b9050919050565b7f496e73756666696369656e7420737570706c792062616c616e636500000000005f82015250565b5f612419601b8361228c565b9150612424826123e5565b602082019050919050565b5f6020820190508181035f8301526124468161240d565b9050919050565b7f496e73756666696369656e742062616c616e636520696e20706f6f6c000000005f82015250565b5f612481601c8361228c565b915061248c8261244d565b602082019050919050565b5f6020820190508181035f8301526124ae81612475565b9050919050565b5f6124bf82612157565b91506124ca83612157565b92508282039050818111156124e2576124e1612304565b5b92915050565b7f426f72726f7765722063616e6e6f74206265206c6971756964617465640000005f82015250565b5f61251c601d8361228c565b9150612527826124e8565b602082019050919050565b5f6020820190508181035f83015261254981612510565b9050919050565b7f43616e6e6f742072656d6f7665203020636f6c6c61746572616c0000000000005f82015250565b5f612584601a8361228c565b915061258f82612550565b602082019050919050565b5f6020820190508181035f8301526125b181612578565b9050919050565b7f496e73756666696369656e7420436f6c6c61746572616c0000000000000000005f82015250565b5f6125ec60178361228c565b91506125f7826125b8565b602082019050919050565b5f6020820190508181035f830152612619816125e0565b9050919050565b5f61262a82612157565b915061263583612157565b925082820261264381612157565b9150828204841483151761265a57612659612304565b5b5092915050565b7f4e487b71000000000000000000000000000000000000000000000000000000005f52601260045260245ffd5b5f61269882612157565b91506126a383612157565b9250826126b3576126b2612661565b5b828204905092915050565b7f436f6c6c61746572616c2072656d6f76616c20776f756c642076696f6c6174655f8201527f20746865206c656e64696e672070726f746f636f6c0000000000000000000000602082015250565b5f61271860358361228c565b9150612723826126be565b604082019050919050565b5f6020820190508181035f8301526127458161270c565b9050919050565b7f43616e6e6f74207265706179203020616d6f756e7400000000000000000000005f82015250565b5f61278060158361228c565b915061278b8261274c565b602082019050919050565b5f6020820190508181035f8301526127ad81612774565b9050919050565b7f43616e6e6f7420616464203020636f6c6c61746572616c0000000000000000005f82015250565b5f6127e860178361228c565b91506127f3826127b4565b602082019050919050565b5f6020820190508181035f830152612815816127dc565b9050919050565b7f43616e6e6f7420626f72726f77203020616d6f756e74000000000000000000005f82015250565b5f61285060168361228c565b915061285b8261281c565b602082019050919050565b5f6020820190508181035f83015261287d81612844565b9050919050565b7f426f72726f7720616d6f756e74206578636565647320636f6c6c61746572616c5f8201527f20726174696f0000000000000000000000000000000000000000000000000000602082015250565b5f6128de60268361228c565b91506128e982612884565b604082019050919050565b5f6020820190508181035f83015261290b816128d2565b9050919050565b7f496e73756666696369656e74206c697175696469747920696e20636f6e7472615f8201527f6374000000000000000000000000000000000000000000000000000000000000602082015250565b5f61296c60228361228c565b915061297782612912565b604082019050919050565b5f6020820190508181035f83015261299981612960565b905091905056fea264697066735822122023344b2d07f8d9bd1c40a6d6c438b8237ef2183fe5d90ccda09baab0de4777db64736f6c634300081a0033",
			"opcodes": "PUSH1 0x80 PUSH1 0x40 MSTORE CALLVALUE DUP1 ISZERO PUSH1 0xE JUMPI PUSH0 DUP1 REVERT JUMPDEST POP PUSH2 0x29D6 DUP1 PUSH2 0x1C PUSH0 CODECOPY PUSH0 RETURN INVALID PUSH1 0x80 PUSH1 0x40 MSTORE PUSH1 0x4 CALLDATASIZE LT PUSH2 0x85 JUMPI PUSH0 CALLDATALOAD PUSH1 0xE0 SHR DUP1 PUSH4 0x402D8883 GT PUSH2 0x58 JUMPI DUP1 PUSH4 0x402D8883 EQ PUSH2 0x10B JUMPI DUP1 PUSH4 0x5FD7F162 EQ PUSH2 0x115 JUMPI DUP1 PUSH4 0x7B510FE8 EQ PUSH2 0x142 JUMPI DUP1 PUSH4 0x9E816999 EQ PUSH2 0x181 JUMPI DUP1 PUSH4 0xC5EBEAEC EQ PUSH2 0x18B JUMPI PUSH2 0x85 JUMP JUMPDEST DUP1 PUSH4 0x47FC9AA EQ PUSH2 0x89 JUMPI DUP1 PUSH4 0x2E1A7D4D EQ PUSH2 0x93 JUMPI DUP1 PUSH4 0x2F865568 EQ PUSH2 0xBB JUMPI DUP1 PUSH4 0x3237C158 EQ PUSH2 0xE3 JUMPI JUMPDEST PUSH0 DUP1 REVERT JUMPDEST PUSH2 0x91 PUSH2 0x1B3 JUMP JUMPDEST STOP JUMPDEST CALLVALUE DUP1 ISZERO PUSH2 0x9E JUMPI PUSH0 DUP1 REVERT JUMPDEST POP PUSH2 0xB9 PUSH1 0x4 DUP1 CALLDATASIZE SUB DUP2 ADD SWAP1 PUSH2 0xB4 SWAP2 SWAP1 PUSH2 0x218A JUMP JUMPDEST PUSH2 0x2B8 JUMP JUMPDEST STOP JUMPDEST CALLVALUE DUP1 ISZERO PUSH2 0xC6 JUMPI PUSH0 DUP1 REVERT JUMPDEST POP PUSH2 0xE1 PUSH1 0x4 DUP1 CALLDATASIZE SUB DUP2 ADD SWAP1 PUSH2 0xDC SWAP2 SWAP1 PUSH2 0x220F JUMP JUMPDEST PUSH2 0x500 JUMP JUMPDEST STOP JUMPDEST CALLVALUE DUP1 ISZERO PUSH2 0xEE JUMPI PUSH0 DUP1 REVERT JUMPDEST POP PUSH2 0x109 PUSH1 0x4 DUP1 CALLDATASIZE SUB DUP2 ADD SWAP1 PUSH2 0x104 SWAP2 SWAP1 PUSH2 0x218A JUMP JUMPDEST PUSH2 0x706 JUMP JUMPDEST STOP JUMPDEST PUSH2 0x113 PUSH2 0x9A0 JUMP JUMPDEST STOP JUMPDEST CALLVALUE DUP1 ISZERO PUSH2 0x120 JUMPI PUSH0 DUP1 REVERT JUMPDEST POP PUSH2 0x129 PUSH2 0xB8B JUMP JUMPDEST PUSH1 0x40 MLOAD PUSH2 0x139 SWAP5 SWAP4 SWAP3 SWAP2 SWAP1 PUSH2 0x2249 JUMP JUMPDEST PUSH1 0x40 MLOAD DUP1 SWAP2 SUB SWAP1 RETURN JUMPDEST CALLVALUE DUP1 ISZERO PUSH2 0x14D JUMPI PUSH0 DUP1 REVERT JUMPDEST POP PUSH2 0x168 PUSH1 0x4 DUP1 CALLDATASIZE SUB DUP2 ADD SWAP1 PUSH2 0x163 SWAP2 SWAP1 PUSH2 0x220F JUMP JUMPDEST PUSH2 0xBD4 JUMP JUMPDEST PUSH1 0x40 MLOAD PUSH2 0x178 SWAP5 SWAP4 SWAP3 SWAP2 SWAP1 PUSH2 0x2249 JUMP JUMPDEST PUSH1 0x40 MLOAD DUP1 SWAP2 SUB SWAP1 RETURN JUMPDEST PUSH2 0x189 PUSH2 0xCBB JUMP JUMPDEST STOP JUMPDEST CALLVALUE DUP1 ISZERO PUSH2 0x196 JUMPI PUSH0 DUP1 REVERT JUMPDEST POP PUSH2 0x1B1 PUSH1 0x4 DUP1 CALLDATASIZE SUB DUP2 ADD SWAP1 PUSH2 0x1AC SWAP2 SWAP1 PUSH2 0x218A JUMP JUMPDEST PUSH2 0xDA0 JUMP JUMPDEST STOP JUMPDEST PUSH0 CALLVALUE GT PUSH2 0x1F5 JUMPI PUSH1 0x40 MLOAD PUSH32 0x8C379A000000000000000000000000000000000000000000000000000000000 DUP2 MSTORE PUSH1 0x4 ADD PUSH2 0x1EC SWAP1 PUSH2 0x22E6 JUMP JUMPDEST PUSH1 0x40 MLOAD DUP1 SWAP2 SUB SWAP1 REVERT JUMPDEST PUSH2 0x1FE CALLER PUSH2 0xFDE JUMP JUMPDEST CALLVALUE PUSH1 0x4 PUSH0 DUP3 DUP3 SLOAD PUSH2 0x20F SWAP2 SWAP1 PUSH2 0x2331 JUMP JUMPDEST SWAP3 POP POP DUP2 SWAP1 SSTORE POP CALLVALUE PUSH0 DUP1 CALLER PUSH20 0xFFFFFFFFFFFFFFFFFFFFFFFFFFFFFFFFFFFFFFFF AND PUSH20 0xFFFFFFFFFFFFFFFFFFFFFFFFFFFFFFFFFFFFFFFF AND DUP2 MSTORE PUSH1 0x20 ADD SWAP1 DUP2 MSTORE PUSH1 0x20 ADD PUSH0 KECCAK256 PUSH0 DUP3 DUP3 SLOAD PUSH2 0x261 SWAP2 SWAP1 PUSH2 0x2331 JUMP JUMPDEST SWAP3 POP POP DUP2 SWAP1 SSTORE POP CALLER PUSH20 0xFFFFFFFFFFFFFFFFFFFFFFFFFFFFFFFFFFFFFFFF AND PUSH32 0x6473C9F7DA8F23A3D810F05B3E8FB3945F0AD17DEADCC09E302CDF5D58E48FE7 CALLVALUE PUSH1 0x40 MLOAD PUSH2 0x2AE SWAP2 SWAP1 PUSH2 0x2364 JUMP JUMPDEST PUSH1 0x40 MLOAD DUP1 SWAP2 SUB SWAP1 LOG2 JUMP JUMPDEST PUSH0 DUP1 PUSH0 CALLER PUSH20 0xFFFFFFFFFFFFFFFFFFFFFFFFFFFFFFFFFFFFFFFF AND PUSH20 0xFFFFFFFFFFFFFFFFFFFFFFFFFFFFFFFFFFFFFFFF AND DUP2 MSTORE PUSH1 0x20 ADD SWAP1 DUP2 MSTORE PUSH1 0x20 ADD PUSH0 KECCAK256 SLOAD GT PUSH2 0x336 JUMPI PUSH1 0x40 MLOAD PUSH32 0x8C379A000000000000000000000000000000000000000000000000000000000 DUP2 MSTORE PUSH1 0x4 ADD PUSH2 0x32D SWAP1 PUSH2 0x23C7 JUMP JUMPDEST PUSH1 0x40 MLOAD DUP1 SWAP2 SUB SWAP1 REVERT JUMPDEST PUSH2 0x33F CALLER PUSH2 0xFDE JUMP JUMPDEST DUP1 PUSH0 DUP1 CALLER PUSH20 0xFFFFFFFFFFFFFFFFFFFFFFFFFFFFFFFFFFFFFFFF AND PUSH20 0xFFFFFFFFFFFFFFFFFFFFFFFFFFFFFFFFFFFFFFFF AND DUP2 MSTORE PUSH1 0x20 ADD SWAP1 DUP2 MSTORE PUSH1 0x20 ADD PUSH0 KECCAK256 SLOAD LT ISZERO PUSH2 0x3BE JUMPI PUSH1 0x40 MLOAD PUSH32 0x8C379A000000000000000000000000000000000000000000000000000000000 DUP2 MSTORE PUSH1 0x4 ADD PUSH2 0x3B5 SWAP1 PUSH2 0x242F JUMP JUMPDEST PUSH1 0x40 MLOAD DUP1 SWAP2 SUB SWAP1 REVERT JUMPDEST DUP1 SELFBALANCE LT ISZERO PUSH2 0x401 JUMPI PUSH1 0x40 MLOAD PUSH32 0x8C379A000000000000000000000000000000000000000000000000000000000 DUP2 MSTORE PUSH1 0x4 ADD PUSH2 0x3F8 SWAP1 PUSH2 0x2497 JUMP JUMPDEST PUSH1 0x40 MLOAD DUP1 SWAP2 SUB SWAP1 REVERT JUMPDEST DUP1 PUSH0 DUP1 CALLER PUSH20 0xFFFFFFFFFFFFFFFFFFFFFFFFFFFFFFFFFFFFFFFF AND PUSH20 0xFFFFFFFFFFFFFFFFFFFFFFFFFFFFFFFFFFFFFFFF AND DUP2 MSTORE PUSH1 0x20 ADD SWAP1 DUP2 MSTORE PUSH1 0x20 ADD PUSH0 KECCAK256 PUSH0 DUP3 DUP3 SLOAD PUSH2 0x44C SWAP2 SWAP1 PUSH2 0x24B5 JUMP JUMPDEST SWAP3 POP POP DUP2 SWAP1 SSTORE POP DUP1 PUSH1 0x4 PUSH0 DUP3 DUP3 SLOAD PUSH2 0x464 SWAP2 SWAP1 PUSH2 0x24B5 JUMP JUMPDEST SWAP3 POP POP DUP2 SWAP1 SSTORE POP CALLER PUSH20 0xFFFFFFFFFFFFFFFFFFFFFFFFFFFFFFFFFFFFFFFF AND PUSH2 0x8FC DUP3 SWAP1 DUP2 ISZERO MUL SWAP1 PUSH1 0x40 MLOAD PUSH0 PUSH1 0x40 MLOAD DUP1 DUP4 SUB DUP2 DUP6 DUP9 DUP9 CALL SWAP4 POP POP POP POP ISZERO DUP1 ISZERO PUSH2 0x4AE JUMPI RETURNDATASIZE PUSH0 DUP1 RETURNDATACOPY RETURNDATASIZE PUSH0 REVERT JUMPDEST POP CALLER PUSH20 0xFFFFFFFFFFFFFFFFFFFFFFFFFFFFFFFFFFFFFFFF AND PUSH32 0x7084F5476618D8E60B11EF0D7D3F06914655ADB8793E28FF7F018D4C76D505D5 DUP3 PUSH1 0x40 MLOAD PUSH2 0x4F5 SWAP2 SWAP1 PUSH2 0x2364 JUMP JUMPDEST PUSH1 0x40 MLOAD DUP1 SWAP2 SUB SWAP1 LOG2 POP JUMP JUMPDEST PUSH2 0x509 DUP2 PUSH2 0x13F2 JUMP JUMPDEST PUSH2 0x548 JUMPI PUSH1 0x40 MLOAD PUSH32 0x8C379A000000000000000000000000000000000000000000000000000000000 DUP2 MSTORE PUSH1 0x4 ADD PUSH2 0x53F SWAP1 PUSH2 0x2532 JUMP JUMPDEST PUSH1 0x40 MLOAD DUP1 SWAP2 SUB SWAP1 REVERT JUMPDEST PUSH2 0x551 DUP2 PUSH2 0xFDE JUMP JUMPDEST PUSH0 PUSH1 0x1 PUSH0 DUP4 PUSH20 0xFFFFFFFFFFFFFFFFFFFFFFFFFFFFFFFFFFFFFFFF AND PUSH20 0xFFFFFFFFFFFFFFFFFFFFFFFFFFFFFFFFFFFFFFFF AND DUP2 MSTORE PUSH1 0x20 ADD SWAP1 DUP2 MSTORE PUSH1 0x20 ADD PUSH0 KECCAK256 SLOAD SWAP1 POP PUSH0 PUSH1 0x2 PUSH0 DUP5 PUSH20 0xFFFFFFFFFFFFFFFFFFFFFFFFFFFFFFFFFFFFFFFF AND PUSH20 0xFFFFFFFFFFFFFFFFFFFFFFFFFFFFFFFFFFFFFFFF AND DUP2 MSTORE PUSH1 0x20 ADD SWAP1 DUP2 MSTORE PUSH1 0x20 ADD PUSH0 KECCAK256 SLOAD SWAP1 POP PUSH0 PUSH1 0x1 PUSH0 DUP6 PUSH20 0xFFFFFFFFFFFFFFFFFFFFFFFFFFFFFFFFFFFFFFFF AND PUSH20 0xFFFFFFFFFFFFFFFFFFFFFFFFFFFFFFFFFFFFFFFF AND DUP2 MSTORE PUSH1 0x20 ADD SWAP1 DUP2 MSTORE PUSH1 0x20 ADD PUSH0 KECCAK256 DUP2 SWAP1 SSTORE POP PUSH0 PUSH1 0x2 PUSH0 DUP6 PUSH20 0xFFFFFFFFFFFFFFFFFFFFFFFFFFFFFFFFFFFFFFFF AND PUSH20 0xFFFFFFFFFFFFFFFFFFFFFFFFFFFFFFFFFFFFFFFF AND DUP2 MSTORE PUSH1 0x20 ADD SWAP1 DUP2 MSTORE PUSH1 0x20 ADD PUSH0 KECCAK256 DUP2 SWAP1 SSTORE POP DUP2 PUSH1 0x5 PUSH0 DUP3 DUP3 SLOAD PUSH2 0x668 SWAP2 SWAP1 PUSH2 0x24B5 JUMP JUMPDEST SWAP3 POP POP DUP2 SWAP1 SSTORE POP DUP3 PUSH20 0xFFFFFFFFFFFFFFFFFFFFFFFFFFFFFFFFFFFFFFFF AND PUSH2 0x8FC DUP3 SWAP1 DUP2 ISZERO MUL SWAP1 PUSH1 0x40 MLOAD PUSH0 PUSH1 0x40 MLOAD DUP1 DUP4 SUB DUP2 DUP6 DUP9 DUP9 CALL SWAP4 POP POP POP POP ISZERO DUP1 ISZERO PUSH2 0x6B2 JUMPI RETURNDATASIZE PUSH0 DUP1 RETURNDATACOPY RETURNDATASIZE PUSH0 REVERT JUMPDEST POP DUP3 PUSH20 0xFFFFFFFFFFFFFFFFFFFFFFFFFFFFFFFFFFFFFFFF AND PUSH32 0xFF09E04A5A43921171A2FE9933986FC6D31B14E40CAD3A5828D17F85118F2F21 DUP3 PUSH1 0x40 MLOAD PUSH2 0x6F9 SWAP2 SWAP1 PUSH2 0x2364 JUMP JUMPDEST PUSH1 0x40 MLOAD DUP1 SWAP2 SUB SWAP1 LOG2 POP POP POP JUMP JUMPDEST PUSH0 DUP2 GT PUSH2 0x748 JUMPI PUSH1 0x40 MLOAD PUSH32 0x8C379A000000000000000000000000000000000000000000000000000000000 DUP2 MSTORE PUSH1 0x4 ADD PUSH2 0x73F SWAP1 PUSH2 0x259A JUMP JUMPDEST PUSH1 0x40 MLOAD DUP1 SWAP2 SUB SWAP1 REVERT JUMPDEST DUP1 PUSH1 0x2 PUSH0 CALLER PUSH20 0xFFFFFFFFFFFFFFFFFFFFFFFFFFFFFFFFFFFFFFFF AND PUSH20 0xFFFFFFFFFFFFFFFFFFFFFFFFFFFFFFFFFFFFFFFF AND DUP2 MSTORE PUSH1 0x20 ADD SWAP1 DUP2 MSTORE PUSH1 0x20 ADD PUSH0 KECCAK256 SLOAD LT ISZERO PUSH2 0x7C8 JUMPI PUSH1 0x40 MLOAD PUSH32 0x8C379A000000000000000000000000000000000000000000000000000000000 DUP2 MSTORE PUSH1 0x4 ADD PUSH2 0x7BF SWAP1 PUSH2 0x2602 JUMP JUMPDEST PUSH1 0x40 MLOAD DUP1 SWAP2 SUB SWAP1 REVERT JUMPDEST PUSH2 0x7D1 CALLER PUSH2 0xFDE JUMP JUMPDEST PUSH0 PUSH2 0x2710 PUSH2 0x3A98 PUSH1 0x1 PUSH0 CALLER PUSH20 0xFFFFFFFFFFFFFFFFFFFFFFFFFFFFFFFFFFFFFFFF AND PUSH20 0xFFFFFFFFFFFFFFFFFFFFFFFFFFFFFFFFFFFFFFFF AND DUP2 MSTORE PUSH1 0x20 ADD SWAP1 DUP2 MSTORE PUSH1 0x20 ADD PUSH0 KECCAK256 SLOAD PUSH2 0x820 SWAP2 SWAP1 PUSH2 0x2620 JUMP JUMPDEST PUSH2 0x82A SWAP2 SWAP1 PUSH2 0x268E JUMP JUMPDEST SWAP1 POP DUP1 DUP3 PUSH1 0x2 PUSH0 CALLER PUSH20 0xFFFFFFFFFFFFFFFFFFFFFFFFFFFFFFFFFFFFFFFF AND PUSH20 0xFFFFFFFFFFFFFFFFFFFFFFFFFFFFFFFFFFFFFFFF AND DUP2 MSTORE PUSH1 0x20 ADD SWAP1 DUP2 MSTORE PUSH1 0x20 ADD PUSH0 KECCAK256 SLOAD PUSH2 0x876 SWAP2 SWAP1 PUSH2 0x24B5 JUMP JUMPDEST LT ISZERO PUSH2 0x8B7 JUMPI PUSH1 0x40 MLOAD PUSH32 0x8C379A000000000000000000000000000000000000000000000000000000000 DUP2 MSTORE PUSH1 0x4 ADD PUSH2 0x8AE SWAP1 PUSH2 0x272E JUMP JUMPDEST PUSH1 0x40 MLOAD DUP1 SWAP2 SUB SWAP1 REVERT JUMPDEST DUP2 PUSH1 0x2 PUSH0 CALLER PUSH20 0xFFFFFFFFFFFFFFFFFFFFFFFFFFFFFFFFFFFFFFFF AND PUSH20 0xFFFFFFFFFFFFFFFFFFFFFFFFFFFFFFFFFFFFFFFF AND DUP2 MSTORE PUSH1 0x20 ADD SWAP1 DUP2 MSTORE PUSH1 0x20 ADD PUSH0 KECCAK256 PUSH0 DUP3 DUP3 SLOAD PUSH2 0x903 SWAP2 SWAP1 PUSH2 0x24B5 JUMP JUMPDEST SWAP3 POP POP DUP2 SWAP1 SSTORE POP CALLER PUSH20 0xFFFFFFFFFFFFFFFFFFFFFFFFFFFFFFFFFFFFFFFF AND PUSH2 0x8FC DUP4 SWAP1 DUP2 ISZERO MUL SWAP1 PUSH1 0x40 MLOAD PUSH0 PUSH1 0x40 MLOAD DUP1 DUP4 SUB DUP2 DUP6 DUP9 DUP9 CALL SWAP4 POP POP POP POP ISZERO DUP1 ISZERO PUSH2 0x94D JUMPI RETURNDATASIZE PUSH0 DUP1 RETURNDATACOPY RETURNDATASIZE PUSH0 REVERT JUMPDEST POP CALLER PUSH20 0xFFFFFFFFFFFFFFFFFFFFFFFFFFFFFFFFFFFFFFFF AND PUSH32 0x12C7466676DA8453FDC8FB091F1A24D31919043A79A50EBE022867A5F5C1ED34 DUP4 PUSH1 0x40 MLOAD PUSH2 0x994 SWAP2 SWAP1 PUSH2 0x2364 JUMP JUMPDEST PUSH1 0x40 MLOAD DUP1 SWAP2 SUB SWAP1 LOG2 POP POP JUMP JUMPDEST PUSH0 CALLVALUE GT PUSH2 0x9E2 JUMPI PUSH1 0x40 MLOAD PUSH32 0x8C379A000000000000000000000000000000000000000000000000000000000 DUP2 MSTORE PUSH1 0x4 ADD PUSH2 0x9D9 SWAP1 PUSH2 0x2796 JUMP JUMPDEST PUSH1 0x40 MLOAD DUP1 SWAP2 SUB SWAP1 REVERT JUMPDEST PUSH2 0x9EB CALLER PUSH2 0xFDE JUMP JUMPDEST PUSH1 0x1 PUSH0 CALLER PUSH20 0xFFFFFFFFFFFFFFFFFFFFFFFFFFFFFFFFFFFFFFFF AND PUSH20 0xFFFFFFFFFFFFFFFFFFFFFFFFFFFFFFFFFFFFFFFF AND DUP2 MSTORE PUSH1 0x20 ADD SWAP1 DUP2 MSTORE PUSH1 0x20 ADD PUSH0 KECCAK256 SLOAD CALLVALUE GT ISZERO PUSH2 0xAD0 JUMPI PUSH0 PUSH1 0x1 PUSH0 CALLER PUSH20 0xFFFFFFFFFFFFFFFFFFFFFFFFFFFFFFFFFFFFFFFF AND PUSH20 0xFFFFFFFFFFFFFFFFFFFFFFFFFFFFFFFFFFFFFFFF AND DUP2 MSTORE PUSH1 0x20 ADD SWAP1 DUP2 MSTORE PUSH1 0x20 ADD PUSH0 KECCAK256 SLOAD SWAP1 POP PUSH0 DUP2 CALLVALUE PUSH2 0xA7E SWAP2 SWAP1 PUSH2 0x24B5 JUMP JUMPDEST SWAP1 POP PUSH0 DUP2 GT ISZERO PUSH2 0xACD JUMPI CALLER PUSH20 0xFFFFFFFFFFFFFFFFFFFFFFFFFFFFFFFFFFFFFFFF AND PUSH2 0x8FC DUP3 SWAP1 DUP2 ISZERO MUL SWAP1 PUSH1 0x40 MLOAD PUSH0 PUSH1 0x40 MLOAD DUP1 DUP4 SUB DUP2 DUP6 DUP9 DUP9 CALL SWAP4 POP POP POP POP ISZERO DUP1 ISZERO PUSH2 0xACB JUMPI RETURNDATASIZE PUSH0 DUP1 RETURNDATACOPY RETURNDATASIZE PUSH0 REVERT JUMPDEST POP JUMPDEST POP POP JUMPDEST CALLVALUE PUSH1 0x1 PUSH0 CALLER PUSH20 0xFFFFFFFFFFFFFFFFFFFFFFFFFFFFFFFFFFFFFFFF AND PUSH20 0xFFFFFFFFFFFFFFFFFFFFFFFFFFFFFFFFFFFFFFFF AND DUP2 MSTORE PUSH1 0x20 ADD SWAP1 DUP2 MSTORE PUSH1 0x20 ADD PUSH0 KECCAK256 PUSH0 DUP3 DUP3 SLOAD PUSH2 0xB1C SWAP2 SWAP1 PUSH2 0x24B5 JUMP JUMPDEST SWAP3 POP POP DUP2 SWAP1 SSTORE POP CALLVALUE PUSH1 0x5 PUSH0 DUP3 DUP3 SLOAD PUSH2 0xB34 SWAP2 SWAP1 PUSH2 0x24B5 JUMP JUMPDEST SWAP3 POP POP DUP2 SWAP1 SSTORE POP CALLER PUSH20 0xFFFFFFFFFFFFFFFFFFFFFFFFFFFFFFFFFFFFFFFF AND PUSH32 0x516911BCC3A0A7412A44601057C0A0A1EC628BDE049A84284BC428866534488 CALLVALUE PUSH1 0x40 MLOAD PUSH2 0xB81 SWAP2 SWAP1 PUSH2 0x2364 JUMP JUMPDEST PUSH1 0x40 MLOAD DUP1 SWAP2 SUB SWAP1 LOG2 JUMP JUMPDEST PUSH0 DUP1 PUSH0 DUP1 PUSH1 0x5 SLOAD SELFBALANCE PUSH2 0xB9D SWAP2 SWAP1 PUSH2 0x24B5 JUMP JUMPDEST SWAP2 POP PUSH0 PUSH1 0x4 SLOAD GT PUSH2 0xBAE JUMPI PUSH0 PUSH2 0xBCC JUMP JUMPDEST PUSH1 0x4 SLOAD PUSH2 0x2710 PUSH1 0x5 SLOAD PUSH2 0xBC1 SWAP2 SWAP1 PUSH2 0x2620 JUMP JUMPDEST PUSH2 0xBCB SWAP2 SWAP1 PUSH2 0x268E JUMP JUMPDEST JUMPDEST SWAP1 POP SWAP1 SWAP2 SWAP3 SWAP4 JUMP JUMPDEST PUSH0 DUP1 PUSH0 DUP1 PUSH0 DUP1 DUP7 PUSH20 0xFFFFFFFFFFFFFFFFFFFFFFFFFFFFFFFFFFFFFFFF AND PUSH20 0xFFFFFFFFFFFFFFFFFFFFFFFFFFFFFFFFFFFFFFFF AND DUP2 MSTORE PUSH1 0x20 ADD SWAP1 DUP2 MSTORE PUSH1 0x20 ADD PUSH0 KECCAK256 SLOAD SWAP4 POP PUSH1 0x1 PUSH0 DUP7 PUSH20 0xFFFFFFFFFFFFFFFFFFFFFFFFFFFFFFFFFFFFFFFF AND PUSH20 0xFFFFFFFFFFFFFFFFFFFFFFFFFFFFFFFFFFFFFFFF AND DUP2 MSTORE PUSH1 0x20 ADD SWAP1 DUP2 MSTORE PUSH1 0x20 ADD PUSH0 KECCAK256 SLOAD SWAP3 POP PUSH1 0x2 PUSH0 DUP7 PUSH20 0xFFFFFFFFFFFFFFFFFFFFFFFFFFFFFFFFFFFFFFFF AND PUSH20 0xFFFFFFFFFFFFFFFFFFFFFFFFFFFFFFFFFFFFFFFF AND DUP2 MSTORE PUSH1 0x20 ADD SWAP1 DUP2 MSTORE PUSH1 0x20 ADD PUSH0 KECCAK256 SLOAD SWAP2 POP PUSH2 0x3A98 PUSH2 0x2710 DUP4 PUSH2 0xCA8 SWAP2 SWAP1 PUSH2 0x2620 JUMP JUMPDEST PUSH2 0xCB2 SWAP2 SWAP1 PUSH2 0x268E JUMP JUMPDEST SWAP1 POP SWAP2 SWAP4 POP SWAP2 SWAP4 JUMP JUMPDEST PUSH0 CALLVALUE GT PUSH2 0xCFD JUMPI PUSH1 0x40 MLOAD PUSH32 0x8C379A000000000000000000000000000000000000000000000000000000000 DUP2 MSTORE PUSH1 0x4 ADD PUSH2 0xCF4 SWAP1 PUSH2 0x27FE JUMP JUMPDEST PUSH1 0x40 MLOAD DUP1 SWAP2 SUB SWAP1 REVERT JUMPDEST CALLVALUE PUSH1 0x2 PUSH0 CALLER PUSH20 0xFFFFFFFFFFFFFFFFFFFFFFFFFFFFFFFFFFFFFFFF AND PUSH20 0xFFFFFFFFFFFFFFFFFFFFFFFFFFFFFFFFFFFFFFFF AND DUP2 MSTORE PUSH1 0x20 ADD SWAP1 DUP2 MSTORE PUSH1 0x20 ADD PUSH0 KECCAK256 PUSH0 DUP3 DUP3 SLOAD PUSH2 0xD49 SWAP2 SWAP1 PUSH2 0x2331 JUMP JUMPDEST SWAP3 POP POP DUP2 SWAP1 SSTORE POP CALLER PUSH20 0xFFFFFFFFFFFFFFFFFFFFFFFFFFFFFFFFFFFFFFFF AND PUSH32 0x7DBA1BE544024070CD5EEBFA8BDD80A8B198CEA8058C7D3CC1F8DD36E41AB2F7 CALLVALUE PUSH1 0x40 MLOAD PUSH2 0xD96 SWAP2 SWAP1 PUSH2 0x2364 JUMP JUMPDEST PUSH1 0x40 MLOAD DUP1 SWAP2 SUB SWAP1 LOG2 JUMP JUMPDEST PUSH0 DUP2 GT PUSH2 0xDE2 JUMPI PUSH1 0x40 MLOAD PUSH32 0x8C379A000000000000000000000000000000000000000000000000000000000 DUP2 MSTORE PUSH1 0x4 ADD PUSH2 0xDD9 SWAP1 PUSH2 0x2866 JUMP JUMPDEST PUSH1 0x40 MLOAD DUP1 SWAP2 SUB SWAP1 REVERT JUMPDEST PUSH2 0xDEB CALLER PUSH2 0xFDE JUMP JUMPDEST PUSH0 PUSH2 0x3A98 PUSH2 0x2710 PUSH1 0x2 PUSH0 CALLER PUSH20 0xFFFFFFFFFFFFFFFFFFFFFFFFFFFFFFFFFFFFFFFF AND PUSH20 0xFFFFFFFFFFFFFFFFFFFFFFFFFFFFFFFFFFFFFFFF AND DUP2 MSTORE PUSH1 0x20 ADD SWAP1 DUP2 MSTORE PUSH1 0x20 ADD PUSH0 KECCAK256 SLOAD PUSH2 0xE3A SWAP2 SWAP1 PUSH2 0x2620 JUMP JUMPDEST PUSH2 0xE44 SWAP2 SWAP1 PUSH2 0x268E JUMP JUMPDEST SWAP1 POP DUP1 DUP3 PUSH1 0x1 PUSH0 CALLER PUSH20 0xFFFFFFFFFFFFFFFFFFFFFFFFFFFFFFFFFFFFFFFF AND PUSH20 0xFFFFFFFFFFFFFFFFFFFFFFFFFFFFFFFFFFFFFFFF AND DUP2 MSTORE PUSH1 0x20 ADD SWAP1 DUP2 MSTORE PUSH1 0x20 ADD PUSH0 KECCAK256 SLOAD PUSH2 0xE90 SWAP2 SWAP1 PUSH2 0x2331 JUMP JUMPDEST GT ISZERO PUSH2 0xED1 JUMPI PUSH1 0x40 MLOAD PUSH32 0x8C379A000000000000000000000000000000000000000000000000000000000 DUP2 MSTORE PUSH1 0x4 ADD PUSH2 0xEC8 SWAP1 PUSH2 0x28F4 JUMP JUMPDEST PUSH1 0x40 MLOAD DUP1 SWAP2 SUB SWAP1 REVERT JUMPDEST DUP2 PUSH1 0x5 SLOAD SELFBALANCE PUSH2 0xEE0 SWAP2 SWAP1 PUSH2 0x24B5 JUMP JUMPDEST LT ISZERO PUSH2 0xF21 JUMPI PUSH1 0x40 MLOAD PUSH32 0x8C379A000000000000000000000000000000000000000000000000000000000 DUP2 MSTORE PUSH1 0x4 ADD PUSH2 0xF18 SWAP1 PUSH2 0x2982 JUMP JUMPDEST PUSH1 0x40 MLOAD DUP1 SWAP2 SUB SWAP1 REVERT JUMPDEST DUP2 PUSH1 0x1 PUSH0 CALLER PUSH20 0xFFFFFFFFFFFFFFFFFFFFFFFFFFFFFFFFFFFFFFFF AND PUSH20 0xFFFFFFFFFFFFFFFFFFFFFFFFFFFFFFFFFFFFFFFF AND DUP2 MSTORE PUSH1 0x20 ADD SWAP1 DUP2 MSTORE PUSH1 0x20 ADD PUSH0 KECCAK256 PUSH0 DUP3 DUP3 SLOAD PUSH2 0xF6D SWAP2 SWAP1 PUSH2 0x2331 JUMP JUMPDEST SWAP3 POP POP DUP2 SWAP1 SSTORE POP DUP2 PUSH1 0x5 PUSH0 DUP3 DUP3 SLOAD PUSH2 0xF85 SWAP2 SWAP1 PUSH2 0x2331 JUMP JUMPDEST SWAP3 POP POP DUP2 SWAP1 SSTORE POP CALLER PUSH20 0xFFFFFFFFFFFFFFFFFFFFFFFFFFFFFFFFFFFFFFFF AND PUSH32 0xAC59582E5396ACA512FA873A2047E7F4C80F8F55D4A06CB34A78A0187F62719F DUP4 PUSH1 0x40 MLOAD PUSH2 0xFD2 SWAP2 SWAP1 PUSH2 0x2364 JUMP JUMPDEST PUSH1 0x40 MLOAD DUP1 SWAP2 SUB SWAP1 LOG2 POP POP JUMP JUMPDEST PUSH0 PUSH1 0x3 PUSH0 DUP4 PUSH20 0xFFFFFFFFFFFFFFFFFFFFFFFFFFFFFFFFFFFFFFFF AND PUSH20 0xFFFFFFFFFFFFFFFFFFFFFFFFFFFFFFFFFFFFFFFF AND DUP2 MSTORE PUSH1 0x20 ADD SWAP1 DUP2 MSTORE PUSH1 0x20 ADD PUSH0 KECCAK256 SLOAD SWAP1 POP PUSH0 DUP2 SUB PUSH2 0x106E JUMPI TIMESTAMP PUSH1 0x3 PUSH0 DUP5 PUSH20 0xFFFFFFFFFFFFFFFFFFFFFFFFFFFFFFFFFFFFFFFF AND PUSH20 0xFFFFFFFFFFFFFFFFFFFFFFFFFFFFFFFFFFFFFFFF AND DUP2 MSTORE PUSH1 0x20 ADD SWAP1 DUP2 MSTORE PUSH1 0x20 ADD PUSH0 KECCAK256 DUP2 SWAP1 SSTORE POP POP PUSH2 0x13EF JUMP JUMPDEST PUSH0 DUP2 TIMESTAMP PUSH2 0x107B SWAP2 SWAP1 PUSH2 0x24B5 JUMP JUMPDEST SWAP1 POP PUSH0 PUSH3 0x76A700 DUP3 PUSH2 0x108D SWAP2 SWAP1 PUSH2 0x268E JUMP JUMPDEST SWAP1 POP PUSH0 DUP2 GT ISZERO PUSH2 0x13A9 JUMPI PUSH0 PUSH1 0x1 PUSH0 DUP7 PUSH20 0xFFFFFFFFFFFFFFFFFFFFFFFFFFFFFFFFFFFFFFFF AND PUSH20 0xFFFFFFFFFFFFFFFFFFFFFFFFFFFFFFFFFFFFFFFF AND DUP2 MSTORE PUSH1 0x20 ADD SWAP1 DUP2 MSTORE PUSH1 0x20 ADD PUSH0 KECCAK256 SLOAD GT ISZERO PUSH2 0x1222 JUMPI PUSH0 PUSH2 0x9C40 PUSH8 0xDE0B6B3A7640000 PUSH2 0x1F4 PUSH2 0x10F6 SWAP2 SWAP1 PUSH2 0x2620 JUMP JUMPDEST PUSH2 0x1100 SWAP2 SWAP1 PUSH2 0x268E JUMP JUMPDEST SWAP1 POP PUSH0 PUSH2 0x1130 PUSH2 0x112B PUSH2 0x1125 DUP5 PUSH8 0xDE0B6B3A7640000 PUSH2 0x1120 SWAP2 SWAP1 PUSH2 0x2331 JUMP JUMPDEST PUSH2 0x14E3 JUMP JUMPDEST DUP6 PUSH2 0x1516 JUMP JUMPDEST PUSH2 0x1529 JUMP JUMPDEST SWAP1 POP PUSH0 PUSH2 0x117A PUSH1 0x1 PUSH0 DUP10 PUSH20 0xFFFFFFFFFFFFFFFFFFFFFFFFFFFFFFFFFFFFFFFF AND PUSH20 0xFFFFFFFFFFFFFFFFFFFFFFFFFFFFFFFFFFFFFFFF AND DUP2 MSTORE PUSH1 0x20 ADD SWAP1 DUP2 MSTORE PUSH1 0x20 ADD PUSH0 KECCAK256 SLOAD DUP4 PUSH2 0x1516 JUMP JUMPDEST SWAP1 POP PUSH1 0x1 PUSH0 DUP9 PUSH20 0xFFFFFFFFFFFFFFFFFFFFFFFFFFFFFFFFFFFFFFFF AND PUSH20 0xFFFFFFFFFFFFFFFFFFFFFFFFFFFFFFFFFFFFFFFF AND DUP2 MSTORE PUSH1 0x20 ADD SWAP1 DUP2 MSTORE PUSH1 0x20 ADD PUSH0 KECCAK256 SLOAD DUP2 PUSH2 0x11C5 SWAP2 SWAP1 PUSH2 0x24B5 JUMP JUMPDEST PUSH1 0x5 PUSH0 DUP3 DUP3 SLOAD PUSH2 0x11D5 SWAP2 SWAP1 PUSH2 0x2331 JUMP JUMPDEST SWAP3 POP POP DUP2 SWAP1 SSTORE POP DUP1 PUSH1 0x1 PUSH0 DUP10 PUSH20 0xFFFFFFFFFFFFFFFFFFFFFFFFFFFFFFFFFFFFFFFF AND PUSH20 0xFFFFFFFFFFFFFFFFFFFFFFFFFFFFFFFFFFFFFFFF AND DUP2 MSTORE PUSH1 0x20 ADD SWAP1 DUP2 MSTORE PUSH1 0x20 ADD PUSH0 KECCAK256 DUP2 SWAP1 SSTORE POP POP POP POP JUMPDEST PUSH0 DUP1 PUSH0 DUP7 PUSH20 0xFFFFFFFFFFFFFFFFFFFFFFFFFFFFFFFFFFFFFFFF AND PUSH20 0xFFFFFFFFFFFFFFFFFFFFFFFFFFFFFFFFFFFFFFFF AND DUP2 MSTORE PUSH1 0x20 ADD SWAP1 DUP2 MSTORE PUSH1 0x20 ADD PUSH0 KECCAK256 SLOAD GT ISZERO PUSH2 0x13A8 JUMPI PUSH0 PUSH2 0x9C40 PUSH8 0xDE0B6B3A7640000 PUSH1 0xC8 PUSH2 0x127F SWAP2 SWAP1 PUSH2 0x2620 JUMP JUMPDEST PUSH2 0x1289 SWAP2 SWAP1 PUSH2 0x268E JUMP JUMPDEST SWAP1 POP PUSH0 PUSH2 0x12B9 PUSH2 0x12B4 PUSH2 0x12AE DUP5 PUSH8 0xDE0B6B3A7640000 PUSH2 0x12A9 SWAP2 SWAP1 PUSH2 0x2331 JUMP JUMPDEST PUSH2 0x14E3 JUMP JUMPDEST DUP6 PUSH2 0x1516 JUMP JUMPDEST PUSH2 0x1529 JUMP JUMPDEST SWAP1 POP PUSH0 PUSH2 0x1302 PUSH0 DUP1 DUP10 PUSH20 0xFFFFFFFFFFFFFFFFFFFFFFFFFFFFFFFFFFFFFFFF AND PUSH20 0xFFFFFFFFFFFFFFFFFFFFFFFFFFFFFFFFFFFFFFFF AND DUP2 MSTORE PUSH1 0x20 ADD SWAP1 DUP2 MSTORE PUSH1 0x20 ADD PUSH0 KECCAK256 SLOAD DUP4 PUSH2 0x1516 JUMP JUMPDEST SWAP1 POP PUSH0 DUP1 DUP9 PUSH20 0xFFFFFFFFFFFFFFFFFFFFFFFFFFFFFFFFFFFFFFFF AND PUSH20 0xFFFFFFFFFFFFFFFFFFFFFFFFFFFFFFFFFFFFFFFF AND DUP2 MSTORE PUSH1 0x20 ADD SWAP1 DUP2 MSTORE PUSH1 0x20 ADD PUSH0 KECCAK256 SLOAD DUP2 PUSH2 0x134C SWAP2 SWAP1 PUSH2 0x24B5 JUMP JUMPDEST PUSH1 0x4 PUSH0 DUP3 DUP3 SLOAD PUSH2 0x135C SWAP2 SWAP1 PUSH2 0x2331 JUMP JUMPDEST SWAP3 POP POP DUP2 SWAP1 SSTORE POP DUP1 PUSH0 DUP1 DUP10 PUSH20 0xFFFFFFFFFFFFFFFFFFFFFFFFFFFFFFFFFFFFFFFF AND PUSH20 0xFFFFFFFFFFFFFFFFFFFFFFFFFFFFFFFFFFFFFFFF AND DUP2 MSTORE PUSH1 0x20 ADD SWAP1 DUP2 MSTORE PUSH1 0x20 ADD PUSH0 KECCAK256 DUP2 SWAP1 SSTORE POP POP POP POP JUMPDEST JUMPDEST TIMESTAMP PUSH1 0x3 PUSH0 DUP7 PUSH20 0xFFFFFFFFFFFFFFFFFFFFFFFFFFFFFFFFFFFFFFFF AND PUSH20 0xFFFFFFFFFFFFFFFFFFFFFFFFFFFFFFFFFFFFFFFF AND DUP2 MSTORE PUSH1 0x20 ADD SWAP1 DUP2 MSTORE PUSH1 0x20 ADD PUSH0 KECCAK256 DUP2 SWAP1 SSTORE POP POP POP POP JUMPDEST POP JUMP JUMPDEST PUSH0 DUP1 PUSH1 0x1 PUSH0 DUP5 PUSH20 0xFFFFFFFFFFFFFFFFFFFFFFFFFFFFFFFFFFFFFFFF AND PUSH20 0xFFFFFFFFFFFFFFFFFFFFFFFFFFFFFFFFFFFFFFFF AND DUP2 MSTORE PUSH1 0x20 ADD SWAP1 DUP2 MSTORE PUSH1 0x20 ADD PUSH0 KECCAK256 SLOAD SUB PUSH2 0x143F JUMPI PUSH0 SWAP1 POP PUSH2 0x14DE JUMP JUMPDEST PUSH0 PUSH2 0x2710 PUSH2 0x3A98 PUSH1 0x1 PUSH0 DUP7 PUSH20 0xFFFFFFFFFFFFFFFFFFFFFFFFFFFFFFFFFFFFFFFF AND PUSH20 0xFFFFFFFFFFFFFFFFFFFFFFFFFFFFFFFFFFFFFFFF AND DUP2 MSTORE PUSH1 0x20 ADD SWAP1 DUP2 MSTORE PUSH1 0x20 ADD PUSH0 KECCAK256 SLOAD PUSH2 0x148E SWAP2 SWAP1 PUSH2 0x2620 JUMP JUMPDEST PUSH2 0x1498 SWAP2 SWAP1 PUSH2 0x268E JUMP JUMPDEST SWAP1 POP DUP1 PUSH1 0x2 PUSH0 DUP6 PUSH20 0xFFFFFFFFFFFFFFFFFFFFFFFFFFFFFFFFFFFFFFFF AND PUSH20 0xFFFFFFFFFFFFFFFFFFFFFFFFFFFFFFFFFFFFFFFF AND DUP2 MSTORE PUSH1 0x20 ADD SWAP1 DUP2 MSTORE PUSH1 0x20 ADD PUSH0 KECCAK256 SLOAD LT SWAP2 POP POP JUMPDEST SWAP2 SWAP1 POP JUMP JUMPDEST PUSH0 PUSH8 0x14057B7EF767814F PUSH8 0xDE0B6B3A7640000 PUSH2 0x14FF DUP5 PUSH2 0x15A8 JUMP JUMPDEST MUL DUP2 PUSH2 0x150E JUMPI PUSH2 0x150D PUSH2 0x2661 JUMP JUMPDEST JUMPDEST DIV SWAP1 POP SWAP2 SWAP1 POP JUMP JUMPDEST PUSH0 PUSH2 0x1521 DUP4 DUP4 PUSH2 0x16AA JUMP JUMPDEST SWAP1 POP SWAP3 SWAP2 POP POP JUMP JUMPDEST PUSH0 PUSH9 0xA688906BD8B000000 DUP3 LT PUSH2 0x1577 JUMPI DUP2 PUSH1 0x40 MLOAD PUSH32 0x4A4F26F100000000000000000000000000000000000000000000000000000000 DUP2 MSTORE PUSH1 0x4 ADD PUSH2 0x156E SWAP2 SWAP1 PUSH2 0x2364 JUMP JUMPDEST PUSH1 0x40 MLOAD DUP1 SWAP2 SUB SWAP1 REVERT JUMPDEST PUSH0 PUSH8 0xDE0B6B3A7640000 PUSH1 0x40 DUP5 SWAP1 SHL DUP2 PUSH2 0x1594 JUMPI PUSH2 0x1593 PUSH2 0x2661 JUMP JUMPDEST JUMPDEST DIV SWAP1 POP PUSH2 0x15A0 DUP2 PUSH2 0x17A2 JUMP JUMPDEST SWAP2 POP POP SWAP2 SWAP1 POP JUMP JUMPDEST PUSH0 PUSH8 0xDE0B6B3A7640000 DUP3 LT ISZERO PUSH2 0x15F6 JUMPI DUP2 PUSH1 0x40 MLOAD PUSH32 0xD88504DC00000000000000000000000000000000000000000000000000000000 DUP2 MSTORE PUSH1 0x4 ADD PUSH2 0x15ED SWAP2 SWAP1 PUSH2 0x2364 JUMP JUMPDEST PUSH1 0x40 MLOAD DUP1 SWAP2 SUB SWAP1 REVERT JUMPDEST PUSH0 PUSH2 0x1618 PUSH8 0xDE0B6B3A7640000 DUP5 DUP2 PUSH2 0x1612 JUMPI PUSH2 0x1611 PUSH2 0x2661 JUMP JUMPDEST JUMPDEST DIV PUSH2 0x203D JUMP JUMPDEST SWAP1 POP PUSH8 0xDE0B6B3A7640000 DUP2 MUL SWAP2 POP PUSH0 DUP2 DUP5 SWAP1 SHR SWAP1 POP PUSH8 0xDE0B6B3A7640000 DUP2 SUB PUSH2 0x1644 JUMPI POP POP PUSH2 0x16A5 JUMP JUMPDEST PUSH0 PUSH8 0x6F05B59D3B20000 SWAP1 POP JUMPDEST PUSH0 DUP2 GT ISZERO PUSH2 0x16A1 JUMPI PUSH8 0xDE0B6B3A7640000 DUP3 DUP4 MUL DUP2 PUSH2 0x1673 JUMPI PUSH2 0x1672 PUSH2 0x2661 JUMP JUMPDEST JUMPDEST DIV SWAP2 POP PUSH8 0xDE0B6B3A7640000 PUSH1 0x2 MUL DUP3 LT PUSH2 0x1695 JUMPI DUP1 DUP5 ADD SWAP4 POP PUSH1 0x1 DUP3 SWAP1 SHR SWAP2 POP JUMPDEST PUSH1 0x1 DUP2 SWAP1 SHR SWAP1 POP PUSH2 0x1651 JUMP JUMPDEST POP POP POP JUMPDEST SWAP2 SWAP1 POP JUMP JUMPDEST PUSH0 DUP1 PUSH0 DUP1 NOT DUP5 DUP7 MULMOD DUP5 DUP7 MUL SWAP3 POP DUP3 DUP2 LT DUP4 DUP3 SUB SUB SWAP2 POP POP PUSH8 0xDE0B6B3A7640000 DUP2 LT PUSH2 0x170D JUMPI DUP1 PUSH1 0x40 MLOAD PUSH32 0xD31B340200000000000000000000000000000000000000000000000000000000 DUP2 MSTORE PUSH1 0x4 ADD PUSH2 0x1704 SWAP2 SWAP1 PUSH2 0x2364 JUMP JUMPDEST PUSH1 0x40 MLOAD DUP1 SWAP2 SUB SWAP1 REVERT JUMPDEST PUSH0 DUP1 PUSH8 0xDE0B6B3A7640000 DUP7 DUP9 MULMOD SWAP2 POP PUSH8 0x6F05B59D3B1FFFF DUP3 GT SWAP1 POP PUSH0 DUP4 SUB PUSH2 0x1757 JUMPI DUP1 PUSH8 0xDE0B6B3A7640000 DUP6 DUP2 PUSH2 0x174A JUMPI PUSH2 0x1749 PUSH2 0x2661 JUMP JUMPDEST JUMPDEST DIV ADD SWAP5 POP POP POP POP POP PUSH2 0x179C JUMP JUMPDEST DUP1 PUSH32 0xACCB18165BD6FE31AE1CF318DC5B51EEE0E1BA569B88CD74C1773B91FAC10669 PUSH1 0x1 PUSH3 0x40000 DUP1 PUSH0 SUB DIV ADD DUP7 DUP6 GT DUP7 SUB MUL PUSH3 0x40000 DUP6 DUP9 SUB DIV OR MUL ADD SWAP5 POP POP POP POP POP JUMPDEST SWAP3 SWAP2 POP POP JUMP JUMPDEST PUSH0 PUSH24 0x800000000000000000000000000000000000000000000000 SWAP1 POP PUSH0 PUSH8 0x8000000000000000 DUP4 AND GT ISZERO PUSH2 0x17E3 JUMPI PUSH1 0x40 PUSH9 0x16A09E667F3BCC909 DUP3 MUL SWAP1 SHR SWAP1 POP JUMPDEST PUSH0 PUSH8 0x4000000000000000 DUP4 AND GT ISZERO PUSH2 0x1808 JUMPI PUSH1 0x40 PUSH9 0x1306FE0A31B7152DF DUP3 MUL SWAP1 SHR SWAP1 POP JUMPDEST PUSH0 PUSH8 0x2000000000000000 DUP4 AND GT ISZERO PUSH2 0x182D JUMPI PUSH1 0x40 PUSH9 0x1172B83C7D517ADCE DUP3 MUL SWAP1 SHR SWAP1 POP JUMPDEST PUSH0 PUSH8 0x1000000000000000 DUP4 AND GT ISZERO PUSH2 0x1852 JUMPI PUSH1 0x40 PUSH9 0x10B5586CF9890F62A DUP3 MUL SWAP1 SHR SWAP1 POP JUMPDEST PUSH0 PUSH8 0x800000000000000 DUP4 AND GT ISZERO PUSH2 0x1877 JUMPI PUSH1 0x40 PUSH9 0x1059B0D31585743AE DUP3 MUL SWAP1 SHR SWAP1 POP JUMPDEST PUSH0 PUSH8 0x400000000000000 DUP4 AND GT ISZERO PUSH2 0x189C JUMPI PUSH1 0x40 PUSH9 0x102C9A3E778060EE7 DUP3 MUL SWAP1 SHR SWAP1 POP JUMPDEST PUSH0 PUSH8 0x200000000000000 DUP4 AND GT ISZERO PUSH2 0x18C1 JUMPI PUSH1 0x40 PUSH9 0x10163DA9FB33356D8 DUP3 MUL SWAP1 SHR SWAP1 POP JUMPDEST PUSH0 PUSH8 0x100000000000000 DUP4 AND GT ISZERO PUSH2 0x18E6 JUMPI PUSH1 0x40 PUSH9 0x100B1AFA5ABCBED61 DUP3 MUL SWAP1 SHR SWAP1 POP JUMPDEST PUSH0 PUSH7 0x80000000000000 DUP4 AND GT ISZERO PUSH2 0x190A JUMPI PUSH1 0x40 PUSH9 0x10058C86DA1C09EA2 DUP3 MUL SWAP1 SHR SWAP1 POP JUMPDEST PUSH0 PUSH7 0x40000000000000 DUP4 AND GT ISZERO PUSH2 0x192E JUMPI PUSH1 0x40 PUSH9 0x1002C605E2E8CEC50 DUP3 MUL SWAP1 SHR SWAP1 POP JUMPDEST PUSH0 PUSH7 0x20000000000000 DUP4 AND GT ISZERO PUSH2 0x1952 JUMPI PUSH1 0x40 PUSH9 0x100162F3904051FA1 DUP3 MUL SWAP1 SHR SWAP1 POP JUMPDEST PUSH0 PUSH7 0x10000000000000 DUP4 AND GT ISZERO PUSH2 0x1976 JUMPI PUSH1 0x40 PUSH9 0x1000B175EFFDC76BA DUP3 MUL SWAP1 SHR SWAP1 POP JUMPDEST PUSH0 PUSH7 0x8000000000000 DUP4 AND GT ISZERO PUSH2 0x199A JUMPI PUSH1 0x40 PUSH9 0x100058BA01FB9F96D DUP3 MUL SWAP1 SHR SWAP1 POP JUMPDEST PUSH0 PUSH7 0x4000000000000 DUP4 AND GT ISZERO PUSH2 0x19BE JUMPI PUSH1 0x40 PUSH9 0x10002C5CC37DA9492 DUP3 MUL SWAP1 SHR SWAP1 POP JUMPDEST PUSH0 PUSH7 0x2000000000000 DUP4 AND GT ISZERO PUSH2 0x19E2 JUMPI PUSH1 0x40 PUSH9 0x1000162E525EE0547 DUP3 MUL SWAP1 SHR SWAP1 POP JUMPDEST PUSH0 PUSH7 0x1000000000000 DUP4 AND GT ISZERO PUSH2 0x1A06 JUMPI PUSH1 0x40 PUSH9 0x10000B17255775C04 DUP3 MUL SWAP1 SHR SWAP1 POP JUMPDEST PUSH0 PUSH6 0x800000000000 DUP4 AND GT ISZERO PUSH2 0x1A29 JUMPI PUSH1 0x40 PUSH9 0x1000058B91B5BC9AE DUP3 MUL SWAP1 SHR SWAP1 POP JUMPDEST PUSH0 PUSH6 0x400000000000 DUP4 AND GT ISZERO PUSH2 0x1A4C JUMPI PUSH1 0x40 PUSH9 0x100002C5C89D5EC6D DUP3 MUL SWAP1 SHR SWAP1 POP JUMPDEST PUSH0 PUSH6 0x200000000000 DUP4 AND GT ISZERO PUSH2 0x1A6F JUMPI PUSH1 0x40 PUSH9 0x10000162E43F4F831 DUP3 MUL SWAP1 SHR SWAP1 POP JUMPDEST PUSH0 PUSH6 0x100000000000 DUP4 AND GT ISZERO PUSH2 0x1A92 JUMPI PUSH1 0x40 PUSH9 0x100000B1721BCFC9A DUP3 MUL SWAP1 SHR SWAP1 POP JUMPDEST PUSH0 PUSH6 0x80000000000 DUP4 AND GT ISZERO PUSH2 0x1AB5 JUMPI PUSH1 0x40 PUSH9 0x10000058B90CF1E6E DUP3 MUL SWAP1 SHR SWAP1 POP JUMPDEST PUSH0 PUSH6 0x40000000000 DUP4 AND GT ISZERO PUSH2 0x1AD8 JUMPI PUSH1 0x40 PUSH9 0x1000002C5C863B73F DUP3 MUL SWAP1 SHR SWAP1 POP JUMPDEST PUSH0 PUSH6 0x20000000000 DUP4 AND GT ISZERO PUSH2 0x1AFB JUMPI PUSH1 0x40 PUSH9 0x100000162E430E5A2 DUP3 MUL SWAP1 SHR SWAP1 POP JUMPDEST PUSH0 PUSH6 0x10000000000 DUP4 AND GT ISZERO PUSH2 0x1B1E JUMPI PUSH1 0x40 PUSH9 0x1000000B172183551 DUP3 MUL SWAP1 SHR SWAP1 POP JUMPDEST PUSH0 PUSH5 0x8000000000 DUP4 AND GT ISZERO PUSH2 0x1B40 JUMPI PUSH1 0x40 PUSH9 0x100000058B90C0B49 DUP3 MUL SWAP1 SHR SWAP1 POP JUMPDEST PUSH0 PUSH5 0x4000000000 DUP4 AND GT ISZERO PUSH2 0x1B62 JUMPI PUSH1 0x40 PUSH9 0x10000002C5C8601CC DUP3 MUL SWAP1 SHR SWAP1 POP JUMPDEST PUSH0 PUSH5 0x2000000000 DUP4 AND GT ISZERO PUSH2 0x1B84 JUMPI PUSH1 0x40 PUSH9 0x1000000162E42FFF0 DUP3 MUL SWAP1 SHR SWAP1 POP JUMPDEST PUSH0 PUSH5 0x1000000000 DUP4 AND GT ISZERO PUSH2 0x1BA6 JUMPI PUSH1 0x40 PUSH9 0x10000000B17217FBB DUP3 MUL SWAP1 SHR SWAP1 POP JUMPDEST PUSH0 PUSH5 0x800000000 DUP4 AND GT ISZERO PUSH2 0x1BC8 JUMPI PUSH1 0x40 PUSH9 0x1000000058B90BFCE DUP3 MUL SWAP1 SHR SWAP1 POP JUMPDEST PUSH0 PUSH5 0x400000000 DUP4 AND GT ISZERO PUSH2 0x1BEA JUMPI PUSH1 0x40 PUSH9 0x100000002C5C85FE3 DUP3 MUL SWAP1 SHR SWAP1 POP JUMPDEST PUSH0 PUSH5 0x200000000 DUP4 AND GT ISZERO PUSH2 0x1C0C JUMPI PUSH1 0x40 PUSH9 0x10000000162E42FF1 DUP3 MUL SWAP1 SHR SWAP1 POP JUMPDEST PUSH0 PUSH5 0x100000000 DUP4 AND GT ISZERO PUSH2 0x1C2E JUMPI PUSH1 0x40 PUSH9 0x100000000B17217F8 DUP3 MUL SWAP1 SHR SWAP1 POP JUMPDEST PUSH0 PUSH4 0x80000000 DUP4 AND GT ISZERO PUSH2 0x1C4F JUMPI PUSH1 0x40 PUSH9 0x10000000058B90BFC DUP3 MUL SWAP1 SHR SWAP1 POP JUMPDEST PUSH0 PUSH4 0x40000000 DUP4 AND GT ISZERO PUSH2 0x1C70 JUMPI PUSH1 0x40 PUSH9 0x1000000002C5C85FE DUP3 MUL SWAP1 SHR SWAP1 POP JUMPDEST PUSH0 PUSH4 0x20000000 DUP4 AND GT ISZERO PUSH2 0x1C91 JUMPI PUSH1 0x40 PUSH9 0x100000000162E42FF DUP3 MUL SWAP1 SHR SWAP1 POP JUMPDEST PUSH0 PUSH4 0x10000000 DUP4 AND GT ISZERO PUSH2 0x1CB2 JUMPI PUSH1 0x40 PUSH9 0x1000000000B17217F DUP3 MUL SWAP1 SHR SWAP1 POP JUMPDEST PUSH0 PUSH4 0x8000000 DUP4 AND GT ISZERO PUSH2 0x1CD3 JUMPI PUSH1 0x40 PUSH9 0x100000000058B90C0 DUP3 MUL SWAP1 SHR SWAP1 POP JUMPDEST PUSH0 PUSH4 0x4000000 DUP4 AND GT ISZERO PUSH2 0x1CF4 JUMPI PUSH1 0x40 PUSH9 0x10000000002C5C860 DUP3 MUL SWAP1 SHR SWAP1 POP JUMPDEST PUSH0 PUSH4 0x2000000 DUP4 AND GT ISZERO PUSH2 0x1D15 JUMPI PUSH1 0x40 PUSH9 0x1000000000162E430 DUP3 MUL SWAP1 SHR SWAP1 POP JUMPDEST PUSH0 PUSH4 0x1000000 DUP4 AND GT ISZERO PUSH2 0x1D36 JUMPI PUSH1 0x40 PUSH9 0x10000000000B17218 DUP3 MUL SWAP1 SHR SWAP1 POP JUMPDEST PUSH0 PUSH3 0x800000 DUP4 AND GT ISZERO PUSH2 0x1D56 JUMPI PUSH1 0x40 PUSH9 0x1000000000058B90C DUP3 MUL SWAP1 SHR SWAP1 POP JUMPDEST PUSH0 PUSH3 0x400000 DUP4 AND GT ISZERO PUSH2 0x1D76 JUMPI PUSH1 0x40 PUSH9 0x100000000002C5C86 DUP3 MUL SWAP1 SHR SWAP1 POP JUMPDEST PUSH0 PUSH3 0x200000 DUP4 AND GT ISZERO PUSH2 0x1D96 JUMPI PUSH1 0x40 PUSH9 0x10000000000162E43 DUP3 MUL SWAP1 SHR SWAP1 POP JUMPDEST PUSH0 PUSH3 0x100000 DUP4 AND GT ISZERO PUSH2 0x1DB6 JUMPI PUSH1 0x40 PUSH9 0x100000000000B1721 DUP3 MUL SWAP1 SHR SWAP1 POP JUMPDEST PUSH0 PUSH3 0x80000 DUP4 AND GT ISZERO PUSH2 0x1DD6 JUMPI PUSH1 0x40 PUSH9 0x10000000000058B91 DUP3 MUL SWAP1 SHR SWAP1 POP JUMPDEST PUSH0 PUSH3 0x40000 DUP4 AND GT ISZERO PUSH2 0x1DF6 JUMPI PUSH1 0x40 PUSH9 0x1000000000002C5C8 DUP3 MUL SWAP1 SHR SWAP1 POP JUMPDEST PUSH0 PUSH3 0x20000 DUP4 AND GT ISZERO PUSH2 0x1E16 JUMPI PUSH1 0x40 PUSH9 0x100000000000162E4 DUP3 MUL SWAP1 SHR SWAP1 POP JUMPDEST PUSH0 PUSH3 0x10000 DUP4 AND GT ISZERO PUSH2 0x1E36 JUMPI PUSH1 0x40 PUSH9 0x1000000000000B172 DUP3 MUL SWAP1 SHR SWAP1 POP JUMPDEST PUSH0 PUSH2 0x8000 DUP4 AND GT ISZERO PUSH2 0x1E55 JUMPI PUSH1 0x40 PUSH9 0x100000000000058B9 DUP3 MUL SWAP1 SHR SWAP1 POP JUMPDEST PUSH0 PUSH2 0x4000 DUP4 AND GT ISZERO PUSH2 0x1E74 JUMPI PUSH1 0x40 PUSH9 0x10000000000002C5D DUP3 MUL SWAP1 SHR SWAP1 POP JUMPDEST PUSH0 PUSH2 0x2000 DUP4 AND GT ISZERO PUSH2 0x1E93 JUMPI PUSH1 0x40 PUSH9 0x1000000000000162E DUP3 MUL SWAP1 SHR SWAP1 POP JUMPDEST PUSH0 PUSH2 0x1000 DUP4 AND GT ISZERO PUSH2 0x1EB2 JUMPI PUSH1 0x40 PUSH9 0x10000000000000B17 DUP3 MUL SWAP1 SHR SWAP1 POP JUMPDEST PUSH0 PUSH2 0x800 DUP4 AND GT ISZERO PUSH2 0x1ED1 JUMPI PUSH1 0x40 PUSH9 0x1000000000000058C DUP3 MUL SWAP1 SHR SWAP1 POP JUMPDEST PUSH0 PUSH2 0x400 DUP4 AND GT ISZERO PUSH2 0x1EF0 JUMPI PUSH1 0x40 PUSH9 0x100000000000002C6 DUP3 MUL SWAP1 SHR SWAP1 POP JUMPDEST PUSH0 PUSH2 0x200 DUP4 AND GT ISZERO PUSH2 0x1F0F JUMPI PUSH1 0x40 PUSH9 0x10000000000000163 DUP3 MUL SWAP1 SHR SWAP1 POP JUMPDEST PUSH0 PUSH2 0x100 DUP4 AND GT ISZERO PUSH2 0x1F2E JUMPI PUSH1 0x40 PUSH9 0x100000000000000B1 DUP3 MUL SWAP1 SHR SWAP1 POP JUMPDEST PUSH0 PUSH1 0x80 DUP4 AND GT ISZERO PUSH2 0x1F4C JUMPI PUSH1 0x40 PUSH9 0x10000000000000059 DUP3 MUL SWAP1 SHR SWAP1 POP JUMPDEST PUSH0 PUSH1 0x40 DUP4 AND GT ISZERO PUSH2 0x1F6A JUMPI PUSH1 0x40 PUSH9 0x1000000000000002C DUP3 MUL SWAP1 SHR SWAP1 POP JUMPDEST PUSH0 PUSH1 0x20 DUP4 AND GT ISZERO PUSH2 0x1F88 JUMPI PUSH1 0x40 PUSH9 0x10000000000000016 DUP3 MUL SWAP1 SHR SWAP1 POP JUMPDEST PUSH0 PUSH1 0x10 DUP4 AND GT ISZERO PUSH2 0x1FA6 JUMPI PUSH1 0x40 PUSH9 0x1000000000000000B DUP3 MUL SWAP1 SHR SWAP1 POP JUMPDEST PUSH0 PUSH1 0x8 DUP4 AND GT ISZERO PUSH2 0x1FC4 JUMPI PUSH1 0x40 PUSH9 0x10000000000000006 DUP3 MUL SWAP1 SHR SWAP1 POP JUMPDEST PUSH0 PUSH1 0x4 DUP4 AND GT ISZERO PUSH2 0x1FE2 JUMPI PUSH1 0x40 PUSH9 0x10000000000000003 DUP3 MUL SWAP1 SHR SWAP1 POP JUMPDEST PUSH0 PUSH1 0x2 DUP4 AND GT ISZERO PUSH2 0x2000 JUMPI PUSH1 0x40 PUSH9 0x10000000000000001 DUP3 MUL SWAP1 SHR SWAP1 POP JUMPDEST PUSH0 PUSH1 0x1 DUP4 AND GT ISZERO PUSH2 0x201E JUMPI PUSH1 0x40 PUSH9 0x10000000000000001 DUP3 MUL SWAP1 SHR SWAP1 POP JUMPDEST PUSH8 0xDE0B6B3A7640000 DUP2 MUL SWAP1 POP PUSH1 0x40 DUP3 SWAP1 SHR PUSH1 0xBF SUB DUP2 SWAP1 SHR SWAP1 POP SWAP2 SWAP1 POP JUMP JUMPDEST PUSH0 PUSH17 0x100000000000000000000000000000000 DUP3 LT PUSH2 0x206D JUMPI PUSH1 0x80 DUP3 SWAP1 SHR SWAP2 POP PUSH1 0x80 DUP2 PUSH2 0x206A SWAP2 SWAP1 PUSH2 0x2331 JUMP JUMPDEST SWAP1 POP JUMPDEST PUSH9 0x10000000000000000 DUP3 LT PUSH2 0x2094 JUMPI PUSH1 0x40 DUP3 SWAP1 SHR SWAP2 POP PUSH1 0x40 DUP2 PUSH2 0x2091 SWAP2 SWAP1 PUSH2 0x2331 JUMP JUMPDEST SWAP1 POP JUMPDEST PUSH5 0x100000000 DUP3 LT PUSH2 0x20B7 JUMPI PUSH1 0x20 DUP3 SWAP1 SHR SWAP2 POP PUSH1 0x20 DUP2 PUSH2 0x20B4 SWAP2 SWAP1 PUSH2 0x2331 JUMP JUMPDEST SWAP1 POP JUMPDEST PUSH3 0x10000 DUP3 LT PUSH2 0x20D8 JUMPI PUSH1 0x10 DUP3 SWAP1 SHR SWAP2 POP PUSH1 0x10 DUP2 PUSH2 0x20D5 SWAP2 SWAP1 PUSH2 0x2331 JUMP JUMPDEST SWAP1 POP JUMPDEST PUSH2 0x100 DUP3 LT PUSH2 0x20F8 JUMPI PUSH1 0x8 DUP3 SWAP1 SHR SWAP2 POP PUSH1 0x8 DUP2 PUSH2 0x20F5 SWAP2 SWAP1 PUSH2 0x2331 JUMP JUMPDEST SWAP1 POP JUMPDEST PUSH1 0x10 DUP3 LT PUSH2 0x2117 JUMPI PUSH1 0x4 DUP3 SWAP1 SHR SWAP2 POP PUSH1 0x4 DUP2 PUSH2 0x2114 SWAP2 SWAP1 PUSH2 0x2331 JUMP JUMPDEST SWAP1 POP JUMPDEST PUSH1 0x4 DUP3 LT PUSH2 0x2136 JUMPI PUSH1 0x2 DUP3 SWAP1 SHR SWAP2 POP PUSH1 0x2 DUP2 PUSH2 0x2133 SWAP2 SWAP1 PUSH2 0x2331 JUMP JUMPDEST SWAP1 POP JUMPDEST PUSH1 0x2 DUP3 LT PUSH2 0x214E JUMPI PUSH1 0x1 DUP2 PUSH2 0x214B SWAP2 SWAP1 PUSH2 0x2331 JUMP JUMPDEST SWAP1 POP JUMPDEST SWAP2 SWAP1 POP JUMP JUMPDEST PUSH0 DUP1 REVERT JUMPDEST PUSH0 DUP2 SWAP1 POP SWAP2 SWAP1 POP JUMP JUMPDEST PUSH2 0x2169 DUP2 PUSH2 0x2157 JUMP JUMPDEST DUP2 EQ PUSH2 0x2173 JUMPI PUSH0 DUP1 REVERT JUMPDEST POP JUMP JUMPDEST PUSH0 DUP2 CALLDATALOAD SWAP1 POP PUSH2 0x2184 DUP2 PUSH2 0x2160 JUMP JUMPDEST SWAP3 SWAP2 POP POP JUMP JUMPDEST PUSH0 PUSH1 0x20 DUP3 DUP5 SUB SLT ISZERO PUSH2 0x219F JUMPI PUSH2 0x219E PUSH2 0x2153 JUMP JUMPDEST JUMPDEST PUSH0 PUSH2 0x21AC DUP5 DUP3 DUP6 ADD PUSH2 0x2176 JUMP JUMPDEST SWAP2 POP POP SWAP3 SWAP2 POP POP JUMP JUMPDEST PUSH0 PUSH20 0xFFFFFFFFFFFFFFFFFFFFFFFFFFFFFFFFFFFFFFFF DUP3 AND SWAP1 POP SWAP2 SWAP1 POP JUMP JUMPDEST PUSH0 PUSH2 0x21DE DUP3 PUSH2 0x21B5 JUMP JUMPDEST SWAP1 POP SWAP2 SWAP1 POP JUMP JUMPDEST PUSH2 0x21EE DUP2 PUSH2 0x21D4 JUMP JUMPDEST DUP2 EQ PUSH2 0x21F8 JUMPI PUSH0 DUP1 REVERT JUMPDEST POP JUMP JUMPDEST PUSH0 DUP2 CALLDATALOAD SWAP1 POP PUSH2 0x2209 DUP2 PUSH2 0x21E5 JUMP JUMPDEST SWAP3 SWAP2 POP POP JUMP JUMPDEST PUSH0 PUSH1 0x20 DUP3 DUP5 SUB SLT ISZERO PUSH2 0x2224 JUMPI PUSH2 0x2223 PUSH2 0x2153 JUMP JUMPDEST JUMPDEST PUSH0 PUSH2 0x2231 DUP5 DUP3 DUP6 ADD PUSH2 0x21FB JUMP JUMPDEST SWAP2 POP POP SWAP3 SWAP2 POP POP JUMP JUMPDEST PUSH2 0x2243 DUP2 PUSH2 0x2157 JUMP JUMPDEST DUP3 MSTORE POP POP JUMP JUMPDEST PUSH0 PUSH1 0x80 DUP3 ADD SWAP1 POP PUSH2 0x225C PUSH0 DUP4 ADD DUP8 PUSH2 0x223A JUMP JUMPDEST PUSH2 0x2269 PUSH1 0x20 DUP4 ADD DUP7 PUSH2 0x223A JUMP JUMPDEST PUSH2 0x2276 PUSH1 0x40 DUP4 ADD DUP6 PUSH2 0x223A JUMP JUMPDEST PUSH2 0x2283 PUSH1 0x60 DUP4 ADD DUP5 PUSH2 0x223A JUMP JUMPDEST SWAP6 SWAP5 POP POP POP POP POP JUMP JUMPDEST PUSH0 DUP3 DUP3 MSTORE PUSH1 0x20 DUP3 ADD SWAP1 POP SWAP3 SWAP2 POP POP JUMP JUMPDEST PUSH32 0x4D75737420737570706C79206174206C65617374203120746F6B656E00000000 PUSH0 DUP3 ADD MSTORE POP JUMP JUMPDEST PUSH0 PUSH2 0x22D0 PUSH1 0x1C DUP4 PUSH2 0x228C JUMP JUMPDEST SWAP2 POP PUSH2 0x22DB DUP3 PUSH2 0x229C JUMP JUMPDEST PUSH1 0x20 DUP3 ADD SWAP1 POP SWAP2 SWAP1 POP JUMP JUMPDEST PUSH0 PUSH1 0x20 DUP3 ADD SWAP1 POP DUP2 DUP2 SUB PUSH0 DUP4 ADD MSTORE PUSH2 0x22FD DUP2 PUSH2 0x22C4 JUMP JUMPDEST SWAP1 POP SWAP2 SWAP1 POP JUMP JUMPDEST PUSH32 0x4E487B7100000000000000000000000000000000000000000000000000000000 PUSH0 MSTORE PUSH1 0x11 PUSH1 0x4 MSTORE PUSH1 0x24 PUSH0 REVERT JUMPDEST PUSH0 PUSH2 0x233B DUP3 PUSH2 0x2157 JUMP JUMPDEST SWAP2 POP PUSH2 0x2346 DUP4 PUSH2 0x2157 JUMP JUMPDEST SWAP3 POP DUP3 DUP3 ADD SWAP1 POP DUP1 DUP3 GT ISZERO PUSH2 0x235E JUMPI PUSH2 0x235D PUSH2 0x2304 JUMP JUMPDEST JUMPDEST SWAP3 SWAP2 POP POP JUMP JUMPDEST PUSH0 PUSH1 0x20 DUP3 ADD SWAP1 POP PUSH2 0x2377 PUSH0 DUP4 ADD DUP5 PUSH2 0x223A JUMP JUMPDEST SWAP3 SWAP2 POP POP JUMP JUMPDEST PUSH32 0x4E6F20746F6B656E20746F207769746864726177000000000000000000000000 PUSH0 DUP3 ADD MSTORE POP JUMP JUMPDEST PUSH0 PUSH2 0x23B1 PUSH1 0x14 DUP4 PUSH2 0x228C JUMP JUMPDEST SWAP2 POP PUSH2 0x23BC DUP3 PUSH2 0x237D JUMP JUMPDEST PUSH1 0x20 DUP3 ADD SWAP1 POP SWAP2 SWAP1 POP JUMP JUMPDEST PUSH0 PUSH1 0x20 DUP3 ADD SWAP1 POP DUP2 DUP2 SUB PUSH0 DUP4 ADD MSTORE PUSH2 0x23DE DUP2 PUSH2 0x23A5 JUMP JUMPDEST SWAP1 POP SWAP2 SWAP1 POP JUMP JUMPDEST PUSH32 0x496E73756666696369656E7420737570706C792062616C616E63650000000000 PUSH0 DUP3 ADD MSTORE POP JUMP JUMPDEST PUSH0 PUSH2 0x2419 PUSH1 0x1B DUP4 PUSH2 0x228C JUMP JUMPDEST SWAP2 POP PUSH2 0x2424 DUP3 PUSH2 0x23E5 JUMP JUMPDEST PUSH1 0x20 DUP3 ADD SWAP1 POP SWAP2 SWAP1 POP JUMP JUMPDEST PUSH0 PUSH1 0x20 DUP3 ADD SWAP1 POP DUP2 DUP2 SUB PUSH0 DUP4 ADD MSTORE PUSH2 0x2446 DUP2 PUSH2 0x240D JUMP JUMPDEST SWAP1 POP SWAP2 SWAP1 POP JUMP JUMPDEST PUSH32 0x496E73756666696369656E742062616C616E636520696E20706F6F6C00000000 PUSH0 DUP3 ADD MSTORE POP JUMP JUMPDEST PUSH0 PUSH2 0x2481 PUSH1 0x1C DUP4 PUSH2 0x228C JUMP JUMPDEST SWAP2 POP PUSH2 0x248C DUP3 PUSH2 0x244D JUMP JUMPDEST PUSH1 0x20 DUP3 ADD SWAP1 POP SWAP2 SWAP1 POP JUMP JUMPDEST PUSH0 PUSH1 0x20 DUP3 ADD SWAP1 POP DUP2 DUP2 SUB PUSH0 DUP4 ADD MSTORE PUSH2 0x24AE DUP2 PUSH2 0x2475 JUMP JUMPDEST SWAP1 POP SWAP2 SWAP1 POP JUMP JUMPDEST PUSH0 PUSH2 0x24BF DUP3 PUSH2 0x2157 JUMP JUMPDEST SWAP2 POP PUSH2 0x24CA DUP4 PUSH2 0x2157 JUMP JUMPDEST SWAP3 POP DUP3 DUP3 SUB SWAP1 POP DUP2 DUP2 GT ISZERO PUSH2 0x24E2 JUMPI PUSH2 0x24E1 PUSH2 0x2304 JUMP JUMPDEST JUMPDEST SWAP3 SWAP2 POP POP JUMP JUMPDEST PUSH32 0x426F72726F7765722063616E6E6F74206265206C697175696461746564000000 PUSH0 DUP3 ADD MSTORE POP JUMP JUMPDEST PUSH0 PUSH2 0x251C PUSH1 0x1D DUP4 PUSH2 0x228C JUMP JUMPDEST SWAP2 POP PUSH2 0x2527 DUP3 PUSH2 0x24E8 JUMP JUMPDEST PUSH1 0x20 DUP3 ADD SWAP1 POP SWAP2 SWAP1 POP JUMP JUMPDEST PUSH0 PUSH1 0x20 DUP3 ADD SWAP1 POP DUP2 DUP2 SUB PUSH0 DUP4 ADD MSTORE PUSH2 0x2549 DUP2 PUSH2 0x2510 JUMP JUMPDEST SWAP1 POP SWAP2 SWAP1 POP JUMP JUMPDEST PUSH32 0x43616E6E6F742072656D6F7665203020636F6C6C61746572616C000000000000 PUSH0 DUP3 ADD MSTORE POP JUMP JUMPDEST PUSH0 PUSH2 0x2584 PUSH1 0x1A DUP4 PUSH2 0x228C JUMP JUMPDEST SWAP2 POP PUSH2 0x258F DUP3 PUSH2 0x2550 JUMP JUMPDEST PUSH1 0x20 DUP3 ADD SWAP1 POP SWAP2 SWAP1 POP JUMP JUMPDEST PUSH0 PUSH1 0x20 DUP3 ADD SWAP1 POP DUP2 DUP2 SUB PUSH0 DUP4 ADD MSTORE PUSH2 0x25B1 DUP2 PUSH2 0x2578 JUMP JUMPDEST SWAP1 POP SWAP2 SWAP1 POP JUMP JUMPDEST PUSH32 0x496E73756666696369656E7420436F6C6C61746572616C000000000000000000 PUSH0 DUP3 ADD MSTORE POP JUMP JUMPDEST PUSH0 PUSH2 0x25EC PUSH1 0x17 DUP4 PUSH2 0x228C JUMP JUMPDEST SWAP2 POP PUSH2 0x25F7 DUP3 PUSH2 0x25B8 JUMP JUMPDEST PUSH1 0x20 DUP3 ADD SWAP1 POP SWAP2 SWAP1 POP JUMP JUMPDEST PUSH0 PUSH1 0x20 DUP3 ADD SWAP1 POP DUP2 DUP2 SUB PUSH0 DUP4 ADD MSTORE PUSH2 0x2619 DUP2 PUSH2 0x25E0 JUMP JUMPDEST SWAP1 POP SWAP2 SWAP1 POP JUMP JUMPDEST PUSH0 PUSH2 0x262A DUP3 PUSH2 0x2157 JUMP JUMPDEST SWAP2 POP PUSH2 0x2635 DUP4 PUSH2 0x2157 JUMP JUMPDEST SWAP3 POP DUP3 DUP3 MUL PUSH2 0x2643 DUP2 PUSH2 0x2157 JUMP JUMPDEST SWAP2 POP DUP3 DUP3 DIV DUP5 EQ DUP4 ISZERO OR PUSH2 0x265A JUMPI PUSH2 0x2659 PUSH2 0x2304 JUMP JUMPDEST JUMPDEST POP SWAP3 SWAP2 POP POP JUMP JUMPDEST PUSH32 0x4E487B7100000000000000000000000000000000000000000000000000000000 PUSH0 MSTORE PUSH1 0x12 PUSH1 0x4 MSTORE PUSH1 0x24 PUSH0 REVERT JUMPDEST PUSH0 PUSH2 0x2698 DUP3 PUSH2 0x2157 JUMP JUMPDEST SWAP2 POP PUSH2 0x26A3 DUP4 PUSH2 0x2157 JUMP JUMPDEST SWAP3 POP DUP3 PUSH2 0x26B3 JUMPI PUSH2 0x26B2 PUSH2 0x2661 JUMP JUMPDEST JUMPDEST DUP3 DUP3 DIV SWAP1 POP SWAP3 SWAP2 POP POP JUMP JUMPDEST PUSH32 0x436F6C6C61746572616C2072656D6F76616C20776F756C642076696F6C617465 PUSH0 DUP3 ADD MSTORE PUSH32 0x20746865206C656E64696E672070726F746F636F6C0000000000000000000000 PUSH1 0x20 DUP3 ADD MSTORE POP JUMP JUMPDEST PUSH0 PUSH2 0x2718 PUSH1 0x35 DUP4 PUSH2 0x228C JUMP JUMPDEST SWAP2 POP PUSH2 0x2723 DUP3 PUSH2 0x26BE JUMP JUMPDEST PUSH1 0x40 DUP3 ADD SWAP1 POP SWAP2 SWAP1 POP JUMP JUMPDEST PUSH0 PUSH1 0x20 DUP3 ADD SWAP1 POP DUP2 DUP2 SUB PUSH0 DUP4 ADD MSTORE PUSH2 0x2745 DUP2 PUSH2 0x270C JUMP JUMPDEST SWAP1 POP SWAP2 SWAP1 POP JUMP JUMPDEST PUSH32 0x43616E6E6F74207265706179203020616D6F756E740000000000000000000000 PUSH0 DUP3 ADD MSTORE POP JUMP JUMPDEST PUSH0 PUSH2 0x2780 PUSH1 0x15 DUP4 PUSH2 0x228C JUMP JUMPDEST SWAP2 POP PUSH2 0x278B DUP3 PUSH2 0x274C JUMP JUMPDEST PUSH1 0x20 DUP3 ADD SWAP1 POP SWAP2 SWAP1 POP JUMP JUMPDEST PUSH0 PUSH1 0x20 DUP3 ADD SWAP1 POP DUP2 DUP2 SUB PUSH0 DUP4 ADD MSTORE PUSH2 0x27AD DUP2 PUSH2 0x2774 JUMP JUMPDEST SWAP1 POP SWAP2 SWAP1 POP JUMP JUMPDEST PUSH32 0x43616E6E6F7420616464203020636F6C6C61746572616C000000000000000000 PUSH0 DUP3 ADD MSTORE POP JUMP JUMPDEST PUSH0 PUSH2 0x27E8 PUSH1 0x17 DUP4 PUSH2 0x228C JUMP JUMPDEST SWAP2 POP PUSH2 0x27F3 DUP3 PUSH2 0x27B4 JUMP JUMPDEST PUSH1 0x20 DUP3 ADD SWAP1 POP SWAP2 SWAP1 POP JUMP JUMPDEST PUSH0 PUSH1 0x20 DUP3 ADD SWAP1 POP DUP2 DUP2 SUB PUSH0 DUP4 ADD MSTORE PUSH2 0x2815 DUP2 PUSH2 0x27DC JUMP JUMPDEST SWAP1 POP SWAP2 SWAP1 POP JUMP JUMPDEST PUSH32 0x43616E6E6F7420626F72726F77203020616D6F756E7400000000000000000000 PUSH0 DUP3 ADD MSTORE POP JUMP JUMPDEST PUSH0 PUSH2 0x2850 PUSH1 0x16 DUP4 PUSH2 0x228C JUMP JUMPDEST SWAP2 POP PUSH2 0x285B DUP3 PUSH2 0x281C JUMP JUMPDEST PUSH1 0x20 DUP3 ADD SWAP1 POP SWAP2 SWAP1 POP JUMP JUMPDEST PUSH0 PUSH1 0x20 DUP3 ADD SWAP1 POP DUP2 DUP2 SUB PUSH0 DUP4 ADD MSTORE PUSH2 0x287D DUP2 PUSH2 0x2844 JUMP JUMPDEST SWAP1 POP SWAP2 SWAP1 POP JUMP JUMPDEST PUSH32 0x426F72726F7720616D6F756E74206578636565647320636F6C6C61746572616C PUSH0 DUP3 ADD MSTORE PUSH32 0x20726174696F0000000000000000000000000000000000000000000000000000 PUSH1 0x20 DUP3 ADD MSTORE POP JUMP JUMPDEST PUSH0 PUSH2 0x28DE PUSH1 0x26 DUP4 PUSH2 0x228C JUMP JUMPDEST SWAP2 POP PUSH2 0x28E9 DUP3 PUSH2 0x2884 JUMP JUMPDEST PUSH1 0x40 DUP3 ADD SWAP1 POP SWAP2 SWAP1 POP JUMP JUMPDEST PUSH0 PUSH1 0x20 DUP3 ADD SWAP1 POP DUP2 DUP2 SUB PUSH0 DUP4 ADD MSTORE PUSH2 0x290B DUP2 PUSH2 0x28D2 JUMP JUMPDEST SWAP1 POP SWAP2 SWAP1 POP JUMP JUMPDEST PUSH32 0x496E73756666696369656E74206C697175696469747920696E20636F6E747261 PUSH0 DUP3 ADD MSTORE PUSH32 0x6374000000000000000000000000000000000000000000000000000000000000 PUSH1 0x20 DUP3 ADD MSTORE POP JUMP JUMPDEST PUSH0 PUSH2 0x296C PUSH1 0x22 DUP4 PUSH2 0x228C JUMP JUMPDEST SWAP2 POP PUSH2 0x2977 DUP3 PUSH2 0x2912 JUMP JUMPDEST PUSH1 0x40 DUP3 ADD SWAP1 POP SWAP2 SWAP1 POP JUMP JUMPDEST PUSH0 PUSH1 0x20 DUP3 ADD SWAP1 POP DUP2 DUP2 SUB PUSH0 DUP4 ADD MSTORE PUSH2 0x2999 DUP2 PUSH2 0x2960 JUMP JUMPDEST SWAP1 POP SWAP2 SWAP1 POP JUMP INVALID LOG2 PUSH5 0x6970667358 0x22 SLT KECCAK256 0x23 CALLVALUE 0x4B 0x2D SMOD 0xF8 0xD9 0xBD SHR BLOCKHASH 0xA6 0xD6 0xC4 CODESIZE 0xB8 0x23 PUSH31 0xF2183FE5D90CCDA09BAAB0DE4777DB64736F6C634300081A00330000000000 "
		},
		"gasEstimates": {
			"creation": {
				"codeDepositCost": "2142000",
				"executionCost": "2278",
				"totalCost": "2144278"
			},
			"external": {
				"addCollateral()": "infinite",
				"borrow(uint256)": "infinite",
				"getAccountInfo(address)": "infinite",
				"getProtocolStatus()": "infinite",
				"liquidate(address)": "infinite",
				"removeCollateral(uint256)": "infinite",
				"repay()": "infinite",
				"supply()": "infinite",
				"withdraw(uint256)": "infinite"
			},
			"internal": {
				"canLiquidate(address)": "infinite",
				"updateInterest(address)": "infinite"
			}
		},
		"methodIdentifiers": {
			"addCollateral()": "9e816999",
			"borrow(uint256)": "c5ebeaec",
			"getAccountInfo(address)": "7b510fe8",
			"getProtocolStatus()": "5fd7f162",
			"liquidate(address)": "2f865568",
			"removeCollateral(uint256)": "3237c158",
			"repay()": "402d8883",
			"supply()": "047fc9aa",
			"withdraw(uint256)": "2e1a7d4d"
		}
	},
	"abi": [
		{
			"inputs": [
				{
					"internalType": "uint256",
					"name": "x",
					"type": "uint256"
				}
			],
			"name": "PRBMathUD60x18__Exp2InputTooBig",
			"type": "error"
		},
		{
			"inputs": [
				{
					"internalType": "uint256",
					"name": "x",
					"type": "uint256"
				}
			],
			"name": "PRBMathUD60x18__LogInputTooSmall",
			"type": "error"
		},
		{
			"inputs": [
				{
					"internalType": "uint256",
					"name": "prod1",
					"type": "uint256"
				}
			],
			"name": "PRBMath__MulDivFixedPointOverflow",
			"type": "error"
		},
		{
			"anonymous": false,
			"inputs": [
				{
					"indexed": true,
					"internalType": "address",
					"name": "user",
					"type": "address"
				},
				{
					"indexed": false,
					"internalType": "uint256",
					"name": "amount",
					"type": "uint256"
				}
			],
			"name": "Borrowed",
			"type": "event"
		},
		{
			"anonymous": false,
			"inputs": [
				{
					"indexed": true,
					"internalType": "address",
					"name": "user",
					"type": "address"
				},
				{
					"indexed": false,
					"internalType": "uint256",
					"name": "amount",
					"type": "uint256"
				}
			],
			"name": "CollateralAdded",
			"type": "event"
		},
		{
			"anonymous": false,
			"inputs": [
				{
					"indexed": true,
					"internalType": "address",
					"name": "user",
					"type": "address"
				},
				{
					"indexed": false,
					"internalType": "uint256",
					"name": "amount",
					"type": "uint256"
				}
			],
			"name": "CollateralRemoved",
			"type": "event"
		},
		{
			"anonymous": false,
			"inputs": [
				{
					"indexed": true,
					"internalType": "address",
					"name": "user",
					"type": "address"
				},
				{
					"indexed": false,
					"internalType": "uint256",
					"name": "amount",
					"type": "uint256"
				}
			],
			"name": "LiquidationOccurred",
			"type": "event"
		},
		{
			"anonymous": false,
			"inputs": [
				{
					"indexed": true,
					"internalType": "address",
					"name": "user",
					"type": "address"
				},
				{
					"indexed": false,
					"internalType": "uint256",
					"name": "amount",
					"type": "uint256"
				}
			],
			"name": "Repaid",
			"type": "event"
		},
		{
			"anonymous": false,
			"inputs": [
				{
					"indexed": true,
					"internalType": "address",
					"name": "user",
					"type": "address"
				},
				{
					"indexed": false,
					"internalType": "uint256",
					"name": "amount",
					"type": "uint256"
				}
			],
			"name": "Supplied",
			"type": "event"
		},
		{
			"anonymous": false,
			"inputs": [
				{
					"indexed": true,
					"internalType": "address",
					"name": "user",
					"type": "address"
				},
				{
					"indexed": false,
					"internalType": "uint256",
					"name": "amount",
					"type": "uint256"
				}
			],
			"name": "Withdrawn",
			"type": "event"
		},
		{
			"inputs": [],
			"name": "addCollateral",
			"outputs": [],
			"stateMutability": "payable",
			"type": "function"
		},
		{
			"inputs": [
				{
					"internalType": "uint256",
					"name": "amount",
					"type": "uint256"
				}
			],
			"name": "borrow",
			"outputs": [],
			"stateMutability": "nonpayable",
			"type": "function"
		},
		{
			"inputs": [
				{
					"internalType": "address",
					"name": "user",
					"type": "address"
				}
			],
			"name": "getAccountInfo",
			"outputs": [
				{
					"internalType": "uint256",
					"name": "supplyBalance",
					"type": "uint256"
				},
				{
					"internalType": "uint256",
					"name": "borrowBalance",
					"type": "uint256"
				},
				{
					"internalType": "uint256",
					"name": "collateralAmount",
					"type": "uint256"
				},
				{
					"internalType": "uint256",
					"name": "borrowLimit",
					"type": "uint256"
				}
			],
			"stateMutability": "view",
			"type": "function"
		},
		{
			"inputs": [],
			"name": "getProtocolStatus",
			"outputs": [
				{
					"internalType": "uint256",
					"name": "_totalSupplied",
					"type": "uint256"
				},
				{
					"internalType": "uint256",
					"name": "_totalBorrowed",
					"type": "uint256"
				},
				{
					"internalType": "uint256",
					"name": "_availableLiquidity",
					"type": "uint256"
				},
				{
					"internalType": "uint256",
					"name": "_utilizationRate",
					"type": "uint256"
				}
			],
			"stateMutability": "view",
			"type": "function"
		},
		{
			"inputs": [
				{
					"internalType": "address",
					"name": "borrower",
					"type": "address"
				}
			],
			"name": "liquidate",
			"outputs": [],
			"stateMutability": "nonpayable",
			"type": "function"
		},
		{
			"inputs": [
				{
					"internalType": "uint256",
					"name": "amount",
					"type": "uint256"
				}
			],
			"name": "removeCollateral",
			"outputs": [],
			"stateMutability": "nonpayable",
			"type": "function"
		},
		{
			"inputs": [],
			"name": "repay",
			"outputs": [],
			"stateMutability": "payable",
			"type": "function"
		},
		{
			"inputs": [],
			"name": "supply",
			"outputs": [],
			"stateMutability": "payable",
			"type": "function"
		},
		{
			"inputs": [
				{
					"internalType": "uint256",
					"name": "amount",
					"type": "uint256"
				}
			],
			"name": "withdraw",
			"outputs": [],
			"stateMutability": "nonpayable",
			"type": "function"
		}
	]
}